{"abi":[{"type":"constructor","inputs":[{"name":"_slashingRegistryCoordinator","type":"address","internalType":"contract ISlashingRegistryCoordinator"}],"stateMutability":"nonpayable"},{"type":"function","name":"getOperatorSocket","inputs":[{"name":"_operatorId","type":"bytes32","internalType":"bytes32"}],"outputs":[{"name":"","type":"string","internalType":"string"}],"stateMutability":"view"},{"type":"function","name":"operatorIdToSocket","inputs":[{"name":"","type":"bytes32","internalType":"bytes32"}],"outputs":[{"name":"","type":"string","internalType":"string"}],"stateMutability":"view"},{"type":"function","name":"setOperatorSocket","inputs":[{"name":"_operatorId","type":"bytes32","internalType":"bytes32"},{"name":"_socket","type":"string","internalType":"string"}],"outputs":[],"stateMutability":"nonpayable"},{"type":"function","name":"slashingRegistryCoordinator","inputs":[],"outputs":[{"name":"","type":"address","internalType":"address"}],"stateMutability":"view"},{"type":"error","name":"OnlySlashingRegistryCoordinator","inputs":[]}],"bytecode":{"object":"0x60a034606e57601f61048238819003918201601f19168301916001600160401b03831184841017607257808492602094604052833981010312606e57516001600160a01b03811690819003606e576080526040516103fb9081610087823960805181818160c101526102390152f35b5f80fd5b634e487b7160e01b5f52604160045260245ffdfe60806040526004361015610011575f80fd5b5f3560e01c806310bea0d714610268578063af65fdfc14610268578063cf1d6b42146102245763f043367e14610045575f80fd5b346102205760403660031901126102205760243567ffffffffffffffff8111610220573660238201121561022057806004013567ffffffffffffffff81116101fd576040519161009f601f8301601f191660200184610303565b818352366024838301011161022057815f9260246020930183860137830101527f00000000000000000000000000000000000000000000000000000000000000006001600160a01b03163303610211576004355f525f60205260405f20815167ffffffffffffffff81116101fd5761011782546102cb565b601f81116101b8575b50602092601f821160011461015c57928192935f92610151575b50505f19600383901b1c191660019190911b179055005b015190505f8061013a565b601f19821693835f52805f20915f5b8681106101a05750836001959610610188575b505050811b019055005b01515f1960f88460031b161c191690555f808061017e565b9192602060018192868501518155019401920161016b565b825f5260205f20601f830160051c810191602084106101f3575b601f0160051c01905b8181106101e85750610120565b5f81556001016101db565b90915081906101d2565b634e487b7160e01b5f52604160045260245ffd5b632c01b20560e21b5f5260045ffd5b5f80fd5b34610220575f366003190112610220576040517f00000000000000000000000000000000000000000000000000000000000000006001600160a01b03168152602090f35b34610220576020366003190112610220576004355f525f60205261029d61029160405f20610325565b604051918291826102a1565b0390f35b602060409281835280519182918282860152018484015e5f828201840152601f01601f1916010190565b90600182811c921680156102f9575b60208310146102e557565b634e487b7160e01b5f52602260045260245ffd5b91607f16916102da565b90601f8019910116810190811067ffffffffffffffff8211176101fd57604052565b9060405191825f825492610338846102cb565b80845293600181169081156103a3575060011461035f575b5061035d92500383610303565b565b90505f9291925260205f20905f915b81831061038757505090602061035d928201015f610350565b602091935080600191548385890101520191019091849261036e565b90506020925061035d94915060ff191682840152151560051b8201015f61035056fea264697066735822122094bcad7ccc71223e2df723302e29c2c9451029ea70c41227c570f7c87f373a1064736f6c634300081b0033","linkReferences":{}},"methodIdentifiers":{"getOperatorSocket(bytes32)":"10bea0d7","operatorIdToSocket(bytes32)":"af65fdfc","setOperatorSocket(bytes32,string)":"f043367e","slashingRegistryCoordinator()":"cf1d6b42"},"id":106}