{"abi":[{"type":"constructor","inputs":[{"name":"_strategyManager","type":"address","internalType":"contract IStrategyManager"},{"name":"_pauserRegistry","type":"address","internalType":"contract IPauserRegistry"},{"name":"_version","type":"string","internalType":"string"}],"stateMutability":"nonpayable"},{"type":"function","name":"blacklistTokens","inputs":[{"name":"tokens","type":"address[]","internalType":"contract IERC20[]"}],"outputs":[],"stateMutability":"nonpayable"},{"type":"function","name":"deployNewStrategy","inputs":[{"name":"token","type":"address","internalType":"contract IERC20"}],"outputs":[{"name":"newStrategy","type":"address","internalType":"contract IStrategy"}],"stateMutability":"nonpayable"},{"type":"function","name":"deployedStrategies","inputs":[{"name":"","type":"address","internalType":"contract IERC20"}],"outputs":[{"name":"","type":"address","internalType":"contract IStrategy"}],"stateMutability":"view"},{"type":"function","name":"initialize","inputs":[{"name":"_initialOwner","type":"address","internalType":"address"},{"name":"_initialPausedStatus","type":"uint256","internalType":"uint256"},{"name":"_strategyBeacon","type":"address","internalType":"contract IBeacon"}],"outputs":[],"stateMutability":"nonpayable"},{"type":"function","name":"isBlacklisted","inputs":[{"name":"","type":"address","internalType":"contract IERC20"}],"outputs":[{"name":"","type":"bool","internalType":"bool"}],"stateMutability":"view"},{"type":"function","name":"owner","inputs":[],"outputs":[{"name":"","type":"address","internalType":"address"}],"stateMutability":"view"},{"type":"function","name":"pause","inputs":[{"name":"newPausedStatus","type":"uint256","internalType":"uint256"}],"outputs":[],"stateMutability":"nonpayable"},{"type":"function","name":"pauseAll","inputs":[],"outputs":[],"stateMutability":"nonpayable"},{"type":"function","name":"paused","inputs":[{"name":"index","type":"uint8","internalType":"uint8"}],"outputs":[{"name":"","type":"bool","internalType":"bool"}],"stateMutability":"view"},{"type":"function","name":"paused","inputs":[],"outputs":[{"name":"","type":"uint256","internalType":"uint256"}],"stateMutability":"view"},{"type":"function","name":"pauserRegistry","inputs":[],"outputs":[{"name":"","type":"address","internalType":"contract IPauserRegistry"}],"stateMutability":"view"},{"type":"function","name":"removeStrategiesFromWhitelist","inputs":[{"name":"strategiesToRemoveFromWhitelist","type":"address[]","internalType":"contract IStrategy[]"}],"outputs":[],"stateMutability":"nonpayable"},{"type":"function","name":"renounceOwnership","inputs":[],"outputs":[],"stateMutability":"nonpayable"},{"type":"function","name":"strategyBeacon","inputs":[],"outputs":[{"name":"","type":"address","internalType":"contract IBeacon"}],"stateMutability":"view"},{"type":"function","name":"strategyManager","inputs":[],"outputs":[{"name":"","type":"address","internalType":"contract IStrategyManager"}],"stateMutability":"view"},{"type":"function","name":"transferOwnership","inputs":[{"name":"newOwner","type":"address","internalType":"address"}],"outputs":[],"stateMutability":"nonpayable"},{"type":"function","name":"unpause","inputs":[{"name":"newPausedStatus","type":"uint256","internalType":"uint256"}],"outputs":[],"stateMutability":"nonpayable"},{"type":"function","name":"version","inputs":[],"outputs":[{"name":"","type":"string","internalType":"string"}],"stateMutability":"view"},{"type":"function","name":"whitelistStrategies","inputs":[{"name":"strategiesToWhitelist","type":"address[]","internalType":"contract IStrategy[]"}],"outputs":[],"stateMutability":"nonpayable"},{"type":"event","name":"Initialized","inputs":[{"name":"version","type":"uint8","indexed":false,"internalType":"uint8"}],"anonymous":false},{"type":"event","name":"OwnershipTransferred","inputs":[{"name":"previousOwner","type":"address","indexed":true,"internalType":"address"},{"name":"newOwner","type":"address","indexed":true,"internalType":"address"}],"anonymous":false},{"type":"event","name":"Paused","inputs":[{"name":"account","type":"address","indexed":true,"internalType":"address"},{"name":"newPausedStatus","type":"uint256","indexed":false,"internalType":"uint256"}],"anonymous":false},{"type":"event","name":"StrategyBeaconModified","inputs":[{"name":"previousBeacon","type":"address","indexed":false,"internalType":"contract IBeacon"},{"name":"newBeacon","type":"address","indexed":false,"internalType":"contract IBeacon"}],"anonymous":false},{"type":"event","name":"StrategySetForToken","inputs":[{"name":"token","type":"address","indexed":false,"internalType":"contract IERC20"},{"name":"strategy","type":"address","indexed":false,"internalType":"contract IStrategy"}],"anonymous":false},{"type":"event","name":"TokenBlacklisted","inputs":[{"name":"token","type":"address","indexed":false,"internalType":"contract IERC20"}],"anonymous":false},{"type":"event","name":"Unpaused","inputs":[{"name":"account","type":"address","indexed":true,"internalType":"address"},{"name":"newPausedStatus","type":"uint256","indexed":false,"internalType":"uint256"}],"anonymous":false},{"type":"error","name":"AlreadyBlacklisted","inputs":[]},{"type":"error","name":"BlacklistedToken","inputs":[]},{"type":"error","name":"CurrentlyPaused","inputs":[]},{"type":"error","name":"InputAddressZero","inputs":[]},{"type":"error","name":"InvalidNewPausedStatus","inputs":[]},{"type":"error","name":"InvalidShortString","inputs":[]},{"type":"error","name":"OnlyPauser","inputs":[]},{"type":"error","name":"OnlyUnpauser","inputs":[]},{"type":"error","name":"StrategyAlreadyExists","inputs":[]},{"type":"error","name":"StringTooLong","inputs":[{"name":"str","type":"string","internalType":"string"}]}],"bytecode":{"object":"0x60e06040523461023b57611a5f8038038061001981610253565b928339810160608282031261023b578151916001600160a01b038316830361023b5760208101516001600160a01b0381169182820361023b576040810151906001600160401b03821161023b57019183601f8401121561023b5782516001600160401b03811161023f57610096601f8201601f1916602001610253565b9381855260208501956020838301011161023b57815f926020809301885e850101521561022c57608052601f8151116101f057519051602082106101e0575b1760a05260c05260335460ff8160081c1661018b5760ff80821603610150575b6040516117e690816102798239608051818181610174015281816105c0015281816108990152610b59015260a051816104cb015260c051818181610295015281816104660152818161077e015281816109080152610c0c0152f35b60ff90811916176033557f7f26b83ff96e1f2b6a682f133852f6798a09c465da95921460cefb3847402498602060405160ff8152a15f6100f5565b60405162461bcd60e51b815260206004820152602760248201527f496e697469616c697a61626c653a20636f6e747261637420697320696e697469604482015266616c697a696e6760c81b6064820152608490fd5b5f198260200360031b1b166100d5565b60449060405192839163305a27a960e01b8352602060048401525180918160248501528484015e5f828201840152601f01601f19168101030190fd5b6339b190bb60e11b5f5260045ffd5b5f80fd5b634e487b7160e01b5f52604160045260245ffd5b6040519190601f01601f191682016001600160401b0381118382101761023f5760405256fe60806040526004361015610011575f80fd5b5f3560e01c8063136439dd1461014457806323103c411461013f57806339b70e381461013a57806354fd4d5014610135578063581dfd6514610130578063595c6a671461012b5780635ac86ab7146101265780635c975abb146101215780636b9b62291461011c578063715018a614610117578063886f1195146101125780638da5cb5b1461010d578063b768ebc914610108578063c350a1b514610103578063f0062d9a146100fe578063f2fde38b146100f9578063fabc1cbc146100f4578063fe38b32d146100ef5763fe575a87146100ea575f80fd5b610c5b565b610bf4565b610b30565b610a9f565b610a78565b61097b565b6108f0565b6108c8565b610884565b610829565b610658565b61063b565b610608565b610595565b610551565b6104b9565b610451565b61025c565b346102045760203660031901126102045760043560405163237dfb4760e11b8152336004820152906020826024817f00000000000000000000000000000000000000000000000000000000000000006001600160a01b03165afa9182156101ff576101ce926101ba915f916101d0575b50610cf4565b6101c960995482811614610d0a565b61102a565b005b6101f2915060203d6020116101f8575b6101ea8183610caf565b810190610cd1565b5f6101b4565b503d6101e0565b610ce9565b5f80fd5b9060206003198301126102045760043567ffffffffffffffff81116102045760040182601f820112156102045780359267ffffffffffffffff8411610204576020808301928560051b010111610204579190565b346102045761026a36610208565b61027261105c565b61027b81610d5a565b915f915f5b81811061030d5750505080825261029357005b7f00000000000000000000000000000000000000000000000000000000000000006001600160a01b0316803b15610204576040516316bb16b760e31b8152915f9183918290849082906102e99060048301610e1b565b03925af180156101ff576102f957005b806103075f6101ce93610caf565b80610447565b61035561035061034c61034561032c61032786888a610da0565b610db5565b6001600160a01b03165f90815260026020526040902090565b5460ff1690565b1590565b610dc2565b61037661036961032c610327848688610da0565b805460ff19166001179055565b7f75519c51f39873ec0e27dd3bbc09549e4865a113f505393fb9eab5898f6418b36103c26103a8610327848688610da0565b6040516001600160a01b0390911681529081906020820190565b0390a16103ff6103f26103d9610327848688610da0565b6001600160a01b03165f90815260016020526040902090565b546001600160a01b031690565b6001600160a01b038116610417575b50600101610280565b8461043b6104409261042c600195988a610de5565b6001600160a01b039091169052565b610df9565b939061040e565b5f91031261020457565b34610204575f366003190112610204576040517f00000000000000000000000000000000000000000000000000000000000000006001600160a01b03168152602090f35b805180835260209291819084018484015e5f828201840152601f01601f1916010190565b34610204575f366003190112610204577f000000000000000000000000000000000000000000000000000000000000000060ff8116601f81116105315761052d9160405191610509604084610caf565b60208084528381019190368337835252604051918291602083526020830190610495565b0390f35b632cd44ac360e21b5f5260045ffd5b6001600160a01b0381160361020457565b346102045760203660031901126102045760043561056e81610540565b6001600160a01b039081165f90815260016020908152604091829020549151919092168152f35b34610204575f3660031901126102045760405163237dfb4760e11b81523360048201526020816024817f00000000000000000000000000000000000000000000000000000000000000006001600160a01b03165afa80156101ff57610600915f916101d05750610cf4565b6101ce610ff6565b346102045760203660031901126102045760043560ff81168091036102045760016020911b806099541614604051908152f35b34610204575f366003190112610204576020609954604051908152f35b346102045760203660031901126102045760043561067581610540565b610683600180609954161490565b61081a576106af6106aa61034c6103458460018060a01b03165f52600260205260405f2090565b610e5d565b6001600160a01b038181165f9081526001602052604090206106dc91906106d5906103f2565b1615610e73565b5f546001600160a01b031660405163189acdbd60e31b60208201526001600160a01b038316602480830191909152815290610718604483610caf565b6040519161064d908184019284841067ffffffffffffffff851117610815578493610747936111648639610e89565b03905ff080156101ff576001600160a01b0316906107669082906110b4565b61076e610d38565b9061077c8161042c84610dd8565b7f00000000000000000000000000000000000000000000000000000000000000006001600160a01b0316803b1561020457604051632ef047f960e11b8152925f9184918290849082906107d29060048301610e1b565b03925af19182156101ff5761052d92610801575b506040516001600160a01b0390911681529081906020820190565b806103075f61080f93610caf565b5f6107e6565b610c9b565b63840a48d560e01b5f5260045ffd5b34610204575f3660031901126102045761084161105c565b606680546001600160a01b031981169091555f906001600160a01b03167f8be0079c531659141344cd1fd0a4f28419497f9722a3daafe3b4186f6b6457e08280a3005b34610204575f366003190112610204576040517f00000000000000000000000000000000000000000000000000000000000000006001600160a01b03168152602090f35b34610204575f366003190112610204576066546040516001600160a01b039091168152602090f35b34610204576108fe36610208565b61090661105c565b7f00000000000000000000000000000000000000000000000000000000000000006001600160a01b031691823b1561020457604051632ef047f960e11b8152915f9183916109579160048401610eab565b93818381819703925af180156101ff5761096f575080f35b6101ce91505f90610caf565b346102045760603660031901126102045760043561099881610540565b6109ec6044356024356109aa82610540565b603354936109d060ff600887901c161580968197610a6a575b8115610a4a575b50610ef2565b846109e3600160ff196033541617603355565b610a3157610f55565b6109f257005b610a0261ff001960335416603355565b604051600181527f7f26b83ff96e1f2b6a682f133852f6798a09c465da95921460cefb384740249890602090a1005b610a4561010061ff00196033541617603355565b610f55565b303b15915081610a5c575b505f6109ca565b60ff1660011490505f610a55565b600160ff82161091506109c3565b34610204575f366003190112610204575f546040516001600160a01b039091168152602090f35b3461020457602036600319011261020457600435610abc81610540565b610ac461105c565b6001600160a01b03811615610adc576101ce9061111b565b60405162461bcd60e51b815260206004820152602660248201527f4f776e61626c653a206e6577206f776e657220697320746865207a65726f206160448201526564647265737360d01b6064820152608490fd5b346102045760203660031901126102045760043560405163755b36bd60e11b81526020816004817f00000000000000000000000000000000000000000000000000000000000000006001600160a01b03165afa9081156101ff575f91610bb9575b506001600160a01b03163303610baa576101ce90610fb3565b63794821ff60e01b5f5260045ffd5b90506020813d602011610bec575b81610bd460209383610caf565b810103126102045751610be681610540565b5f610b91565b3d9150610bc7565b3461020457610c0236610208565b610c0a61105c565b7f00000000000000000000000000000000000000000000000000000000000000006001600160a01b031691823b15610204576040516316bb16b760e31b8152915f9183916109579160048401610eab565b3461020457602036600319011261020457600435610c7881610540565b60018060a01b03165f526002602052602060ff60405f2054166040519015158152f35b634e487b7160e01b5f52604160045260245ffd5b90601f8019910116810190811067ffffffffffffffff82111761081557604052565b90816020910312610204575180151581036102045790565b6040513d5f823e3d90fd5b15610cfb57565b631d77d47760e21b5f5260045ffd5b15610d1157565b63c61dca5d60e01b5f5260045ffd5b67ffffffffffffffff81116108155760051b60200190565b60408051909190610d498382610caf565b6001815291601f1901366020840137565b90610d6482610d20565b610d716040519182610caf565b8281528092610d82601f1991610d20565b0190602036910137565b634e487b7160e01b5f52603260045260245ffd5b9190811015610db05760051b0190565b610d8c565b35610dbf81610540565b90565b15610dc957565b63f53de75f60e01b5f5260045ffd5b805115610db05760200190565b8051821015610db05760209160051b010190565b5f198114610e075760010190565b634e487b7160e01b5f52601160045260245ffd5b60206040818301928281528451809452019201905f5b818110610e3e5750505090565b82516001600160a01b0316845260209384019390920191600101610e31565b15610e6457565b63091867bd60e11b5f5260045ffd5b15610e7a57565b63c45546f760e01b5f5260045ffd5b6001600160a01b039091168152604060208201819052610dbf92910190610495565b60208082528101839052604001915f5b818110610ec85750505090565b9091926020806001928635610edc81610540565b848060a01b031681520194019101919091610ebb565b15610ef957565b60405162461bcd60e51b815260206004820152602e60248201527f496e697469616c697a61626c653a20636f6e747261637420697320616c72656160448201526d191e481a5b9a5d1a585b1a5e995960921b6064820152608490fd5b906101c9610f629261111b565b5f54604080516001600160a01b03808416825290931660208401819052927fe21755962a7d7e100b59b9c3e4d4b54085b146313719955efb6a7a25c5c7feee9190a16001600160a01b031916175f55565b610fc4609954198219811614610d0a565b806099556040519081527f3582d1828e26bf56bd801502bc021ac0bc8afb57c826e4986b45593c8fad389c60203392a2565b5f196099556040515f1981527fab40a374bc51de372200a8bc981af8c9ecdc08dfdaef0bb6e09f88f3c616ef3d60203392a2565b806099556040519081527fab40a374bc51de372200a8bc981af8c9ecdc08dfdaef0bb6e09f88f3c616ef3d60203392a2565b6066546001600160a01b0316330361107057565b606460405162461bcd60e51b815260206004820152602060248201527f4f776e61626c653a2063616c6c6572206973206e6f7420746865206f776e65726044820152fd5b7f6852a55230ef089d785bce7ffbf757985de34026df90a87d7b4a6e56f95d251f9160409160018060a01b031690815f526001602052825f209060018060a01b031690816bffffffffffffffffffffffff60a01b82541617905582519182526020820152a1565b606680546001600160a01b039283166001600160a01b0319821681179092559091167f8be0079c531659141344cd1fd0a4f28419497f9722a3daafe3b4186f6b6457e05f80a356fe60808060405261064d8038038091610017828561033c565b83398101906040818303126102335761002f81610373565b602082015190916001600160401b03821161023357019082601f8301121561023357815161005c81610387565b9261006a604051948561033c565b81845260208401946020838301011161023357815f926020809301875e84010152803b156102e957604051635c60da1b60e01b81526001600160a01b03919091169290602081600481875afa90811561023f575f916102af575b503b15610251577fa3f0ad74e5423aebfd80d3ef4346578335a9a72aeaee59ff6cb3582b35133d5080546001600160a01b0319168417905560405192807f1cf3b03a6cf19fa2baba4df148e9dcabedea7f8a5c07840e207e5c089be95d3e5f80a282511580159061024a575b610144575b6040516101f690816104578239f35b83600481602093635c60da1b60e01b82525afa92831561023f575f936101fa575b50915f806101e8946040519461017c60608761033c565b602786527f416464726573733a206c6f772d6c6576656c2064656c65676174652063616c6c6020870152660819985a5b195960ca1b60408701525190845af43d156101f2573d916101cc83610387565b926101da604051948561033c565b83523d5f602085013e6103a2565b505f808080610135565b6060916103a2565b92506020833d602011610237575b816102156020938361033c565b81010312610233575f8061022b6101e895610373565b945050610165565b5f80fd5b3d9150610208565b6040513d5f823e3d90fd5b505f610130565b60405162461bcd60e51b815260206004820152603060248201527f455243313936373a20626561636f6e20696d706c656d656e746174696f6e206960448201526f1cc81b9bdd08184818dbdb9d1c9858dd60821b6064820152608490fd5b90506020813d6020116102e1575b816102ca6020938361033c565b81010312610233576102db90610373565b5f6100c4565b3d91506102bd565b60405162461bcd60e51b815260206004820152602560248201527f455243313936373a206e657720626561636f6e206973206e6f74206120636f6e6044820152641d1c9858dd60da1b6064820152608490fd5b601f909101601f19168101906001600160401b0382119082101761035f57604052565b634e487b7160e01b5f52604160045260245ffd5b51906001600160a01b038216820361023357565b6001600160401b03811161035f57601f01601f191660200190565b9192901561040457508151156103b6575090565b3b156103bf5790565b60405162461bcd60e51b815260206004820152601d60248201527f416464726573733a2063616c6c20746f206e6f6e2d636f6e74726163740000006044820152606490fd5b8251909150156104175750805190602001fd5b604460209160405192839162461bcd60e51b83528160048401528051918291826024860152018484015e5f828201840152601f01601f19168101030190fdfe6080604052366100be577fa3f0ad74e5423aebfd80d3ef4346578335a9a72aeaee59ff6cb3582b35133d5054635c60da1b60e01b608090815260209160049082906001600160a01b03165afa80156100b3575f90156101a3575060203d6020116100ac575b601f19601f820116608001906080821067ffffffffffffffff831117610098576100939160405260800161015e565b6101a3565b634e487b7160e01b5f52604160045260245ffd5b503d610064565b6040513d5f823e3d90fd5b7fa3f0ad74e5423aebfd80d3ef4346578335a9a72aeaee59ff6cb3582b35133d5054604051635c60da1b60e01b815290602090829060049082906001600160a01b03165afa9081156100b3575f91610117575b506101a3565b602091503d8211610156575b601f8201601f191681019167ffffffffffffffff8311828410176100985761015092604052810190610184565b5f610111565b3d9150610123565b602090607f190112610180576080516001600160a01b03811681036101805790565b5f80fd5b9081602091031261018057516001600160a01b03811681036101805790565b5f8091368280378136915af43d5f803e156101bc573d5ff35b3d5ffdfea26469706673582212205bf180e2665976b60717f87a764d80078eec21137c3cdaed7ce3c5b6fbd894f064736f6c634300081b0033a2646970667358221220d29afc0d1c75413868b21df792a83f439cfdc9ecdf58ec01e58b505a2b589eb264736f6c634300081b0033","linkReferences":{}},"methodIdentifiers":{"blacklistTokens(address[])":"23103c41","deployNewStrategy(address)":"6b9b6229","deployedStrategies(address)":"581dfd65","initialize(address,uint256,address)":"c350a1b5","isBlacklisted(address)":"fe575a87","owner()":"8da5cb5b","pause(uint256)":"136439dd","pauseAll()":"595c6a67","paused()":"5c975abb","paused(uint8)":"5ac86ab7","pauserRegistry()":"886f1195","removeStrategiesFromWhitelist(address[])":"fe38b32d","renounceOwnership()":"715018a6","strategyBeacon()":"f0062d9a","strategyManager()":"39b70e38","transferOwnership(address)":"f2fde38b","unpause(uint256)":"fabc1cbc","version()":"54fd4d50","whitelistStrategies(address[])":"b768ebc9"},"id":47}