{"abi":[{"type":"function","name":"getBatchOperatorFromId","inputs":[{"name":"registryCoordinator","type":"address","internalType":"contract ISlashingRegistryCoordinator"},{"name":"operatorIds","type":"bytes32[]","internalType":"bytes32[]"}],"outputs":[{"name":"operators","type":"address[]","internalType":"address[]"}],"stateMutability":"view"},{"type":"function","name":"getBatchOperatorId","inputs":[{"name":"registryCoordinator","type":"address","internalType":"contract ISlashingRegistryCoordinator"},{"name":"operators","type":"address[]","internalType":"address[]"}],"outputs":[{"name":"operatorIds","type":"bytes32[]","internalType":"bytes32[]"}],"stateMutability":"view"},{"type":"function","name":"getCheckSignaturesIndices","inputs":[{"name":"registryCoordinator","type":"address","internalType":"contract ISlashingRegistryCoordinator"},{"name":"referenceBlockNumber","type":"uint32","internalType":"uint32"},{"name":"quorumNumbers","type":"bytes","internalType":"bytes"},{"name":"nonSignerOperatorIds","type":"bytes32[]","internalType":"bytes32[]"}],"outputs":[{"name":"","type":"tuple","internalType":"struct OperatorStateRetriever.CheckSignaturesIndices","components":[{"name":"nonSignerQuorumBitmapIndices","type":"uint32[]","internalType":"uint32[]"},{"name":"quorumApkIndices","type":"uint32[]","internalType":"uint32[]"},{"name":"totalStakeIndices","type":"uint32[]","internalType":"uint32[]"},{"name":"nonSignerStakeIndices","type":"uint32[][]","internalType":"uint32[][]"}]}],"stateMutability":"view"},{"type":"function","name":"getOperatorState","inputs":[{"name":"registryCoordinator","type":"address","internalType":"contract ISlashingRegistryCoordinator"},{"name":"quorumNumbers","type":"bytes","internalType":"bytes"},{"name":"blockNumber","type":"uint32","internalType":"uint32"}],"outputs":[{"name":"","type":"tuple[][]","internalType":"struct OperatorStateRetriever.Operator[][]","components":[{"name":"operator","type":"address","internalType":"address"},{"name":"operatorId","type":"bytes32","internalType":"bytes32"},{"name":"stake","type":"uint96","internalType":"uint96"}]}],"stateMutability":"view"},{"type":"function","name":"getOperatorState","inputs":[{"name":"registryCoordinator","type":"address","internalType":"contract ISlashingRegistryCoordinator"},{"name":"operatorId","type":"bytes32","internalType":"bytes32"},{"name":"blockNumber","type":"uint32","internalType":"uint32"}],"outputs":[{"name":"","type":"uint256","internalType":"uint256"},{"name":"","type":"tuple[][]","internalType":"struct OperatorStateRetriever.Operator[][]","components":[{"name":"operator","type":"address","internalType":"address"},{"name":"operatorId","type":"bytes32","internalType":"bytes32"},{"name":"stake","type":"uint96","internalType":"uint96"}]}],"stateMutability":"view"},{"type":"function","name":"getQuorumBitmapsAtBlockNumber","inputs":[{"name":"registryCoordinator","type":"address","internalType":"contract ISlashingRegistryCoordinator"},{"name":"operatorIds","type":"bytes32[]","internalType":"bytes32[]"},{"name":"blockNumber","type":"uint32","internalType":"uint32"}],"outputs":[{"name":"","type":"uint256[]","internalType":"uint256[]"}],"stateMutability":"view"},{"type":"error","name":"OperatorNotRegistered","inputs":[]}],"bytecode":{"object":"0x608080604052346015576115d9908161001a8239f35b5f80fdfe60806040526004361015610011575f80fd5b5f3560e01c806331b36bd914610c135780633563b0d114610b7a5780634d2b57fe14610a3c5780634f739f741461046d5780635c155662146102b25763cefdc1d41461005b575f80fd5b346102ae5760603660031901126102ae57610074610d67565b60243590610080610e32565b916040926100d78451926100948685610dac565b60018452601f198601366020860137806100ad85610fb4565b5285516361c8a12f60e11b81526001600160a01b0386169490925f9184918291876004840161152a565b0381875afa9182156102a45763ffffffff6100fe6020946064935f91610282575b50610fb4565b511691875195869384926304ec635160e01b8452600484015263ffffffff8716602484015260448301525afa918215610278575f92610247575b506001600160c01b038216915f83805b61020e575061ffff169261015b84610e17565b9361016887519586610dac565b808552610177601f1991610e17565b013660208601375f925f5b8551851080610203575b156101da576001811b84166001600160c01b03166101b3575b6101ae90611595565b610182565b9360016101ae9160ff60f81b8760f81b165f1a6101d0828a611024565b53019490506101a5565b87836101ff6101ea858a8c611035565b83519384938452806020850152830190610e45565b0390f35b50610100811061018c565b5f1981018181116102335761ffff9116911661ffff8114610233576001019080610148565b634e487b7160e01b5f52601160045260245ffd5b61026a91925060203d602011610271575b6102628183610dac565b81019061156a565b905f610138565b503d610258565b84513d5f823e3d90fd5b61029e91503d805f833e6102968183610dac565b8101906114a9565b5f6100f8565b86513d5f823e3d90fd5b5f80fd5b346102ae5760603660031901126102ae576102cb610d67565b6024356001600160401b0381116102ae576102ea903690600401610eec565b6102f2610e32565b6040516361c8a12f60e11b815290926001600160a01b03165f828061031b86886004840161152a565b0381845afa918215610402575f92610451575b5082519361035461033e86610dcd565b9561034c6040519788610dac565b808752610dcd565b602086019490601f19013686375f5b815181101561040d576103768183610fd5565b519060208463ffffffff61038a848a610fd5565b516040516304ec635160e01b8152600481019690965263ffffffff92831660248701521616604484015282606481885afa8015610402576001925f916103e4575b50828060c01b03166103dd828a610fd5565b5201610363565b6103fc915060203d8111610271576102628183610dac565b896103cb565b6040513d5f823e3d90fd5b8587604051918291602083019060208452518091526040830191905f5b818110610438575050500390f35b825184528594506020938401939092019160010161042a565b6104669192503d805f833e6102968183610dac565b908461032e565b346102ae5760803660031901126102ae57610486610d67565b60243563ffffffff8116908181036102ae576044356001600160401b0381116102ae57366023820112156102ae578060040135916001600160401b0383116102ae57602482019160248436920101116102ae576064356001600160401b0381116102ae576104f8903690600401610eec565b94610501611464565b50604051636830483560e01b81526001600160a01b0391909116939092602084600481885afa938415610402575f94610a1b575b5061053e611464565b936040516361c8a12f60e11b81525f818061055d8c896004840161152a565b03818a5afa908115610402575f91610a01575b50855260018060a01b031691604051976340e03a8160e11b89528760048a0152604060248a01525f89806105a860448201868861154a565b0381875afa988915610402575f996109e5575b5060408699979899019687526105d082610dcd565b956105de6040519788610dac565b8287526105fa601f196105f085610dcd565b0160208901611008565b606081019687525f985b60ff8a169a848c101561085f575f996106348d6106218751610f82565b8c519061062e8383610fd5565b52610fd5565b505f5b85518110156107ee5761064a8187610fd5565b5160208b63ffffffff61065e858a51610fd5565b516040516304ec635160e01b8152600481019590955263ffffffff92831660248601521616604483015281606481885afa908115610402575f916107d0575b506001600160c01b031680156107c15760018f9181906106be848c8e611589565b3560f81c1c16146106d3575b50600101610637565b60208b916106f0849f946106e7908b610fd5565b51918b8d611589565b60405163dd9846b960e01b815260048101929092523560f81c602482015263ffffffff929092166044830152816064818d5afa908115610402578f908d905f93610769575b509163ffffffff61075785610751600197956107609751610fd5565b51610fd5565b91169052611595565b9b90508d6106ca565b925050506020813d82116107b9575b8161078560209383610dac565b810103126102ae57818f63ffffffff6107578f92956107516001976107ac61076098611498565b9750955050955050610735565b3d9150610778565b6325ec6c1f60e01b5f5260045ffd5b6107e8915060203d8111610271576102628183610dac565b8f61069d565b509b909a91996107fd81610f82565b905f5b8b8282106108355760ff95949250610820939150519061062e8383610fd5565b501660ff811461023357600101989997610604565b9063ffffffff61084c826107518860019651610fd5565b51166108588286610fd5565b5201610800565b898560048860208d9660405193848092632efa2ca360e11b82525afa908115610402575f936108b59385936109b4575b506040519687948593849363354952a360e21b855260406004860152604485019161154a565b602483019190915203916001600160a01b03165afa9182156104025761093392610920915f9161099a575b50908594939291602061090d970190815260405196879660208852516080602089015260a0880190610f49565b9051868203601f19016040880152610f49565b9051848203601f19016060860152610f49565b905190601f19838203016080840152815180825260208201916020808360051b8301019401925f915b8383106109695786860387f35b919395509193602080610988600193601f198682030187528951610f49565b9701930193019092869594929361095c565b6109ae91503d805f833e6102968183610dac565b866108e0565b6109d791935060203d6020116109de575b6109cf8183610dac565b810190610fe9565b918961088f565b503d6109c5565b6109fa9199503d805f833e6102968183610dac565b97896105bb565b610a1591503d805f833e6102968183610dac565b89610570565b610a3591945060203d6020116109de576109cf8183610dac565b9287610535565b346102ae5760403660031901126102ae57610a55610d67565b6024356001600160401b0381116102ae57610a74903690600401610eec565b8051610a98610a8282610dcd565b91610a906040519384610dac565b808352610dcd565b602082019290601f19013684376001600160a01b03909316925f5b8151811015610b2d57610ac68183610fd5565b519060405191630a5aec1960e21b83526004830152602082602481895afa8015610402576001925f91610b0f575b50610aff8286610fd5565b90838060a01b0316905201610ab3565b610b27915060203d81116109de576109cf8183610dac565b87610af4565b8383604051918291602083019060208452518091526040830191905f5b818110610b58575050500390f35b82516001600160a01b0316845285945060209384019390920191600101610b4a565b346102ae5760603660031901126102ae57610b93610d67565b6024356001600160401b0381116102ae57366023820112156102ae57806004013591610bbe83610e17565b610bcb6040519182610dac565b83815236602485850101116102ae575f6020856101ff966024610bff97018386013783010152610bf9610e32565b91611035565b604051918291602083526020830190610e45565b346102ae5760403660031901126102ae57610c2c610d67565b602435906001600160401b0382116102ae57366023830112156102ae578160040135610c5781610dcd565b92610c656040519485610dac565b8184526024602085019260051b820101903682116102ae57602401915b818310610d47578385610c958151610f82565b6001600160a01b03909216915f5b8251811015610d31576001600160a01b03610cbe8285610fd5565b516040516309aa152760e11b81529116600482015290602082602481885afa8015610402575f90610cff575b60019250610cf88285610fd5565b5201610ca3565b506020823d8211610d29575b81610d1860209383610dac565b810103126102ae5760019151610cea565b3d9150610d0b565b604051602080825281906101ff90820185610de4565b82356001600160a01b03811681036102ae57815260209283019201610c82565b600435906001600160a01b03821682036102ae57565b606081019081106001600160401b03821117610d9857604052565b634e487b7160e01b5f52604160045260245ffd5b90601f801991011681019081106001600160401b03821117610d9857604052565b6001600160401b038111610d985760051b60200190565b90602080835192838152019201905f5b818110610e015750505090565b8251845260209384019390920191600101610df4565b6001600160401b038111610d9857601f01601f191660200190565b6044359063ffffffff821682036102ae57565b9080602083519182815201916020808360051b8301019401925f915b838310610e7057505050505090565b9091929394601f19828203018352855190602080835192838152019201905f905b808210610eb05750505060208060019297019301930191939290610e61565b909192602060606001926001600160601b0360408851868060a01b03815116845285810151868501520151166040820152019401920190610e91565b9080601f830112156102ae578135610f0381610dcd565b92610f116040519485610dac565b81845260208085019260051b8201019283116102ae57602001905b828210610f395750505090565b8135815260209182019101610f2c565b90602080835192838152019201905f5b818110610f665750505090565b825163ffffffff16845260209384019390920191600101610f59565b90610f8c82610dcd565b610f996040519182610dac565b8281528092610faa601f1991610dcd565b0190602036910137565b805115610fc15760200190565b634e487b7160e01b5f52603260045260245ffd5b8051821015610fc15760209160051b010190565b908160209103126102ae57516001600160a01b03811681036102ae5790565b5f5b82811061101657505050565b60608282015260200161100a565b908151811015610fc1570160200190565b604051636830483560e01b81526001600160a01b0390911692909190602083600481875afa928315610402575f93611443575b50604051634f4c91e160e11b815292602084600481885afa938415610402575f946113fe575b5060206004949560405195868092632efa2ca360e11b82525afa938415610402575f946113dd575b50919493908551926110f16110ca85610dcd565b946110d86040519687610dac565b8086526110e7601f1991610dcd565b0160208601611008565b5f965b80518810156113d3576111078882611024565b51604051638902624560e01b815260f89190911c6004820181905263ffffffff851660248301529790945f866044816001600160a01b0385165afa958615610402575f96611341575b50855161115c81610dcd565b9061116a6040519283610dac565b808252611179601f1991610dcd565b015f5b81811061131857505061118f8b89610fd5565b5261119a8a88610fd5565b505f5b8651811015611307576111b08188610fd5565b516040516308f6629d60e31b81526004810191909152906020826024816001600160a01b038e165afa918215610402575f926112e7575b50866111f3828a610fd5565b5160208d611201858d610fd5565b5160405163fa28c62760e01b8152600481019190915260ff91909116602482015263ffffffff939093166044840152826064816001600160a01b038c165afa908115610402578e925f926112a0575b509361128d611299936001600160601b0386946001986040519561127387610d7d565b8a8060a01b0316865260208601521660408401528d610fd5565b519061062e8383610fd5565b500161119d565b915091506020813d82116112df575b816112bc60209383610dac565b810103126102ae57516001600160601b03811681036102ae578d9161128d611250565b3d91506112af565b61130091925060203d81116109de576109cf8183610dac565b905f6111e7565b5060019099019890975093506110f4565b60209060405161132781610d7d565b5f81525f838201525f60408201528282860101520161117c565b9095503d805f833e6113538183610dac565b8101906020818303126102ae578051906001600160401b0382116102ae57019080601f830112156102ae57815161138981610dcd565b926113976040519485610dac565b81845260208085019260051b8201019283116102ae57602001905b8282106113c357505050945f611150565b81518152602091820191016113b2565b5092955050505050565b6113f791945060203d6020116109de576109cf8183610dac565b925f6110b6565b9093506020813d60201161143b575b8161141a60209383610dac565b810103126102ae5751926001600160a01b03841684036102ae57602061108e565b3d915061140d565b61145d91935060203d6020116109de576109cf8183610dac565b915f611068565b60405190608082018281106001600160401b03821117610d9857604052606080838181528160208201528160408201520152565b519063ffffffff821682036102ae57565b6020818303126102ae578051906001600160401b0382116102ae57019080601f830112156102ae5781516114dc81610dcd565b926114ea6040519485610dac565b81845260208085019260051b8201019283116102ae57602001905b8282106115125750505090565b6020809161151f84611498565b815201910190611505565b60409063ffffffff61154794931681528160208201520190610de4565b90565b908060209392818452848401375f828201840152601f01601f1916010190565b908160209103126102ae57516001600160c01b03811681036102ae5790565b90821015610fc1570190565b5f198114610233576001019056fea2646970667358221220003e3bd695ddb5a2b0638490670a9a24c21195a1253c7df69d9ab7a18dba91be64736f6c634300081b0033","linkReferences":{}},"methodIdentifiers":{"getBatchOperatorFromId(address,bytes32[])":"4d2b57fe","getBatchOperatorId(address,address[])":"31b36bd9","getCheckSignaturesIndices(address,uint32,bytes,bytes32[])":"4f739f74","getOperatorState(address,bytes,uint32)":"3563b0d1","getOperatorState(address,bytes32,uint32)":"cefdc1d4","getQuorumBitmapsAtBlockNumber(address,bytes32[],uint32)":"5c155662"},"id":99}