{"abi":[{"type":"function","name":"isValidSignature","inputs":[{"name":"signer","type":"address","internalType":"address"},{"name":"digestHash","type":"bytes32","internalType":"bytes32"},{"name":"signature","type":"bytes","internalType":"bytes"}],"outputs":[],"stateMutability":"view"},{"type":"error","name":"InvalidSignature","inputs":[]}],"bytecode":{"object":"0x60808060405234601957610326908161001e823930815050f35b5f80fdfe60806040526004361015610011575f80fd5b5f3560e01c63238a4d1e14610024575f80fd5b60603660031901126101a3576004356001600160a01b0381168082036101a3576044359160243567ffffffffffffffff84116101a357366023850112156101a35783600401359361007485610219565b9461008260405196876101e3565b808652602086019136602483830101116101a357815f926024602093018537870101526100af8583610235565b60058196929610156101cf571594856101bc575b505083156100e7575b5050509050156100d857005b638baa579f60e01b5f5260045ffd5b5f94859450608461013f916040519384916020830196630b135d3f60e11b88526024840152604060448401525180918160648501528484015e87838284010152601f801991011681010301601f1981018352826101e3565b51915afa3d156101b5573d61015381610219565b9061016160405192836101e3565b81523d5f602083013e5b816101a7575b81610181575b50805f80806100cc565b90506020818051810103126101a35760200151630b135d3f60e11b145f610177565b5f80fd5b905060208151101590610171565b606061016b565b6001600160a01b03161493505f806100c3565b634e487b7160e01b5f52602160045260245ffd5b90601f8019910116810190811067ffffffffffffffff82111761020557604052565b634e487b7160e01b5f52604160045260245ffd5b67ffffffffffffffff811161020557601f01601f191660200190565b9060418151145f146102615761025d91602082015190606060408401519301515f1a9061026a565b9091565b50505f90600290565b7f7fffffffffffffffffffffffffffffff5d576e7357a4501ddfe92f46681b20a084116102e5576020935f9360ff60809460405194855216868401526040830152606082015282805260015afa156102da575f516001600160a01b038116156102d257905f90565b505f90600190565b6040513d5f823e3d90fd5b505050505f9060039056fea2646970667358221220a69123e3d94adfba4c877ab0891936e5fd5045f1fb69da083b039a185a60678064736f6c634300081b0033","linkReferences":{}},"methodIdentifiers":{"isValidSignature(address,bytes32,bytes)":"238a4d1e"},"id":123}