{"abi":[{"type":"constructor","inputs":[{"name":"_registryCoordinator","type":"address","internalType":"contract ISlashingRegistryCoordinator"},{"name":"_delegationManager","type":"address","internalType":"contract IDelegationManager"},{"name":"_avsDirectory","type":"address","internalType":"contract IAVSDirectory"},{"name":"_allocationManager","type":"address","internalType":"contract IAllocationManager"}],"stateMutability":"nonpayable"},{"type":"function","name":"MAX_WEIGHING_FUNCTION_LENGTH","inputs":[],"outputs":[{"name":"","type":"uint8","internalType":"uint8"}],"stateMutability":"view"},{"type":"function","name":"WEIGHTING_DIVISOR","inputs":[],"outputs":[{"name":"","type":"uint256","internalType":"uint256"}],"stateMutability":"view"},{"type":"function","name":"addStrategies","inputs":[{"name":"quorumNumber","type":"uint8","internalType":"uint8"},{"name":"_strategyParams","type":"tuple[]","internalType":"struct IStakeRegistryTypes.StrategyParams[]","components":[{"name":"strategy","type":"address","internalType":"contract IStrategy"},{"name":"multiplier","type":"uint96","internalType":"uint96"}]}],"outputs":[],"stateMutability":"nonpayable"},{"type":"function","name":"allocationManager","inputs":[],"outputs":[{"name":"","type":"address","internalType":"contract IAllocationManager"}],"stateMutability":"view"},{"type":"function","name":"applyDelta","inputs":[{"name":"value","type":"uint96","internalType":"uint96"},{"name":"delta","type":"int256","internalType":"int256"}],"outputs":[{"name":"","type":"uint96","internalType":"uint96"}],"stateMutability":"pure"},{"type":"function","name":"avsDirectory","inputs":[],"outputs":[{"name":"","type":"address","internalType":"contract IAVSDirectory"}],"stateMutability":"view"},{"type":"function","name":"calculateDelta","inputs":[{"name":"prev","type":"uint96","internalType":"uint96"},{"name":"cur","type":"uint96","internalType":"uint96"}],"outputs":[{"name":"","type":"int256","internalType":"int256"}],"stateMutability":"pure"},{"type":"function","name":"delegation","inputs":[],"outputs":[{"name":"","type":"address","internalType":"contract IDelegationManager"}],"stateMutability":"view"},{"type":"function","name":"deregisterOperator","inputs":[{"name":"operatorId","type":"bytes32","internalType":"bytes32"},{"name":"quorumNumbers","type":"bytes","internalType":"bytes"}],"outputs":[],"stateMutability":"nonpayable"},{"type":"function","name":"getCurrentStake","inputs":[{"name":"operatorId","type":"bytes32","internalType":"bytes32"},{"name":"quorumNumber","type":"uint8","internalType":"uint8"}],"outputs":[{"name":"","type":"uint96","internalType":"uint96"}],"stateMutability":"view"},{"type":"function","name":"getCurrentTotalStake","inputs":[{"name":"quorumNumber","type":"uint8","internalType":"uint8"}],"outputs":[{"name":"","type":"uint96","internalType":"uint96"}],"stateMutability":"view"},{"type":"function","name":"getLatestStakeUpdate","inputs":[{"name":"operatorId","type":"bytes32","internalType":"bytes32"},{"name":"quorumNumber","type":"uint8","internalType":"uint8"}],"outputs":[{"name":"","type":"tuple","internalType":"struct IStakeRegistryTypes.StakeUpdate","components":[{"name":"updateBlockNumber","type":"uint32","internalType":"uint32"},{"name":"nextUpdateBlockNumber","type":"uint32","internalType":"uint32"},{"name":"stake","type":"uint96","internalType":"uint96"}]}],"stateMutability":"view"},{"type":"function","name":"getStakeAtBlockNumber","inputs":[{"name":"operatorId","type":"bytes32","internalType":"bytes32"},{"name":"quorumNumber","type":"uint8","internalType":"uint8"},{"name":"blockNumber","type":"uint32","internalType":"uint32"}],"outputs":[{"name":"","type":"uint96","internalType":"uint96"}],"stateMutability":"view"},{"type":"function","name":"getStakeAtBlockNumberAndIndex","inputs":[{"name":"quorumNumber","type":"uint8","internalType":"uint8"},{"name":"blockNumber","type":"uint32","internalType":"uint32"},{"name":"operatorId","type":"bytes32","internalType":"bytes32"},{"name":"index","type":"uint256","internalType":"uint256"}],"outputs":[{"name":"","type":"uint96","internalType":"uint96"}],"stateMutability":"view"},{"type":"function","name":"getStakeHistory","inputs":[{"name":"operatorId","type":"bytes32","internalType":"bytes32"},{"name":"quorumNumber","type":"uint8","internalType":"uint8"}],"outputs":[{"name":"","type":"tuple[]","internalType":"struct IStakeRegistryTypes.StakeUpdate[]","components":[{"name":"updateBlockNumber","type":"uint32","internalType":"uint32"},{"name":"nextUpdateBlockNumber","type":"uint32","internalType":"uint32"},{"name":"stake","type":"uint96","internalType":"uint96"}]}],"stateMutability":"view"},{"type":"function","name":"getStakeHistoryLength","inputs":[{"name":"operatorId","type":"bytes32","internalType":"bytes32"},{"name":"quorumNumber","type":"uint8","internalType":"uint8"}],"outputs":[{"name":"","type":"uint256","internalType":"uint256"}],"stateMutability":"view"},{"type":"function","name":"getStakeUpdateAtIndex","inputs":[{"name":"quorumNumber","type":"uint8","internalType":"uint8"},{"name":"operatorId","type":"bytes32","internalType":"bytes32"},{"name":"index","type":"uint256","internalType":"uint256"}],"outputs":[{"name":"","type":"tuple","internalType":"struct IStakeRegistryTypes.StakeUpdate","components":[{"name":"updateBlockNumber","type":"uint32","internalType":"uint32"},{"name":"nextUpdateBlockNumber","type":"uint32","internalType":"uint32"},{"name":"stake","type":"uint96","internalType":"uint96"}]}],"stateMutability":"view"},{"type":"function","name":"getStakeUpdateIndexAtBlockNumber","inputs":[{"name":"operatorId","type":"bytes32","internalType":"bytes32"},{"name":"quorumNumber","type":"uint8","internalType":"uint8"},{"name":"blockNumber","type":"uint32","internalType":"uint32"}],"outputs":[{"name":"","type":"uint32","internalType":"uint32"}],"stateMutability":"view"},{"type":"function","name":"getTotalStakeAtBlockNumberFromIndex","inputs":[{"name":"quorumNumber","type":"uint8","internalType":"uint8"},{"name":"blockNumber","type":"uint32","internalType":"uint32"},{"name":"index","type":"uint256","internalType":"uint256"}],"outputs":[{"name":"","type":"uint96","internalType":"uint96"}],"stateMutability":"view"},{"type":"function","name":"getTotalStakeHistoryLength","inputs":[{"name":"quorumNumber","type":"uint8","internalType":"uint8"}],"outputs":[{"name":"","type":"uint256","internalType":"uint256"}],"stateMutability":"view"},{"type":"function","name":"getTotalStakeIndicesAtBlockNumber","inputs":[{"name":"blockNumber","type":"uint32","internalType":"uint32"},{"name":"quorumNumbers","type":"bytes","internalType":"bytes"}],"outputs":[{"name":"","type":"uint32[]","internalType":"uint32[]"}],"stateMutability":"view"},{"type":"function","name":"getTotalStakeUpdateAtIndex","inputs":[{"name":"quorumNumber","type":"uint8","internalType":"uint8"},{"name":"index","type":"uint256","internalType":"uint256"}],"outputs":[{"name":"","type":"tuple","internalType":"struct IStakeRegistryTypes.StakeUpdate","components":[{"name":"updateBlockNumber","type":"uint32","internalType":"uint32"},{"name":"nextUpdateBlockNumber","type":"uint32","internalType":"uint32"},{"name":"stake","type":"uint96","internalType":"uint96"}]}],"stateMutability":"view"},{"type":"function","name":"initializeDelegatedStakeQuorum","inputs":[{"name":"quorumNumber","type":"uint8","internalType":"uint8"},{"name":"minimumStake","type":"uint96","internalType":"uint96"},{"name":"_strategyParams","type":"tuple[]","internalType":"struct IStakeRegistryTypes.StrategyParams[]","components":[{"name":"strategy","type":"address","internalType":"contract IStrategy"},{"name":"multiplier","type":"uint96","internalType":"uint96"}]}],"outputs":[],"stateMutability":"nonpayable"},{"type":"function","name":"initializeSlashableStakeQuorum","inputs":[{"name":"quorumNumber","type":"uint8","internalType":"uint8"},{"name":"minimumStake","type":"uint96","internalType":"uint96"},{"name":"lookAheadPeriod","type":"uint32","internalType":"uint32"},{"name":"_strategyParams","type":"tuple[]","internalType":"struct IStakeRegistryTypes.StrategyParams[]","components":[{"name":"strategy","type":"address","internalType":"contract IStrategy"},{"name":"multiplier","type":"uint96","internalType":"uint96"}]}],"outputs":[],"stateMutability":"nonpayable"},{"type":"function","name":"minimumStakeForQuorum","inputs":[{"name":"","type":"uint8","internalType":"uint8"}],"outputs":[{"name":"","type":"uint96","internalType":"uint96"}],"stateMutability":"view"},{"type":"function","name":"modifyStrategyParams","inputs":[{"name":"quorumNumber","type":"uint8","internalType":"uint8"},{"name":"strategyIndices","type":"uint256[]","internalType":"uint256[]"},{"name":"newMultipliers","type":"uint96[]","internalType":"uint96[]"}],"outputs":[],"stateMutability":"nonpayable"},{"type":"function","name":"recordOperatorStakeUpdate","inputs":[{"name":"operatorId","type":"bytes32","internalType":"bytes32"},{"name":"quorumNumber","type":"uint8","internalType":"uint8"},{"name":"newStake","type":"uint96","internalType":"uint96"}],"outputs":[{"name":"","type":"int256","internalType":"int256"}],"stateMutability":"nonpayable"},{"type":"function","name":"recordTotalStakeUpdate","inputs":[{"name":"quorumNumber","type":"uint8","internalType":"uint8"},{"name":"stakeDelta","type":"int256","internalType":"int256"}],"outputs":[],"stateMutability":"nonpayable"},{"type":"function","name":"registerOperator","inputs":[{"name":"operator","type":"address","internalType":"address"},{"name":"operatorId","type":"bytes32","internalType":"bytes32"},{"name":"quorumNumbers","type":"bytes","internalType":"bytes"}],"outputs":[{"name":"","type":"uint96[]","internalType":"uint96[]"},{"name":"","type":"uint96[]","internalType":"uint96[]"}],"stateMutability":"nonpayable"},{"type":"function","name":"registryCoordinator","inputs":[],"outputs":[{"name":"","type":"address","internalType":"contract ISlashingRegistryCoordinator"}],"stateMutability":"view"},{"type":"function","name":"removeStrategies","inputs":[{"name":"quorumNumber","type":"uint8","internalType":"uint8"},{"name":"indicesToRemove","type":"uint256[]","internalType":"uint256[]"}],"outputs":[],"stateMutability":"nonpayable"},{"type":"function","name":"setMinimumStakeForQuorum","inputs":[{"name":"quorumNumber","type":"uint8","internalType":"uint8"},{"name":"minimumStake","type":"uint96","internalType":"uint96"}],"outputs":[],"stateMutability":"nonpayable"},{"type":"function","name":"setSlashableStakeLookahead","inputs":[{"name":"quorumNumber","type":"uint8","internalType":"uint8"},{"name":"_lookAheadBlocks","type":"uint32","internalType":"uint32"}],"outputs":[],"stateMutability":"nonpayable"},{"type":"function","name":"slashableStakeLookAheadPerQuorum","inputs":[{"name":"quorumNumber","type":"uint8","internalType":"uint8"}],"outputs":[{"name":"","type":"uint32","internalType":"uint32"}],"stateMutability":"view"},{"type":"function","name":"stakeTypePerQuorum","inputs":[{"name":"quorumNumber","type":"uint8","internalType":"uint8"}],"outputs":[{"name":"","type":"uint8","internalType":"enum IStakeRegistryTypes.StakeType"}],"stateMutability":"view"},{"type":"function","name":"strategiesPerQuorum","inputs":[{"name":"quorumNumber","type":"uint8","internalType":"uint8"},{"name":"","type":"uint256","internalType":"uint256"}],"outputs":[{"name":"","type":"address","internalType":"contract IStrategy"}],"stateMutability":"view"},{"type":"function","name":"strategyParams","inputs":[{"name":"quorumNumber","type":"uint8","internalType":"uint8"},{"name":"","type":"uint256","internalType":"uint256"}],"outputs":[{"name":"strategy","type":"address","internalType":"contract IStrategy"},{"name":"multiplier","type":"uint96","internalType":"uint96"}],"stateMutability":"view"},{"type":"function","name":"strategyParamsByIndex","inputs":[{"name":"quorumNumber","type":"uint8","internalType":"uint8"},{"name":"index","type":"uint256","internalType":"uint256"}],"outputs":[{"name":"","type":"tuple","internalType":"struct IStakeRegistryTypes.StrategyParams","components":[{"name":"strategy","type":"address","internalType":"contract IStrategy"},{"name":"multiplier","type":"uint96","internalType":"uint96"}]}],"stateMutability":"view"},{"type":"function","name":"strategyParamsLength","inputs":[{"name":"quorumNumber","type":"uint8","internalType":"uint8"}],"outputs":[{"name":"","type":"uint256","internalType":"uint256"}],"stateMutability":"view"},{"type":"function","name":"updateOperatorsStake","inputs":[{"name":"operators","type":"address[]","internalType":"address[]"},{"name":"operatorIds","type":"bytes32[]","internalType":"bytes32[]"},{"name":"quorumNumber","type":"uint8","internalType":"uint8"}],"outputs":[{"name":"","type":"bool[]","internalType":"bool[]"}],"stateMutability":"nonpayable"},{"type":"function","name":"weightOfOperatorForQuorum","inputs":[{"name":"quorumNumber","type":"uint8","internalType":"uint8"},{"name":"operator","type":"address","internalType":"address"}],"outputs":[{"name":"","type":"uint96","internalType":"uint96"}],"stateMutability":"view"},{"type":"event","name":"LookAheadPeriodChanged","inputs":[{"name":"oldLookAheadBlocks","type":"uint32","indexed":false,"internalType":"uint32"},{"name":"newLookAheadBlocks","type":"uint32","indexed":false,"internalType":"uint32"}],"anonymous":false},{"type":"event","name":"MinimumStakeForQuorumUpdated","inputs":[{"name":"quorumNumber","type":"uint8","indexed":true,"internalType":"uint8"},{"name":"minimumStake","type":"uint96","indexed":false,"internalType":"uint96"}],"anonymous":false},{"type":"event","name":"OperatorStakeUpdate","inputs":[{"name":"operatorId","type":"bytes32","indexed":true,"internalType":"bytes32"},{"name":"quorumNumber","type":"uint8","indexed":false,"internalType":"uint8"},{"name":"stake","type":"uint96","indexed":false,"internalType":"uint96"}],"anonymous":false},{"type":"event","name":"QuorumCreated","inputs":[{"name":"quorumNumber","type":"uint8","indexed":true,"internalType":"uint8"}],"anonymous":false},{"type":"event","name":"StakeTypeSet","inputs":[{"name":"newStakeType","type":"uint8","indexed":false,"internalType":"enum IStakeRegistryTypes.StakeType"}],"anonymous":false},{"type":"event","name":"StrategyAddedToQuorum","inputs":[{"name":"quorumNumber","type":"uint8","indexed":true,"internalType":"uint8"},{"name":"strategy","type":"address","indexed":false,"internalType":"contract IStrategy"}],"anonymous":false},{"type":"event","name":"StrategyMultiplierUpdated","inputs":[{"name":"quorumNumber","type":"uint8","indexed":true,"internalType":"uint8"},{"name":"strategy","type":"address","indexed":false,"internalType":"contract IStrategy"},{"name":"multiplier","type":"uint256","indexed":false,"internalType":"uint256"}],"anonymous":false},{"type":"event","name":"StrategyRemovedFromQuorum","inputs":[{"name":"quorumNumber","type":"uint8","indexed":true,"internalType":"uint8"},{"name":"strategy","type":"address","indexed":false,"internalType":"contract IStrategy"}],"anonymous":false},{"type":"error","name":"BelowMinimumStakeRequirement","inputs":[]},{"type":"error","name":"EmptyStakeHistory","inputs":[]},{"type":"error","name":"InputArrayLengthMismatch","inputs":[]},{"type":"error","name":"InputArrayLengthZero","inputs":[]},{"type":"error","name":"InputDuplicateStrategy","inputs":[]},{"type":"error","name":"InputMultiplierZero","inputs":[]},{"type":"error","name":"InvalidBlockNumber","inputs":[]},{"type":"error","name":"LookAheadPeriodTooLong","inputs":[]},{"type":"error","name":"OnlySlashingRegistryCoordinator","inputs":[]},{"type":"error","name":"OnlySlashingRegistryCoordinatorOwner","inputs":[]},{"type":"error","name":"QuorumAlreadyExists","inputs":[]},{"type":"error","name":"QuorumDoesNotExist","inputs":[]},{"type":"error","name":"QuorumNotSlashable","inputs":[]}],"bytecode":{"object":"0x6101003461011757601f61325d38819003918201601f19168301916001600160401b0383118484101761011b57808492608094604052833981010312610117578051906001600160a01b03821682036101175760208101516001600160a01b0381168103610117576040820151916001600160a01b03831683036101175760600151926001600160a01b03841684036101175760e05260805260a05260c05260405161312d9081610130823960805181818161038c0152612a8b015260a051816110f2015260c0518181816105a7015281816106d001528181611280015281816128b80152612e65015260e05181818161069201528181610e8201528181611242015281816121cd0152818161224701526127e70152f35b5f80fd5b634e487b7160e01b5f52604160045260245ffdfe60806040526004361015610011575f80fd5b5f5f3560e01c80630390a4d514611afb5780630491b41c14611ac95780630873246114611a6c5780631f9b74e014611a1857806320b66298146118b057806325504777146117955780632cd95940146116995780633ca5a5f5146116675780634bd26e09146116285780635401ed27146116005780635e5a6775146115de5780635f1f2d771461115f578063697fbd93146111215780636b3aa72e146110dc5780636c3fb4bf14610eb15780636d14a98714610e6c57806374454c6d14610e2f57806375d4173a14610d485780637c17234714610d2d5780637f42982214610cf457806381c0750214610b0c5780639ab4d6ff14610ad45780639f3ccf6514610a79578063ac6bfb0314610a2a578063adc804da146109b6578063b6904b7814610974578063bc9a40c314610938578063bd29b8cd146108b3578063c46778a514610879578063c601527d14610624578063c8294c56146105d6578063ca8aa7c714610591578063cc5a7c201461044d578063d5eccc05146103e3578063dd9846b9146103bb578063df5cf72314610376578063e086adb314610337578063f2be94ae146102c7578063f509551a14610292578063f851e198146102335763fa28c627146101dd575f80fd5b34610230576001600160601b0361022260209261021c60406101fe36611d7d565b92909194858152600289522060ff82165f52875260405f2093612f6d565b90611b42565b505460401c16604051908152f35b80fd5b503461023057604036600319011261023057606061025a610252611b32565b600435611fe7565b61029060405180926001600160601b036040809263ffffffff815116855263ffffffff6020820151166020860152015116910152565bf35b50346102305760403660031901126102305760206102bf6102b1611caf565b6102b9611c99565b906130b2565b604051908152f35b5034610230576080366003190112610230576001600160601b0360406020926102ee611b22565b60ff836102f9611d6a565b936044358152600288522091165f52845261032c61032561031f845f2060643590611b42565b50611e31565b9182612de3565b015116604051908152f35b503461023057604036600319011261023057610373610354611b22565b61035c611d6a565b906103656121b8565b61036e8161212c565b612e2b565b80f35b50346102305780600319360112610230576040517f00000000000000000000000000000000000000000000000000000000000000006001600160a01b03168152602090f35b50346102305760206103d56103cf36611d7d565b91612f6d565b63ffffffff60405191168152f35b50346102305760203660031901126102305760ff6103ff611b22565b1680825260016020526040822090825260016020526040822054915f1983019283116104395760206001600160601b036102228585611b42565b634e487b7160e01b81526011600452602490fd5b503461023057608036600319011261023057610467611b22565b61046f611c99565b906044359163ffffffff8316830361058d576064356001600160401b038111610589576104a0903690600401611cc5565b6104a8612245565b6104c08360ff165f52600160205260405f2054151590565b61057a57906104d26104d89284612b0e565b82612d44565b60ff8116808452600560209081526040808620805460ff19166001179055519193919290830183807f7c112e863ccf007862e2c9e25819c933fedbc9350a6443423b4a8599c2e8a52d92600161053197520390a1612e2b565b81526001602052610373604082206040519061054c82611c33565b63ffffffff43168252836020830152836040830152611f3a565b634e487b7160e01b5f52602160045260245ffd5b6310cda51760e21b8552600485fd5b8480fd5b8380fd5b50346102305780600319360112610230576040517f00000000000000000000000000000000000000000000000000000000000000006001600160a01b03168152602090f35b5034610230576060366003190112610230576001600160601b03604060209261032c61032561031f610606611b22565b9360ff610611611d6a565b9516815260018852856044359120611b42565b50346102305760403660031901126102305761063e611b22565b906024356001600160401b0381116108755761065e903690600401611cc5565b916106676121b8565b6106708161212c565b61067a8382612b0e565b825160405163de1164bb60e01b8152906020826004817f00000000000000000000000000000000000000000000000000000000000000006001600160a01b03165afa91821561086a578492610839575b506040517f00000000000000000000000000000000000000000000000000000000000000006001600160a01b03169061070281611c04565b6001600160a01b03848116825260ff8616602083019081526040516304c1b8eb60e31b8152925190911660048301525163ffffffff166024820152602081604481855afa90811561082e5786916107ff575b5061075d578480f35b61076682611dd2565b91855b8181106107d6575050849550803b15610589576107a09385809460405196879586948593630287f75160e51b855260048501611eaf565b03925af180156107cb576107b6575b8080808480f35b816107c091611c4e565b61023057805f6107af565b6040513d84823e3d90fd5b6001906001600160a01b036107eb828b611e1d565b5151166107f88287611e1d565b5201610769565b610821915060203d602011610827575b6108198183611c4e565b810190611e97565b5f610754565b503d61080f565b6040513d88823e3d90fd5b61085c91925060203d602011610863575b6108548183611c4e565b810190611e78565b905f6106ca565b503d61084a565b6040513d86823e3d90fd5b5080fd5b5034610230576020366003190112610230576001600160601b03604060209260ff6108a2611b22565b168152808452205416604051908152f35b5034610230576040366003190112610230576004356024356001600160401b038111610934576108e7903690600401611b9b565b6108f2929192612245565b835b8181106108ff578480f35b8061092d6109106001938588611e04565b3560f81c61091d8161212c565b6109278187612286565b90612057565b50016108f4565b8280fd5b503461023057604036600319011261023057610373610955611b22565b61095d611c99565b906109666121b8565b61096f8161212c565b612d44565b50346102305760403660031901126102305761025a61031f60609260ff610999611b22565b6109a1611fa4565b50168152600160205260406024359120611b42565b503461023057604036600319011261023057610a07610a0160409260ff6109db611b22565b82602087516109e981611c04565b82815201521681526003602052836024359120611b42565b50611fc2565b6001600160601b03602083519260018060a01b0381511684520151166020820152f35b50346102305760603660031901126102305760ff6040610a48611b22565b92610a51611fa4565b50602435815260026020522091165f52602052606061025a61031f60405f2060443590611b42565b503461023057604036600319011261023057610a93611b22565b60ff16815260046020526040812080546024359290831015610230576020610abb8484611b42565b905460405160039290921b1c6001600160a01b03168152f35b50346102305760203660031901126102305763ffffffff604060209260ff610afa611b22565b16815260068452205416604051908152f35b50346102305760403660031901126102305760043563ffffffff8116809103610875576024356001600160401b03811161093457610b4e903690600401611b9b565b9190610b5983611c6f565b91610b676040519384611c4e565b838352610b7384611c6f565b602084019490601f1901368637855b818110610bd357868587604051928392602084019060208552518091526040840192915b818110610bb4575050500390f35b825163ffffffff16845285945060209384019390920191600101610ba6565b610bde818386611e04565b3560f81c610beb8161212c565b808852600160205260408820805415610ce05788528363ffffffff60208a20541611610cd15780885260016020526040882054885b818110610c33575b505050600101610b82565b828a52600160205260408a20610c498284611e6b565b5f19810191908211610cbd57610c65889263ffffffff92611b42565b5054161115610c7657600101610c20565b90610c819250611e6b565b5f198101908111610ca9579063ffffffff60019216610ca08288611e1d565b52905f80610c28565b634e487b7160e01b88526011600452602488fd5b634e487b7160e01b8c52601160045260248cfd5b63cc64657360e01b8852600488fd5b634e487b7160e01b89526032600452602489fd5b5034610230576040366003190112610230576020610d1c610d13611caf565b60243590612d9a565b6001600160601b0360405191168152f35b50346102305780600319360112610230576020604051818152f35b503461023057606036600319011261023057610d62611b22565b610d6a611c99565b6044356001600160401b03811161058d57610d89903690600401611cc5565b610d91612245565b610da98360ff165f52600160205260405f2054151590565b610e205782916104d2610dbe9260ff95612b0e565b1680825260056020526040822060ff1981541690557f7c112e863ccf007862e2c9e25819c933fedbc9350a6443423b4a8599c2e8a52d60405180610e028582611c86565b0390a181526001602052610373604082206040519061054c82611c33565b6310cda51760e21b8452600484fd5b503461023057606036600319011261023057610e49611b32565b604435916001600160601b03831683036102305760206102bf8484600435612411565b50346102305780600319360112610230576040517f00000000000000000000000000000000000000000000000000000000000000006001600160a01b03168152602090f35b5034610230576060366003190112610230576004356001600160401b0381116108755736602382011215610875578060040135610eed81611c6f565b91610efb6040519384611c4e565b8183526024602084019260051b8201019036821161058957602401915b8183106110bc57505050602435906001600160401b038211610934573660238301121561093457816004013591610f4e83611c6f565b92610f5c6040519485611c4e565b8084526024602085019160051b830101913683116110b857602401905b8282106110a85750505060443560ff8116810361058d57610f98612245565b610fa28251611dd2565b92610fac8261212c565b610fb68383612733565b8693919290845b865186101561105557610fd08683611e1d565b5115611037575b611000610fe48785611e1d565b51856001600160601b03610ff88a8a611e1d565b511691612411565b908982820192831291129080158216911516176110235760019590950194610fbd565b634e487b7160e01b89526011600452602489fd5b886110428787611e1d565b52600161104f878a611e1d565b52610fd7565b88611061899286612057565b50604051918291602083016020845282518091526020604085019301915b81811061108d575050500390f35b8251151584528594506020938401939092019160010161107f565b8135815260209182019101610f79565b8580fd5b82356001600160a01b03811681036110b857815260209283019201610f18565b50346102305780600319360112610230576040517f00000000000000000000000000000000000000000000000000000000000000006001600160a01b03168152602090f35b50346102305760203660031901126102305760ff604061115b9282611144611b22565b168152600560205220541660405191829182611c86565b0390f35b503461136557604036600319011261136557611179611b22565b6024356001600160401b0381116113655736602382011215611365578060040135906111a482611c6f565b916111b26040519384611c4e565b8083526024602084019160051b8301019136831161136557602401905b8282106115ce575050506111e16121b8565b6111ea8261212c565b805180156115bf5760ff831691825f52600360205260405f2091835f52600460205260405f209161121a82611dd2565b935f5b8381106113a957505060405163de1164bb60e01b8152949250602091508490506004817f00000000000000000000000000000000000000000000000000000000000000006001600160a01b03165afa92831561135a575f93611388575b506040517f00000000000000000000000000000000000000000000000000000000000000006001600160a01b0316916112b282611c04565b6001600160a01b038581168352602083019182526040516304c1b8eb60e31b815292511660048301525163ffffffff166024820152602081604481855afa90811561135a575f91611369575b50611307578480f35b803b1561136557611332935f80946040519687958694859363b66bd98960e01b855260048501611eaf565b03925af1801561135a57611347578080808480f35b61135391505f90611c4e565b5f5f6107af565b6040513d5f823e3d90fd5b5f80fd5b611382915060203d602011610827576108198183611c4e565b5f6112fe565b6113a291935060203d602011610863576108548183611c4e565b915f61127a565b6113bd6113b68285611e1d565b5183611b42565b50546001600160a01b03166113d28288611e1d565b52867f31fa2e2cd280c9375e13ffcf3d81e2378100186e4058f8d3ddb690b82dcd31f7602061140b6114048588611e1d565b5186611b42565b50546040516001600160a01b039091168152a2867f11a5641322da1dff56a4b66eaac31ffa465295ece907cd163437793b4d009a75604061144f6114048588611e1d565b505481516001600160a01b0390911681525f6020820152a281545f19810190811161156a5761147e9083611b42565b5061149361148c8386611e1d565b5184611b42565b61157e57818103611591575b505081548015611556575f19016114b68184611b42565b61157e575f9055825584545f19810190811161156a576114d96115239187611b42565b905460039190911b1c6001600160a01b03166114ff6114f88487611e1d565b5188611b42565b81546001600160a01b0393841660039290921b91821b9390911b1916919091179055565b8454908115611556576001915f190161153c8188611b42565b815490858060a01b039060031b1b1916905586550161121d565b634e487b7160e01b5f52603160045260245ffd5b634e487b7160e01b5f52601160045260245ffd5b634e487b7160e01b5f525f60045260245ffd5b815481546001600160a01b039091166001600160a01b03199182168117835592541690911790555f8061149f565b63796cc52560e01b5f5260045ffd5b81358152602091820191016111cf565b34611365575f366003190112611365576020604051670de0b6b3a76400008152f35b346113655760403660031901126113655760206001600160601b03604061032c610252611b32565b3461136557604036600319011261136557611641611b32565b6004355f52600260205260ff60405f2091165f52602052602060405f2054604051908152f35b346113655760203660031901126113655760ff611682611b22565b165f526003602052602060405f2054604051908152f35b34611365576040366003190112611365576116b2611b32565b6004355f52600260205260ff60405f2091165f5260205260405f208054906116d982611c6f565b916116e76040519384611c4e565b8083526020830180925f5260205f205f915b838310611778578486604051918291602083019060208452518091526040830191905f5b81811061172b575050500390f35b91935091602060608261176a60019488516001600160601b036040809263ffffffff815116855263ffffffff6020820151166020860152015116910152565b01940191019184939261171d565b60016020819261178785611e31565b8152019201920191906116f9565b34611365576060366003190112611365576004356001600160a01b038116810361136557602435906044356001600160401b038111611365576117dc903690600401611b9b565b906117e5612245565b6117ee82611dd2565b926117f883611dd2565b925f5b81811061182c5761181e8661115b87604051938493604085526040850190611bc8565b908382036020850152611bc8565b611837818386611e04565b3560f81c906118458261212c565b61184f848361215a565b929092156118a1578281611869600195611885948d612411565b916001600160601b0361187c868d611e1d565b91169052612057565b6001600160601b036118978389611e1d565b91169052016117fb565b63207f13e360e11b5f5260045ffd5b34611365576060366003190112611365576118c9611b22565b6024356001600160401b038111611365576118e8903690600401611b6b565b916044356001600160401b03811161136557611908903690600401611b6b565b90916119126121b8565b61191b8161212c565b84156115bf57848203611a095760ff1691825f52600360205260405f20935f5b86811061194457005b8061199661195d6119586001948888611dae565b611dbe565b61197261196b848c88611dae565b358a611b42565b5080546001600160a01b031660a09290921b6001600160a01b031916919091179055565b857f11a5641322da1dff56a4b66eaac31ffa465295ece907cd163437793b4d009a756119c661196b848c88611dae565b50848060a01b039054166119de611958858a8a611dae565b604080516001600160a01b039390931683526001600160601b0391909116602083015290a20161193b565b6343714afd60e01b5f5260045ffd5b3461136557604036600319011261136557611a31611b22565b602435906001600160a01b03821682036113655760209181611a55611a5a9361212c565b61215a565b506001600160601b0360405191168152f35b3461136557604036600319011261136557611a85611b22565b60ff60243591165f52600360205260405f20805482101561136557604091611aac91611b42565b505481516001600160a01b038216815260a09190911c6020820152f35b346113655760203660031901126113655760ff611ae4611b22565b165f526001602052602060405f2054604051908152f35b3461136557604036600319011261136557611b20611b17611b22565b60243590612057565b005b6004359060ff8216820361136557565b6024359060ff8216820361136557565b8054821015611b57575f5260205f2001905f90565b634e487b7160e01b5f52603260045260245ffd5b9181601f84011215611365578235916001600160401b038311611365576020808501948460051b01011161136557565b9181601f84011215611365578235916001600160401b038311611365576020838186019501011161136557565b90602080835192838152019201905f5b818110611be55750505090565b82516001600160601b0316845260209384019390920191600101611bd8565b604081019081106001600160401b03821117611c1f57604052565b634e487b7160e01b5f52604160045260245ffd5b606081019081106001600160401b03821117611c1f57604052565b90601f801991011681019081106001600160401b03821117611c1f57604052565b6001600160401b038111611c1f5760051b60200190565b9190602083019260028210156105665752565b602435906001600160601b038216820361136557565b600435906001600160601b038216820361136557565b81601f8201121561136557803590611cdc82611c6f565b92611cea6040519485611c4e565b82845260208085019360061b8301019181831161136557602001925b828410611d14575050505090565b6040848303126113655760405190611d2b82611c04565b84356001600160a01b03811681036113655782526020850135906001600160601b03821682036113655782602092836040950152815201930192611d06565b6024359063ffffffff8216820361136557565b6060906003190112611365576004359060243560ff81168103611365579060443563ffffffff811681036113655790565b9190811015611b575760051b0190565b356001600160601b03811681036113655790565b90611ddc82611c6f565b611de96040519182611c4e565b8281528092611dfa601f1991611c6f565b0190602036910137565b90821015611b57570190565b805115611b575760200190565b8051821015611b575760209160051b010190565b90604051611e3e81611c33565b60406001600160601b0382945463ffffffff8116845263ffffffff8160201c166020850152821c16910152565b9190820391821161156a57565b9081602091031261136557516001600160a01b03811681036113655790565b90816020910312611365575180151581036113655790565b60809060ff60209394606083019560018060a01b031683521683820152606060408201528451809452019201905f5b818110611eeb5750505090565b82516001600160a01b0316845260209384019390920191600101611ede565b906bffffffffffffffffffffffff60401b82549160401b16906bffffffffffffffffffffffff60401b1916179055565b8054600160401b811015611c1f57611f5791600182018155611b42565b61157e578151815460208085015167ffffffff00000000911b1663ffffffff90921667ffffffffffffffff1990911617178155611fa2916001600160601b0390604001511690611f0a565b565b60405190611fb182611c33565b5f6040838281528260208201520152565b90604051611fcf81611c04565b91546001600160a01b038116835260a01c6020830152565b90611ff0611fa4565b50815f52600260205260405f2060ff82165f5260205260405f205490612014611fa4565b92826120205750505090565b909192505f52600260205260ff60405f2091165f5260205260405f205f19820191821161156a576120549161031f91611b42565b90565b60ff165f81815260016020526040902080549192915f19810190811161156a5761208091611b42565b509080156121195763ffffffff6120a58354926001600160601b038460401c16612d9a565b938492438316921682036120be57505061205491611f0a565b835467ffffffff000000001916602083901b67ffffffff000000001617909355612054929091505f52600160205260405f20604051916120fd83611c33565b82525f60208301526001600160601b0384166040830152611f3a565b506001600160601b0391505460401c1690565b6121449060ff165f52600160205260405f2054151590565b1561214b57565b637310cff560e11b5f5260045ffd5b6001600160601b036121a36121aa94936121b2936040519161217d604084611c4e565b600183526020368185013761219183611e10565b6001600160a01b039091169052612733565b9490611e10565b511692611e10565b51151590565b604051638da5cb5b60e01b81526020816004817f00000000000000000000000000000000000000000000000000000000000000006001600160a01b03165afa90811561135a575f91612226575b506001600160a01b0316330361221757565b63ce98c24b60e01b5f5260045ffd5b61223f915060203d602011610863576108548183611c4e565b5f612205565b7f00000000000000000000000000000000000000000000000000000000000000006001600160a01b0316330361227757565b632c01b20560e21b5f5260045ffd5b905f90825f52600260205260405f2060ff82165f5260205260405f205480155f14612316575090825f5160206130d85f395f51905f5260405f94612054968652600260205281862060ff821687526020526123028287208351906122e982611c33565b63ffffffff431682528860208301528885830152611f3a565b60ff825191168152856020820152a26130b2565b909150825f52600260205260405f2060ff83165f5260205260405f20905f19810190811161156a5761234791611b42565b508054926001600160601b038460401c169182156124085760405f945f5160206130d85f395f51905f529263ffffffff61205498814316918291161488146123aa5750805473ffffffffffffffffffffffff000000000000000019169055612302565b815467ffffffff000000001916602082901b67ffffffff00000000161790915561240390858852600260205283882060ff841689526020528388208451916123f183611c33565b82528860208301528885830152611f3a565b612302565b50505050505f90565b91905f90835f52600260205260405f2060ff82165f5260205260405f205480155f146124b25750925f5160206130d85f395f51905f52604061205495835f526002602052815f2060ff82165f52602052612495825f2083519061247382611c33565b63ffffffff431682525f60208301526001600160601b03891685830152611f3a565b60ff8251911681526001600160601b0386166020820152a26130b2565b909150835f52600260205260405f2060ff83165f5260205260405f20905f19810190811161156a576124e391611b42565b50928354916001600160601b038360401c16926001600160601b0385169182851461259e57612054968663ffffffff5f5160206130d85f395f51905f529560409582431692839116145f1461254257505061253d91611f0a565b612495565b835467ffffffff000000001916602083901b67ffffffff00000000161790935561253d92909150865f526002602052845f2060ff85165f52602052845f209085519261258d84611c33565b83525f602084015285830152611f3a565b505050505050505f90565b602081830312611365578051906001600160401b03821161136557019080601f83011215611365578151906125dd82611c6f565b926125eb6040519485611c4e565b82845260208085019360051b820101908282116113655760208101935b82851061261757505050505090565b84516001600160401b03811161136557820184603f820112156113655760208101519061264382611c6f565b916126516040519384611c4e565b8083526020808085019260051b840101019187831161136557604001905b82821061268757505050815260209485019401612608565b815181526020918201910161266f565b90602080835192838152019201905f5b8181106126b45750505090565b82516001600160a01b03168452602093840193909201916001016126a7565b90602082549182815201915f5260205f20905f5b8181106126f45750505090565b82546001600160a01b03168452602090930192600192830192016126e7565b906001600160601b03809116911601906001600160601b03821161156a57565b61273d8251611dd2565b60ff6127498451611dd2565b92165f8181526003602052604090208054919591908161276881611c6f565b916127766040519384611c4e565b81835260208301905f5260205f205f915b838310612ae45750505050865f52600560205260ff60405f205416600281101561056657600103612a4057865f52600660205263ffffffff6127cf8160405f20541643612b01565b60405163de1164bb60e01b81529116906020816004817f00000000000000000000000000000000000000000000000000000000000000006001600160a01b03165afa90811561135a575f91612886918391612a21575b506040519061283382611c04565b6001600160a01b03908116825260208083018d81528d8652600491829052604080872090516315d5962560e11b81529451909316918401919091525163ffffffff1660248301529093849283926128ac91565b60a0604485015261289a60a485018e612697565b848103600319016064860152906126d3565b608483019190915203817f00000000000000000000000000000000000000000000000000000000000000006001600160a01b03165afa90811561135a575f916129ff575b50925b5f5b87518110156129f2575f5b8481106129475750806001600160601b0361291d60019389611e1d565b51168a5f525f6020526001600160601b0360405f2054161115612940828a611e1d565b52016128f5565b6129518185611e1d565b519061296781612961858a611e1d565b51611e1d565b51612977575b6001915001612900565b6001600160601b03602061298f83612961878c611e1d565b51930151169182810292818404149015171561156a576129d76001600160601b03670de0b6b3a764000060019404166001600160601b036129d0868c611e1d565b5116612713565b6001600160601b036129e9858b611e1d565b9116905261296d565b5095505050509092509190565b612a1b91503d805f833e612a138183611c4e565b8101906125a9565b5f6128f0565b612a3a915060203d602011610863576108548183611c4e565b5f612825565b865f526004602052612a875f6040812060405180938192637870733b60e11b835260406004840152612a75604484018d612697565b838103600319016024850152906126d3565b03817f00000000000000000000000000000000000000000000000000000000000000006001600160a01b03165afa90811561135a575f91612aca575b50926128f3565b612ade91503d805f833e612a138183611c4e565b5f612ac3565b600160208192612af385611fc2565b815201920192019190612787565b9190820180921161156a57565b8151156115bf5760ff8251911691825f52600360205260405f2054926020612b368486612b01565b11611a09575f925b808410612b4c575050505050565b90919293945f5b612b5d8688612b01565b811015612bb057835f526003602052612b798160405f20611b42565b50546001600160a01b0390811690612b918888611e1d565b51511614612ba157600101612b53565b637b74340b60e01b5f5260045ffd5b509493929190926001600160601b036020612bcb8386611e1d565b5101511615612d3557815f52600360205260405f20612bea8285611e1d565b51908054600160401b811015611c1f57612c0991600182018155611b42565b61157e5781516020929092015160a01b6001600160a01b0319166001600160a01b03929092169190911790555f828152600460205260409020906001600160a01b03612c558286611e1d565b515116825490600160401b821015611c1f576114ff8260019586612c7b95018155611b42565b827f10565e56cacbf32eca267945f054fec02e59750032d113d3302182ad967f54046020848060a01b03612caf8589611e1d565b515116604051908152a2827f11a5641322da1dff56a4b66eaac31ffa465295ece907cd163437793b4d009a75838060a01b03612ceb8488611e1d565b5151166001600160601b036020612d02868a611e1d565b510151604080516001600160a01b0394909416845291166001600160601b03166020830152819081010390a20192612b3e565b637257125160e01b5f5260045ffd5b602060ff7f26eecff2b70b0a71104ff4d940ba7162d23a95c248771fc487a7be17a596b3cf921692835f525f82526001600160601b0360405f20911690816001600160601b0319825416179055604051908152a2565b905f811215612dcf57600160ff1b811461156a576001600160601b0380915f03169116036001600160601b03811161156a5790565b906001600160601b03612054921690612713565b63ffffffff808251169216918210612e12576020015163ffffffff168015918215612e21575b505015612e1257565b631391e11b60e21b5f5260045ffd5b1090505f80612e09565b60ff1690815f52600560205260ff60405f205416600281101561056657600103612f5e57604051632981eb7760e01b8152906020826004817f00000000000000000000000000000000000000000000000000000000000000006001600160a01b03165afa91821561135a575f92612f19575b5063ffffffff80911691168111612f0a57816040917f28d7358b79f02d21b8b7e17aefc4185a64308aa37406fa5befc05b91932c39c7935f52600660205263ffffffff835f205416915f526006602052825f208163ffffffff1982541617905582519182526020820152a1565b630bd441b960e21b5f5260045ffd5b9091506020813d602011612f56575b81612f3560209383611c4e565b81010312611365575163ffffffff81168103611365579063ffffffff612e9d565b3d9150612f28565b63a3be258360e01b5f5260045ffd5b929190835f52600260205260405f2060ff82165f5260205260405f2054805b6130515760405162461bcd60e51b815260206004820152608160248201527f5374616b6552656769737472792e5f6765745374616b65557064617465496e6460448201527f6578466f724f70657261746f724174426c6f636b4e756d6265723a206e6f207360648201527f74616b652075706461746520666f756e6420666f72206f70657261746f72496460848201527f20616e642071756f72756d4e756d62657220617420626c6f636b206e756d626560a4820152603960f91b60c482015260e490fd5b845f52600260205260405f2060ff83165f5260205260405f205f1982019082821161156a576130858263ffffffff92611b42565b50541663ffffffff851610156130a55750801561156a575f190180612f8c565b63ffffffff169450505050565b6001600160601b039081169116818103915f13801582841316918312161761156a579056fe2f527d527e95d8fe40aec55377743bb779087da3f6d0d08f12e36444da62327da26469706673582212209b7c92c297d991895f28d14976a3315f64ea997caf1f2af8e706d59129f3cd7c64736f6c634300081b0033","linkReferences":{}},"methodIdentifiers":{"MAX_WEIGHING_FUNCTION_LENGTH()":"7c172347","WEIGHTING_DIVISOR()":"5e5a6775","addStrategies(uint8,(address,uint96)[])":"c601527d","allocationManager()":"ca8aa7c7","applyDelta(uint96,int256)":"7f429822","avsDirectory()":"6b3aa72e","calculateDelta(uint96,uint96)":"f509551a","delegation()":"df5cf723","deregisterOperator(bytes32,bytes)":"bd29b8cd","getCurrentStake(bytes32,uint8)":"5401ed27","getCurrentTotalStake(uint8)":"d5eccc05","getLatestStakeUpdate(bytes32,uint8)":"f851e198","getStakeAtBlockNumber(bytes32,uint8,uint32)":"fa28c627","getStakeAtBlockNumberAndIndex(uint8,uint32,bytes32,uint256)":"f2be94ae","getStakeHistory(bytes32,uint8)":"2cd95940","getStakeHistoryLength(bytes32,uint8)":"4bd26e09","getStakeUpdateAtIndex(uint8,bytes32,uint256)":"ac6bfb03","getStakeUpdateIndexAtBlockNumber(bytes32,uint8,uint32)":"dd9846b9","getTotalStakeAtBlockNumberFromIndex(uint8,uint32,uint256)":"c8294c56","getTotalStakeHistoryLength(uint8)":"0491b41c","getTotalStakeIndicesAtBlockNumber(uint32,bytes)":"81c07502","getTotalStakeUpdateAtIndex(uint8,uint256)":"b6904b78","initializeDelegatedStakeQuorum(uint8,uint96,(address,uint96)[])":"75d4173a","initializeSlashableStakeQuorum(uint8,uint96,uint32,(address,uint96)[])":"cc5a7c20","minimumStakeForQuorum(uint8)":"c46778a5","modifyStrategyParams(uint8,uint256[],uint96[])":"20b66298","recordOperatorStakeUpdate(bytes32,uint8,uint96)":"74454c6d","recordTotalStakeUpdate(uint8,int256)":"0390a4d5","registerOperator(address,bytes32,bytes)":"25504777","registryCoordinator()":"6d14a987","removeStrategies(uint8,uint256[])":"5f1f2d77","setMinimumStakeForQuorum(uint8,uint96)":"bc9a40c3","setSlashableStakeLookahead(uint8,uint32)":"e086adb3","slashableStakeLookAheadPerQuorum(uint8)":"9ab4d6ff","stakeTypePerQuorum(uint8)":"697fbd93","strategiesPerQuorum(uint8,uint256)":"9f3ccf65","strategyParams(uint8,uint256)":"08732461","strategyParamsByIndex(uint8,uint256)":"adc804da","strategyParamsLength(uint8)":"3ca5a5f5","updateOperatorsStake(address[],bytes32[],uint8)":"6c3fb4bf","weightOfOperatorForQuorum(uint8,address)":"1f9b74e0"},"id":129}