{"abi":[{"type":"constructor","inputs":[{"name":"_delegationManager","type":"address","internalType":"contract IDelegationManager"}],"stateMutability":"nonpayable"},{"type":"function","name":"deregisterOperator","inputs":[],"outputs":[],"stateMutability":"nonpayable"},{"type":"function","name":"getLastCheckpointOperatorWeight","inputs":[{"name":"operator","type":"address","internalType":"address"}],"outputs":[{"name":"","type":"uint256","internalType":"uint256"}],"stateMutability":"view"},{"type":"function","name":"getLastCheckpointThresholdWeight","inputs":[],"outputs":[{"name":"","type":"uint256","internalType":"uint256"}],"stateMutability":"view"},{"type":"function","name":"getLastCheckpointThresholdWeightAtBlock","inputs":[{"name":"blockNumber","type":"uint32","internalType":"uint32"}],"outputs":[{"name":"","type":"uint256","internalType":"uint256"}],"stateMutability":"view"},{"type":"function","name":"getLastCheckpointTotalWeight","inputs":[],"outputs":[{"name":"","type":"uint256","internalType":"uint256"}],"stateMutability":"view"},{"type":"function","name":"getLastCheckpointTotalWeightAtBlock","inputs":[{"name":"blockNumber","type":"uint32","internalType":"uint32"}],"outputs":[{"name":"","type":"uint256","internalType":"uint256"}],"stateMutability":"view"},{"type":"function","name":"getLatestOperatorSigningKey","inputs":[{"name":"operator","type":"address","internalType":"address"}],"outputs":[{"name":"","type":"address","internalType":"address"}],"stateMutability":"view"},{"type":"function","name":"getOperatorSigningKeyAtBlock","inputs":[{"name":"operator","type":"address","internalType":"address"},{"name":"blockNumber","type":"uint256","internalType":"uint256"}],"outputs":[{"name":"","type":"address","internalType":"address"}],"stateMutability":"view"},{"type":"function","name":"getOperatorWeight","inputs":[{"name":"operator","type":"address","internalType":"address"}],"outputs":[{"name":"","type":"uint256","internalType":"uint256"}],"stateMutability":"view"},{"type":"function","name":"getOperatorWeightAtBlock","inputs":[{"name":"operator","type":"address","internalType":"address"},{"name":"blockNumber","type":"uint32","internalType":"uint32"}],"outputs":[{"name":"","type":"uint256","internalType":"uint256"}],"stateMutability":"view"},{"type":"function","name":"initialize","inputs":[{"name":"_serviceManager","type":"address","internalType":"address"},{"name":"thresholdWeight","type":"uint256","internalType":"uint256"},{"name":"quorum","type":"tuple","internalType":"struct IECDSAStakeRegistryTypes.Quorum","components":[{"name":"strategies","type":"tuple[]","internalType":"struct IECDSAStakeRegistryTypes.StrategyParams[]","components":[{"name":"strategy","type":"address","internalType":"contract IStrategy"},{"name":"multiplier","type":"uint96","internalType":"uint96"}]}]}],"outputs":[],"stateMutability":"nonpayable"},{"type":"function","name":"isValidSignature","inputs":[{"name":"digest","type":"bytes32","internalType":"bytes32"},{"name":"_signatureData","type":"bytes","internalType":"bytes"}],"outputs":[{"name":"","type":"bytes4","internalType":"bytes4"}],"stateMutability":"view"},{"type":"function","name":"minimumWeight","inputs":[],"outputs":[{"name":"","type":"uint256","internalType":"uint256"}],"stateMutability":"view"},{"type":"function","name":"operatorRegistered","inputs":[{"name":"operator","type":"address","internalType":"address"}],"outputs":[{"name":"","type":"bool","internalType":"bool"}],"stateMutability":"view"},{"type":"function","name":"owner","inputs":[],"outputs":[{"name":"","type":"address","internalType":"address"}],"stateMutability":"view"},{"type":"function","name":"quorum","inputs":[],"outputs":[{"name":"","type":"tuple","internalType":"struct IECDSAStakeRegistryTypes.Quorum","components":[{"name":"strategies","type":"tuple[]","internalType":"struct IECDSAStakeRegistryTypes.StrategyParams[]","components":[{"name":"strategy","type":"address","internalType":"contract IStrategy"},{"name":"multiplier","type":"uint96","internalType":"uint96"}]}]}],"stateMutability":"view"},{"type":"function","name":"registerOperatorWithSignature","inputs":[{"name":"operatorSignature","type":"tuple","internalType":"struct ISignatureUtilsMixinTypes.SignatureWithSaltAndExpiry","components":[{"name":"signature","type":"bytes","internalType":"bytes"},{"name":"salt","type":"bytes32","internalType":"bytes32"},{"name":"expiry","type":"uint256","internalType":"uint256"}]},{"name":"signingKey","type":"address","internalType":"address"}],"outputs":[],"stateMutability":"nonpayable"},{"type":"function","name":"renounceOwnership","inputs":[],"outputs":[],"stateMutability":"nonpayable"},{"type":"function","name":"transferOwnership","inputs":[{"name":"newOwner","type":"address","internalType":"address"}],"outputs":[],"stateMutability":"nonpayable"},{"type":"function","name":"updateMinimumWeight","inputs":[{"name":"newMinimumWeight","type":"uint256","internalType":"uint256"},{"name":"operators","type":"address[]","internalType":"address[]"}],"outputs":[],"stateMutability":"nonpayable"},{"type":"function","name":"updateOperatorSigningKey","inputs":[{"name":"newSigningKey","type":"address","internalType":"address"}],"outputs":[],"stateMutability":"nonpayable"},{"type":"function","name":"updateOperators","inputs":[{"name":"operators","type":"address[]","internalType":"address[]"}],"outputs":[],"stateMutability":"nonpayable"},{"type":"function","name":"updateOperatorsForQuorum","inputs":[{"name":"operatorsPerQuorum","type":"address[][]","internalType":"address[][]"},{"name":"","type":"bytes","internalType":"bytes"}],"outputs":[],"stateMutability":"nonpayable"},{"type":"function","name":"updateQuorumConfig","inputs":[{"name":"quorum","type":"tuple","internalType":"struct IECDSAStakeRegistryTypes.Quorum","components":[{"name":"strategies","type":"tuple[]","internalType":"struct IECDSAStakeRegistryTypes.StrategyParams[]","components":[{"name":"strategy","type":"address","internalType":"contract IStrategy"},{"name":"multiplier","type":"uint96","internalType":"uint96"}]}]},{"name":"operators","type":"address[]","internalType":"address[]"}],"outputs":[],"stateMutability":"nonpayable"},{"type":"function","name":"updateStakeThreshold","inputs":[{"name":"thresholdWeight","type":"uint256","internalType":"uint256"}],"outputs":[],"stateMutability":"nonpayable"},{"type":"event","name":"Initialized","inputs":[{"name":"version","type":"uint8","indexed":false,"internalType":"uint8"}],"anonymous":false},{"type":"event","name":"MinimumWeightUpdated","inputs":[{"name":"previous","type":"uint256","indexed":false,"internalType":"uint256"},{"name":"current","type":"uint256","indexed":false,"internalType":"uint256"}],"anonymous":false},{"type":"event","name":"OperatorDeregistered","inputs":[{"name":"operator","type":"address","indexed":true,"internalType":"address"},{"name":"avs","type":"address","indexed":true,"internalType":"address"}],"anonymous":false},{"type":"event","name":"OperatorRegistered","inputs":[{"name":"operator","type":"address","indexed":true,"internalType":"address"},{"name":"avs","type":"address","indexed":true,"internalType":"address"}],"anonymous":false},{"type":"event","name":"OperatorWeightUpdated","inputs":[{"name":"operator","type":"address","indexed":true,"internalType":"address"},{"name":"oldWeight","type":"uint256","indexed":false,"internalType":"uint256"},{"name":"newWeight","type":"uint256","indexed":false,"internalType":"uint256"}],"anonymous":false},{"type":"event","name":"OwnershipTransferred","inputs":[{"name":"previousOwner","type":"address","indexed":true,"internalType":"address"},{"name":"newOwner","type":"address","indexed":true,"internalType":"address"}],"anonymous":false},{"type":"event","name":"QuorumUpdated","inputs":[{"name":"previous","type":"tuple","indexed":false,"internalType":"struct IECDSAStakeRegistryTypes.Quorum","components":[{"name":"strategies","type":"tuple[]","internalType":"struct IECDSAStakeRegistryTypes.StrategyParams[]","components":[{"name":"strategy","type":"address","internalType":"contract IStrategy"},{"name":"multiplier","type":"uint96","internalType":"uint96"}]}]},{"name":"current","type":"tuple","indexed":false,"internalType":"struct IECDSAStakeRegistryTypes.Quorum","components":[{"name":"strategies","type":"tuple[]","internalType":"struct IECDSAStakeRegistryTypes.StrategyParams[]","components":[{"name":"strategy","type":"address","internalType":"contract IStrategy"},{"name":"multiplier","type":"uint96","internalType":"uint96"}]}]}],"anonymous":false},{"type":"event","name":"SigningKeyUpdate","inputs":[{"name":"operator","type":"address","indexed":true,"internalType":"address"},{"name":"updateBlock","type":"uint256","indexed":true,"internalType":"uint256"},{"name":"newSigningKey","type":"address","indexed":true,"internalType":"address"},{"name":"oldSigningKey","type":"address","indexed":false,"internalType":"address"}],"anonymous":false},{"type":"event","name":"ThresholdWeightUpdated","inputs":[{"name":"thresholdWeight","type":"uint256","indexed":false,"internalType":"uint256"}],"anonymous":false},{"type":"event","name":"TotalWeightUpdated","inputs":[{"name":"oldTotalWeight","type":"uint256","indexed":false,"internalType":"uint256"},{"name":"newTotalWeight","type":"uint256","indexed":false,"internalType":"uint256"}],"anonymous":false},{"type":"event","name":"UpdateMinimumWeight","inputs":[{"name":"oldMinimumWeight","type":"uint256","indexed":false,"internalType":"uint256"},{"name":"newMinimumWeight","type":"uint256","indexed":false,"internalType":"uint256"}],"anonymous":false},{"type":"error","name":"InsufficientSignedStake","inputs":[]},{"type":"error","name":"InsufficientWeight","inputs":[]},{"type":"error","name":"InvalidLength","inputs":[]},{"type":"error","name":"InvalidQuorum","inputs":[]},{"type":"error","name":"InvalidReferenceBlock","inputs":[]},{"type":"error","name":"InvalidSignature","inputs":[]},{"type":"error","name":"InvalidSignedWeight","inputs":[]},{"type":"error","name":"InvalidThreshold","inputs":[]},{"type":"error","name":"LengthMismatch","inputs":[]},{"type":"error","name":"MustUpdateAllOperators","inputs":[]},{"type":"error","name":"NotSorted","inputs":[]},{"type":"error","name":"OperatorAlreadyRegistered","inputs":[]},{"type":"error","name":"OperatorNotRegistered","inputs":[]}],"bytecode":{"object":"0x60a034606657601f61254a38819003918201601f19168301916001600160401b03831184841017606a57808492602094604052833981010312606657516001600160a01b03811681036066576080526040516124cb908161007f8239608051816113080152f35b5f80fd5b634e487b7160e01b5f52604160045260245ffdfe60806040526004361015610011575f80fd5b5f3560e01c8062cf2ab5146101a35780630dba33941461019e5780631626ba7e146101995780631703a018146101945780631e4cd85e1461018f578063314f3a491461018a5780633b242e4a146101855780633d5611f61461018057806340bf2fb71461017b5780635140a548146101765780635e1042e8146101715780635ef533291461016c578063696255be14610167578063715018a614610162578063743c31f41461015d578063857dc190146101585780638da5cb5b14610153578063955f2d901461014e57806398ec1ac914610149578063a2ce5fd114610144578063ab1189951461013f578063b933fa741461013a578063dec5d1f614610135578063ec7fbb31146101305763f2fde38b1461012b575f80fd5b610e04565b610dc4565b610d60565b610cf1565b610bdf565b610ad4565b610aad565b610a5f565b610a37565b61091d565b6108d2565b610877565b6107ec565b6107c8565b610785565b6106bf565b6106a2565b610618565b6105d0565b6105a5565b610578565b61052c565b6103b5565b61031f565b6102d7565b634e487b7160e01b5f52604160045260245ffd5b602081019081106001600160401b038211176101d757604052565b6101a8565b606081019081106001600160401b038211176101d757604052565b604081019081106001600160401b038211176101d757604052565b90601f801991011681019081106001600160401b038211176101d757604052565b60405190610242604083610212565b565b6001600160401b0381116101d75760051b60200190565b6001600160a01b0381160361026c57565b5f80fd5b9080601f8301121561026c57813561028781610244565b926102956040519485610212565b81845260208085019260051b82010192831161026c57602001905b8282106102bd5750505090565b6020809183356102cc8161025b565b8152019101906102b0565b3461026c57602036600319011261026c576004356001600160401b03811161026c5761030a61030f913690600401610270565b611464565b005b63ffffffff81160361026c57565b3461026c57602036600319011261026c57602061034c63ffffffff60043561034681610311565b166114c1565b604051908152f35b6001600160401b0381116101d757601f01601f191660200190565b81601f8201121561026c5780359061038682610354565b926103946040519485610212565b8284526020838301011161026c57815f926020809301838601378301015290565b3461026c57604036600319011261026c576004356024356001600160401b03811161026c576103e890369060040161036f565b9081518201916060816020850194031261026c5760208101516001600160401b03811161026c57810183603f8201121561026c5760208101519061042b82610244565b916104396040519384610212565b8083526020808085019260051b840101019186831161026c57604001905b8282106104af5750505060408201516001600160401b03811161026c57606061048b61049896602061049294870101610e95565b9301610f4d565b92611756565b604051630b135d3f60e11b815280602081015b0390f35b6020809183516104be8161025b565b815201910190610457565b5f91031261026c57565b602060408184019251938281528451809452019201905f5b8181106104f85750505090565b825180516001600160a01b031685526020908101516001600160601b031681860152604090940193909201916001016104eb565b3461026c575f36600319011261026c57606060405161054a816101bc565b526104ab60405161055a816101bc565b610562610f58565b81526040519182916020835260208301906104d3565b3461026c57602036600319011261026c57602061034c63ffffffff60043561059f81610311565b166115e8565b3461026c575f36600319011261026c5760206001600160e01b036105c7611839565b16604051908152f35b3461026c57602036600319011261026c576004356105ed8161025b565b6001600160a01b03165f908152606d602090815260409091206001600160e01b03906105c79061187d565b3461026c57604036600319011261026c576004356001600160401b03811161026c576060600319823603011261026c57604051610654816101dc565b81600401356001600160401b03811161026c5761030f9261067d6044926004369184010161036f565b835260248101356020840152013560408201526024359061069d8261025b565b610fcf565b3461026c575f36600319011261026c576020606754604051908152f35b3461026c57604036600319011261026c576004356001600160401b03811161026c573660238201121561026c5780600401356106fa81610244565b916107086040519384610212565b8183526024602084019260051b8201019036821161026c5760248101925b82841061075657602435856001600160401b03821161026c5761075061030f92369060040161036f565b50611109565b83356001600160401b03811161026c5760209161077a839260243691870101610270565b815201930192610726565b3461026c57604036600319011261026c5760206004356107a48161025b565b6001600160a01b039081165f908152606a8352604090206105c790602435906116b5565b3461026c57602036600319011261026c5761030f6004356107e7611917565b61196f565b3461026c57604036600319011261026c576024356004356001600160401b03821161026c577f713ca53b88d6eb63f5b1854cb8cbdd736ec51eda225e46791aa9298b0160648f61084361030f933690600401610270565b9161084c611917565b6067548160675561086f6040519283928360209093929193604081019481520152565b0390a1611464565b3461026c575f36600319011261026c5761088f611917565b603380546001600160a01b031981169091555f906001600160a01b03167f8be0079c531659141344cd1fd0a4f28419497f9722a3daafe3b4186f6b6457e08280a3005b3461026c57602036600319011261026c576004356108ef8161025b565b335f52606e60205260ff60405f2054161561090e5761030f9033611a69565b6325ec6c1f60e01b5f5260045ffd5b3461026c575f36600319011261026c57335f908152606e6020526040902061094f9061094b905b5460ff1690565b1590565b61090e57610966610961606554611afa565b606555565b335f908152606e60205260409020805460ff1916905561098d61098833611d3e565b611e6f565b50506068546109b2906109a6906001600160a01b031681565b6001600160a01b031690565b803b1561026c576040516351b27a6d60e11b8152336004820152905f908290602490829084905af18015610a3257610a18575b6068546001600160a01b0316337f31e0adfec71bccee37b6e83a90c2fedb17d8f1693fee863c4771e7bfe2aed5805f80a3005b80610a265f610a2c93610212565b806104c9565b5f6109e5565b611232565b3461026c575f36600319011261026c576033546040516001600160a01b039091168152602090f35b3461026c57604036600319011261026c57602061034c600435610a818161025b565b60243590610a8e82610311565b60018060a01b03165f52606d835263ffffffff60405f209116906116b5565b3461026c57602036600319011261026c57602061034c600435610acf8161025b565b61127f565b3461026c57602036600319011261026c57600435610af18161025b565b60018060a01b03165f52606a602052602060018060a01b036105c760405f2061187d565b919060208382031261026c57604051610b2d816101bc565b80938035906001600160401b03821161026c570182601f8201121561026c57803590610b5882610244565b93610b666040519586610212565b82855260208086019360061b8301019181831161026c57602001925b828410610b90575050505052565b60408483031261026c5760405190610ba7826101f7565b8435610bb28161025b565b82526020850135906001600160601b038216820361026c5782602092836040950152815201930192610b82565b3461026c57606036600319011261026c57600435610bfc8161025b565b6044356024356001600160401b03821161026c57610c21610c69923690600401610b15565b905f5493610c4f610c3961094b8760ff9060081c1690565b80968197610ce3575b8115610cc3575b506113e6565b84610c60600160ff195f5416175f55565b610cac57611b66565b610c6f57005b610c7d61ff00195f54165f55565b604051600181527f7f26b83ff96e1f2b6a682f133852f6798a09c465da95921460cefb384740249890602090a1005b610cbe61010061ff00195f5416175f55565b611b66565b303b15915081610cd5575b505f610c49565b60ff1660011490505f610cce565b600160ff8216109150610c42565b3461026c575f36600319011261026c57606c5480610d20575060205f5b6040516001600160e01b039091168152f35b805f19810111610d5b57606c5f527f2b4a51ab505fc96a0952efda2ba61bcd3078d4c02c39a186ec16f21883fbe0150154602090811c610d0e565b61123d565b3461026c57604036600319011261026c576004356001600160401b03811161026c57610d90903690600401610b15565b602435906001600160401b03821161026c5761030a610db661030f933690600401610270565b91610dbf611917565b611c47565b3461026c57602036600319011261026c57600435610de18161025b565b60018060a01b03165f52606e602052602060ff60405f2054166040519015158152f35b3461026c57602036600319011261026c57600435610e218161025b565b610e29611917565b6001600160a01b03811615610e415761030f90611a21565b60405162461bcd60e51b815260206004820152602660248201527f4f776e61626c653a206e6577206f776e657220697320746865207a65726f206160448201526564647265737360d01b6064820152608490fd5b9080601f8301121561026c57815191610ead83610244565b92610ebb6040519485610212565b80845260208085019160051b8301019183831161026c5760208101915b838310610ee757505050505090565b82516001600160401b03811161026c57820185603f8201121561026c57602081015191610f1383610354565b610f206040519182610212565b838152604083850101881061026c575f602085819660408397018386015e83010152815201920191610ed8565b519061024282610311565b60665490610f6582610244565b91610f736040519384610212565b80835260665f9081525f5160206124765f395f51905f52602085015b838310610f9c5750505050565b600160208192604051610fae816101f7565b8554848060a01b038116825260a01c83820152815201920192019190610f8f565b335f908152606e60205260409020909190610fe990610944565b6110cd5761103290610fff6109616065546118a7565b335f908152606e6020526040902061101e90805460ff19166001179055565b61102a61098833611d3e565b505033611a69565b606854611049906109a6906001600160a01b031681565b803b1561026c57604051639926ee7d60e01b8152915f9183918290849082906110769033600484016118d9565b03925af18015610a32576110b9575b506068546001600160a01b0316337fa453db612af59e5521d6ab9284dc3e2d06af286eb1b1b7b771fce4716c19f2c15f80a3565b80610a265f6110c793610212565b5f611085565b6342ee68b560e01b5f5260045ffd5b634e487b7160e01b5f52603260045260245ffd5b80518210156111045760209160051b010190565b6110dc565b80511561110457602001518051606554036111275761024290611464565b63169efb5b60e11b5f5260045ffd5b9061114082610244565b61114d6040519182610212565b828152809261115e601f1991610244565b0190602036910137565b60208183031261026c578051906001600160401b03821161026c57019080601f8301121561026c57815161119b81610244565b926111a96040519485610212565b81845260208085019260051b82010192831161026c57602001905b8282106111d15750505090565b81518152602091820191016111c4565b6060602091604081019360018060a01b031681526040838201528451809452019201905f5b8181106112135750505090565b82516001600160a01b0316845260209384019390920191600101611206565b6040513d5f823e3d90fd5b634e487b7160e01b5f52601160045260245ffd5b81810292918115918404141715610d5b57565b9060018201809211610d5b57565b91908201809211610d5b57565b611287610f58565b915f906112948451611136565b915f5b85518110156112e057806112da6112c16112b36001948a6110f0565b51516001600160a01b031690565b6112cb83886110f0565b6001600160a01b039091169052565b01611297565b50915f9061130492946040519384928392639004134760e01b8452600484016111e1565b03817f00000000000000000000000000000000000000000000000000000000000000006001600160a01b03165afa908115610a32575f916113c4575b505f915b84518310156113a25761139a60019161139461136086866110f0565b5161138e61138260206113738a8d6110f0565b5101516001600160601b031690565b6001600160601b031690565b90611251565b90611272565b920191611344565b9150506113b3919250612710900490565b60675481106113bf5790565b505f90565b6113e091503d805f833e6113d88183610212565b810190611168565b5f611340565b156113ed57565b60405162461bcd60e51b815260206004820152602e60248201527f496e697469616c697a61626c653a20636f6e747261637420697320616c72656160448201526d191e481a5b9a5d1a585b1a5e995960921b6064820152608490fd5b9190915f8382019384129112908015821691151617610d5b57565b905f805b83518210156114a25760019061149a906114946001600160a01b0361148d86896110f0565b5116611d3e565b90611449565b910190611468565b90506114af919250611e6f565b5050565b5f19810191908211610d5b57565b438110156115a4576114d290611ef4565b606b549063ffffffff165f5b82811061153f575050806114fb57505f5b6001600160e01b031690565b61153361150a61153a926114b3565b606b5f527fbd43cb8ece8cd1863bcd6082d65c5b0d25665b1ce17980f0da43c0ed545f98b40190565b5460201c90565b6114ef565b90918082169080831860011c8201809211610d5b57606b5f527fbd43cb8ece8cd1863bcd6082d65c5b0d25665b1ce17980f0da43c0ed545f98b482015463ffffffff168410156115925750915b906114de565b92915061159e90611264565b9061158c565b606460405162461bcd60e51b815260206004820152602060248201527f436865636b706f696e74733a20626c6f636b206e6f7420796574206d696e65646044820152fd5b438110156115a4576115f990611ef4565b606c549063ffffffff165f5b8281106116505750508061161857505f90565b61153361162761153a926114b3565b606c5f527f2b4a51ab505fc96a0952efda2ba61bcd3078d4c02c39a186ec16f21883fbe0160190565b90918082169080831860011c8201809211610d5b57606c5f527f2b4a51ab505fc96a0952efda2ba61bcd3078d4c02c39a186ec16f21883fbe01682015463ffffffff168410156116a35750915b90611605565b9291506116af90611264565b9061169d565b90438110156115a4576116c790611ef4565b81549063ffffffff165f5b828110611702575050806116e757505f919050565b61153a916116f7611533926114b3565b905f5260205f200190565b90918082169080831860011c8201809211610d5b57845f528363ffffffff6117348460205f200163ffffffff90541690565b1611156117445750915b906116d2565b92915061175090611264565b9061173e565b939291938151905f955f938151840361182a57831561181b579291905f935b83851061178c5750505050506102429293506120e0565b909192939460018060a01b036117a287846110f0565b51169863ffffffff8816914383101561180c576117f7611801926117e58d600196815f52606a6020526117de888060a01b039160405f206116b5565b1692611f5c565b876117f08b896110f0565b5191611f80565b611394898c6120b5565b950193929190611775565b63e64f180f60e01b5f5260045ffd5b63251f56a160e21b5f5260045ffd5b631fec674760e31b5f5260045ffd5b606b548061184657505f90565b805f19810111610d5b57606b5f527fbd43cb8ece8cd1863bcd6082d65c5b0d25665b1ce17980f0da43c0ed545f98b3015460201c90565b8054908161188b5750505f90565b815f19810111610d5b575f525f199060205f2001015460201c90565b5f198114610d5b5760010190565b805180835260209291819084018484015e5f828201840152601f01601f1916010190565b9060018060a01b031681526040602082015260806040611904845160608386015260a08501906118b5565b9360208101516060850152015191015290565b6033546001600160a01b0316330361192b57565b606460405162461bcd60e51b815260206004820152602060248201527f4f776e61626c653a2063616c6c6572206973206e6f7420746865206f776e65726044820152fd5b61197843611ef4565b6001600160e01b0382116119cc577f9324f7e5a7c0288808a634ccde44b8e979676474b22e29ee9dd569b55e791a4b916020916119c1906001600160e01b03831690606c6122a0565b5050604051908152a1565b60405162461bcd60e51b815260206004820152602760248201527f53616665436173743a2076616c756520646f65736e27742066697420696e20326044820152663234206269747360c81b6064820152608490fd5b603380546001600160a01b039283166001600160a01b0319821681179092559091167f8be0079c531659141344cd1fd0a4f28419497f9722a3daafe3b4186f6b6457e05f80a3565b6001600160a01b039081165f818152606a6020526040902090929190611a8e9061187d565b6001600160a01b0390921692911690828214611af557805f52606a602052611ab98360405f20612151565b50506040516001600160a01b03909216825243917fd061168252f441733658f09e4d8f5b2d998ed4ef24a2bbfd6ceca52ea131500290602090a4565b505050565b8015610d5b575f190190565b15611b0d57565b60405162461bcd60e51b815260206004820152602b60248201527f496e697469616c697a61626c653a20636f6e7472616374206973206e6f74206960448201526a6e697469616c697a696e6760a81b6064820152608490fd5b611b9f9291610dbf91611b7f60ff5f5460081c16611b06565b60018060a01b03166001600160601b0360a01b606854161760685561196f565b611bb860ff5f5460081c16611bb381611b06565b611b06565b61024233611a21565b606654600160401b8110156101d757600181016066556066548110156111045760665f5281516020929092015160a01b6001600160a01b0319166001600160a01b0392909216919091175f5160206124765f395f51905f5290910155565b9091611c36611c44936040845260408401906104d3565b9160208184039101526104d3565b90565b611c508161217b565b15611d175760405191611c62836101bc565b611c6a610f58565b83526066545f60665580611cdd575b505f5b82518051821015611ca35790611c9d611c97826001946110f0565b51611bc1565b01611c7c565b505091907f23aad4e61744ece164130aa415c1616e80136b0f0770e56589438b90b269265e91611cd860405192839283611c1f565b0390a1565b60665f525f5160206124765f395f51905f52015f5160206124765f395f51905f525b818110611d0c5750611c79565b5f8155600101611cff565b63d173577960e01b5f5260045ffd5b81810392915f138015828513169184121617610d5b57565b6001600160a01b0381165f818152606d602052604081209092908390611d639061187d565b60018060e01b03169384611d9260ff611d8c8660018060a01b03165f52606e60205260405f2090565b54161590565b15611e0757611da091611d26565b938415611e0057611dea611de57f88770dc862e47a7ed586907857eb1b75e4c5ffc8b707c7ee10eb74d6885fe5949460018060a01b03165f52606d60205260405f2090565b61212c565b50505b604080519182526020820192909252a290565b5050505090565b505050611e138161127f565b611e1d8482611d26565b938415611e0057611e6882611e637f88770dc862e47a7ed586907857eb1b75e4c5ffc8b707c7ee10eb74d6885fe5949560018060a01b03165f52606d60205260405f2090565b612151565b5050611ded565b90611e8b6001600160e01b03611e83611839565b169283611449565b90611e9543611ef4565b6001600160e01b0383116119cc57611eb9906001600160e01b03841690606b6122a0565b505060408051848152602081018490527f86dcf86b12dfeedea74ae9300dbdaa193bcce5809369c8177ea2f4eaaa65729b9181908101611cd8565b63ffffffff8111611f085763ffffffff1690565b60405162461bcd60e51b815260206004820152602660248201527f53616665436173743a2076616c756520646f65736e27742066697420696e203360448201526532206269747360d01b6064820152608490fd5b6001600160a01b0391821691161015611f7157565b63ba50f91160e01b5f5260045ffd5b919091611f8d82846123b6565b93909260058510156120a157611fb69415938461208b575b508315611fcb575b50505015151590565b611fbc57565b638baa579f60e01b5f5260045ffd5b5f9350906120036120118594936040519283916020830195630b135d3f60e11b875260248401526040604484015260648301906118b5565b03601f198101835282610212565b51915afa3d15612084573d61202581610354565b906120336040519283610212565b81523d5f602083013e5b81612076575b81612052575b505f8080611fad565b905061206f630b135d3f60e11b91602080825183010191016123eb565b145f612049565b905060208151101590612043565b606061203d565b6001600160a01b0384811691161493505f611fa5565b634e487b7160e01b5f52602160045260245ffd5b9063ffffffff164381101561180c57611c449160018060a01b03165f52606d60205260405f206116b5565b9063ffffffff164381101561180c576120f8816114c1565b821161211d57612107906115e8565b1161210e57565b63e121632f60e01b5f5260045ffd5b634b05a0f760e11b5f5260045ffd5b5f6121409161213a43611ef4565b906122a0565b6001600160e01b0391821692911690565b61215a43611ef4565b6001600160e01b0383116119cc57612140926001600160e01b0316916122a0565b515f919082805b82518210156121d15761219b6109a66112b384866110f0565b906001600160a01b0380831691161015611f71576121c860019195611394611382602061137387896110f0565b91019093612182565b5050509061271014155f146121e4575f90565b600190565b805490600160401b8210156101d75760018201808255821015611104575f9081526020902001815160209283015190921b63ffffffff191663ffffffff92909216919091179055565b9060405161223f816101f7565b602081935463ffffffff81168352811c910152565b1561225b57565b60405162461bcd60e51b815260206004820152601b60248201527f436865636b706f696e743a2064656372656173696e67206b65797300000000006044820152606490fd5b909291928382548015155f1461238c579260209291846122d86122d36122c8612352986114b3565b855f5260205f200190565b612232565b9363ffffffff6122fd6122ef875163ffffffff1690565b828416928391161115612254565b61231761230e875163ffffffff1690565b63ffffffff1690565b036123565750612344926116f761232d926114b3565b9063ffffffff82549181199060201b169116179055565b01516001600160e01b031690565b9190565b91505061238791612374612368610233565b63ffffffff9093168352565b6001600160e01b038816828601526121e9565b612344565b50506123b19161239d612368610233565b6001600160e01b03851660208301526121e9565b5f9190565b9060418151145f146123e2576123de91602082015190606060408401519301515f1a906123fa565b9091565b50505f90600290565b9081602091031261026c575190565b7f7fffffffffffffffffffffffffffffff5d576e7357a4501ddfe92f46681b20a0841161246a576020935f9360ff60809460405194855216868401526040830152606082015282805260015afa15610a32575f516001600160a01b0381161561246257905f90565b505f90600190565b505050505f9060039056fe46501879b8ca8525e8c2fd519e2fbfcfa2ebea26501294aa02cbfcfb12e94354a26469706673582212204dcc03d860ef4f96c0a60944e8df00d457f159b1e652e6ad06c24bb5adc242c964736f6c634300081b0033","linkReferences":{}},"methodIdentifiers":{"deregisterOperator()":"857dc190","getLastCheckpointOperatorWeight(address)":"3b242e4a","getLastCheckpointThresholdWeight()":"b933fa74","getLastCheckpointThresholdWeightAtBlock(uint32)":"1e4cd85e","getLastCheckpointTotalWeight()":"314f3a49","getLastCheckpointTotalWeightAtBlock(uint32)":"0dba3394","getLatestOperatorSigningKey(address)":"a2ce5fd1","getOperatorSigningKeyAtBlock(address,uint256)":"5e1042e8","getOperatorWeight(address)":"98ec1ac9","getOperatorWeightAtBlock(address,uint32)":"955f2d90","initialize(address,uint256,((address,uint96)[]))":"ab118995","isValidSignature(bytes32,bytes)":"1626ba7e","minimumWeight()":"40bf2fb7","operatorRegistered(address)":"ec7fbb31","owner()":"8da5cb5b","quorum()":"1703a018","registerOperatorWithSignature((bytes,bytes32,uint256),address)":"3d5611f6","renounceOwnership()":"715018a6","transferOwnership(address)":"f2fde38b","updateMinimumWeight(uint256,address[])":"696255be","updateOperatorSigningKey(address)":"743c31f4","updateOperators(address[])":"00cf2ab5","updateOperatorsForQuorum(address[][],bytes)":"5140a548","updateQuorumConfig(((address,uint96)[]),address[])":"dec5d1f6","updateStakeThreshold(uint256)":"5ef53329"},"id":125}