{"abi":[{"type":"constructor","inputs":[{"name":"_slashingRegistryCoordinator","type":"address","internalType":"contract ISlashingRegistryCoordinator"}],"stateMutability":"nonpayable"},{"type":"function","name":"apkHistory","inputs":[{"name":"quorumNumber","type":"uint8","internalType":"uint8"},{"name":"","type":"uint256","internalType":"uint256"}],"outputs":[{"name":"apkHash","type":"bytes24","internalType":"bytes24"},{"name":"updateBlockNumber","type":"uint32","internalType":"uint32"},{"name":"nextUpdateBlockNumber","type":"uint32","internalType":"uint32"}],"stateMutability":"view"},{"type":"function","name":"currentApk","inputs":[{"name":"quorumNumber","type":"uint8","internalType":"uint8"}],"outputs":[{"name":"X","type":"uint256","internalType":"uint256"},{"name":"Y","type":"uint256","internalType":"uint256"}],"stateMutability":"view"},{"type":"function","name":"deregisterOperator","inputs":[{"name":"operator","type":"address","internalType":"address"},{"name":"quorumNumbers","type":"bytes","internalType":"bytes"}],"outputs":[],"stateMutability":"nonpayable"},{"type":"function","name":"getApk","inputs":[{"name":"quorumNumber","type":"uint8","internalType":"uint8"}],"outputs":[{"name":"","type":"tuple","internalType":"struct BN254.G1Point","components":[{"name":"X","type":"uint256","internalType":"uint256"},{"name":"Y","type":"uint256","internalType":"uint256"}]}],"stateMutability":"view"},{"type":"function","name":"getApkHashAtBlockNumberAndIndex","inputs":[{"name":"quorumNumber","type":"uint8","internalType":"uint8"},{"name":"blockNumber","type":"uint32","internalType":"uint32"},{"name":"index","type":"uint256","internalType":"uint256"}],"outputs":[{"name":"","type":"bytes24","internalType":"bytes24"}],"stateMutability":"view"},{"type":"function","name":"getApkHistoryLength","inputs":[{"name":"quorumNumber","type":"uint8","internalType":"uint8"}],"outputs":[{"name":"","type":"uint32","internalType":"uint32"}],"stateMutability":"view"},{"type":"function","name":"getApkIndicesAtBlockNumber","inputs":[{"name":"quorumNumbers","type":"bytes","internalType":"bytes"},{"name":"blockNumber","type":"uint256","internalType":"uint256"}],"outputs":[{"name":"","type":"uint32[]","internalType":"uint32[]"}],"stateMutability":"view"},{"type":"function","name":"getApkUpdateAtIndex","inputs":[{"name":"quorumNumber","type":"uint8","internalType":"uint8"},{"name":"index","type":"uint256","internalType":"uint256"}],"outputs":[{"name":"","type":"tuple","internalType":"struct IBLSApkRegistryTypes.ApkUpdate","components":[{"name":"apkHash","type":"bytes24","internalType":"bytes24"},{"name":"updateBlockNumber","type":"uint32","internalType":"uint32"},{"name":"nextUpdateBlockNumber","type":"uint32","internalType":"uint32"}]}],"stateMutability":"view"},{"type":"function","name":"getOperatorFromPubkeyHash","inputs":[{"name":"pubkeyHash","type":"bytes32","internalType":"bytes32"}],"outputs":[{"name":"","type":"address","internalType":"address"}],"stateMutability":"view"},{"type":"function","name":"getOperatorId","inputs":[{"name":"operator","type":"address","internalType":"address"}],"outputs":[{"name":"","type":"bytes32","internalType":"bytes32"}],"stateMutability":"view"},{"type":"function","name":"getOperatorPubkeyG2","inputs":[{"name":"operator","type":"address","internalType":"address"}],"outputs":[{"name":"","type":"tuple","internalType":"struct BN254.G2Point","components":[{"name":"X","type":"uint256[2]","internalType":"uint256[2]"},{"name":"Y","type":"uint256[2]","internalType":"uint256[2]"}]}],"stateMutability":"view"},{"type":"function","name":"getOrRegisterOperatorId","inputs":[{"name":"operator","type":"address","internalType":"address"},{"name":"params","type":"tuple","internalType":"struct IBLSApkRegistryTypes.PubkeyRegistrationParams","components":[{"name":"pubkeyRegistrationSignature","type":"tuple","internalType":"struct BN254.G1Point","components":[{"name":"X","type":"uint256","internalType":"uint256"},{"name":"Y","type":"uint256","internalType":"uint256"}]},{"name":"pubkeyG1","type":"tuple","internalType":"struct BN254.G1Point","components":[{"name":"X","type":"uint256","internalType":"uint256"},{"name":"Y","type":"uint256","internalType":"uint256"}]},{"name":"pubkeyG2","type":"tuple","internalType":"struct BN254.G2Point","components":[{"name":"X","type":"uint256[2]","internalType":"uint256[2]"},{"name":"Y","type":"uint256[2]","internalType":"uint256[2]"}]}]},{"name":"pubkeyRegistrationMessageHash","type":"tuple","internalType":"struct BN254.G1Point","components":[{"name":"X","type":"uint256","internalType":"uint256"},{"name":"Y","type":"uint256","internalType":"uint256"}]}],"outputs":[{"name":"operatorId","type":"bytes32","internalType":"bytes32"}],"stateMutability":"nonpayable"},{"type":"function","name":"getRegisteredPubkey","inputs":[{"name":"operator","type":"address","internalType":"address"}],"outputs":[{"name":"","type":"tuple","internalType":"struct BN254.G1Point","components":[{"name":"X","type":"uint256","internalType":"uint256"},{"name":"Y","type":"uint256","internalType":"uint256"}]},{"name":"","type":"bytes32","internalType":"bytes32"}],"stateMutability":"view"},{"type":"function","name":"initializeQuorum","inputs":[{"name":"quorumNumber","type":"uint8","internalType":"uint8"}],"outputs":[],"stateMutability":"nonpayable"},{"type":"function","name":"operatorToPubkey","inputs":[{"name":"operator","type":"address","internalType":"address"}],"outputs":[{"name":"X","type":"uint256","internalType":"uint256"},{"name":"Y","type":"uint256","internalType":"uint256"}],"stateMutability":"view"},{"type":"function","name":"operatorToPubkeyHash","inputs":[{"name":"operator","type":"address","internalType":"address"}],"outputs":[{"name":"operatorId","type":"bytes32","internalType":"bytes32"}],"stateMutability":"view"},{"type":"function","name":"pubkeyHashToOperator","inputs":[{"name":"pubkeyHash","type":"bytes32","internalType":"bytes32"}],"outputs":[{"name":"operator","type":"address","internalType":"address"}],"stateMutability":"view"},{"type":"function","name":"registerBLSPublicKey","inputs":[{"name":"operator","type":"address","internalType":"address"},{"name":"params","type":"tuple","internalType":"struct IBLSApkRegistryTypes.PubkeyRegistrationParams","components":[{"name":"pubkeyRegistrationSignature","type":"tuple","internalType":"struct BN254.G1Point","components":[{"name":"X","type":"uint256","internalType":"uint256"},{"name":"Y","type":"uint256","internalType":"uint256"}]},{"name":"pubkeyG1","type":"tuple","internalType":"struct BN254.G1Point","components":[{"name":"X","type":"uint256","internalType":"uint256"},{"name":"Y","type":"uint256","internalType":"uint256"}]},{"name":"pubkeyG2","type":"tuple","internalType":"struct BN254.G2Point","components":[{"name":"X","type":"uint256[2]","internalType":"uint256[2]"},{"name":"Y","type":"uint256[2]","internalType":"uint256[2]"}]}]},{"name":"pubkeyRegistrationMessageHash","type":"tuple","internalType":"struct BN254.G1Point","components":[{"name":"X","type":"uint256","internalType":"uint256"},{"name":"Y","type":"uint256","internalType":"uint256"}]}],"outputs":[{"name":"operatorId","type":"bytes32","internalType":"bytes32"}],"stateMutability":"nonpayable"},{"type":"function","name":"registerOperator","inputs":[{"name":"operator","type":"address","internalType":"address"},{"name":"quorumNumbers","type":"bytes","internalType":"bytes"}],"outputs":[],"stateMutability":"nonpayable"},{"type":"function","name":"registryCoordinator","inputs":[],"outputs":[{"name":"","type":"address","internalType":"address"}],"stateMutability":"view"},{"type":"function","name":"verifyAndRegisterG2PubkeyForOperator","inputs":[{"name":"operator","type":"address","internalType":"address"},{"name":"pubkeyG2","type":"tuple","internalType":"struct BN254.G2Point","components":[{"name":"X","type":"uint256[2]","internalType":"uint256[2]"},{"name":"Y","type":"uint256[2]","internalType":"uint256[2]"}]}],"outputs":[],"stateMutability":"nonpayable"},{"type":"event","name":"Initialized","inputs":[{"name":"version","type":"uint8","indexed":false,"internalType":"uint8"}],"anonymous":false},{"type":"event","name":"NewG2PubkeyRegistration","inputs":[{"name":"operator","type":"address","indexed":true,"internalType":"address"},{"name":"pubkeyG2","type":"tuple","indexed":false,"internalType":"struct BN254.G2Point","components":[{"name":"X","type":"uint256[2]","internalType":"uint256[2]"},{"name":"Y","type":"uint256[2]","internalType":"uint256[2]"}]}],"anonymous":false},{"type":"event","name":"NewPubkeyRegistration","inputs":[{"name":"operator","type":"address","indexed":true,"internalType":"address"},{"name":"pubkeyG1","type":"tuple","indexed":false,"internalType":"struct BN254.G1Point","components":[{"name":"X","type":"uint256","internalType":"uint256"},{"name":"Y","type":"uint256","internalType":"uint256"}]},{"name":"pubkeyG2","type":"tuple","indexed":false,"internalType":"struct BN254.G2Point","components":[{"name":"X","type":"uint256[2]","internalType":"uint256[2]"},{"name":"Y","type":"uint256[2]","internalType":"uint256[2]"}]}],"anonymous":false},{"type":"event","name":"OperatorAddedToQuorums","inputs":[{"name":"operator","type":"address","indexed":false,"internalType":"address"},{"name":"operatorId","type":"bytes32","indexed":false,"internalType":"bytes32"},{"name":"quorumNumbers","type":"bytes","indexed":false,"internalType":"bytes"}],"anonymous":false},{"type":"event","name":"OperatorRemovedFromQuorums","inputs":[{"name":"operator","type":"address","indexed":false,"internalType":"address"},{"name":"operatorId","type":"bytes32","indexed":false,"internalType":"bytes32"},{"name":"quorumNumbers","type":"bytes","indexed":false,"internalType":"bytes"}],"anonymous":false},{"type":"error","name":"BLSPubkeyAlreadyRegistered","inputs":[]},{"type":"error","name":"BlockNumberBeforeFirstUpdate","inputs":[]},{"type":"error","name":"BlockNumberNotLatest","inputs":[]},{"type":"error","name":"BlockNumberTooRecent","inputs":[]},{"type":"error","name":"ECAddFailed","inputs":[]},{"type":"error","name":"ECMulFailed","inputs":[]},{"type":"error","name":"ECPairingFailed","inputs":[]},{"type":"error","name":"G2PubkeyAlreadySet","inputs":[]},{"type":"error","name":"InvalidBLSSignatureOrPrivateKey","inputs":[]},{"type":"error","name":"OnlyRegistryCoordinator","inputs":[]},{"type":"error","name":"OnlyRegistryCoordinatorOwner","inputs":[]},{"type":"error","name":"OperatorAlreadyRegistered","inputs":[]},{"type":"error","name":"OperatorNotRegistered","inputs":[]},{"type":"error","name":"QuorumAlreadyExists","inputs":[]},{"type":"error","name":"QuorumDoesNotExist","inputs":[]},{"type":"error","name":"ZeroPubKey","inputs":[]}],"bytecode":{"object":"0x60a03461012157601f611c1538819003918201601f19168301916001600160401b038311848410176101255780849260209460405283398101031261012157516001600160a01b03811690819003610121576080525f5460ff8160081c166100cc5760ff80821603610092575b604051611adb908161013a82396080518181816107730152818161094501526114550152f35b60ff90811916175f557f7f26b83ff96e1f2b6a682f133852f6798a09c465da95921460cefb3847402498602060405160ff8152a15f61006c565b60405162461bcd60e51b815260206004820152602760248201527f496e697469616c697a61626c653a20636f6e747261637420697320696e697469604482015266616c697a696e6760c81b6064820152608490fd5b5f80fd5b634e487b7160e01b5f52604160045260245ffdfe60806040526004361015610011575f80fd5b5f3560e01c8062a1f4cb1461015957806303c5a6b61461015457806313542a4e1461010957806326d941f21461014f578063377ed99d1461014a5780633fb279521461014557806347b314e8146101045780635f61a88414610140578063605747d51461013b578063671699111461013657806368bccaac146101315780636d14a9871461012c5780637916cea6146101275780637ff81a8714610122578063a3db80e21461011d578063bf79ce5814610118578063d1a6465014610113578063d5254a8c1461010e578063de29fac014610109578063e8bb9ae6146101045763f4e24fe5146100ff575f80fd5b610a95565b6104f6565b61025c565b610a28565b610906565b6108e5565b61089a565b610855565b6107e2565b61075e565b61067f565b610638565b610584565b610522565b61046f565b61031f565b6102a7565b610207565b610173565b6001600160a01b0381160361016f57565b5f80fd5b3461016f57602036600319011261016f576004356101908161015e565b60018060a01b03165f52600360205260405f2060018154910154906101c76040519283928360209093929193604081019481520152565b0390f35b61016060031982011261016f576004356101e48161015e565b9161010060231983011261016f57604060249261012319011261016f5761012490565b3461016f576020610217366101cb565b90610220611453565b6001600160a01b0383165f90815260018552604090205492831561024a575b505050604051908152f35b6102549350610d61565b5f808061023f565b3461016f57602036600319011261016f576004356102798161015e565b60018060a01b03165f526001602052602060405f2054604051908152f35b6004359060ff8216820361016f57565b3461016f57602036600319011261016f5760ff6102c2610297565b6102ca611453565b16805f52600460205260405f2054610310575f52600460205261030e60405f206102f26103ca565b5f81524363ffffffff166020820152905b5f6040830152610ae8565b005b6310cda51760e21b5f5260045ffd5b3461016f57602036600319011261016f5760ff61033a610297565b165f526004602052602063ffffffff60405f205416604051908152f35b634e487b7160e01b5f52604160045260245ffd5b6040810190811067ffffffffffffffff82111761038757604052565b610357565b6060810190811067ffffffffffffffff82111761038757604052565b90601f8019910116810190811067ffffffffffffffff82111761038757604052565b604051906103d96060836103a8565b565b906103d960405192836103a8565b90604060031983011261016f576004356104028161015e565b9160243567ffffffffffffffff811161016f578160238201121561016f5780600401359067ffffffffffffffff8211610387576040519261044d601f8401601f1916602001856103a8565b8284526024838301011161016f57815f92602460209301838601378301015290565b3461016f577f73a2b7fb844724b971802ae9b15db094d4b7192df9d7350e14eb466b9b22eb4e61049e366103e9565b906104a7611453565b6104ba6104b382610d02565b50836114bb565b60018060a01b0381165f5260016020526104df60405f20549260405193849384610b5d565b0390a1005b602090600319011261016f5760043590565b3461016f57610504366104e4565b5f526002602052602060018060a01b0360405f205416604051908152f35b3461016f57602036600319011261016f5760ff61053d610297565b610545610b9d565b50165f5260056020526040805f2060018251916105618361036b565b80548352015460208201526105828251809260208091805184520151910152565bf35b3461016f57604036600319011261016f576105d96105d36105a3610297565b60ff602435915f604080516105b78161038c565b8281528260208201520152165f52600460205260405f206107cd565b50610bd3565b604051809163ffffffff6040606084019267ffffffffffffffff19815116855282602082015116602086015201511660408301520390f35b905f905b6002821061062257505050565b6020806001928551815201930191019091610615565b3461016f57602036600319011261016f57608061065f60043561065a8161015e565b610ca5565b610582602060405192610673848251610611565b01516040830190610611565b3461016f57606036600319011261016f57610698610297565b6024359063ffffffff821680920361016f576105d36106ce9160ff6106bc60443590565b91165f52600460205260405f206107cd565b9063ffffffff602083015116811061074f5781610714610723926106fc60406101c796015163ffffffff1690565b9063ffffffff82161591821561073f575b5050610cec565b5167ffffffffffffffff191690565b60405167ffffffffffffffff1990911681529081906020820190565b63ffffffff161190505f8061070d565b633d22884160e01b5f5260045ffd5b3461016f575f36600319011261016f576040517f00000000000000000000000000000000000000000000000000000000000000006001600160a01b03168152602090f35b634e487b7160e01b5f52603260045260245ffd5b8054156107c8575f5260205f20905f90565b6107a2565b80548210156107c8575f5260205f2001905f90565b3461016f57604036600319011261016f576107fb610297565b60ff60243591165f52600460205260405f2090815481101561016f57610820916107cd565b50546040805182821b67ffffffffffffffff1916815260c083901c63ffffffff16602082015260e09290921c90820152606090f35b3461016f57602036600319011261016f57606061087c6004356108778161015e565b610d02565b610893604051809360208091805184520151910152565b6040820152f35b3461016f57602036600319011261016f5760ff6108b5610297565b165f52600560205260405f2060018154910154906101c76040519283928360209093929193604081019481520152565b3461016f5760206108fe6108f8366101cb565b91610d61565b604051908152f35b3461016f5760a036600319011261016f576004356109238161015e565b608036602319011261016f57604051638da5cb5b60e01b8152906020826004817f00000000000000000000000000000000000000000000000000000000000000006001600160a01b03165afa9182156109de575f9261099b575b5061030e91610996906001600160a01b031633146119b9565b61119a565b91506020823d6020116109d6575b816109b6602093836103a8565b8101031261016f5761099661030e92516109cf8161015e565b925061097d565b3d91506109a9565b6040513d5f823e3d90fd5b60206040818301928281528451809452019201905f5b818110610a0c5750505090565b825163ffffffff168452602093840193909201916001016109ff565b3461016f57604036600319011261016f5760043567ffffffffffffffff811161016f573660238201121561016f57806004013567ffffffffffffffff811161016f57366024828401011161016f576101c791610a8991602480359201611316565b604051918291826109e9565b3461016f577ff843ecd53a563675e62107be1494fdde4a3d49aeedaf8d88c616d85346e3500e610ac4366103e9565b90610acd611453565b6104ba610ae2610adc83610d02565b506119e5565b836114bb565b80546801000000000000000081101561038757610b0a916001820181556107cd565b610b4a578151602083015160409384015163ffffffff60c01b60c09290921b919091169190931c1760e09290921b6001600160e01b031916919091179055565b634e487b7160e01b5f525f60045260245ffd5b919260809360209260018060a01b0316845282840152606060408401528051918291826060860152018484015e5f828201840152601f01601f1916010190565b60405190610baa8261036b565b5f6020838281520152565b90604051610bc28161036b565b602060018294805484520154910152565b90604051610be08161038c565b604081935467ffffffffffffffff1981831b16835263ffffffff8160c01c16602084015260e01c910152565b60405190610180610c1d81846103a8565b368337565b60405190610c316020836103a8565b6020368337565b60405190610c458261036b565b8160206040918251610c5784826103a8565b833682378152825192610c6a81856103a8565b3684370152565b60405191905f835b60028210610c8f575050506103d96040836103a8565b6001602081928554815201930191019091610c79565b610cad610c38565b5060018060a01b03165f52600660205260405f20610ce4600260405192610cd38461036b565b610cdc81610c71565b845201610c71565b602082015290565b15610cf357565b636fe02d4b60e01b5f5260045ffd5b610d0a610b9d565b5060018060a01b031690815f52600360205260405f2091600160405193610d308561036b565b80548552015460208401525f52600160205260405f2054918215610d52579190565b6325ec6c1f60e01b5f5260045ffd5b919091610d6c611453565b6040830190610d7b3683610fa4565b610d919080515f526020015160205260405f2090565b93610dbe7fad3228b676f7d3cd4284a5443f17f1962b36e491b30a40b2405849e597ba5fb5861415610fcc565b6001600160a01b0382165f9081526001602052604090205415610de090610fe2565b5f85815260026020526040902054610e01906001600160a01b031615610ff8565b80359360208201358435906060840135608085019788928535602087013591604051958695602087019860c08c0193610e3a978b61100e565b03601f1981018252610e4c90826103a8565b5190207f30644e72e131a029b85045b68181585d2833e84879b9709143e1f593f000000190069136610e7d91610fa4565b82610e883687610fa4565b90610e9291611669565b610e9b916116af565b91610ea4611711565b9136610eaf91610fa4565b90610eb86117db565b90610ec291611669565b610ecb916116af565b610ed5368761108f565b91610edf9361187c565b610ee8906110c8565b6001600160a01b0381165f908152600360209081526040808320853581558583013560019091015560069091529020610f2290849061110d565b6001600160a01b0381165f90815260016020526040902084905580610f4f855f52600260205260405f2090565b80546001600160a01b0319166001600160a01b0392831617905560405191169290918291610f7d9183611168565b037fe3fb6613af2e8930cf85d47fcf6db10192224a64c6cbe8023e0eee1ba382804191a290565b919082604091031261016f57604051610fbc8161036b565b6020808294803584520135910152565b15610fd357565b630cc7509160e01b5f5260045ffd5b15610fe957565b6342ee68b560e01b5f5260045ffd5b15610fff57565b634c334c9760e11b5f5260045ffd5b969490936101409896936040959386948a5260208a0152838901526060880152608087013760c08501376101008301526101208201520190565b9080601f8301121561016f57604051916110636040846103a8565b82906040810192831161016f57905b82821061107f5750505090565b8135815260209182019101611072565b919060808382031261016f5760206110c3604051926110ad8461036b565b604084966110bb8382611048565b865201611048565b910152565b156110cf57565b63a72d026360e01b5f5260045ffd5b634e487b7160e01b5f52601160045260245ffd5b9060068202918083046006149015171561110857565b6110de565b90805f5b600281106111445750506040015f5b6002811061112d57505050565b600190602083359301926002828601015501611120565b600190602083359301928186015501611111565b9060408080938181853701910137565b9160406103d9929493602060c082019680358352013560208201520190611158565b6080810192916103d99190611158565b6111fa6111f56111a983610d02565b506111d36111b685610ca5565b805151159081611284575b81611276575b8161125f575b506119cf565b6111db611711565b6111e36117db565b906111ef36602461108f565b9261187c565b6110c8565b6001600160a01b0381165f90815260066020526040902061121d9060249061110d565b6040516001600160a01b03909116907f5c4f9f28153dbf3f00e69607a59e82ad806fffb78d09f179f62432f7e9d2511a908061125a60248261118a565b0390a2565b61126e91506020015160200190565b51155f6111cd565b6020810151511591506111c7565b8051602001511591506111c1565b67ffffffffffffffff81116103875760051b60200190565b906112b482611292565b6112c160405191826103a8565b82815280926112d2601f1991611292565b0190602036910137565b908210156107c8570190565b8015611108575f190190565b5f1981019190821161110857565b80518210156107c85760209160051b010190565b919091611322836112aa565b925f5b818110611333575050505090565b6113586113526113448385876112dc565b356001600160f81b03191690565b60f81c90565b61136d8160ff165f52600460205260405f2090565b5480158015611428575b61141957805b61138c575b5050600101611325565b8563ffffffff6113ca6113bc6113ad8660ff165f52600460205260405f2090565b6113b6866112f4565b906107cd565b505460c01c63ffffffff1690565b1611156113e0576113da906112e8565b8061137d565b60019291506113fd6113f4611412926112f4565b63ffffffff1690565b6114078389611302565b9063ffffffff169052565b905f611382565b633f4cb70f60e01b5f5260045ffd5b5061144c6113f46113bc6114478560ff165f52600460205260405f2090565b6107b6565b8610611377565b7f00000000000000000000000000000000000000000000000000000000000000006001600160a01b0316330361148557565b634394dbdf60e11b5f5260045ffd5b9081518110156107c8570160200190565b156114ac57565b637310cff560e11b5f5260045ffd5b91906114c5610b9d565b504363ffffffff16905f5b84518110156116625780836114fb6113526114ed6001958a611494565b516001600160f81b03191690565b6115108160ff165f52600460205260405f2090565b549061151d8215156114a5565b6115b561159661158861154c896115476115428760ff165f52600560205260405f2090565b610bb5565b6116af565b611576816115658760ff165f52600560205260405f2090565b906020600191805184550151910155565b80515f526020015160205260405f2090565b67ffffffffffffffff191690565b926113b66115af8460ff165f52600460205260405f2090565b916112f4565b5090836115cd6113f4845463ffffffff9060c01c1690565b036115f657506115f092509060401c67ffffffffffffffff60c01b825416179055565b016114d0565b81546001600160e01b031660e09490941b6001600160e01b03191693909317905561165d916116309060ff165f52600460205260405f2090565b61164c61163b6103ca565b67ffffffffffffffff199093168352565b63ffffffff87166020830152610303565b6115f0565b5050509050565b91906040906060611678610b9d565b948592602085519261168a85856103a8565b8436853780518452015160208301528482015260076107cf195a01fa156116ad57565bfe5b6020929160806040926116c0610b9d565b958693818651936116d186866103a8565b85368637805185520151828401528051868401520151606082015260066107cf195a01fa80156116ad571561170257565b63d4b68fd760e01b5f5260045ffd5b611719610c38565b506040516117268161036b565b7f198e9393920d483a7260bfb731fb5d25f1aa493335a9e71297e485b7aef312c281527f1800deef121f1e76426a00665e5c4479674322d4f75edadd46debd5cd992f6ed602082015260405161177b8161036b565b7f275dc4a288d1afb3cbb1ac09187524c7db36395df7be3b99e673b13a075a65ec81527f1d9befcd05a5323e6da4d435f3b617cdb3af83285c2df711ef39c01571827f9d6020820152604051916117d18361036b565b8252602082015290565b6117e3610b9d565b506040516117f08161036b565b600181526002602082015290565b9060028110156107c85760051b0190565b906001820180921161110857565b906002820180921161110857565b906003820180921161110857565b906004820180921161110857565b906005820180921161110857565b90600c8110156107c85760051b0190565b1561186d57565b6324ccc79360e21b5f5260045ffd5b92909161188960406103db565b938452602084015261189b60406103db565b91825260208201526118ab610c0c565b915f5b600281106118e8575050506020610180916118c7610c22565b92839160086107cf195a01fa80156116ad576118e290611866565b51151590565b806118f46001926110f2565b6118fe82856117fe565b515161190a8288611855565b52602061191783866117fe565b51015161192c6119268361180f565b88611855565b5261193782866117fe565b5151516119466119268361181d565b5261195c61195483876117fe565b515160200190565b516119696119268361182b565b52602061197683876117fe565b5101515161198661192683611839565b526119b26119ac6119a5602061199c868a6117fe565b51015160200190565b5192611847565b87611855565b52016118ae565b156119c057565b637070f3b160e11b5f5260045ffd5b156119d657565b630849e5cf60e41b5f5260045ffd5b6119ed610b9d565b50805190811580611a99575b15611a1a575050604051611a0e6040826103a8565b5f81525f602082015290565b60207f30644e72e131a029b85045b68181585d97816a916871ca8d3c208c16d87cfd47910151067f30644e72e131a029b85045b68181585d97816a916871ca8d3c208c16d87cfd47037f30644e72e131a029b85045b68181585d97816a916871ca8d3c208c16d87cfd47811161110857604051916117d16040846103a8565b506020810151156119f956fea2646970667358221220de3b05ee5d44bc3d34ed0229e8fa49670d83996f355d6b68be91585c2d25763164736f6c634300081b0033","linkReferences":{}},"methodIdentifiers":{"apkHistory(uint8,uint256)":"7916cea6","currentApk(uint8)":"a3db80e2","deregisterOperator(address,bytes)":"f4e24fe5","getApk(uint8)":"5f61a884","getApkHashAtBlockNumberAndIndex(uint8,uint32,uint256)":"68bccaac","getApkHistoryLength(uint8)":"377ed99d","getApkIndicesAtBlockNumber(bytes,uint256)":"d5254a8c","getApkUpdateAtIndex(uint8,uint256)":"605747d5","getOperatorFromPubkeyHash(bytes32)":"47b314e8","getOperatorId(address)":"13542a4e","getOperatorPubkeyG2(address)":"67169911","getOrRegisterOperatorId(address,((uint256,uint256),(uint256,uint256),(uint256[2],uint256[2])),(uint256,uint256))":"03c5a6b6","getRegisteredPubkey(address)":"7ff81a87","initializeQuorum(uint8)":"26d941f2","operatorToPubkey(address)":"00a1f4cb","operatorToPubkeyHash(address)":"de29fac0","pubkeyHashToOperator(bytes32)":"e8bb9ae6","registerBLSPublicKey(address,((uint256,uint256),(uint256,uint256),(uint256[2],uint256[2])),(uint256,uint256))":"bf79ce58","registerOperator(address,bytes)":"3fb27952","registryCoordinator()":"6d14a987","verifyAndRegisterG2PubkeyForOperator(address,(uint256[2],uint256[2]))":"d1a64650"},"id":95}