{"abi":[{"type":"constructor","inputs":[{"name":"_ethPOS","type":"address","internalType":"contract IETHPOSDeposit"},{"name":"_eigenPodBeacon","type":"address","internalType":"contract IBeacon"},{"name":"_delegationManager","type":"address","internalType":"contract IDelegationManager"},{"name":"_pauserRegistry","type":"address","internalType":"contract IPauserRegistry"},{"name":"_version","type":"string","internalType":"string"}],"stateMutability":"nonpayable"},{"type":"function","name":"addShares","inputs":[{"name":"staker","type":"address","internalType":"address"},{"name":"strategy","type":"address","internalType":"contract IStrategy"},{"name":"shares","type":"uint256","internalType":"uint256"}],"outputs":[{"name":"","type":"uint256","internalType":"uint256"},{"name":"","type":"uint256","internalType":"uint256"}],"stateMutability":"nonpayable"},{"type":"function","name":"beaconChainETHStrategy","inputs":[],"outputs":[{"name":"","type":"address","internalType":"contract IStrategy"}],"stateMutability":"view"},{"type":"function","name":"beaconChainSlashingFactor","inputs":[{"name":"podOwner","type":"address","internalType":"address"}],"outputs":[{"name":"","type":"uint64","internalType":"uint64"}],"stateMutability":"view"},{"type":"function","name":"burnableETHShares","inputs":[],"outputs":[{"name":"","type":"uint256","internalType":"uint256"}],"stateMutability":"view"},{"type":"function","name":"createPod","inputs":[],"outputs":[{"name":"","type":"address","internalType":"address"}],"stateMutability":"nonpayable"},{"type":"function","name":"delegationManager","inputs":[],"outputs":[{"name":"","type":"address","internalType":"contract IDelegationManager"}],"stateMutability":"view"},{"type":"function","name":"eigenPodBeacon","inputs":[],"outputs":[{"name":"","type":"address","internalType":"contract IBeacon"}],"stateMutability":"view"},{"type":"function","name":"ethPOS","inputs":[],"outputs":[{"name":"","type":"address","internalType":"contract IETHPOSDeposit"}],"stateMutability":"view"},{"type":"function","name":"getPod","inputs":[{"name":"podOwner","type":"address","internalType":"address"}],"outputs":[{"name":"","type":"address","internalType":"contract IEigenPod"}],"stateMutability":"view"},{"type":"function","name":"hasPod","inputs":[{"name":"podOwner","type":"address","internalType":"address"}],"outputs":[{"name":"","type":"bool","internalType":"bool"}],"stateMutability":"view"},{"type":"function","name":"increaseBurnableShares","inputs":[{"name":"","type":"address","internalType":"contract IStrategy"},{"name":"addedSharesToBurn","type":"uint256","internalType":"uint256"}],"outputs":[],"stateMutability":"nonpayable"},{"type":"function","name":"initialize","inputs":[{"name":"initialOwner","type":"address","internalType":"address"},{"name":"_initPausedStatus","type":"uint256","internalType":"uint256"}],"outputs":[],"stateMutability":"nonpayable"},{"type":"function","name":"numPods","inputs":[],"outputs":[{"name":"","type":"uint256","internalType":"uint256"}],"stateMutability":"view"},{"type":"function","name":"owner","inputs":[],"outputs":[{"name":"","type":"address","internalType":"address"}],"stateMutability":"view"},{"type":"function","name":"ownerToPod","inputs":[{"name":"podOwner","type":"address","internalType":"address"}],"outputs":[{"name":"","type":"address","internalType":"contract IEigenPod"}],"stateMutability":"view"},{"type":"function","name":"pause","inputs":[{"name":"newPausedStatus","type":"uint256","internalType":"uint256"}],"outputs":[],"stateMutability":"nonpayable"},{"type":"function","name":"pauseAll","inputs":[],"outputs":[],"stateMutability":"nonpayable"},{"type":"function","name":"paused","inputs":[{"name":"index","type":"uint8","internalType":"uint8"}],"outputs":[{"name":"","type":"bool","internalType":"bool"}],"stateMutability":"view"},{"type":"function","name":"paused","inputs":[],"outputs":[{"name":"","type":"uint256","internalType":"uint256"}],"stateMutability":"view"},{"type":"function","name":"pauserRegistry","inputs":[],"outputs":[{"name":"","type":"address","internalType":"contract IPauserRegistry"}],"stateMutability":"view"},{"type":"function","name":"podOwnerDepositShares","inputs":[{"name":"podOwner","type":"address","internalType":"address"}],"outputs":[{"name":"shares","type":"int256","internalType":"int256"}],"stateMutability":"view"},{"type":"function","name":"recordBeaconChainETHBalanceUpdate","inputs":[{"name":"podOwner","type":"address","internalType":"address"},{"name":"prevRestakedBalanceWei","type":"uint256","internalType":"uint256"},{"name":"balanceDeltaWei","type":"int256","internalType":"int256"}],"outputs":[],"stateMutability":"nonpayable"},{"type":"function","name":"removeDepositShares","inputs":[{"name":"staker","type":"address","internalType":"address"},{"name":"strategy","type":"address","internalType":"contract IStrategy"},{"name":"depositSharesToRemove","type":"uint256","internalType":"uint256"}],"outputs":[{"name":"","type":"uint256","internalType":"uint256"}],"stateMutability":"nonpayable"},{"type":"function","name":"renounceOwnership","inputs":[],"outputs":[],"stateMutability":"nonpayable"},{"type":"function","name":"stake","inputs":[{"name":"pubkey","type":"bytes","internalType":"bytes"},{"name":"signature","type":"bytes","internalType":"bytes"},{"name":"depositDataRoot","type":"bytes32","internalType":"bytes32"}],"outputs":[],"stateMutability":"payable"},{"type":"function","name":"stakerDepositShares","inputs":[{"name":"user","type":"address","internalType":"address"},{"name":"strategy","type":"address","internalType":"contract IStrategy"}],"outputs":[{"name":"depositShares","type":"uint256","internalType":"uint256"}],"stateMutability":"view"},{"type":"function","name":"transferOwnership","inputs":[{"name":"newOwner","type":"address","internalType":"address"}],"outputs":[],"stateMutability":"nonpayable"},{"type":"function","name":"unpause","inputs":[{"name":"newPausedStatus","type":"uint256","internalType":"uint256"}],"outputs":[],"stateMutability":"nonpayable"},{"type":"function","name":"version","inputs":[],"outputs":[{"name":"","type":"string","internalType":"string"}],"stateMutability":"view"},{"type":"function","name":"withdrawSharesAsTokens","inputs":[{"name":"staker","type":"address","internalType":"address"},{"name":"strategy","type":"address","internalType":"contract IStrategy"},{"name":"","type":"address","internalType":"contract IERC20"},{"name":"shares","type":"uint256","internalType":"uint256"}],"outputs":[],"stateMutability":"nonpayable"},{"type":"event","name":"BeaconChainETHDeposited","inputs":[{"name":"podOwner","type":"address","indexed":true,"internalType":"address"},{"name":"amount","type":"uint256","indexed":false,"internalType":"uint256"}],"anonymous":false},{"type":"event","name":"BeaconChainETHWithdrawalCompleted","inputs":[{"name":"podOwner","type":"address","indexed":true,"internalType":"address"},{"name":"shares","type":"uint256","indexed":false,"internalType":"uint256"},{"name":"nonce","type":"uint96","indexed":false,"internalType":"uint96"},{"name":"delegatedAddress","type":"address","indexed":false,"internalType":"address"},{"name":"withdrawer","type":"address","indexed":false,"internalType":"address"},{"name":"withdrawalRoot","type":"bytes32","indexed":false,"internalType":"bytes32"}],"anonymous":false},{"type":"event","name":"BeaconChainSlashingFactorDecreased","inputs":[{"name":"staker","type":"address","indexed":false,"internalType":"address"},{"name":"prevBeaconChainSlashingFactor","type":"uint64","indexed":false,"internalType":"uint64"},{"name":"newBeaconChainSlashingFactor","type":"uint64","indexed":false,"internalType":"uint64"}],"anonymous":false},{"type":"event","name":"BurnableETHSharesIncreased","inputs":[{"name":"shares","type":"uint256","indexed":false,"internalType":"uint256"}],"anonymous":false},{"type":"event","name":"Initialized","inputs":[{"name":"version","type":"uint8","indexed":false,"internalType":"uint8"}],"anonymous":false},{"type":"event","name":"NewTotalShares","inputs":[{"name":"podOwner","type":"address","indexed":true,"internalType":"address"},{"name":"newTotalShares","type":"int256","indexed":false,"internalType":"int256"}],"anonymous":false},{"type":"event","name":"OwnershipTransferred","inputs":[{"name":"previousOwner","type":"address","indexed":true,"internalType":"address"},{"name":"newOwner","type":"address","indexed":true,"internalType":"address"}],"anonymous":false},{"type":"event","name":"Paused","inputs":[{"name":"account","type":"address","indexed":true,"internalType":"address"},{"name":"newPausedStatus","type":"uint256","indexed":false,"internalType":"uint256"}],"anonymous":false},{"type":"event","name":"PodDeployed","inputs":[{"name":"eigenPod","type":"address","indexed":true,"internalType":"address"},{"name":"podOwner","type":"address","indexed":true,"internalType":"address"}],"anonymous":false},{"type":"event","name":"PodSharesUpdated","inputs":[{"name":"podOwner","type":"address","indexed":true,"internalType":"address"},{"name":"sharesDelta","type":"int256","indexed":false,"internalType":"int256"}],"anonymous":false},{"type":"event","name":"Unpaused","inputs":[{"name":"account","type":"address","indexed":true,"internalType":"address"},{"name":"newPausedStatus","type":"uint256","indexed":false,"internalType":"uint256"}],"anonymous":false},{"type":"error","name":"CurrentlyPaused","inputs":[]},{"type":"error","name":"EigenPodAlreadyExists","inputs":[]},{"type":"error","name":"InputAddressZero","inputs":[]},{"type":"error","name":"InvalidNewPausedStatus","inputs":[]},{"type":"error","name":"InvalidShortString","inputs":[]},{"type":"error","name":"InvalidStrategy","inputs":[]},{"type":"error","name":"LegacyWithdrawalsNotCompleted","inputs":[]},{"type":"error","name":"OnlyDelegationManager","inputs":[]},{"type":"error","name":"OnlyEigenPod","inputs":[]},{"type":"error","name":"OnlyPauser","inputs":[]},{"type":"error","name":"OnlyUnpauser","inputs":[]},{"type":"error","name":"SharesNegative","inputs":[]},{"type":"error","name":"SharesNotMultipleOfGwei","inputs":[]},{"type":"error","name":"StringTooLong","inputs":[{"name":"str","type":"string","internalType":"string"}]}],"bytecode":{"object":"0x6101206040523461029b576129bb8038038061001a816102b3565b92833981019060a08183031261029b5780516001600160a01b038116810361029b5760208201516001600160a01b038116810361029b576040830151916001600160a01b038316830361029b5760608401516001600160a01b0381169485820361029b576080810151906001600160401b03821161029b57019486601f8701121561029b5785516001600160401b03811161029f576100c2601f8201601f19166020016102b3565b9681885260208801986020838301011161029b57815f9260208093018b5e880101521561028c5760805260a05260c05260e052601f8151116102505751905160208210610240575b17610100525f5460ff8160081c166101eb5760ff808216036101b1575b6040516126e290816102d9823960805181818161022501528181610cce0152818161101401526114a8015260a05181610d92015260c0518181816107460152818161144a0152612417015260e051818181610429015281816104780152818161088201528181610a1301528181610dd4015281816111740152611226015261010051816110d80152f35b60ff90811916175f557f7f26b83ff96e1f2b6a682f133852f6798a09c465da95921460cefb3847402498602060405160ff8152a15f610127565b60405162461bcd60e51b815260206004820152602760248201527f496e697469616c697a61626c653a20636f6e747261637420697320696e697469604482015266616c697a696e6760c81b6064820152608490fd5b5f198260200360031b1b1661010a565b60449060405192839163305a27a960e01b8352602060048401525180918160248501528484015e5f828201840152601f01601f19168101030190fd5b6339b190bb60e11b5f5260045ffd5b5f80fd5b634e487b7160e01b5f52604160045260245ffd5b6040519190601f01601f191682016001600160401b0381118382101761029f5760405256fe6080806040526004361015610012575f80fd5b5f905f3560e01c908163136439dd1461147957508063292b7b2b146114355780632eae418c146111eb57806350ff72251461116157806354fd4d50146110c5578063595c6a6714610fe85780635ac86ab714610fb25780635c975abb14610f94578063715018a614610f37578063724af42314610dc157806374cdd79814610d7c57806384d8106214610cfd578063886f119514610cb85780638da5cb5b14610c8f5780639104c31914610c605780639b4e463414610b2e5780639ba0627514610aed578063a1ca780b146107f5578063a38406a3146106cf578063a3d75e0914610699578063a6a509be1461067b578063cd6dc6871461054e578063d48e889414610515578063debe1eab14610458578063ea4d3c9b14610413578063f2fde38b14610382578063f5d4fed314610364578063f6848d241461031c578063fabc1cbc146101f85763fe243a1714610168575f80fd5b346101f55760403660031901126101f557610181611539565b9073beac0eeeeeeeeeeeeeeeeeeeeeeeeeeeeeebeac06001600160a01b036101a761154f565b16036101e65760209160018060a01b0316808252609b8352816040812054125f146101d657505b604051908152f35b8152609b825260409020546101ce565b632711b74d60e11b8152600490fd5b80fd5b50346101f55760203660031901126101f55760405163755b36bd60e11b81526004803591906020908290817f00000000000000000000000000000000000000000000000000000000000000006001600160a01b03165afa9081156103115783916102cb575b506001600160a01b031633036102bc576066541981198116036102ad57806066556040519081527f3582d1828e26bf56bd801502bc021ac0bc8afb57c826e4986b45593c8fad389c60203392a280f35b63c61dca5d60e01b8252600482fd5b63794821ff60e01b8252600482fd5b90506020813d602011610309575b816102e6602093836115fd565b8101031261030557516001600160a01b0381168103610305575f61025d565b8280fd5b3d91506102d9565b6040513d85823e3d90fd5b50346101f55760203660031901126101f557602061035a61033b611539565b6001600160a01b039081165f9081526098602052604090205416151590565b6040519015158152f35b50346101f557806003193601126101f5576020609e54604051908152f35b50346101f55760203660031901126101f55761039c611539565b6103a4612356565b6001600160a01b038116156103bf576103bc906123ae565b80f35b60405162461bcd60e51b815260206004820152602660248201527f4f776e61626c653a206e6577206f776e657220697320746865207a65726f206160448201526564647265737360d01b6064820152608490fd5b50346101f557806003193601126101f5576040517f00000000000000000000000000000000000000000000000000000000000000006001600160a01b03168152602090f35b50346101f55760403660031901126101f557610472611539565b506024357f00000000000000000000000000000000000000000000000000000000000000006001600160a01b03163303610506576104ae612248565b609e548181018091116104f2577f1ed04b7fd262c0d9e50fa02957f32a81a151f03baaa367faeedc7521b001c4a491602091609e55604051908152a1600160c95580f35b634e487b7160e01b83526011600452602483fd5b63f739589b60e01b8252600482fd5b50346101f55760203660031901126101f5576020906040906001600160a01b0361053d611539565b168152609b83522054604051908152f35b50346101f55760403660031901126101f557610568611539565b815460ff8160081c16159182809361066e575b8015610657575b156105fb5760ff19821660011784556105a191836105ea575b506123ae565b6105ac602435612216565b6105b35780f35b61ff001981541681557f7f26b83ff96e1f2b6a682f133852f6798a09c465da95921460cefb3847402498602060405160018152a180f35b61ffff19166101011784555f61059b565b60405162461bcd60e51b815260206004820152602e60248201527f496e697469616c697a61626c653a20636f6e747261637420697320616c72656160448201526d191e481a5b9a5d1a585b1a5e995960921b6064820152608490fd5b50303b1580156105825750600160ff831614610582565b50600160ff83161061057b565b50346101f557806003193601126101f5576020609954604051908152f35b50346101f55760203660031901126101f55760206106bd6106b8611539565b6121c0565b67ffffffffffffffff60405191168152f35b50346101f55760203660031901126101f5576020906001600160a01b036106f4611539565b168082526098835260408220546001600160a01b0316918215610726575b50506040516001600160a01b039091168152f35b600b92506107326116a3565b906107c860405186810192610792826107847f00000000000000000000000000000000000000000000000000000000000000008760609160018060a01b03168152604060208201525f60408201520190565b03601f1981018452836115fd565b8760405194859382808601988051918291018a5e85019083820190858252519283915e010190815203601f1981018352826115fd565b51902090604051916040830152838201523081520160ff8153605590206001600160a01b03165f80610712565b50346101f55760603660031901126101f55761080f611539565b6001600160a01b038082168084526098602052604084205492939290916044359160243591163303610ade57610843612248565b8215610acf57633b9aca008207610ac057828452609b602052604084205490848212610ab1578483131561092e57505061087e90839461229e565b91907f00000000000000000000000000000000000000000000000000000000000000006001600160a01b0316803b1561092a578492836084926040519687958694631e328e7960e11b8652600486015273beac0eeeeeeeeeeeeeeeeeeeeeeeeeeeeeebeac06024860152604485015260648401525af1801561091f5761090a575b50505b600160c95580f35b81610914916115fd565b6101f557805f6108ff565b6040513d84823e3d90fd5b8480fd5b909291848112610944575b505050509050610902565b67ffffffffffffffff918261096d61096761096161097595611637565b8461165b565b986121c0565b1696876125d4565b16918285039267ffffffffffffffff8411610a9d57606085967fb160ab8589bf47dc04ea11b50d46678d21590cea2ed3e454e7bd3e41510f98cf926040516109bc816115cd565b6001815260208101828152878a52609d60205260408a20915115159060ff68ffffffffffffffff008454925160081b1692169068ffffffffffffffffff1916171790556040519186835260208301526040820152a17f00000000000000000000000000000000000000000000000000000000000000006001600160a01b0316803b1561092a5784928360649267ffffffffffffffff604051978896879563305068e760e11b8752600487015260248601521660448401525af1801561091f57610a88575b808080610939565b81610a92916115fd565b6101f557805f610a80565b634e487b7160e01b85526011600452602485fd5b634b692bcf60e01b8552600485fd5b6347d072bb60e11b8452600484fd5b6339b190bb60e11b8452600484fd5b6312e16d7160e11b8452600484fd5b50346101f55760203660031901126101f5576020906001600160a01b03610b12611539565b16815260988252604060018060a01b0391205416604051908152f35b5060603660031901126101f55760043567ffffffffffffffff8111610c5c57610b5b90369060040161159f565b60249291923567ffffffffffffffff811161030557610b7e90369060040161159f565b91906001806066541614610c4d578394610b96612248565b338552609860205260408520546001600160a01b03168015610c3f575b6001600160a01b031690813b15610c3b578593610c04610bf294604051978896879586956326d3918d60e21b8752606060048801526064870191611683565b84810360031901602486015291611683565b6044356044830152039134905af1801561091f57610c26575b50600160c95580f35b81610c30916115fd565b6101f557805f610c1d565b8580fd5b50610c486123f6565b610bb3565b63840a48d560e01b8452600484fd5b5080fd5b50346101f557806003193601126101f557602060405173beac0eeeeeeeeeeeeeeeeeeeeeeeeeeeeeebeac08152f35b50346101f557806003193601126101f5576033546040516001600160a01b039091168152602090f35b50346101f557806003193601126101f5576040517f00000000000000000000000000000000000000000000000000000000000000006001600160a01b03168152602090f35b50346101f557806003193601126101f5576001806066541614610d6d57610d22612248565b335f908152609860205260409020546001600160a01b0316610d5e5760206001600160a01b03610d506123f6565b16600160c955604051908152f35b63031a852160e21b8152600490fd5b63840a48d560e01b8152600490fd5b50346101f557806003193601126101f5576040517f00000000000000000000000000000000000000000000000000000000000000006001600160a01b03168152602090f35b50346101f557610dd036611565565b91907f00000000000000000000000000000000000000000000000000000000000000006001600160a01b03163303610f285773beac0eeeeeeeeeeeeeeeeeeeeeeeeeeeeeebeac090610e20612248565b6001600160a01b031603610f19576001600160a01b0316808352609b60205260408320546001600160ff1b038311610ec3578383820393128184128116918413901516176104f257828212610eb457816040848360209652609b865220557fd4def76d6d2bed6f14d5cd9af73cc2913d618d00edde42432e81c09bfe07709883604051848152a2600160c955604051908152f35b63ef147de160e01b8352600483fd5b60405162461bcd60e51b815260206004820152602860248201527f53616665436173743a2076616c756520646f65736e27742066697420696e2061604482015267371034b73a191a9b60c11b6064820152608490fd5b632711b74d60e11b8352600483fd5b63f739589b60e01b8452600484fd5b50346101f557806003193601126101f557610f50612356565b603380546001600160a01b0319811690915581906001600160a01b03167f8be0079c531659141344cd1fd0a4f28419497f9722a3daafe3b4186f6b6457e08280a380f35b50346101f557806003193601126101f5576020606654604051908152f35b50346101f55760203660031901126101f55760043560ff8116809103610c5c57600190602092501b806066541614604051908152f35b50346101f557806003193601126101f55760405163237dfb4760e11b81523360048201526020816024817f00000000000000000000000000000000000000000000000000000000000000006001600160a01b03165afa90811561091f578291611096575b5015611087575f196066556040515f1981527fab40a374bc51de372200a8bc981af8c9ecdc08dfdaef0bb6e09f88f3c616ef3d60203392a280f35b631d77d47760e21b8152600490fd5b6110b8915060203d6020116110be575b6110b081836115fd565b81019061161f565b5f61104c565b503d6110a6565b50346101f557806003193601126101f5577f000000000000000000000000000000000000000000000000000000000000000060ff811690601f82116111525760409182519161111484846115fd565b6020808452830191601f198501368437835281528251938492602084525180928160208601528585015e828201840152601f01601f19168101030190f35b632cd44ac360e21b8352600483fd5b50346101f55761117036611565565b92907f00000000000000000000000000000000000000000000000000000000000000006001600160a01b031633036105065773beac0eeeeeeeeeeeeeeeeeeeeeeeeeeeeeebeac0906111c0612248565b6001600160a01b0316036101e65760406111da848461229e565b600160c95582519182526020820152f35b503461132f57608036600319011261132f57611205611539565b61120d61154f565b906044356001600160a01b0381160361132f57606435917f00000000000000000000000000000000000000000000000000000000000000006001600160a01b031633036114265773beac0eeeeeeeeeeeeeeeeeeeeeeeeeeeeeebeac090611272612248565b6001600160a01b031603611417576001600160a01b03168015611408575f8213156113f957805f52609b60205260405f2054825f8212611333575b5050816112be575b82600160c95580f35b5f818152609860205260409020546001600160a01b031691823b1561132f5760445f928360405195869485936362483a2160e11b8552600485015260248401525af1801561132457611311575b806112b5565b61131d91505f906115fd565b5f5f61130b565b6040513d5f823e3d90fd5b5f80fd5b81935060207fd4def76d6d2bed6f14d5cd9af73cc2913d618d00edde42432e81c09bfe07709891846113658195611637565b91828111156113c857836113a57f4e2b791dedccd9fb30141b088cabf5c14a8912b52f59375c95c010700b8c61939261139f86879261165b565b9a611668565b93835f52609b82528460405f2055604051908152a2604051908152a25f806112ad565b915050837f4e2b791dedccd9fb30141b088cabf5c14a8912b52f59375c95c010700b8c6193836113a5845f9a611668565b63ef147de160e01b5f5260045ffd5b6339b190bb60e11b5f5260045ffd5b632711b74d60e11b5f5260045ffd5b63f739589b60e01b5f5260045ffd5b3461132f575f36600319011261132f576040517f00000000000000000000000000000000000000000000000000000000000000006001600160a01b03168152602090f35b3461132f57602036600319011261132f5763237dfb4760e11b81523360048281019190915235906020816024817f00000000000000000000000000000000000000000000000000000000000000006001600160a01b03165afa908115611324575f9161151a575b501561150b57606654818116036114fc576114fa90612216565b005b63c61dca5d60e01b5f5260045ffd5b631d77d47760e21b5f5260045ffd5b611533915060203d6020116110be576110b081836115fd565b826114e0565b600435906001600160a01b038216820361132f57565b602435906001600160a01b038216820361132f57565b606090600319011261132f576004356001600160a01b038116810361132f57906024356001600160a01b038116810361132f579060443590565b9181601f8401121561132f5782359167ffffffffffffffff831161132f576020838186019501011161132f57565b6040810190811067ffffffffffffffff8211176115e957604052565b634e487b7160e01b5f52604160045260245ffd5b90601f8019910116810190811067ffffffffffffffff8211176115e957604052565b9081602091031261132f5751801515810361132f5790565b600160ff1b8114611647575f0390565b634e487b7160e01b5f52601160045260245ffd5b9190820391821161164757565b9190915f838201938412911290801582169115161761164757565b908060209392818452848401375f828201840152601f01601f1916010190565b604051906116b3610940836115fd565b61090e82526d1d194818d85b1b0819985a5b195960921b610920837f608060405260405161090e38038061090e83398101604081905261002291610460208201527f60565b61002e82826000610035565b505061058a565b61003e83610100565b6060408201527f40516001600160a01b038416907f1cf3b03a6cf19fa2baba4df148e9dcabedea60608201527f7f8a5c07840e207e5c089be95d3e90600090a260008251118061007f5750805b60808201527f156100fb576100f9836001600160a01b0316635c60da1b6040518163ffffffff60a08201527f1660e01b8152600401602060405180830381865afa1580156100c5573d60008060c08201527f3e3d6000fd5b505050506040513d601f19601f8201168201806040525081019060e08201527f6100e99190610520565b836102a360201b6100291760201c565b505b505050566101008201527f5b610113816102cf60201b6100551760201c565b6101725760405162461bcd606101208201527fe51b815260206004820152602560248201527f455243313936373a206e6577206101408201527f626561636f6e206973206e6f74206120636f6e6044820152641d1c9858dd60da6101608201527f1b60648201526084015b60405180910390fd5b6101e6816001600160a01b03166101808201527f635c60da1b6040518163ffffffff1660e01b81526004016020604051808303816101a08201527f865afa1580156101b3573d6000803e3d6000fd5b505050506040513d601f19606101c08201527f1f820116820180604052508101906101d79190610520565b6102cf60201b61006101e08201527f551760201c565b61024b5760405162461bcd60e51b81526020600482015260306102008201527f60248201527f455243313936373a20626561636f6e20696d706c656d656e74616102208201527f74696f6e206960448201526f1cc81b9bdd08184818dbdb9d1c9858dd60821b606102408201527f64820152608401610169565b806102827fa3f0ad74e5423aebfd80d3ef4346576102608201527f8335a9a72aeaee59ff6cb3582b35133d5060001b6102de60201b6100641760206102808201527f1c565b80546001600160a01b0319166001600160a01b039290921691909117906102a08201527f5550565b60606102c883836040518060600160405280602781526020016108e76102c08201527f602791396102e1565b9392505050565b6001600160a01b03163b151590565b906102e08201527f565b6060600080856001600160a01b0316856040516102fe919061053b565b606103008201527e60405180830381855af49150503d8060008114610339576040519150601f196103208201527f603f3d011682016040523d82523d6000602084013e61033e565b606091505b506103408201527f90925090506103508683838761035a565b9695505050505050565b60608315616103608201527f03c65782516103bf576001600160a01b0385163b6103bf5760405162461bcd606103808201527fe51b815260206004820152601d60248201527f416464726573733a2063616c6c6103a08201527f20746f206e6f6e2d636f6e74726163740000006044820152606401610169565b6103c08201527f50816103d0565b6103d083836103d8565b949350505050565b8151156103e8576103e08201527f81518083602001fd5b8060405162461bcd60e51b8152600401610169919061056104008201527f57565b80516001600160a01b038116811461041957600080fd5b919050565b636104208201527f4e487b7160e01b600052604160045260246000fd5b60005b8381101561044f576104408201527f8181015183820152602001610437565b838111156100f95750506000910152566104608201527f5b6000806040838503121561047357600080fd5b61047c83610402565b6020846104808201527f01519092506001600160401b038082111561049957600080fd5b8185019150856104a08201527f601f8301126104ad57600080fd5b8151818111156104bf576104bf61041e565b6104c08201527f604051601f8201601f19908116603f011681019083821181831017156104e7576104e08201527f6104e761041e565b8160405282815288602084870101111561050057600080fd6105008201527f5b610511836020830160208801610434565b80955050505050509250929050566105208201527f5b60006020828403121561053257600080fd5b6102c882610402565b600082516105408201527f61054d818460208701610434565b9190910192915050565b60208152600082516105608201527f806020840152610576816040850160208701610434565b601f01601f191691906105808201527f910160400192915050565b61034e806105996000396000f3fe608060405236616105a08201527e1357610011610017565b005b6100115b610027610022610067565b610100566105c08201527f5b565b606061004e83836040518060600160405280602781526020016102f2606105e08201527f279139610124565b9392505050565b6001600160a01b03163b151590565b90566106008201527f5b600061009a7fa3f0ad74e5423aebfd80d3ef4346578335a9a72aeaee59ff6c6106208201527fb3582b35133d50546001600160a01b031690565b6001600160a01b0316635c606106408201527fda1b6040518163ffffffff1660e01b8152600401602060405180830381865afa6106608201527f1580156100d7573d6000803e3d6000fd5b505050506040513d601f19601f82016106808201527f16820180604052508101906100fb9190610249565b905090565b3660008037606106a08201527e80366000845af43d6000803e80801561011f573d6000f35b3d6000fd5b60606106c08201527f600080856001600160a01b03168560405161014191906102a2565b60006040516106e08201527f80830381855af49150503d806000811461017c576040519150601f19603f3d016107008201527f1682016040523d82523d6000602084013e610181565b606091505b50915091506107208201527f6101928683838761019c565b9695505050505050565b6060831561020d5782516107408201527f610206576001600160a01b0385163b6102065760405162461bcd60e51b8152606107608201527f206004820152601d60248201527f416464726573733a2063616c6c20746f206e6107808201527f6f6e2d636f6e747261637400000060448201526064015b60405180910390fd5b6107a08201527f5081610217565b610217838361021f565b949350505050565b81511561022f576107c08201527f81518083602001fd5b8060405162461bcd60e51b81526004016101fd919061026107e08201527fbe565b60006020828403121561025b57600080fd5b81516001600160a01b03816108008201527f16811461004e57600080fd5b60005b8381101561028d578181015183820152606108208201527f2001610275565b8381111561029c576000848401525b50505050565b600082516108408201527f6102b4818460208701610272565b9190910192915050565b60208152600082516108608201527f8060208401526102dd816040850160208701610272565b601f01601f191691906108808201527f91016040019291505056fe416464726573733a206c6f772d6c6576656c2064656108a08201527f6c65676174652063616c6c206661696c6564a2646970667358221220d51e81d36108c08201527fbc5ed20a26aeb05dce7e825c503b2061aa78628027300c8d65b9d89a64736f6c6108e08201527f634300080c0033416464726573733a206c6f772d6c6576656c2064656c6567616109008201520152565b60018060a01b03165f52609d602052602060405f20604051906121e2826115cd565b549067ffffffffffffffff60ff831615159283835260081c1692839101525f146122095790565b50670de0b6b3a764000090565b806066556040519081527fab40a374bc51de372200a8bc981af8c9ecdc08dfdaef0bb6e09f88f3c616ef3d60203392a2565b600260c9541461225957600260c955565b60405162461bcd60e51b815260206004820152601f60248201527f5265656e7472616e637947756172643a207265656e7472616e742063616c6c006044820152606490fd5b6001600160a01b031691908215611408575f81126113f957825f52609b60205260405f20546122cd8282611668565b93805f52609b6020528460405f2055807f4e2b791dedccd9fb30141b088cabf5c14a8912b52f59375c95c010700b8c61936020604051868152a27fd4def76d6d2bed6f14d5cd9af73cc2913d618d00edde42432e81c09bfe0770986020604051878152a25f841361234257505090505f905f90565b5f8112156123515750505f9190565b925090565b6033546001600160a01b0316330361236a57565b606460405162461bcd60e51b815260206004820152602060248201527f4f776e61626c653a2063616c6c6572206973206e6f7420746865206f776e65726044820152fd5b603380546001600160a01b039283166001600160a01b0319821681179092559091167f8be0079c531659141344cd1fd0a4f28419497f9722a3daafe3b4186f6b6457e05f80a3565b6099545f905f198114611647576001016099556124116116a3565b604080517f00000000000000000000000000000000000000000000000000000000000000006001600160a01b031660208201908152818301929092525f606080830191909152815261249f906124686080826115fd565b60206040519384928280850197805191829101895e840190838201905f8252519283915e01015f815203601f1981018352826115fd565b80511561259057516001600160a01b03913391905ff51690811561254b57813b1561132f5760405163189acdbd60e31b81523360048201525f8160248183875af1801561132457612538575b50338152609860205260408120826bffffffffffffffffffffffff60a01b825416179055817f21c99d0db02213c32fff5b05cf0a718ab5f858802b91498f80d82270289d856a339280a390565b61254491505f906115fd565b5f5f6124eb565b60405162461bcd60e51b815260206004820152601960248201527f437265617465323a204661696c6564206f6e206465706c6f79000000000000006044820152606490fd5b606460405162461bcd60e51b815260206004820152602060248201527f437265617465323a2062797465636f6465206c656e677468206973207a65726f6044820152fd5b915f19828409928281029283808610950394808603951461268a578483111561264d57829109600182190182168092046002816003021880820260020302808202600203028082026002030280820260020302808202600203028091026002030293600183805f03040190848311900302920304170290565b60405162461bcd60e51b81526020600482015260156024820152744d6174683a206d756c446976206f766572666c6f7760581b6044820152606490fd5b505080925015612698570490565b634e487b7160e01b5f52601260045260245ffdfea26469706673582212202ea2e376e4af9aeac4ebe916fae582aa672f35561d762fc81bac31805f8ee6cd64736f6c634300081b0033","linkReferences":{}},"methodIdentifiers":{"addShares(address,address,uint256)":"50ff7225","beaconChainETHStrategy()":"9104c319","beaconChainSlashingFactor(address)":"a3d75e09","burnableETHShares()":"f5d4fed3","createPod()":"84d81062","delegationManager()":"ea4d3c9b","eigenPodBeacon()":"292b7b2b","ethPOS()":"74cdd798","getPod(address)":"a38406a3","hasPod(address)":"f6848d24","increaseBurnableShares(address,uint256)":"debe1eab","initialize(address,uint256)":"cd6dc687","numPods()":"a6a509be","owner()":"8da5cb5b","ownerToPod(address)":"9ba06275","pause(uint256)":"136439dd","pauseAll()":"595c6a67","paused()":"5c975abb","paused(uint8)":"5ac86ab7","pauserRegistry()":"886f1195","podOwnerDepositShares(address)":"d48e8894","recordBeaconChainETHBalanceUpdate(address,uint256,int256)":"a1ca780b","removeDepositShares(address,address,uint256)":"724af423","renounceOwnership()":"715018a6","stake(bytes,bytes,bytes32)":"9b4e4634","stakerDepositShares(address,address)":"fe243a17","transferOwnership(address)":"f2fde38b","unpause(uint256)":"fabc1cbc","version()":"54fd4d50","withdrawSharesAsTokens(address,address,address,uint256)":"2eae418c"},"id":41}