{"abi":[{"type":"constructor","inputs":[{"name":"_avsDirectory","type":"address","internalType":"address"},{"name":"_stakeRegistry","type":"address","internalType":"address"},{"name":"_rewardsCoordinator","type":"address","internalType":"address"},{"name":"_delegationManager","type":"address","internalType":"address"},{"name":"_allocationManager","type":"address","internalType":"address"},{"name":"_maxResponseIntervalBlocks","type":"uint32","internalType":"uint32"}],"stateMutability":"nonpayable"},{"type":"function","name":"addPendingAdmin","inputs":[{"name":"admin","type":"address","internalType":"address"}],"outputs":[],"stateMutability":"nonpayable"},{"type":"function","name":"allTaskHashes","inputs":[{"name":"","type":"uint32","internalType":"uint32"}],"outputs":[{"name":"","type":"bytes32","internalType":"bytes32"}],"stateMutability":"view"},{"type":"function","name":"allTaskResponses","inputs":[{"name":"","type":"address","internalType":"address"},{"name":"","type":"uint32","internalType":"uint32"}],"outputs":[{"name":"","type":"bytes","internalType":"bytes"}],"stateMutability":"view"},{"type":"function","name":"allocationManager","inputs":[],"outputs":[{"name":"","type":"address","internalType":"address"}],"stateMutability":"view"},{"type":"function","name":"avsDirectory","inputs":[],"outputs":[{"name":"","type":"address","internalType":"address"}],"stateMutability":"view"},{"type":"function","name":"createAVSRewardsSubmission","inputs":[{"name":"rewardsSubmissions","type":"tuple[]","internalType":"struct IRewardsCoordinatorTypes.RewardsSubmission[]","components":[{"name":"strategiesAndMultipliers","type":"tuple[]","internalType":"struct IRewardsCoordinatorTypes.StrategyAndMultiplier[]","components":[{"name":"strategy","type":"address","internalType":"contract IStrategy"},{"name":"multiplier","type":"uint96","internalType":"uint96"}]},{"name":"token","type":"address","internalType":"contract IERC20"},{"name":"amount","type":"uint256","internalType":"uint256"},{"name":"startTimestamp","type":"uint32","internalType":"uint32"},{"name":"duration","type":"uint32","internalType":"uint32"}]}],"outputs":[],"stateMutability":"nonpayable"},{"type":"function","name":"createNewTask","inputs":[{"name":"zeroForOne","type":"bool","internalType":"bool"},{"name":"amountSpecified","type":"int256","internalType":"int256"},{"name":"sqrtPriceLimitX96","type":"uint160","internalType":"uint160"},{"name":"sender","type":"address","internalType":"address"},{"name":"poolId","type":"bytes32","internalType":"bytes32"}],"outputs":[{"name":"task","type":"tuple","internalType":"struct IOrderServiceManager.Task","components":[{"name":"zeroForOne","type":"bool","internalType":"bool"},{"name":"amountSpecified","type":"int256","internalType":"int256"},{"name":"sqrtPriceLimitX96","type":"uint160","internalType":"uint160"},{"name":"sender","type":"address","internalType":"address"},{"name":"poolId","type":"bytes32","internalType":"bytes32"},{"name":"taskCreatedBlock","type":"uint32","internalType":"uint32"},{"name":"taskId","type":"uint32","internalType":"uint32"}]}],"stateMutability":"nonpayable"},{"type":"function","name":"createOperatorDirectedAVSRewardsSubmission","inputs":[{"name":"operatorDirectedRewardsSubmissions","type":"tuple[]","internalType":"struct IRewardsCoordinatorTypes.OperatorDirectedRewardsSubmission[]","components":[{"name":"strategiesAndMultipliers","type":"tuple[]","internalType":"struct IRewardsCoordinatorTypes.StrategyAndMultiplier[]","components":[{"name":"strategy","type":"address","internalType":"contract IStrategy"},{"name":"multiplier","type":"uint96","internalType":"uint96"}]},{"name":"token","type":"address","internalType":"contract IERC20"},{"name":"operatorRewards","type":"tuple[]","internalType":"struct IRewardsCoordinatorTypes.OperatorReward[]","components":[{"name":"operator","type":"address","internalType":"address"},{"name":"amount","type":"uint256","internalType":"uint256"}]},{"name":"startTimestamp","type":"uint32","internalType":"uint32"},{"name":"duration","type":"uint32","internalType":"uint32"},{"name":"description","type":"string","internalType":"string"}]}],"outputs":[],"stateMutability":"nonpayable"},{"type":"function","name":"deregisterOperatorFromAVS","inputs":[{"name":"operator","type":"address","internalType":"address"}],"outputs":[],"stateMutability":"nonpayable"},{"type":"function","name":"deregisterOperatorFromOperatorSets","inputs":[{"name":"operator","type":"address","internalType":"address"},{"name":"operatorSetIds","type":"uint32[]","internalType":"uint32[]"}],"outputs":[],"stateMutability":"nonpayable"},{"type":"function","name":"getHook","inputs":[],"outputs":[{"name":"","type":"address","internalType":"address"}],"stateMutability":"view"},{"type":"function","name":"getMessageHash","inputs":[{"name":"poolId","type":"bytes32","internalType":"bytes32"},{"name":"transferBalances","type":"tuple[]","internalType":"struct IDarkCoWHook.TransferBalance[]","components":[{"name":"amount","type":"uint256","internalType":"uint256"},{"name":"currency","type":"address","internalType":"address"},{"name":"sender","type":"address","internalType":"address"}]},{"name":"swapBalances","type":"tuple[]","internalType":"struct IDarkCoWHook.SwapBalance[]","components":[{"name":"amountSpecified","type":"int256","internalType":"int256"},{"name":"zeroForOne","type":"bool","internalType":"bool"},{"name":"sqrtPriceLimitX96","type":"uint160","internalType":"uint160"}]}],"outputs":[{"name":"","type":"bytes32","internalType":"bytes32"}],"stateMutability":"pure"},{"type":"function","name":"getOperatorRestakedStrategies","inputs":[{"name":"_operator","type":"address","internalType":"address"}],"outputs":[{"name":"","type":"address[]","internalType":"address[]"}],"stateMutability":"view"},{"type":"function","name":"getRestakeableStrategies","inputs":[],"outputs":[{"name":"","type":"address[]","internalType":"address[]"}],"stateMutability":"view"},{"type":"function","name":"hook","inputs":[],"outputs":[{"name":"","type":"address","internalType":"address"}],"stateMutability":"view"},{"type":"function","name":"initialize","inputs":[{"name":"initialOwner","type":"address","internalType":"address"},{"name":"_rewardsInitiator","type":"address","internalType":"address"}],"outputs":[],"stateMutability":"nonpayable"},{"type":"function","name":"latestTaskNum","inputs":[],"outputs":[{"name":"","type":"uint32","internalType":"uint32"}],"stateMutability":"view"},{"type":"function","name":"owner","inputs":[],"outputs":[{"name":"","type":"address","internalType":"address"}],"stateMutability":"view"},{"type":"function","name":"registerOperatorToAVS","inputs":[{"name":"operator","type":"address","internalType":"address"},{"name":"operatorSignature","type":"tuple","internalType":"struct ISignatureUtilsMixinTypes.SignatureWithSaltAndExpiry","components":[{"name":"signature","type":"bytes","internalType":"bytes"},{"name":"salt","type":"bytes32","internalType":"bytes32"},{"name":"expiry","type":"uint256","internalType":"uint256"}]}],"outputs":[],"stateMutability":"nonpayable"},{"type":"function","name":"removeAdmin","inputs":[{"name":"admin","type":"address","internalType":"address"}],"outputs":[],"stateMutability":"nonpayable"},{"type":"function","name":"removeAppointee","inputs":[{"name":"appointee","type":"address","internalType":"address"},{"name":"target","type":"address","internalType":"address"},{"name":"selector","type":"bytes4","internalType":"bytes4"}],"outputs":[],"stateMutability":"nonpayable"},{"type":"function","name":"removePendingAdmin","inputs":[{"name":"pendingAdmin","type":"address","internalType":"address"}],"outputs":[],"stateMutability":"nonpayable"},{"type":"function","name":"renounceOwnership","inputs":[],"outputs":[],"stateMutability":"nonpayable"},{"type":"function","name":"respondToBatch","inputs":[{"name":"tasks","type":"tuple[]","internalType":"struct IOrderServiceManager.Task[]","components":[{"name":"zeroForOne","type":"bool","internalType":"bool"},{"name":"amountSpecified","type":"int256","internalType":"int256"},{"name":"sqrtPriceLimitX96","type":"uint160","internalType":"uint160"},{"name":"sender","type":"address","internalType":"address"},{"name":"poolId","type":"bytes32","internalType":"bytes32"},{"name":"taskCreatedBlock","type":"uint32","internalType":"uint32"},{"name":"taskId","type":"uint32","internalType":"uint32"}]},{"name":"referenceTaskIndices","type":"uint32[]","internalType":"uint32[]"},{"name":"transferBalances","type":"tuple[]","internalType":"struct IDarkCoWHook.TransferBalance[]","components":[{"name":"amount","type":"uint256","internalType":"uint256"},{"name":"currency","type":"address","internalType":"address"},{"name":"sender","type":"address","internalType":"address"}]},{"name":"swapBalances","type":"tuple[]","internalType":"struct IDarkCoWHook.SwapBalance[]","components":[{"name":"amountSpecified","type":"int256","internalType":"int256"},{"name":"zeroForOne","type":"bool","internalType":"bool"},{"name":"sqrtPriceLimitX96","type":"uint160","internalType":"uint160"}]},{"name":"signature","type":"bytes","internalType":"bytes"}],"outputs":[],"stateMutability":"nonpayable"},{"type":"function","name":"respondToTask","inputs":[{"name":"task","type":"tuple","internalType":"struct IOrderServiceManager.Task","components":[{"name":"zeroForOne","type":"bool","internalType":"bool"},{"name":"amountSpecified","type":"int256","internalType":"int256"},{"name":"sqrtPriceLimitX96","type":"uint160","internalType":"uint160"},{"name":"sender","type":"address","internalType":"address"},{"name":"poolId","type":"bytes32","internalType":"bytes32"},{"name":"taskCreatedBlock","type":"uint32","internalType":"uint32"},{"name":"taskId","type":"uint32","internalType":"uint32"}]},{"name":"referenceTaskIndex","type":"uint32","internalType":"uint32"},{"name":"signature","type":"bytes","internalType":"bytes"}],"outputs":[],"stateMutability":"nonpayable"},{"type":"function","name":"rewardsInitiator","inputs":[],"outputs":[{"name":"","type":"address","internalType":"address"}],"stateMutability":"view"},{"type":"function","name":"setAVSRegistrar","inputs":[{"name":"registrar","type":"address","internalType":"contract IAVSRegistrar"}],"outputs":[],"stateMutability":"nonpayable"},{"type":"function","name":"setAppointee","inputs":[{"name":"appointee","type":"address","internalType":"address"},{"name":"target","type":"address","internalType":"address"},{"name":"selector","type":"bytes4","internalType":"bytes4"}],"outputs":[],"stateMutability":"nonpayable"},{"type":"function","name":"setClaimerFor","inputs":[{"name":"claimer","type":"address","internalType":"address"}],"outputs":[],"stateMutability":"nonpayable"},{"type":"function","name":"setHook","inputs":[{"name":"_hook","type":"address","internalType":"address"}],"outputs":[],"stateMutability":"nonpayable"},{"type":"function","name":"setRewardsInitiator","inputs":[{"name":"newRewardsInitiator","type":"address","internalType":"address"}],"outputs":[],"stateMutability":"nonpayable"},{"type":"function","name":"slashOperator","inputs":[{"name":"task","type":"tuple","internalType":"struct IOrderServiceManager.Task","components":[{"name":"zeroForOne","type":"bool","internalType":"bool"},{"name":"amountSpecified","type":"int256","internalType":"int256"},{"name":"sqrtPriceLimitX96","type":"uint160","internalType":"uint160"},{"name":"sender","type":"address","internalType":"address"},{"name":"poolId","type":"bytes32","internalType":"bytes32"},{"name":"taskCreatedBlock","type":"uint32","internalType":"uint32"},{"name":"taskId","type":"uint32","internalType":"uint32"}]},{"name":"referenceTaskIndex","type":"uint32","internalType":"uint32"},{"name":"operator","type":"address","internalType":"address"}],"outputs":[],"stateMutability":"nonpayable"},{"type":"function","name":"stakeRegistry","inputs":[],"outputs":[{"name":"","type":"address","internalType":"address"}],"stateMutability":"view"},{"type":"function","name":"transferOwnership","inputs":[{"name":"newOwner","type":"address","internalType":"address"}],"outputs":[],"stateMutability":"nonpayable"},{"type":"function","name":"updateAVSMetadataURI","inputs":[{"name":"_metadataURI","type":"string","internalType":"string"}],"outputs":[],"stateMutability":"nonpayable"},{"type":"event","name":"BatchResponse","inputs":[{"name":"referenceTaskIndices","type":"uint32[]","indexed":true,"internalType":"uint32[]"},{"name":"sender","type":"address","indexed":false,"internalType":"address"}],"anonymous":false},{"type":"event","name":"Initialized","inputs":[{"name":"version","type":"uint8","indexed":false,"internalType":"uint8"}],"anonymous":false},{"type":"event","name":"NewTaskCreated","inputs":[{"name":"taskIndex","type":"uint32","indexed":true,"internalType":"uint32"},{"name":"task","type":"tuple","indexed":false,"internalType":"struct IOrderServiceManager.Task","components":[{"name":"zeroForOne","type":"bool","internalType":"bool"},{"name":"amountSpecified","type":"int256","internalType":"int256"},{"name":"sqrtPriceLimitX96","type":"uint160","internalType":"uint160"},{"name":"sender","type":"address","internalType":"address"},{"name":"poolId","type":"bytes32","internalType":"bytes32"},{"name":"taskCreatedBlock","type":"uint32","internalType":"uint32"},{"name":"taskId","type":"uint32","internalType":"uint32"}]}],"anonymous":false},{"type":"event","name":"OwnershipTransferred","inputs":[{"name":"previousOwner","type":"address","indexed":true,"internalType":"address"},{"name":"newOwner","type":"address","indexed":true,"internalType":"address"}],"anonymous":false},{"type":"event","name":"RewardsInitiatorUpdated","inputs":[{"name":"prevRewardsInitiator","type":"address","indexed":false,"internalType":"address"},{"name":"newRewardsInitiator","type":"address","indexed":false,"internalType":"address"}],"anonymous":false},{"type":"event","name":"TaskResponded","inputs":[{"name":"taskIndex","type":"uint32","indexed":true,"internalType":"uint32"},{"name":"task","type":"tuple","indexed":false,"internalType":"struct IOrderServiceManager.Task","components":[{"name":"zeroForOne","type":"bool","internalType":"bool"},{"name":"amountSpecified","type":"int256","internalType":"int256"},{"name":"sqrtPriceLimitX96","type":"uint160","internalType":"uint160"},{"name":"sender","type":"address","internalType":"address"},{"name":"poolId","type":"bytes32","internalType":"bytes32"},{"name":"taskCreatedBlock","type":"uint32","internalType":"uint32"},{"name":"taskId","type":"uint32","internalType":"uint32"}]},{"name":"operator","type":"address","indexed":false,"internalType":"address"}],"anonymous":false},{"type":"error","name":"DelayPeriodNotPassed","inputs":[]},{"type":"error","name":"OnlyRegistryCoordinator","inputs":[]},{"type":"error","name":"OnlyRewardsInitiator","inputs":[]},{"type":"error","name":"OnlyStakeRegistry","inputs":[]}],"bytecode":{"object":"0x610120346101c557601f612e9538819003918201601f19168301916001600160401b038311848410176101c95780849260c0946040528339810103126101c557610048816101dd565b610054602083016101dd565b610060604084016101dd565b9061006d606085016101dd565b9260a061007c608087016101dd565b95015163ffffffff8116036101c55760a05260805260e0526101005260c0525f5460ff8160081c166101705760ff80821603610136575b604051612ca390816101f282396080518181816105030152818161085701528181610d13015281816112e501526115bf015260a0518181816107ce0152818161088901528181610d4001526112a0015260c05181818161047701526105ca015260e0518181816101d80152818161093d0152610bfc015261010051816116860152f35b60ff90811916175f557f7f26b83ff96e1f2b6a682f133852f6798a09c465da95921460cefb3847402498602060405160ff8152a15f6100b3565b60405162461bcd60e51b815260206004820152602760248201527f496e697469616c697a61626c653a20636f6e747261637420697320696e697469604482015266616c697a696e6760c81b6064820152608490fd5b5f80fd5b634e487b7160e01b5f52604160045260245ffd5b51906001600160a01b03821682036101c55756fe60806040526004361015610011575f80fd5b5f5f3560e01c80631785f53c14611d755780631f244f3a146118dc5780631fdb0cfd1461073e578063279432eb14610c645780632d89f6fc146118a35780632dee8ed11461187757806333cfb7b71461158e5780633bc28c8c146115695780633dfd387314611521578063485cc9551461137c5780635e96a8961461131457806368304835146112cf5780636b3aa72e1461128a5780636d4d13ae1461105d578063715018a6146110005780637f5a7c7b146107585780638b00ce7c14610fdc5780638da5cb5b14610fb357806395aec0b414610de65780639926ee7d14610c875780639da16d8e14610c64578063a0169ddd14610bd7578063a20b99bf14610900578063a364f4da1461083b578063a98fb35514610781578063b55bd84d14610758578063ba5508801461073e578063c1a8e2c514610700578063c20bab7f146105f9578063ca8aa7c7146105b4578063e481af9d146104de578063f25f161014610445578063f2fde38b146103b4578063fc299dee1461038b5763fce36c7d1461019b575f80fd5b34610278576020366003190112610278576004356001600160401b038111610387576101cb90369060040161216e565b6101d6929192612696565b7f0000000000000000000000000000000000000000000000000000000000000000825b82811061032357506001600160a01b031690813b1561031f576040519363fce36c7d60e01b8552816024860160206004880152526044850160448360051b87010192828690609e19813603015b8383106102865788808b8181808c0381838f5af1801561027b576102675750f35b8161027191611e10565b6102785780f35b80fd5b6040513d84823e3d90fd5b9091929394956043198a820301865286358281121561031b5760206001928582930190608063ffffffff610309826102cf6102c18780612731565b60a0885260a0880191612765565b95898060a01b036102e1898301611dc6565b168887015260408101356040870152836102fd60608301611e5b565b16606087015201611e5b565b16910152980196019493019190610246565b8980fd5b8280fd5b8061035861033f6020610339600195888b6127c9565b0161271d565b604061034c84888b6127c9565b01359030903390612938565b61038161036b602061033984888b6127c9565b84604061037985898c6127c9565b013591612983565b016101f9565b5080fd5b50346102785780600319360112610278576065546040516001600160a01b039091168152602090f35b5034610278576020366003190112610278576103ce611d99565b6103d6612432565b6001600160a01b038116156103f1576103ee9061264e565b80f35b60405162461bcd60e51b815260206004820152602660248201527f4f776e61626c653a206e6577206f776e657220697320746865207a65726f206160448201526564647265737360d01b6064820152608490fd5b503461027857602036600319011261027857806004356001600160a01b038116908190036104db57610475612432565b7f00000000000000000000000000000000000000000000000000000000000000006001600160a01b031690813b156104d95782916044839260405194859384926334f65bfd60e21b845230600485015260248401525af1801561027b576102675750f35b505b50fd5b50346102785780600319360112610278576040516302e0740360e31b815281816004817f00000000000000000000000000000000000000000000000000000000000000006001600160a01b03165afa90811561027b578291610592575b506105478151516125be565b915b8151805182101561058057600191906001600160a01b039061056c90839061227b565b515116610579828661227b565b5201610549565b6040518061058e86826120ca565b0390f35b6105ae91503d8084833e6105a68183611e10565b81019061248a565b5f61053b565b50346102785780600319360112610278576040517f00000000000000000000000000000000000000000000000000000000000000006001600160a01b03168152602090f35b503461027857604036600319011261027857610613611d99565b6024359063ffffffff8216820361031f5760018060a01b03168252609960205263ffffffff6040832091165f5260205260405f209060405191818154916106598361219e565b80865292600181169081156106d65750600114610695575b61058e8561068181870382611e10565b6040519182916020835260208301906121d6565b815260208120939250905b8082106106bc575090915081016020016106818261058e610671565b9192600181602092548385880101520191019092916106a0565b86955061058e9693506020925061068194915060ff191682840152151560051b8201019293610671565b50346102785760403660031901126102785761071a611d99565b506024356001600160401b0381116103875761073a903690600401611e6c565b5080f35b50346102785761074d3661207f565b5050506103ee612432565b5034610278578060031936011261027857609754604051602091821c6001600160a01b03168152f35b503461027857602036600319011261027857806004356001600160401b0381116104db57366023820112156104db576107c490369060248160040135910161202b565b6107cc612432565b7f00000000000000000000000000000000000000000000000000000000000000006001600160a01b0316803b156104d95760405163a98fb35560e01b815260206004820152918391839182908490829061082a9060248301906121d6565b03925af1801561027b576102675750f35b503461027857602036600319011261027857610855611d99565b7f00000000000000000000000000000000000000000000000000000000000000006001600160a01b031633036108f15781907f00000000000000000000000000000000000000000000000000000000000000006001600160a01b031690813b156104d9576040516351b27a6d60e11b81526001600160a01b0390911660048201529082908290602490829084905af1801561027b576102675750f35b6346bf228160e01b8252600482fd5b5034610278576020366003190112610278576004356001600160401b0381116103875761093190369060040161216e565b919061093b612696565b7f0000000000000000000000000000000000000000000000000000000000000000825b848110610b2257506001600160a01b0316803b1561031f5760409391935191634e5cd2fd60e11b8352806044840130600486015260406024860152526064830160648260051b850101918691869760be19813603015b838a106109d5578880898181808b0381838e5af1801561027b576102675750f35b909192939460631988820301845285358281121561031b57830190610a0b6109fd8380612731565b60c0845260c0840191612765565b916001600160a01b03610a2060208301611dc6565b1660208301526020610a356040830183612731565b848603604086015280865294909101938c905b808210610af25750505063ffffffff610a6360608301611e5b565b16606083015263ffffffff610a7a60808301611e5b565b16608083015260a0810135601e1982360301811215610aee570190602082359201906001600160401b038311610aee578236038213610aee57838360209485948460a0879660019a03910152818452848401378d838284010152601f801991011601019701940199019891909392936109b4565b8b80fd5b909194604080600192838060a01b03610b0a8a611dc6565b16815260208901356020820152019601920190610a48565b90929193829483955b610b43610b398585856126b9565b60408101906126db565b9050871015610b9357610b5a610b398585856126b9565b881015610b7f576001916020610b77928a60061b01013590612710565b960195610b2b565b634e487b7160e01b86526032600452602486fd5b919550929391600191610bd190610bbb813033610bb66020610339898f8e6126b9565b612938565b84610bcc6020610339868c8b6126b9565b612983565b0161095e565b50346102785760203660031901126102785780610bf2611d99565b610bfa612432565b7f00000000000000000000000000000000000000000000000000000000000000006001600160a01b031690813b156104d95760405163a0169ddd60e01b81526001600160a01b0390911660048201529082908290602490829084905af1801561027b576102675750f35b503461027857602036600319011261027857610c7e611d99565b506103ee612432565b503461027857604036600319011261027857610ca1611d99565b906024356001600160401b03811161038757606060031982360301126103875760405192610cce84611df5565b81600401356001600160401b038111610de257610cf19060043691850101612061565b8452602084019060248301358252604460408601930135835260018060a01b037f0000000000000000000000000000000000000000000000000000000000000000163303610dd35792938493907f00000000000000000000000000000000000000000000000000000000000000006001600160a01b031690813b15610dcf5785610db193819560405197889687958694639926ee7d60e01b865260018060a01b0316600486015260406024860152516060604486015260a48501906121d6565b9151606484015251608483015203925af1801561027b576102675750f35b8580fd5b6346bf228160e01b8452600484fd5b8380fd5b50346102785760a036600319011261027857600435801515809103610387576044356001600160a01b0381169081900361031f576064356001600160a01b03811690819003610de2578360c0604051610e3e81611dda565b8281528260208201528260408201528260608201528260808201528260a0820152015260975460018060a01b038160201c163303610f6f5763ffffffff169160405193610e8a85611dda565b8452602435602085015260408401526060830152608435608083015263ffffffff431660a08301528060c08301526040516020810190610edc81610ece868561210c565b03601f198101835282611e10565b5190209083526098602052604083205560975463ffffffff811692837fcf6c726d7e1bca4504983384fbb6c6015a6a3bf9869e76987a45fbf1e421fc9660405180610f27878261210c565b0390a263ffffffff8414610f5b575063ffffffff600161058e9401169063ffffffff1916176097556040519182918261210c565b634e487b7160e01b81526011600452602490fd5b606460405162461bcd60e51b815260206004820152602060248201527f4f6e6c7920686f6f6b2063616e2063616c6c20746869732066756e6374696f6e6044820152fd5b50346102785780600319360112610278576033546040516001600160a01b039091168152602090f35b5034610278578060031936011261027857602063ffffffff60975416604051908152f35b5034610278578060031936011261027857611019612432565b603380546001600160a01b0319811690915581906001600160a01b03167f8be0079c531659141344cd1fd0a4f28419497f9722a3daafe3b4186f6b6457e08280a380f35b503461027857366003190161012081126103875760e01361027857611080611e48565b9061010435916001600160401b03831161038757366023840112156103875782600401356001600160401b03811161031f57366024828601011161031f5761110063ffffffff60405160208101906110d7826121fa565b60e081526110e761010082611e10565b519020931692838552609860205260408520541461228f565b338352609960205260408320825f5260205261111f60405f205461219e565b61123257338352609960205260408320825f5260205260405f209061114e81611148845461219e565b84612301565b83601f82116001146111c9578190859661117e949596926111bb575b50508160011b915f199060031b1c19161790565b90555b7f2216846cf2f354f83fe1979f87be47c6d11103c6b18e780e0999792234281bb46101006040516111b1816121fa565b3360e0820152a280f35b602492500101355f8061116a565b601f198216958386526020862091865b888110611217575083600195969798106111fb575b505050811b019055611181565b01602401355f19600384901b60f8161c191690555f80806111ee565b909260206001819260248787010135815501940191016111d9565b60405162461bcd60e51b815260206004820152602a60248201527f4f70657261746f722068617320616c726561647920726573706f6e64656420746044820152696f20746865207461736b60b01b6064820152608490fd5b50346102785780600319360112610278576040517f00000000000000000000000000000000000000000000000000000000000000006001600160a01b03168152602090f35b50346102785780600319360112610278576040517f00000000000000000000000000000000000000000000000000000000000000006001600160a01b03168152602090f35b5034610278576060366003190112610278576024356001600160401b03811161038757611345903690600401611ed1565b90604435906001600160401b0382116102785760206113748461136b3660048701611f77565b90600435612412565b604051908152f35b503461027857604036600319011261027857611396611d99565b602435906001600160a01b038216820361031f5782549160ff8360081c161592838094611514575b80156114fd575b156114a15760ff198116600117855583611490575b5060ff845460081c1615611437576113f46113f99261264e565b6125f0565b6114005780f35b61ff001981541681557f7f26b83ff96e1f2b6a682f133852f6798a09c465da95921460cefb3847402498602060405160018152a180f35b60405162461bcd60e51b815260206004820152602b60248201527f496e697469616c697a61626c653a20636f6e7472616374206973206e6f74206960448201526a6e697469616c697a696e6760a81b6064820152608490fd5b61ffff19166101011784555f6113da565b60405162461bcd60e51b815260206004820152602e60248201527f496e697469616c697a61626c653a20636f6e747261637420697320616c72656160448201526d191e481a5b9a5d1a585b1a5e995960921b6064820152608490fd5b50303b1580156113c55750600160ff8216146113c5565b50600160ff8216106113be565b50346102785760203660031901126102785761153b611d99565b60978054640100000000600160c01b03191660209290921b640100000000600160c01b031691909117905580f35b5034610278576020366003190112610278576103ee611586611d99565b6113f4612432565b5034610278576020366003190112610278576115a8611d99565b6040516302e0740360e31b815290919081816004817f00000000000000000000000000000000000000000000000000000000000000006001600160a01b03165afa90811561027b57829161185d575b50918251519161160683611e31565b916116146040519384611e10565b83835261162084611e31565b602084019590601f1901368737825b85811061182f57505060408051639004134760e01b81526001600160a01b0390921660048301526024820152825160448201819052909490829086906064820190835b81811061180a5750929350909150819003817f00000000000000000000000000000000000000000000000000000000000000006001600160a01b03165afa9384156117fd578194611763575b5080815b84811061173757506116d3906125be565b93815b8481106116eb576040518061058e88826120ca565b6116f5818361227b565b51611703575b6001016116d6565b9160019061172f906001600160a01b0361171d868861227b565b5116611729828a61227b565b5261259c565b9290506116fb565b611741818761227b565b5161174f575b6001016116c2565b9061175b60019161259c565b919050611747565b9093503d8085833e6117758183611e10565b8101906020818303126117f9578051906001600160401b038211610dcf57019080601f830112156117f95781516117ab81611e31565b926117b96040519485611e10565b81845260208085019260051b8201019283116117f557602001905b8282106117e557505050925f6116be565b81518152602091820191016117d4565b8680fd5b8480fd5b50604051903d90823e3d90fd5b85516001600160a01b031683526020958601958795508a945090920191600101611672565b600190818060a09995991b0361184682855161227b565b515116611853828861227b565b520195919561162f565b61187191503d8084833e6105a68183611e10565b5f6115f7565b503461027857366003190161012081126103875760e0136102785761189a611e48565b5061073a611daf565b50346102785760203660031901126102785760043563ffffffff8116809103610387578160409160209352609883522054604051908152f35b5034611d385760a0366003190112611d38576004356001600160401b038111611d385736602382011215611d38578060040135906001600160401b038211611d385736602460e0840283010111611d38576024356001600160401b038111611d385761194c903690600401611e6c565b916044356001600160401b038111611d385761196c903690600401611ed1565b936064356001600160401b038111611d385761198c903690600401611f77565b6084356001600160401b038111611d38576119ab903690600401612061565b915f5b8651811015611b135784811015611aff57611a84602460e0830288010160405163ffffffff611a4860c060208401946119e681611f6a565b151586526020810135604086015260018060a01b03611a0760408301611dc6565b16606086015260018060a01b03611a2060608301611dc6565b166080860152608081013560a086015283611a3d60a08301611e5b565b168286015201611e5b565b1660e082015260e08152611a5e61010082611e10565b51902063ffffffff611a70848b61227b565b51165f52609860205260405f20541461228f565b335f52609960205260405f2063ffffffff80611aa0848b61227b565b5116165f52602052611ab560405f205461219e565b611ac1576001016119ae565b60405162461bcd60e51b815260206004820152601660248201527515185cdac8185b1c9958591e481c995cdc1bdb99195960521b6044820152606490fd5b634e487b7160e01b5f52603260045260245ffd5b50859087868615611aff5760a40135611b41611b3987611b34888686612412565b6127eb565b919091612820565b336001600160a01b0390911603611d3c575f5b8451811015611c6157335f52609960205260405f2063ffffffff80611b79848961227b565b5116165f5260205260405f2087516001600160401b038111611c4d57611ba381611148845461219e565b6020601f8211600114611be857816001949392611bd4925f91611bdd575b508160011b915f199060031b1c19161790565b90555b01611b54565b90508b01518c611bc1565b601f19821690835f52805f20915f5b8c828210611c355750509183916001969594879410611c1d575b5050811b019055611bd7565b8c01515f1960f88460031b161c191690558b80611c11565b60018495602093958493015181550194019201611bf7565b634e487b7160e01b5f52604160045260245ffd5b5090919360018060a01b0360975460201c16803b15611d3857611c9e935f809460405196879586948593634cfd781760e01b855260048501612350565b03925af18015611d2d57611d18575b50604051809182916020825191920190855b818110611cf9575050500390207fac1dbabb5d98286171842f61110c5c30c03ad34c2350c2d4d1e43c447140b52a6020604051338152a280f35b825163ffffffff16845285945060209384019390920191600101611cbf565b611d259192505f90611e10565b5f9082611cad565b6040513d5f823e3d90fd5b5f80fd5b60405162461bcd60e51b8152602060048201526011602482015270496e76616c6964207369676e617475726560781b6044820152606490fd5b34611d38576020366003190112611d3857611d8e611d99565b50611d97612432565b005b600435906001600160a01b0382168203611d3857565b61010435906001600160a01b0382168203611d3857565b35906001600160a01b0382168203611d3857565b60e081019081106001600160401b03821117611c4d57604052565b606081019081106001600160401b03821117611c4d57604052565b90601f801991011681019081106001600160401b03821117611c4d57604052565b6001600160401b038111611c4d5760051b60200190565b60e4359063ffffffff82168203611d3857565b359063ffffffff82168203611d3857565b9080601f83011215611d38578135611e8381611e31565b92611e916040519485611e10565b81845260208085019260051b820101928311611d3857602001905b828210611eb95750505090565b60208091611ec684611e5b565b815201910190611eac565b81601f82011215611d3857803590611ee882611e31565b92611ef66040519485611e10565b82845260206060818601940283010191818311611d3857602001925b828410611f20575050505090565b606084830312611d38576020606091604051611f3b81611df5565b86358152611f4a838801611dc6565b83820152611f5a60408801611dc6565b6040820152815201930192611f12565b35908115158203611d3857565b81601f82011215611d3857803590611f8e82611e31565b92611f9c6040519485611e10565b82845260206060818601940283010191818311611d3857602001925b828410611fc6575050505090565b606084830312611d38576020606091604051611fe181611df5565b86358152611ff0838801611f6a565b8382015261200060408801611dc6565b6040820152815201930192611fb8565b6001600160401b038111611c4d57601f01601f191660200190565b92919261203782612010565b916120456040519384611e10565b829481845281830111611d38578281602093845f960137010152565b9080601f83011215611d385781602061207c9335910161202b565b90565b6060906003190112611d38576004356001600160a01b0381168103611d3857906024356001600160a01b0381168103611d3857906044356001600160e01b031981168103611d385790565b60206040818301928281528451809452019201905f5b8181106120ed5750505090565b82516001600160a01b03168452602093840193909201916001016120e0565b91909160c063ffffffff8160e08401958051151585526020810151602086015260018060a01b03604082015116604086015260018060a01b036060820151166060860152608081015160808601528260a08201511660a0860152015116910152565b9181601f84011215611d38578235916001600160401b038311611d38576020808501948460051b010111611d3857565b90600182811c921680156121cc575b60208310146121b857565b634e487b7160e01b5f52602260045260245ffd5b91607f16916121ad565b805180835260209291819084018484015e5f828201840152601f01601f1916010190565b600435801515809103611d3857815260243560208201526044356001600160a01b03811690819003611d385760408201526064356001600160a01b03811690819003611d38576060820152608435608082015260a43563ffffffff8116809103611d385760a082015260c4359063ffffffff8216809203611d385760c00152565b8051821015611aff5760209160051b010190565b1561229657565b60405162461bcd60e51b815260206004820152603d60248201527f737570706c696564207461736b20646f6573206e6f74206d617463682074686560448201527f206f6e65207265636f7264656420696e2074686520636f6e74726163740000006064820152608490fd5b601f821161230e57505050565b5f5260205f20906020601f840160051c83019310612346575b601f0160051c01905b81811061233b575050565b5f8155600101612330565b9091508190612327565b90606082019082526060602083015282518091526020608083019301905f5b8181106123d7575050506040818303910152602080835192838152019201905f5b81811061239d5750505090565b8251805185526020818101511515818701526040918201516001600160a01b03169186019190915260609094019390920191600101612390565b8251805186526020818101516001600160a01b039081168289015260409283015116918701919091526060909501949092019160010161236f565b919061242c90610ece604051938492602084019687612350565b51902090565b6033546001600160a01b0316330361244657565b606460405162461bcd60e51b815260206004820152602060248201527f4f776e61626c653a2063616c6c6572206973206e6f7420746865206f776e65726044820152fd5b602081830312611d38578051906001600160401b038211611d38570190602082820312611d385760405191602083018381106001600160401b03821117611c4d576040528051906001600160401b038211611d38570181601f82011215611d38578051906124f782611e31565b926125056040519485611e10565b82845260208085019360061b83010191818311611d3857602001925b8284106125315750505050815290565b604084830312611d385760405190604082018281106001600160401b03821117611c4d5760405284516001600160a01b0381168103611d385782526020850151906bffffffffffffffffffffffff82168203611d385782602092836040950152815201930192612521565b5f1981146125aa5760010190565b634e487b7160e01b5f52601160045260245ffd5b906125c882611e31565b6125d56040519182611e10565b82815280926125e6601f1991611e31565b0190602036910137565b606554604080516001600160a01b038084168252841660208201529192917fe11cddf1816a43318ca175bbc52cd0185436e9cbead7c83acc54a73e461717e39190a16001600160a01b03166001600160a01b03199190911617606555565b603380546001600160a01b039283166001600160a01b0319821681179092559091167f8be0079c531659141344cd1fd0a4f28419497f9722a3daafe3b4186f6b6457e05f80a3565b6065546001600160a01b031633036126aa57565b638e79fdb560e01b5f5260045ffd5b9190811015611aff5760051b8101359060be1981360301821215611d38570190565b903590601e1981360301821215611d3857018035906001600160401b038211611d3857602001918160061b36038313611d3857565b919082018092116125aa57565b356001600160a01b0381168103611d385790565b9035601e1982360301811215611d385701602081359101916001600160401b038211611d38578160061b36038313611d3857565b916020908281520191905f905b80821061277f5750505090565b909192833560018060a01b038116809103611d385781526020840135906bffffffffffffffffffffffff8216809203611d3857604081600193602083940152019401920190612772565b9190811015611aff5760051b81013590609e1981360301821215611d38570190565b9060418151145f146128175761281391602082015190606060408401519301515f1a90612a41565b9091565b50505f90600290565b600581101561292457806128315750565b6001810361287e5760405162461bcd60e51b815260206004820152601860248201527f45434453413a20696e76616c6964207369676e617475726500000000000000006044820152606490fd5b600281036128cb5760405162461bcd60e51b815260206004820152601f60248201527f45434453413a20696e76616c6964207369676e6174757265206c656e677468006044820152606490fd5b6003146128d457565b60405162461bcd60e51b815260206004820152602260248201527f45434453413a20696e76616c6964207369676e6174757265202773272076616c604482015261756560f01b6064820152608490fd5b634e487b7160e01b5f52602160045260245ffd5b6040516323b872dd60e01b60208201526001600160a01b0392831660248201529290911660448301526064808301939093529181526129819161297c608483611e10565b612abc565b565b604051636eb1769f60e11b81523060048201526001600160a01b0383166024820152602081806044810103816001600160a01b0386165afa908115611d2d575f91612a0d575b50612981936129d791612710565b60405163095ea7b360e01b60208201526001600160a01b039093166024840152604480840191909152825261297c606483611e10565b90506020813d602011612a39575b81612a2860209383611e10565b81010312611d3857516129816129c9565b3d9150612a1b565b7f7fffffffffffffffffffffffffffffff5d576e7357a4501ddfe92f46681b20a08411612ab1576020935f9360ff60809460405194855216868401526040830152606082015282805260015afa15611d2d575f516001600160a01b03811615612aa957905f90565b505f90600190565b505050505f90600390565b90612b3b9160018060a01b03165f8060405193612ada604086611e10565b602085527f5361666545524332303a206c6f772d6c6576656c2063616c6c206661696c6564602086015260208151910182855af13d15612bcc573d91612b1f83612010565b92612b2d6040519485611e10565b83523d5f602085013e612bd0565b8051908115918215612ba9575b505015612b5157565b60405162461bcd60e51b815260206004820152602a60248201527f5361666545524332303a204552433230206f7065726174696f6e20646964206e6044820152691bdd081cdd58d8d9595960b21b6064820152608490fd5b8192509060209181010312611d3857602001518015158103611d38575f80612b48565b6060915b91929015612c325750815115612be4575090565b3b15612bed5790565b60405162461bcd60e51b815260206004820152601d60248201527f416464726573733a2063616c6c20746f206e6f6e2d636f6e74726163740000006044820152606490fd5b825190915015612c455750805190602001fd5b60405162461bcd60e51b815260206004820152908190612c699060248301906121d6565b0390fdfea2646970667358221220ab5e6eca3385f96c6df293bc77b84ecad6462c61cee5b23041da18752a67a02f64736f6c634300081b0033","linkReferences":{}},"methodIdentifiers":{"addPendingAdmin(address)":"279432eb","allTaskHashes(uint32)":"2d89f6fc","allTaskResponses(address,uint32)":"c20bab7f","allocationManager()":"ca8aa7c7","avsDirectory()":"6b3aa72e","createAVSRewardsSubmission(((address,uint96)[],address,uint256,uint32,uint32)[])":"fce36c7d","createNewTask(bool,int256,uint160,address,bytes32)":"95aec0b4","createOperatorDirectedAVSRewardsSubmission(((address,uint96)[],address,(address,uint256)[],uint32,uint32,string)[])":"a20b99bf","deregisterOperatorFromAVS(address)":"a364f4da","deregisterOperatorFromOperatorSets(address,uint32[])":"c1a8e2c5","getHook()":"b55bd84d","getMessageHash(bytes32,(uint256,address,address)[],(int256,bool,uint160)[])":"5e96a896","getOperatorRestakedStrategies(address)":"33cfb7b7","getRestakeableStrategies()":"e481af9d","hook()":"7f5a7c7b","initialize(address,address)":"485cc955","latestTaskNum()":"8b00ce7c","owner()":"8da5cb5b","registerOperatorToAVS(address,(bytes,bytes32,uint256))":"9926ee7d","removeAdmin(address)":"1785f53c","removeAppointee(address,address,bytes4)":"ba550880","removePendingAdmin(address)":"9da16d8e","renounceOwnership()":"715018a6","respondToBatch((bool,int256,uint160,address,bytes32,uint32,uint32)[],uint32[],(uint256,address,address)[],(int256,bool,uint160)[],bytes)":"1f244f3a","respondToTask((bool,int256,uint160,address,bytes32,uint32,uint32),uint32,bytes)":"6d4d13ae","rewardsInitiator()":"fc299dee","setAVSRegistrar(address)":"f25f1610","setAppointee(address,address,bytes4)":"1fdb0cfd","setClaimerFor(address)":"a0169ddd","setHook(address)":"3dfd3873","setRewardsInitiator(address)":"3bc28c8c","slashOperator((bool,int256,uint160,address,bytes32,uint32,uint32),uint32,address)":"2dee8ed1","stakeRegistry()":"68304835","transferOwnership(address)":"f2fde38b","updateAVSMetadataURI(string)":"a98fb355"},"id":172}