{"abi":[{"type":"function","name":"DEALLOCATION_DELAY","inputs":[],"outputs":[{"name":"","type":"uint32","internalType":"uint32"}],"stateMutability":"view"},{"type":"function","name":"addStrategiesToOperatorSet","inputs":[{"name":"avs","type":"address","internalType":"address"},{"name":"operatorSetId","type":"uint32","internalType":"uint32"},{"name":"strategies","type":"address[]","internalType":"contract IStrategy[]"}],"outputs":[],"stateMutability":"nonpayable"},{"type":"function","name":"clearDeallocationQueue","inputs":[{"name":"operator","type":"address","internalType":"address"},{"name":"strategies","type":"address[]","internalType":"contract IStrategy[]"},{"name":"numToClear","type":"uint16[]","internalType":"uint16[]"}],"outputs":[],"stateMutability":"nonpayable"},{"type":"function","name":"createOperatorSets","inputs":[{"name":"avs","type":"address","internalType":"address"},{"name":"params","type":"tuple[]","internalType":"struct IAllocationManagerTypes.CreateSetParams[]","components":[{"name":"operatorSetId","type":"uint32","internalType":"uint32"},{"name":"strategies","type":"address[]","internalType":"contract IStrategy[]"}]}],"outputs":[],"stateMutability":"nonpayable"},{"type":"function","name":"deregisterFromOperatorSets","inputs":[{"name":"params","type":"tuple","internalType":"struct IAllocationManagerTypes.DeregisterParams","components":[{"name":"operator","type":"address","internalType":"address"},{"name":"avs","type":"address","internalType":"address"},{"name":"operatorSetIds","type":"uint32[]","internalType":"uint32[]"}]}],"outputs":[],"stateMutability":"nonpayable"},{"type":"function","name":"getAVSRegistrar","inputs":[{"name":"avs","type":"address","internalType":"address"}],"outputs":[{"name":"","type":"address","internalType":"contract IAVSRegistrar"}],"stateMutability":"view"},{"type":"function","name":"getAllocatableMagnitude","inputs":[{"name":"operator","type":"address","internalType":"address"},{"name":"strategy","type":"address","internalType":"contract IStrategy"}],"outputs":[{"name":"","type":"uint64","internalType":"uint64"}],"stateMutability":"view"},{"type":"function","name":"getAllocatedSets","inputs":[{"name":"operator","type":"address","internalType":"address"}],"outputs":[{"name":"","type":"tuple[]","internalType":"struct OperatorSet[]","components":[{"name":"avs","type":"address","internalType":"address"},{"name":"id","type":"uint32","internalType":"uint32"}]}],"stateMutability":"view"},{"type":"function","name":"getAllocatedStake","inputs":[{"name":"operatorSet","type":"tuple","internalType":"struct OperatorSet","components":[{"name":"avs","type":"address","internalType":"address"},{"name":"id","type":"uint32","internalType":"uint32"}]},{"name":"operators","type":"address[]","internalType":"address[]"},{"name":"strategies","type":"address[]","internalType":"contract IStrategy[]"}],"outputs":[{"name":"slashableStake","type":"uint256[][]","internalType":"uint256[][]"}],"stateMutability":"view"},{"type":"function","name":"getAllocatedStake","inputs":[{"name":"operator","type":"address","internalType":"address"},{"name":"strategy","type":"address","internalType":"contract IStrategy"}],"outputs":[{"name":"","type":"uint256","internalType":"uint256"}],"stateMutability":"view"},{"type":"function","name":"getAllocatedStrategies","inputs":[{"name":"operator","type":"address","internalType":"address"},{"name":"operatorSet","type":"tuple","internalType":"struct OperatorSet","components":[{"name":"avs","type":"address","internalType":"address"},{"name":"id","type":"uint32","internalType":"uint32"}]}],"outputs":[{"name":"","type":"address[]","internalType":"contract IStrategy[]"}],"stateMutability":"view"},{"type":"function","name":"getAllocation","inputs":[{"name":"operator","type":"address","internalType":"address"},{"name":"operatorSet","type":"tuple","internalType":"struct OperatorSet","components":[{"name":"avs","type":"address","internalType":"address"},{"name":"id","type":"uint32","internalType":"uint32"}]},{"name":"strategy","type":"address","internalType":"contract IStrategy"}],"outputs":[{"name":"","type":"tuple","internalType":"struct IAllocationManagerTypes.Allocation","components":[{"name":"currentMagnitude","type":"uint64","internalType":"uint64"},{"name":"pendingDiff","type":"int128","internalType":"int128"},{"name":"effectBlock","type":"uint32","internalType":"uint32"}]}],"stateMutability":"view"},{"type":"function","name":"getAllocationDelay","inputs":[{"name":"operator","type":"address","internalType":"address"}],"outputs":[{"name":"isSet","type":"bool","internalType":"bool"},{"name":"delay","type":"uint32","internalType":"uint32"}],"stateMutability":"view"},{"type":"function","name":"getAllocations","inputs":[{"name":"operators","type":"address[]","internalType":"address[]"},{"name":"operatorSet","type":"tuple","internalType":"struct OperatorSet","components":[{"name":"avs","type":"address","internalType":"address"},{"name":"id","type":"uint32","internalType":"uint32"}]},{"name":"strategy","type":"address","internalType":"contract IStrategy"}],"outputs":[{"name":"","type":"tuple[]","internalType":"struct IAllocationManagerTypes.Allocation[]","components":[{"name":"currentMagnitude","type":"uint64","internalType":"uint64"},{"name":"pendingDiff","type":"int128","internalType":"int128"},{"name":"effectBlock","type":"uint32","internalType":"uint32"}]}],"stateMutability":"view"},{"type":"function","name":"getEncumberedMagnitude","inputs":[{"name":"operator","type":"address","internalType":"address"},{"name":"strategy","type":"address","internalType":"contract IStrategy"}],"outputs":[{"name":"","type":"uint64","internalType":"uint64"}],"stateMutability":"view"},{"type":"function","name":"getMaxMagnitude","inputs":[{"name":"operator","type":"address","internalType":"address"},{"name":"strategy","type":"address","internalType":"contract IStrategy"}],"outputs":[{"name":"","type":"uint64","internalType":"uint64"}],"stateMutability":"view"},{"type":"function","name":"getMaxMagnitudes","inputs":[{"name":"operators","type":"address[]","internalType":"address[]"},{"name":"strategy","type":"address","internalType":"contract IStrategy"}],"outputs":[{"name":"","type":"uint64[]","internalType":"uint64[]"}],"stateMutability":"view"},{"type":"function","name":"getMaxMagnitudes","inputs":[{"name":"operator","type":"address","internalType":"address"},{"name":"strategies","type":"address[]","internalType":"contract IStrategy[]"}],"outputs":[{"name":"","type":"uint64[]","internalType":"uint64[]"}],"stateMutability":"view"},{"type":"function","name":"getMaxMagnitudesAtBlock","inputs":[{"name":"operator","type":"address","internalType":"address"},{"name":"strategies","type":"address[]","internalType":"contract IStrategy[]"},{"name":"blockNumber","type":"uint32","internalType":"uint32"}],"outputs":[{"name":"","type":"uint64[]","internalType":"uint64[]"}],"stateMutability":"view"},{"type":"function","name":"getMemberCount","inputs":[{"name":"operatorSet","type":"tuple","internalType":"struct OperatorSet","components":[{"name":"avs","type":"address","internalType":"address"},{"name":"id","type":"uint32","internalType":"uint32"}]}],"outputs":[{"name":"","type":"uint256","internalType":"uint256"}],"stateMutability":"view"},{"type":"function","name":"getMembers","inputs":[{"name":"operatorSet","type":"tuple","internalType":"struct OperatorSet","components":[{"name":"avs","type":"address","internalType":"address"},{"name":"id","type":"uint32","internalType":"uint32"}]}],"outputs":[{"name":"operators","type":"address[]","internalType":"address[]"}],"stateMutability":"view"},{"type":"function","name":"getMinimumSlashableStake","inputs":[{"name":"operatorSet","type":"tuple","internalType":"struct OperatorSet","components":[{"name":"avs","type":"address","internalType":"address"},{"name":"id","type":"uint32","internalType":"uint32"}]},{"name":"operators","type":"address[]","internalType":"address[]"},{"name":"strategies","type":"address[]","internalType":"contract IStrategy[]"},{"name":"futureBlock","type":"uint32","internalType":"uint32"}],"outputs":[{"name":"slashableStake","type":"uint256[][]","internalType":"uint256[][]"}],"stateMutability":"view"},{"type":"function","name":"getOperatorSetCount","inputs":[{"name":"avs","type":"address","internalType":"address"}],"outputs":[{"name":"","type":"uint256","internalType":"uint256"}],"stateMutability":"view"},{"type":"function","name":"getRegisteredSets","inputs":[{"name":"operator","type":"address","internalType":"address"}],"outputs":[{"name":"operatorSets","type":"tuple[]","internalType":"struct OperatorSet[]","components":[{"name":"avs","type":"address","internalType":"address"},{"name":"id","type":"uint32","internalType":"uint32"}]}],"stateMutability":"view"},{"type":"function","name":"getStrategiesInOperatorSet","inputs":[{"name":"operatorSet","type":"tuple","internalType":"struct OperatorSet","components":[{"name":"avs","type":"address","internalType":"address"},{"name":"id","type":"uint32","internalType":"uint32"}]}],"outputs":[{"name":"strategies","type":"address[]","internalType":"contract IStrategy[]"}],"stateMutability":"view"},{"type":"function","name":"getStrategyAllocations","inputs":[{"name":"operator","type":"address","internalType":"address"},{"name":"strategy","type":"address","internalType":"contract IStrategy"}],"outputs":[{"name":"","type":"tuple[]","internalType":"struct OperatorSet[]","components":[{"name":"avs","type":"address","internalType":"address"},{"name":"id","type":"uint32","internalType":"uint32"}]},{"name":"","type":"tuple[]","internalType":"struct IAllocationManagerTypes.Allocation[]","components":[{"name":"currentMagnitude","type":"uint64","internalType":"uint64"},{"name":"pendingDiff","type":"int128","internalType":"int128"},{"name":"effectBlock","type":"uint32","internalType":"uint32"}]}],"stateMutability":"view"},{"type":"function","name":"initialize","inputs":[{"name":"initialOwner","type":"address","internalType":"address"},{"name":"initialPausedStatus","type":"uint256","internalType":"uint256"}],"outputs":[],"stateMutability":"nonpayable"},{"type":"function","name":"isMemberOfOperatorSet","inputs":[{"name":"operator","type":"address","internalType":"address"},{"name":"operatorSet","type":"tuple","internalType":"struct OperatorSet","components":[{"name":"avs","type":"address","internalType":"address"},{"name":"id","type":"uint32","internalType":"uint32"}]}],"outputs":[{"name":"","type":"bool","internalType":"bool"}],"stateMutability":"view"},{"type":"function","name":"isOperatorSet","inputs":[{"name":"operatorSet","type":"tuple","internalType":"struct OperatorSet","components":[{"name":"avs","type":"address","internalType":"address"},{"name":"id","type":"uint32","internalType":"uint32"}]}],"outputs":[{"name":"","type":"bool","internalType":"bool"}],"stateMutability":"view"},{"type":"function","name":"isOperatorSlashable","inputs":[{"name":"operator","type":"address","internalType":"address"},{"name":"operatorSet","type":"tuple","internalType":"struct OperatorSet","components":[{"name":"avs","type":"address","internalType":"address"},{"name":"id","type":"uint32","internalType":"uint32"}]}],"outputs":[{"name":"","type":"bool","internalType":"bool"}],"stateMutability":"view"},{"type":"function","name":"modifyAllocations","inputs":[{"name":"operator","type":"address","internalType":"address"},{"name":"params","type":"tuple[]","internalType":"struct IAllocationManagerTypes.AllocateParams[]","components":[{"name":"operatorSet","type":"tuple","internalType":"struct OperatorSet","components":[{"name":"avs","type":"address","internalType":"address"},{"name":"id","type":"uint32","internalType":"uint32"}]},{"name":"strategies","type":"address[]","internalType":"contract IStrategy[]"},{"name":"newMagnitudes","type":"uint64[]","internalType":"uint64[]"}]}],"outputs":[],"stateMutability":"nonpayable"},{"type":"function","name":"registerForOperatorSets","inputs":[{"name":"operator","type":"address","internalType":"address"},{"name":"params","type":"tuple","internalType":"struct IAllocationManagerTypes.RegisterParams","components":[{"name":"avs","type":"address","internalType":"address"},{"name":"operatorSetIds","type":"uint32[]","internalType":"uint32[]"},{"name":"data","type":"bytes","internalType":"bytes"}]}],"outputs":[],"stateMutability":"nonpayable"},{"type":"function","name":"removeStrategiesFromOperatorSet","inputs":[{"name":"avs","type":"address","internalType":"address"},{"name":"operatorSetId","type":"uint32","internalType":"uint32"},{"name":"strategies","type":"address[]","internalType":"contract IStrategy[]"}],"outputs":[],"stateMutability":"nonpayable"},{"type":"function","name":"setAVSRegistrar","inputs":[{"name":"avs","type":"address","internalType":"address"},{"name":"registrar","type":"address","internalType":"contract IAVSRegistrar"}],"outputs":[],"stateMutability":"nonpayable"},{"type":"function","name":"setAllocationDelay","inputs":[{"name":"operator","type":"address","internalType":"address"},{"name":"delay","type":"uint32","internalType":"uint32"}],"outputs":[],"stateMutability":"nonpayable"},{"type":"function","name":"slashOperator","inputs":[{"name":"avs","type":"address","internalType":"address"},{"name":"params","type":"tuple","internalType":"struct IAllocationManagerTypes.SlashingParams","components":[{"name":"operator","type":"address","internalType":"address"},{"name":"operatorSetId","type":"uint32","internalType":"uint32"},{"name":"strategies","type":"address[]","internalType":"contract IStrategy[]"},{"name":"wadsToSlash","type":"uint256[]","internalType":"uint256[]"},{"name":"description","type":"string","internalType":"string"}]}],"outputs":[],"stateMutability":"nonpayable"},{"type":"function","name":"updateAVSMetadataURI","inputs":[{"name":"avs","type":"address","internalType":"address"},{"name":"metadataURI","type":"string","internalType":"string"}],"outputs":[],"stateMutability":"nonpayable"},{"type":"function","name":"version","inputs":[],"outputs":[{"name":"","type":"string","internalType":"string"}],"stateMutability":"pure"},{"type":"event","name":"AVSMetadataURIUpdated","inputs":[{"name":"avs","type":"address","indexed":true,"internalType":"address"},{"name":"metadataURI","type":"string","indexed":false,"internalType":"string"}],"anonymous":false},{"type":"event","name":"AVSRegistrarSet","inputs":[{"name":"avs","type":"address","indexed":false,"internalType":"address"},{"name":"registrar","type":"address","indexed":false,"internalType":"contract IAVSRegistrar"}],"anonymous":false},{"type":"event","name":"AllocationDelaySet","inputs":[{"name":"operator","type":"address","indexed":false,"internalType":"address"},{"name":"delay","type":"uint32","indexed":false,"internalType":"uint32"},{"name":"effectBlock","type":"uint32","indexed":false,"internalType":"uint32"}],"anonymous":false},{"type":"event","name":"AllocationUpdated","inputs":[{"name":"operator","type":"address","indexed":false,"internalType":"address"},{"name":"operatorSet","type":"tuple","indexed":false,"internalType":"struct OperatorSet","components":[{"name":"avs","type":"address","internalType":"address"},{"name":"id","type":"uint32","internalType":"uint32"}]},{"name":"strategy","type":"address","indexed":false,"internalType":"contract IStrategy"},{"name":"magnitude","type":"uint64","indexed":false,"internalType":"uint64"},{"name":"effectBlock","type":"uint32","indexed":false,"internalType":"uint32"}],"anonymous":false},{"type":"event","name":"EncumberedMagnitudeUpdated","inputs":[{"name":"operator","type":"address","indexed":false,"internalType":"address"},{"name":"strategy","type":"address","indexed":false,"internalType":"contract IStrategy"},{"name":"encumberedMagnitude","type":"uint64","indexed":false,"internalType":"uint64"}],"anonymous":false},{"type":"event","name":"MaxMagnitudeUpdated","inputs":[{"name":"operator","type":"address","indexed":false,"internalType":"address"},{"name":"strategy","type":"address","indexed":false,"internalType":"contract IStrategy"},{"name":"maxMagnitude","type":"uint64","indexed":false,"internalType":"uint64"}],"anonymous":false},{"type":"event","name":"OperatorAddedToOperatorSet","inputs":[{"name":"operator","type":"address","indexed":true,"internalType":"address"},{"name":"operatorSet","type":"tuple","indexed":false,"internalType":"struct OperatorSet","components":[{"name":"avs","type":"address","internalType":"address"},{"name":"id","type":"uint32","internalType":"uint32"}]}],"anonymous":false},{"type":"event","name":"OperatorRemovedFromOperatorSet","inputs":[{"name":"operator","type":"address","indexed":true,"internalType":"address"},{"name":"operatorSet","type":"tuple","indexed":false,"internalType":"struct OperatorSet","components":[{"name":"avs","type":"address","internalType":"address"},{"name":"id","type":"uint32","internalType":"uint32"}]}],"anonymous":false},{"type":"event","name":"OperatorSetCreated","inputs":[{"name":"operatorSet","type":"tuple","indexed":false,"internalType":"struct OperatorSet","components":[{"name":"avs","type":"address","internalType":"address"},{"name":"id","type":"uint32","internalType":"uint32"}]}],"anonymous":false},{"type":"event","name":"OperatorSlashed","inputs":[{"name":"operator","type":"address","indexed":false,"internalType":"address"},{"name":"operatorSet","type":"tuple","indexed":false,"internalType":"struct OperatorSet","components":[{"name":"avs","type":"address","internalType":"address"},{"name":"id","type":"uint32","internalType":"uint32"}]},{"name":"strategies","type":"address[]","indexed":false,"internalType":"contract IStrategy[]"},{"name":"wadSlashed","type":"uint256[]","indexed":false,"internalType":"uint256[]"},{"name":"description","type":"string","indexed":false,"internalType":"string"}],"anonymous":false},{"type":"event","name":"StrategyAddedToOperatorSet","inputs":[{"name":"operatorSet","type":"tuple","indexed":false,"internalType":"struct OperatorSet","components":[{"name":"avs","type":"address","internalType":"address"},{"name":"id","type":"uint32","internalType":"uint32"}]},{"name":"strategy","type":"address","indexed":false,"internalType":"contract IStrategy"}],"anonymous":false},{"type":"event","name":"StrategyRemovedFromOperatorSet","inputs":[{"name":"operatorSet","type":"tuple","indexed":false,"internalType":"struct OperatorSet","components":[{"name":"avs","type":"address","internalType":"address"},{"name":"id","type":"uint32","internalType":"uint32"}]},{"name":"strategy","type":"address","indexed":false,"internalType":"contract IStrategy"}],"anonymous":false},{"type":"error","name":"AlreadyMemberOfSet","inputs":[]},{"type":"error","name":"InputArrayLengthMismatch","inputs":[]},{"type":"error","name":"InsufficientMagnitude","inputs":[]},{"type":"error","name":"InvalidAVSRegistrar","inputs":[]},{"type":"error","name":"InvalidCaller","inputs":[]},{"type":"error","name":"InvalidOperator","inputs":[]},{"type":"error","name":"InvalidOperatorSet","inputs":[]},{"type":"error","name":"InvalidWadToSlash","inputs":[]},{"type":"error","name":"ModificationAlreadyPending","inputs":[]},{"type":"error","name":"NonexistentAVSMetadata","inputs":[]},{"type":"error","name":"NotMemberOfSet","inputs":[]},{"type":"error","name":"OperatorNotSlashable","inputs":[]},{"type":"error","name":"SameMagnitude","inputs":[]},{"type":"error","name":"StrategiesMustBeInAscendingOrder","inputs":[]},{"type":"error","name":"StrategyAlreadyInOperatorSet","inputs":[]},{"type":"error","name":"StrategyNotInOperatorSet","inputs":[]},{"type":"error","name":"UninitializedAllocationDelay","inputs":[]}],"bytecode":{"object":"0x60808060405234601557610e57908161001a8239f35b5f80fdfe60806040526004361015610011575f80fd5b5f3560e01c806310e1b9b81461095e5780631352c3e6146104b857806315fe502814610419578063260dc758146102b1578063261f84e0146103625780632981eb77146109415780632b453a9a146107995780632bab2c4a146106a6578063304c10cd1461026a578063363520571461066a57806340120dab146106235780634177a87c146106095780634a10ffe5146105cf5780634b5046ef1461057557806350feea20146102ac578063547afb871461055757806354fd4d50146104fd57806356c483e6146104db578063670d3ba2146104b85780636cfb44811461035d5780636e3492b5146104855780636e875dba1461041e57806379ae50cd146104195780638ce64854146103c157806394d7d00c14610370578063952899ee14610362578063a9333ec81461035d578063a982182114610307578063adc2e3d9146102cb578063b2447af7146102b1578063b66bd989146102ac578063b9fbaed114610283578063ba1a84e51461026a578063c0bcd4d4146101bb578063c221d8ae14610235578063cd6dc6871461021a578063d3d96ff4146101ec5763f605ce08146101bb575f80fd5b346101e85760403660031901126101e8576101d4610a03565b506101dd610b42565b5060206040515f8152f35b5f80fd5b346101e85760403660031901126101e857610205610a03565b506024356001600160a01b038116036101e857005b346101e85760403660031901126101e857610233610a03565b005b346101e85760603660031901126101e85761024e610a03565b5061025836610aaa565b506040518061026681610d1c565b0390f35b346101e85760203660031901126101e8576101dd610a03565b346101e85760203660031901126101e85761029c610a03565b50604080515f81525f6020820152f35b610da4565b346101e85760403660031901126101e8576101dd36610aeb565b346101e85760403660031901126101e8576102e4610a03565b506024356001600160401b0381116101e85760609060031990360301126101e857005b346101e85760403660031901126101e857610320610a03565b506024356001600160401b0381116101e857366023820112156101e85780600401356001600160401b0381116101e857369101602401116101e857005b6101bb565b346101e85761023336610c04565b346101e85760603660031901126101e857610389610a03565b506024356001600160401b0381116101e8576103a9903690600401610bd4565b50506103b3610a97565b506040518061026681610d60565b346101e85760803660031901126101e8576004356001600160401b0381116101e8576103f1903690600401610c5e565b506103fb36610aaa565b50610404610b2c565b50604051602081528061026660208201610cb9565b610ba6565b346101e85760403660031901126101e85761043836610aeb565b5060405180602081016020825260605180915260408201906080905f5b818110610463575050500390f35b82516001600160a01b0316845285945060209384019390920191600101610455565b346101e85760203660031901126101e8576004356001600160401b0381116101e85760609060031990360301126101e857005b346101e85760603660031901126101e8576104d1610a03565b506101dd36610aaa565b346101e85760403660031901126101e8576104f4610a03565b50610233610a84565b346101e8575f3660031901126101e857610515610a2d565b60068152604060208201916576302e302e3160d01b83528151928391602083525180918160208501528484015e5f828201840152601f01601f19168101030190f35b346101e85761056536610c04565b5050506040518061026681610d60565b346101e85760603660031901126101e85761058e610a03565b506024356001600160401b0381116101e8576105ae903690600401610bd4565b50506044356001600160401b0381116101e857610233903690600401610bd4565b346101e85760403660031901126101e8576004356001600160401b0381116101e8576105ff903690600401610bd4565b50506103b3610b42565b346101e85760403660031901126101e85761025836610aeb565b346101e85760403660031901126101e85761063c610a03565b50610645610b42565b50604051604081528061026661065d60408301610b58565b8281036020840152610cb9565b346101e85760403660031901126101e857610683610a03565b506024356001600160401b0381116101e85760a09060031990360301126101e857005b346101e85760a03660031901126101e8576106c036610aeb565b506044356001600160401b0381116101e8576106e0903690600401610c5e565b506064356001600160401b0381116101e857610700903690600401610c5e565b50610709610a71565b506040518060208101602082526060518091526040820160408260051b840101916080915f905b82821061073f57505050500390f35b919390929450603f19868203018252845190602080835192838152019201905f905b808210610781575050506020806001929601920192018594939192610730565b90919260208060019286518152019401920190610761565b346101e85760803660031901126101e8576107b336610aeb565b506044356001600160401b0381116101e8576107d3903690600401610c5e565b6064356001600160401b0381116101e8576107f2903690600401610c5e565b81519161080661080184610c47565b610a4c565b92808452610816601f1991610c47565b015f5b8181106109305750505f905b805182101561089e57825161083c61080182610c47565b9080825261084c601f1991610c47565b0136602083013761085d8386610df9565b526108688285610df9565b505f5b835181101561089357805f61088c600193610886878a610df9565b51610df9565b520161086b565b509060010190610825565b836040518091602082016020835281518091526040830190602060408260051b8601019301915f905b8282106108d657505050500390f35b919390929450603f19868203018252845190602080835192838152019201905f905b8082106109185750505060208060019296019201920185949391926108c7565b909192602080600192865181520194019201906108f8565b806060602080938801015201610819565b346101e8575f3660031901126101e8576020604051620151808152f35b346101e85760803660031901126101e857610977610a03565b5061098136610aaa565b5061098a610b2c565b5060405160608101908082106001600160401b038311176109ef576060916040525f81525f60208201525f60408201526109ed604051809263ffffffff604080926001600160401b0381511685526020810151600f0b6020860152015116910152565bf35b634e487b7160e01b5f52604160045260245ffd5b600435906001600160a01b03821682036101e857565b35906001600160a01b03821682036101e857565b60405190604082018281106001600160401b038211176109ef57604052565b6040519190601f01601f191682016001600160401b038111838210176109ef57604052565b6084359063ffffffff821682036101e857565b6024359063ffffffff821682036101e857565b6044359063ffffffff821682036101e857565b60409060231901126101e857610abe610a2d565b906024356001600160a01b03811681036101e857825260443563ffffffff811681036101e8576020830152565b60409060031901126101e857610aff610a2d565b906004356001600160a01b03811681036101e857825260243563ffffffff811681036101e8576020830152565b606435906001600160a01b03821682036101e857565b602435906001600160a01b03821682036101e857565b60206060519182815201906080905f5b818110610b755750505090565b825180516001600160a01b0316855260209081015163ffffffff168186015260409094019390920191600101610b68565b346101e85760203660031901126101e857610bbf610a03565b50604051602081528061026660208201610b58565b9181601f840112156101e8578235916001600160401b0383116101e8576020808501948460051b0101116101e857565b9060406003198301126101e8576004356001600160a01b03811681036101e85791602435906001600160401b0382116101e857610c4391600401610bd4565b9091565b6001600160401b0381116109ef5760051b60200190565b9080601f830112156101e8578135610c7861080182610c47565b9260208085848152019260051b8201019283116101e857602001905b828210610ca15750505090565b60208091610cae84610a19565b815201910190610c94565b60206060519182815201906080905f5b818110610cd65750505090565b9091926020606082610d11600194885163ffffffff604080926001600160401b0381511685526020810151600f0b6020860152015116910152565b019401929101610cc9565b604060208201916020815260605180935201906080905f5b818110610d415750505090565b82516001600160a01b0316845260209384019390920191600101610d34565b604060208201916020815260605180935201906080905f5b818110610d855750505090565b82516001600160401b0316845260209384019390920191600101610d78565b346101e85760603660031901126101e8576004356001600160a01b03811681036101e8575060243563ffffffff811681036101e857506044356001600160401b0381116101e857610233903690600401610bd4565b8051821015610e0d5760209160051b010190565b634e487b7160e01b5f52603260045260245ffdfea2646970667358221220b6c9fdbe99f03bce0fc8f6ee32f2ac7225519bc0477ba41fda68a3ba9a0167c064736f6c634300081b0033","linkReferences":{}},"methodIdentifiers":{"DEALLOCATION_DELAY()":"2981eb77","addStrategiesToOperatorSet(address,uint32,address[])":"50feea20","clearDeallocationQueue(address,address[],uint16[])":"4b5046ef","createOperatorSets(address,(uint32,address[])[])":"261f84e0","deregisterFromOperatorSets((address,address,uint32[]))":"6e3492b5","getAVSRegistrar(address)":"304c10cd","getAllocatableMagnitude(address,address)":"6cfb4481","getAllocatedSets(address)":"15fe5028","getAllocatedStake((address,uint32),address[],address[])":"2b453a9a","getAllocatedStake(address,address)":"c0bcd4d4","getAllocatedStrategies(address,(address,uint32))":"c221d8ae","getAllocation(address,(address,uint32),address)":"10e1b9b8","getAllocationDelay(address)":"b9fbaed1","getAllocations(address[],(address,uint32),address)":"8ce64854","getEncumberedMagnitude(address,address)":"f605ce08","getMaxMagnitude(address,address)":"a9333ec8","getMaxMagnitudes(address,address[])":"547afb87","getMaxMagnitudes(address[],address)":"4a10ffe5","getMaxMagnitudesAtBlock(address,address[],uint32)":"94d7d00c","getMemberCount((address,uint32))":"b2447af7","getMembers((address,uint32))":"6e875dba","getMinimumSlashableStake((address,uint32),address[],address[],uint32)":"2bab2c4a","getOperatorSetCount(address)":"ba1a84e5","getRegisteredSets(address)":"79ae50cd","getStrategiesInOperatorSet((address,uint32))":"4177a87c","getStrategyAllocations(address,address)":"40120dab","initialize(address,uint256)":"cd6dc687","isMemberOfOperatorSet(address,(address,uint32))":"670d3ba2","isOperatorSet((address,uint32))":"260dc758","isOperatorSlashable(address,(address,uint32))":"1352c3e6","modifyAllocations(address,((address,uint32),address[],uint64[])[])":"952899ee","registerForOperatorSets(address,(address,uint32[],bytes))":"adc2e3d9","removeStrategiesFromOperatorSet(address,uint32,address[])":"b66bd989","setAVSRegistrar(address,address)":"d3d96ff4","setAllocationDelay(address,uint32)":"56c483e6","slashOperator(address,(address,uint32,address[],uint256[],string))":"36352057","updateAVSMetadataURI(address,string)":"a9821821","version()":"54fd4d50"},"id":131}