{"abi":[{"type":"constructor","inputs":[{"name":"_strategyManager","type":"address","internalType":"contract IStrategyManager"},{"name":"_pauserRegistry","type":"address","internalType":"contract IPauserRegistry"},{"name":"_version","type":"string","internalType":"string"}],"stateMutability":"nonpayable"},{"type":"function","name":"deposit","inputs":[{"name":"token","type":"address","internalType":"contract IERC20"},{"name":"amount","type":"uint256","internalType":"uint256"}],"outputs":[{"name":"newShares","type":"uint256","internalType":"uint256"}],"stateMutability":"nonpayable"},{"type":"function","name":"explanation","inputs":[],"outputs":[{"name":"","type":"string","internalType":"string"}],"stateMutability":"pure"},{"type":"function","name":"initialize","inputs":[{"name":"_underlyingToken","type":"address","internalType":"contract IERC20"}],"outputs":[],"stateMutability":"nonpayable"},{"type":"function","name":"pause","inputs":[{"name":"newPausedStatus","type":"uint256","internalType":"uint256"}],"outputs":[],"stateMutability":"nonpayable"},{"type":"function","name":"pauseAll","inputs":[],"outputs":[],"stateMutability":"nonpayable"},{"type":"function","name":"paused","inputs":[{"name":"index","type":"uint8","internalType":"uint8"}],"outputs":[{"name":"","type":"bool","internalType":"bool"}],"stateMutability":"view"},{"type":"function","name":"paused","inputs":[],"outputs":[{"name":"","type":"uint256","internalType":"uint256"}],"stateMutability":"view"},{"type":"function","name":"pauserRegistry","inputs":[],"outputs":[{"name":"","type":"address","internalType":"contract IPauserRegistry"}],"stateMutability":"view"},{"type":"function","name":"shares","inputs":[{"name":"user","type":"address","internalType":"address"}],"outputs":[{"name":"","type":"uint256","internalType":"uint256"}],"stateMutability":"view"},{"type":"function","name":"sharesToUnderlying","inputs":[{"name":"amountShares","type":"uint256","internalType":"uint256"}],"outputs":[{"name":"","type":"uint256","internalType":"uint256"}],"stateMutability":"view"},{"type":"function","name":"sharesToUnderlyingView","inputs":[{"name":"amountShares","type":"uint256","internalType":"uint256"}],"outputs":[{"name":"","type":"uint256","internalType":"uint256"}],"stateMutability":"view"},{"type":"function","name":"strategyManager","inputs":[],"outputs":[{"name":"","type":"address","internalType":"contract IStrategyManager"}],"stateMutability":"view"},{"type":"function","name":"totalShares","inputs":[],"outputs":[{"name":"","type":"uint256","internalType":"uint256"}],"stateMutability":"view"},{"type":"function","name":"underlyingToShares","inputs":[{"name":"amountUnderlying","type":"uint256","internalType":"uint256"}],"outputs":[{"name":"","type":"uint256","internalType":"uint256"}],"stateMutability":"view"},{"type":"function","name":"underlyingToSharesView","inputs":[{"name":"amountUnderlying","type":"uint256","internalType":"uint256"}],"outputs":[{"name":"","type":"uint256","internalType":"uint256"}],"stateMutability":"view"},{"type":"function","name":"underlyingToken","inputs":[],"outputs":[{"name":"","type":"address","internalType":"contract IERC20"}],"stateMutability":"view"},{"type":"function","name":"unpause","inputs":[{"name":"newPausedStatus","type":"uint256","internalType":"uint256"}],"outputs":[],"stateMutability":"nonpayable"},{"type":"function","name":"userUnderlying","inputs":[{"name":"user","type":"address","internalType":"address"}],"outputs":[{"name":"","type":"uint256","internalType":"uint256"}],"stateMutability":"nonpayable"},{"type":"function","name":"userUnderlyingView","inputs":[{"name":"user","type":"address","internalType":"address"}],"outputs":[{"name":"","type":"uint256","internalType":"uint256"}],"stateMutability":"view"},{"type":"function","name":"version","inputs":[],"outputs":[{"name":"","type":"string","internalType":"string"}],"stateMutability":"view"},{"type":"function","name":"withdraw","inputs":[{"name":"recipient","type":"address","internalType":"address"},{"name":"token","type":"address","internalType":"contract IERC20"},{"name":"amountShares","type":"uint256","internalType":"uint256"}],"outputs":[],"stateMutability":"nonpayable"},{"type":"event","name":"ExchangeRateEmitted","inputs":[{"name":"rate","type":"uint256","indexed":false,"internalType":"uint256"}],"anonymous":false},{"type":"event","name":"Initialized","inputs":[{"name":"version","type":"uint8","indexed":false,"internalType":"uint8"}],"anonymous":false},{"type":"event","name":"Paused","inputs":[{"name":"account","type":"address","indexed":true,"internalType":"address"},{"name":"newPausedStatus","type":"uint256","indexed":false,"internalType":"uint256"}],"anonymous":false},{"type":"event","name":"StrategyTokenSet","inputs":[{"name":"token","type":"address","indexed":false,"internalType":"contract IERC20"},{"name":"decimals","type":"uint8","indexed":false,"internalType":"uint8"}],"anonymous":false},{"type":"event","name":"Unpaused","inputs":[{"name":"account","type":"address","indexed":true,"internalType":"address"},{"name":"newPausedStatus","type":"uint256","indexed":false,"internalType":"uint256"}],"anonymous":false},{"type":"error","name":"BalanceExceedsMaxTotalDeposits","inputs":[]},{"type":"error","name":"CurrentlyPaused","inputs":[]},{"type":"error","name":"InputAddressZero","inputs":[]},{"type":"error","name":"InvalidNewPausedStatus","inputs":[]},{"type":"error","name":"InvalidShortString","inputs":[]},{"type":"error","name":"MaxPerDepositExceedsMax","inputs":[]},{"type":"error","name":"NewSharesZero","inputs":[]},{"type":"error","name":"OnlyPauser","inputs":[]},{"type":"error","name":"OnlyStrategyManager","inputs":[]},{"type":"error","name":"OnlyUnderlyingToken","inputs":[]},{"type":"error","name":"OnlyUnpauser","inputs":[]},{"type":"error","name":"StringTooLong","inputs":[{"name":"str","type":"string","internalType":"string"}]},{"type":"error","name":"TotalSharesExceedsMax","inputs":[]},{"type":"error","name":"WithdrawalAmountExceedsTotalDeposits","inputs":[]}],"bytecode":{"object":"0x60e06040523461023257611230803803806100198161024a565b9283398101606082820312610232578151916001600160a01b03831683036102325760208101516001600160a01b03811691828203610232576040810151906001600160401b03821161023257019183601f840112156102325782516001600160401b03811161023657610096601f8201601f191660200161024a565b9381855260208501956020838301011161023257815f926020809301885e850101521561022357608052601f8151116101e757519051602082106101d7575b1760a05260c0525f5460ff8160081c166101825760ff80821603610148575b604051610fc09081610270823960805181818161012f0152818161086a015281816109140152610bf6015260a051816109d6015260c0518181816102a901528181610a6901528181610b700152610dab0152f35b60ff90811916175f557f7f26b83ff96e1f2b6a682f133852f6798a09c465da95921460cefb3847402498602060405160ff8152a15f6100f4565b60405162461bcd60e51b815260206004820152602760248201527f496e697469616c697a61626c653a20636f6e747261637420697320696e697469604482015266616c697a696e6760c81b6064820152608490fd5b5f198260200360031b1b166100d5565b60449060405192839163305a27a960e01b8352602060048401525180918160248501528484015e5f828201840152601f01601f19168101030190fd5b6339b190bb60e11b5f5260045ffd5b5f80fd5b634e487b7160e01b5f52604160045260245ffd5b6040519190601f01601f191682016001600160401b038111838210176102365760405256fe6080806040526004361015610012575f80fd5b5f3560e01c908163136439dd14610bc7575080632495a59914610b9f57806339b70e3814610b5b5780633a98ef3914610b3e57806347e7ef2414610a3f57806354fd4d50146109c4578063553ca5f81461082f578063595c6a67146108e95780635ac86ab7146108b65780635c975abb146108995780637a8b263714610225578063886f1195146108555780638c8710191461024b5780638f6a62401461082f578063ab5921e114610798578063c4d66de814610517578063ce7c2ac2146104f4578063d9caed1214610269578063e3dae51c1461024b578063f3e73875146102255763fabc1cbc14610103575f80fd5b3461020e57602036600319011261020e5760405163755b36bd60e11b81526004803591906020908290817f00000000000000000000000000000000000000000000000000000000000000006001600160a01b03165afa90811561021a575f916101d4575b506001600160a01b031633036101c5576001541981198116036101b657806001556040519081527f3582d1828e26bf56bd801502bc021ac0bc8afb57c826e4986b45593c8fad389c60203392a2005b63c61dca5d60e01b5f5260045ffd5b63794821ff60e01b5f5260045ffd5b90506020813d602011610212575b816101ef60209383610cd0565b8101031261020e57516001600160a01b038116810361020e575f610167565b5f80fd5b3d91506101e2565b6040513d5f823e3d90fd5b3461020e57602036600319011261020e576020610243600435610d48565b604051908152f35b3461020e57602036600319011261020e576020610243600435610e0d565b3461020e57606036600319011261020e57610282610c90565b6024356001600160a01b0381169182820361020e576044359160028060015416146104e5577f00000000000000000000000000000000000000000000000000000000000000006001600160a01b031633036104d6576102e090610e3f565b6033548083116104c7576103e881018082116104b3576102fe610e65565b916103e883018093116104b35761032c6103246103369361031f8887610d17565b610d2a565b958692610d0a565b9283603355610d0a565b916103e882018092116104b3576103505f93928493610ea2565b60405163a9059cbb60e01b602082019081526001600160a01b039092166024820152604480820195909552938452610389606485610cd0565b60405193610398604086610cd0565b602085527f5361666545524332303a206c6f772d6c6576656c2063616c6c206661696c65646020860152519082865af13d156104a6573d9067ffffffffffffffff82116104925760405161040a9490926103fc601f8201601f191660200185610cd0565b83523d5f602085013e610ef5565b8051908115918215610478575b50501561042057005b60405162461bcd60e51b815260206004820152602a60248201527f5361666545524332303a204552433230206f7065726174696f6e20646964206e6044820152691bdd081cdd58d8d9595960b21b6064820152608490fd5b61048b9250602080918301019101610cf2565b8180610417565b634e487b7160e01b5f52604160045260245ffd5b9161040a92606091610ef5565b634e487b7160e01b5f52601160045260245ffd5b630b469df360e41b5f5260045ffd5b6348da714f60e01b5f5260045ffd5b63840a48d560e01b5f5260045ffd5b3461020e57602036600319011261020e576020610243610512610c90565b610d7b565b3461020e57602036600319011261020e57610530610c90565b5f5460ff8160081c16159081809261078b575b8015610774575b156107185760ff1981166001175f5581610707575b505f549160ff8360081c16156106ae5760018060a01b0316806bffffffffffffffffffffffff60a01b60325416176032555f6001556040515f81527fab40a374bc51de372200a8bc981af8c9ecdc08dfdaef0bb6e09f88f3c616ef3d60203392a260405163313ce56760e01b8152602081600481855afa90811561021a575f91610652575b507f1c540707b00eb5427b6b774fc799d756516a54aee108b64b327acc55af5575079160ff6040928351928352166020820152a161061e57005b61ff0019165f557f7f26b83ff96e1f2b6a682f133852f6798a09c465da95921460cefb3847402498602060405160018152a1005b90506020813d6020116106a6575b8161066d60209383610cd0565b8101031261020e575160ff8116810361020e577f1c540707b00eb5427b6b774fc799d756516a54aee108b64b327acc55af5575076105e4565b3d9150610660565b60405162461bcd60e51b815260206004820152602b60248201527f496e697469616c697a61626c653a20636f6e7472616374206973206e6f74206960448201526a6e697469616c697a696e6760a81b6064820152608490fd5b61ffff1916610101175f558261055f565b60405162461bcd60e51b815260206004820152602e60248201527f496e697469616c697a61626c653a20636f6e747261637420697320616c72656160448201526d191e481a5b9a5d1a585b1a5e995960921b6064820152608490fd5b50303b15801561054a5750600160ff82161461054a565b50600160ff821610610543565b3461020e575f36600319011261020e5761082b6040516107b9608082610cd0565b604d81527f4261736520537472617465677920696d706c656d656e746174696f6e20746f2060208201527f696e68657269742066726f6d20666f72206d6f726520636f6d706c657820696d60408201526c706c656d656e746174696f6e7360981b606082015260405191829182610ca6565b0390f35b3461020e57602036600319011261020e576020610243610850610512610c90565b610d48565b3461020e575f36600319011261020e576040517f00000000000000000000000000000000000000000000000000000000000000006001600160a01b03168152602090f35b3461020e575f36600319011261020e576020600154604051908152f35b3461020e57602036600319011261020e5760043560ff811680910361020e5760016020911b806001541614604051908152f35b3461020e575f36600319011261020e5760405163237dfb4760e11b81523360048201526020816024817f00000000000000000000000000000000000000000000000000000000000000006001600160a01b03165afa90811561021a575f91610995575b5015610986575f196001556040515f1981527fab40a374bc51de372200a8bc981af8c9ecdc08dfdaef0bb6e09f88f3c616ef3d60203392a2005b631d77d47760e21b5f5260045ffd5b6109b7915060203d6020116109bd575b6109af8183610cd0565b810190610cf2565b8161094c565b503d6109a5565b3461020e575f36600319011261020e577f000000000000000000000000000000000000000000000000000000000000000060ff8116601f8111610a305761082b9160405191610a14604084610cd0565b6020808452838101919036833783525260405191829182610ca6565b632cd44ac360e21b5f5260045ffd5b3461020e57604036600319011261020e57610a58610c90565b60243590600180805416146104e5577f00000000000000000000000000000000000000000000000000000000000000006001600160a01b031633036104d657610aa090610e3f565b603354906103e882018083116104b357610ab8610e65565b916103e883018093116104b35761031f610adc92610ad68386610d0a565b92610d17565b908115610b2f578183018093116104b357826033556f4b3b4ca85a86c47a098a223fffffffff8311610b20576103e883018093116104b35760209261024391610ea2565b632f14e8a360e11b5f5260045ffd5b630c392ed360e11b5f5260045ffd5b3461020e575f36600319011261020e576020603354604051908152f35b3461020e575f36600319011261020e576040517f00000000000000000000000000000000000000000000000000000000000000006001600160a01b03168152602090f35b3461020e575f36600319011261020e576032546040516001600160a01b039091168152602090f35b3461020e57602036600319011261020e5763237dfb4760e11b81523360048281019190915235906020816024817f00000000000000000000000000000000000000000000000000000000000000006001600160a01b03165afa90811561021a575f91610c71575b501561098657600154818116036101b657806001556040519081527fab40a374bc51de372200a8bc981af8c9ecdc08dfdaef0bb6e09f88f3c616ef3d60203392a2005b610c8a915060203d6020116109bd576109af8183610cd0565b82610c2e565b600435906001600160a01b038216820361020e57565b602060409281835280519182918282860152018484015e5f828201840152601f01601f1916010190565b90601f8019910116810190811067ffffffffffffffff82111761049257604052565b9081602091031261020e5751801515810361020e5790565b919082039182116104b357565b818102929181159184041417156104b357565b8115610d34570490565b634e487b7160e01b5f52601260045260245ffd5b6033546103e881018091116104b357610d5f610e65565b6103e881018091116104b357610d789261031f91610d17565b90565b60405163fe243a1760e01b81526001600160a01b03918216600482015230602482015290602090829060449082907f0000000000000000000000000000000000000000000000000000000000000000165afa90811561021a575f91610dde575090565b90506020813d602011610e05575b81610df960209383610cd0565b8101031261020e575190565b3d9150610dec565b603354906103e882018092116104b357610e25610e65565b906103e882018092116104b357610d789261031f91610d17565b6032546001600160a01b03908116911603610e5657565b630312abdd60e61b5f5260045ffd5b6032546040516370a0823160e01b815230600482015290602090829060249082906001600160a01b03165afa90811561021a575f91610dde575090565b9081670de0b6b3a76400000291670de0b6b3a76400008304036104b357610eec6020917fd2494f3479e5da49d386657c292c610b5b01df313d07c62eb0cfa49924a31be893610d2a565b604051908152a1565b91929015610f575750815115610f09575090565b3b15610f125790565b60405162461bcd60e51b815260206004820152601d60248201527f416464726573733a2063616c6c20746f206e6f6e2d636f6e74726163740000006044820152606490fd5b825190915015610f6a5750805190602001fd5b60405162461bcd60e51b8152908190610f869060048301610ca6565b0390fdfea2646970667358221220bd3e7edc906a0dfd27e978d5302ad664d96d349abca5957cdd39478917870d2b64736f6c634300081b0033","linkReferences":{}},"methodIdentifiers":{"deposit(address,uint256)":"47e7ef24","explanation()":"ab5921e1","initialize(address)":"c4d66de8","pause(uint256)":"136439dd","pauseAll()":"595c6a67","paused()":"5c975abb","paused(uint8)":"5ac86ab7","pauserRegistry()":"886f1195","shares(address)":"ce7c2ac2","sharesToUnderlying(uint256)":"f3e73875","sharesToUnderlyingView(uint256)":"7a8b2637","strategyManager()":"39b70e38","totalShares()":"3a98ef39","underlyingToShares(uint256)":"8c871019","underlyingToSharesView(uint256)":"e3dae51c","underlyingToken()":"2495a599","unpause(uint256)":"fabc1cbc","userUnderlying(address)":"8f6a6240","userUnderlyingView(address)":"553ca5f8","version()":"54fd4d50","withdraw(address,address,uint256)":"d9caed12"},"id":45}