{"abi":[{"type":"constructor","inputs":[{"name":"_pausers","type":"address[]","internalType":"address[]"},{"name":"_unpauser","type":"address","internalType":"address"}],"stateMutability":"nonpayable"},{"type":"function","name":"isPauser","inputs":[{"name":"","type":"address","internalType":"address"}],"outputs":[{"name":"","type":"bool","internalType":"bool"}],"stateMutability":"view"},{"type":"function","name":"setIsPauser","inputs":[{"name":"newPauser","type":"address","internalType":"address"},{"name":"canPause","type":"bool","internalType":"bool"}],"outputs":[],"stateMutability":"nonpayable"},{"type":"function","name":"setUnpauser","inputs":[{"name":"newUnpauser","type":"address","internalType":"address"}],"outputs":[],"stateMutability":"nonpayable"},{"type":"function","name":"unpauser","inputs":[],"outputs":[{"name":"","type":"address","internalType":"address"}],"stateMutability":"view"},{"type":"event","name":"PauserStatusChanged","inputs":[{"name":"pauser","type":"address","indexed":false,"internalType":"address"},{"name":"canPause","type":"bool","indexed":false,"internalType":"bool"}],"anonymous":false},{"type":"event","name":"UnpauserChanged","inputs":[{"name":"previousUnpauser","type":"address","indexed":false,"internalType":"address"},{"name":"newUnpauser","type":"address","indexed":false,"internalType":"address"}],"anonymous":false},{"type":"error","name":"InputAddressZero","inputs":[]},{"type":"error","name":"OnlyUnpauser","inputs":[]}],"bytecode":{"object":"0x6080604052346101995761041280380380610019816101b1565b9283398101906040818303126101995780516001600160401b0381116101995781019180601f84011215610199578251926001600160401b03841161019d578360051b9060208061006b8185016101b1565b80978152019282010192831161019957602001905b8282106101815784610094602086016101d6565b905f5b815181101561011657600581901b8201602001516001600160a01b0316908115610107577f65d3a1fd4c13f05cba164f80d03ce90fb4b5e21946bfc3ab7dbd434c2d0b91526040836001945f525f602052815f208560ff198254161790558151908152846020820152a101610097565b6339b190bb60e11b5f5260045ffd5b6001600160a01b038316801561010757600154604080516001600160a01b0383168152602081018490527f06b4167a2528887a1e97a366eefe8549bfbf1ea3e6ac81cb2564a934d20e88929190a16001600160a01b0319161760015560405161022790816101eb8239f35b6020809161018e846101d6565b815201910190610080565b5f80fd5b634e487b7160e01b5f52604160045260245ffd5b6040519190601f01601f191682016001600160401b0381118382101761019d57604052565b51906001600160a01b03821682036101995756fe6080806040526004361015610012575f80fd5b5f3560e01c90816346fbf68e146101a3575080638568520614610111578063ce548428146100745763eab66d7a14610048575f80fd5b34610070575f366003190112610070576001546040516001600160a01b039091168152602090f35b5f80fd5b346100705760203660031901126100705761008d6101db565b6001546001600160a01b0381169133839003610102576001600160a01b03169182156100f35760407f06b4167a2528887a1e97a366eefe8549bfbf1ea3e6ac81cb2564a934d20e8892918151908152846020820152a16001600160a01b03191617600155005b6339b190bb60e11b5f5260045ffd5b63794821ff60e01b5f5260045ffd5b346100705760403660031901126100705761012a6101db565b60243590811515809203610070576001546001600160a01b03163303610102576001600160a01b03169081156100f357816040917f65d3a1fd4c13f05cba164f80d03ce90fb4b5e21946bfc3ab7dbd434c2d0b9152935f525f602052825f2060ff1981541660ff831617905582519182526020820152a1005b34610070576020366003190112610070576020906001600160a01b036101c76101db565b165f525f825260ff60405f20541615158152f35b600435906001600160a01b03821682036100705756fea2646970667358221220b51ccd922215b92edff13e5dc606302e67964ab3a2c8271f84cff6d2e4d7670964736f6c634300081b0033","linkReferences":{}},"methodIdentifiers":{"isPauser(address)":"46fbf68e","setIsPauser(address,bool)":"85685206","setUnpauser(address)":"ce548428","unpauser()":"eab66d7a"},"id":37}