{"abi":[{"type":"function","name":"ECTwistAdd","inputs":[{"name":"pt1xx","type":"uint256","internalType":"uint256"},{"name":"pt1xy","type":"uint256","internalType":"uint256"},{"name":"pt1yx","type":"uint256","internalType":"uint256"},{"name":"pt1yy","type":"uint256","internalType":"uint256"},{"name":"pt2xx","type":"uint256","internalType":"uint256"},{"name":"pt2xy","type":"uint256","internalType":"uint256"},{"name":"pt2yx","type":"uint256","internalType":"uint256"},{"name":"pt2yy","type":"uint256","internalType":"uint256"}],"outputs":[{"name":"","type":"uint256","internalType":"uint256"},{"name":"","type":"uint256","internalType":"uint256"},{"name":"","type":"uint256","internalType":"uint256"},{"name":"","type":"uint256","internalType":"uint256"}],"stateMutability":"view"},{"type":"function","name":"ECTwistMul","inputs":[{"name":"s","type":"uint256","internalType":"uint256"},{"name":"pt1xx","type":"uint256","internalType":"uint256"},{"name":"pt1xy","type":"uint256","internalType":"uint256"},{"name":"pt1yx","type":"uint256","internalType":"uint256"},{"name":"pt1yy","type":"uint256","internalType":"uint256"}],"outputs":[{"name":"","type":"uint256","internalType":"uint256"},{"name":"","type":"uint256","internalType":"uint256"},{"name":"","type":"uint256","internalType":"uint256"},{"name":"","type":"uint256","internalType":"uint256"}],"stateMutability":"view"},{"type":"function","name":"GetFieldModulus","inputs":[],"outputs":[{"name":"","type":"uint256","internalType":"uint256"}],"stateMutability":"pure"}],"bytecode":{"object":"0x608080604052346019576110f5908161001e823930815050f35b5f80fdfe60c0806040526004361015610012575f80fd5b5f3560e01c90816355a3e90f146101b55750806361a931ec146101855763b73ab75d1461003d575f80fd5b60a03660031901126101815760843560443560243560016064358083801580610179575b80610171575b80610169575b1561014957506001958694505f93509150505b5f9190949392946004359485946100956103f6565b965b6100eb576100e76100c5888051906020810151604082015160608301519160a0608085015194015194610d5b565b6040805194855260208501939093529183015260608201529081906080820190565b0390f35b60018616610110575b6100ff959697610e65565b94969560011c949390929085610097565b61014185858585858d8d6100ff9d9e51906020810151604082015160608301519160a06080850151940151946109c0565b9695506100f4565b86610161928761015c9399969799610321565b6101d5565b939190610080565b50861561006d565b508115610067565b508515610061565b5f80fd5b610100366003190112610181576100e76100c560e43560c43560a4356084356064356044356024356004356101f0565b5f36600319011261018157805f5160206110a05f395f51905f5260209252f35b156101dc57565b634e487b7160e01b5f52600160045260245ffd5b979497969596801580610319575b80610311575b80610309575b1561025f5750505050801580610257575b8061024f575b80610247575b15610233575b93929190565b61024261015c84868885610321565b61022d565b508215610227565b508315610221565b50841561021b565b849895989796971580610301575b806102f9575b806102f1575b6102d957916102d1979593916102ae97959361029a61015c85858585610321565b6102a961015c89898989610321565b61042e565b8051906020810151604082015160608301519160a0608085015194015194610d5b565b929391929091565b93509693509450925061022d61015c84868885610321565b508715610279565b508615610273565b50851561026d565b50831561020a565b508215610204565b5081156101fe565b5f5160206110a05f395f51905f5261036a9161035b6103466103629784978181610e35565b95909261035582828181610e35565b90610e35565b9690611079565b900893611079565b9008907f054fb1321278f57b36922d1d65a0ed99e1cca4ac0e95daea09b8a53ab3dbc4625f5160206110a05f395f51905f529108907f2fcd3ac2a640a154eb23960892a85a68f031ca0c8344b23a577dcf1052b9e7755f5160206110a05f395f51905f529108901590816103dc575090565b90501590565b634e487b7160e01b5f52601160045260245ffd5b6040519060c082810167ffffffffffffffff81118482101761041a57604052368337565b634e487b7160e01b5f52604160045260245ffd5b90959796939492919461043f6103f6565b985f5160206110a05f395f51905f525f870961045a90611079565b5f5160206110a05f395f51905f5260018309905f5160206110a05f395f51905f5291089560015f5160206110a05f395f51905f529109905f5f5160206110a05f395f51905f529109905f5160206110a05f395f51905f529108955f5160206110a05f395f51905f525f85096104ce90611079565b5f5160206110a05f395f51905f5260018309905f5160206110a05f395f51905f529108905f5160206110a05f395f51905f52600186095f5160206110a05f395f51905f525f8309905f5160206110a05f395f51905f5291089260608c0193845260408c019283525f5160206110a05f395f51905f525f880961054f90611079565b5f5160206110a05f395f51905f5260018309905f5160206110a05f395f51905f5291089660015f5160206110a05f395f51905f529109905f5f5160206110a05f395f51905f529109905f5160206110a05f395f51905f529108985f5160206110a05f395f51905f525f82096105c390611079565b5f5160206110a05f395f51905f5260018709905f5160206110a05f395f51905f529108945f5160206110a05f395f51905f52600183095f5160206110a05f395f51905f525f8309905f5160206110a05f395f51905f529108968d60a0810198895260800196875286518914806109b6575b61093b57505f5160206110a05f395f51905f5296505050505050505f5160206110a05f395f51905f529060010892604087019387855192606082019586519461067c90611079565b5f5160206110a05f395f51905f5291089361069690611079565b5f5160206110a05f395f51905f52910891608082019485519160a08401998a928351946106c290611079565b5f5160206110a05f395f51905f529108936106dc90611079565b5f5160206110a05f395f51905f52910893849382816106fd87828181610e35565b9790968c51905161070f918a8a610e35565b9861071b939198610e35565b9d909a908b8f5f5160206110a05f395f51905f525f820961073b90611079565b5f5160206110a05f395f51905f52868409905f5160206110a05f395f51905f529108945f5160206110a05f395f51905f529109905f5f5160206110a05f395f51905f529109905f5160206110a05f395f51905f5291089052526107a087898181610e35565b5f5160206110a05f395f51905f525f82096107ba90611079565b5f5160206110a05f395f51905f52868409905f5160206110a05f395f51905f529108945f5160206110a05f395f51905f529109905f5f5160206110a05f395f51905f529109905f5160206110a05f395f51905f5291089261081a8a611079565b5f5160206110a05f395f51905f529108926108348d611079565b5f5160206110a05f395f51905f529108955f5160206110a05f395f51905f5260028609935f5160206110a05f395f51905f52600288099461087490611079565b5f5160206110a05f395f51905f5291089661088f8895611079565b5f5160206110a05f395f51905f5291089687916108ab93610e35565b9091602001528c526108bc90611079565b5f5160206110a05f395f51905f529108916108d690611079565b5f5160206110a05f395f51905f529108916108f093610e35565b919094845184519161090193610e35565b949061090c90611079565b5f5160206110a05f395f51905f5291089361092690611079565b5f5160206110a05f395f51905f529108905252565b939750939790949891959950869b9a9b511490816109ab575b506109875750505050505050505f60a08201525f60808201525f6060820152600160408201525f60208201526001815290565b610995935f93600193610e65565b9092969397919498525252526020830152815290565b90508651145f610954565b5087518c14610634565b9a949199959998969893909360a0526109d76103f6565b9a811580610d53575b15610a0857505050505060a08701526080860152606085015260408401526020830152815290565b9297869a9992959791949a1580610d4b575b610d205791610a3086868e9f9e95948195610e35565b60805299868a8a8a60a05192610a4593610e35565b9490936060870195865260408701948552610a5f93610e35565b9b9099610a6e8a8a8489610e35565b96909560a0810197885260800195865285518c1480610d16575b610cb2575050505050505090610a9f939291610e35565b9390916040870151916060880194855193610ab990611079565b5f5160206110a05f395f51905f52910892610ad390611079565b608051905f5160206110a05f395f51905f529108916080890180519260a08b0192835194610b0090611079565b5f5160206110a05f395f51905f52910893610b1a90611079565b5f5160206110a05f395f51905f529108928689610b3986848181610e35565b959094848882518451610b4d918b8b610e35565b99610b59939199610e35565b9d819c8f610b6693610e35565b90925252610b7687898181610e35565b610b809391610e35565b9190610b8b89611079565b5f5160206110a05f395f51905f52910891610ba58b611079565b5f5160206110a05f395f51905f529108945f5160206110a05f395f51905f5260028509925f5160206110a05f395f51905f526002870993610be590611079565b5f5160206110a05f395f51905f52910895610c008794611079565b5f5160206110a05f395f51905f529108958691610c1c93610e35565b60208d01528b52610c2c90611079565b5f5160206110a05f395f51905f52910891610c4690611079565b5f5160206110a05f395f51905f52910891610c6093610e35565b9190936040870151845191610c7493610e35565b9390610c7f90611079565b5f5160206110a05f395f51905f52910892610c9990611079565b5f5160206110a05f395f51905f52910890526040830152565b949b939a50949b5096508097509b9a9b511480610d0a575b610cfd575050505050505050505f60a08201525f60808201525f6060820152600160408201525f60208201526001815290565b6109959460a05191610e65565b50865160805114610cca565b508d875114610a88565b5050509695509250905060a08601526080850152606084015260a05160408401526020830152815290565b508715610a1a565b5082156109e0565b9195939490929460405160208152602080820152602060408201525f5160206110a05f395f51905f5280838009818580090860608201527f30644e72e131a029b85045b68181585d97816a916871ca8d3c208c16d87cfd4560808201525f5160206110a05f395f51905f5260a082015260208160c08160056107cf195a01fa90519015610181575f5160206110a05f395f51905f528181930992095f5160206110a05f395f51905f5203915f5160206110a05f395f51905f5283116103e2578282610e3195610e2993610e35565b959096610e35565b9091565b9093925f5160206110a05f395f51905f52929083809281610e5881858b09611079565b8183880908970992090890565b938295849793955f5160206110a05f395f51905f526003820984825f5160206110a05f395f51905f5260038309610e9b93610e35565b92610ea89194888a610e35565b610eb8819b839a84988496610e35565b610ec29391610e35565b98899891610ed285878181610e35565b905f5160206110a05f395f51905f52600884099b60085f5160206110a05f395f51905f5291099b610f0290611079565b5f5160206110a05f395f51905f5291089a610f1c90611079565b5f5160206110a05f395f51905f529108948a610f3a86868181610e35565b98819e8a94929560045f5160206110a05f395f51905f5291099060045f5160206110a05f395f51905f52910993610f7090611079565b5f5160206110a05f395f51905f52910892610f8a8a611079565b5f5160206110a05f395f51905f529108610fa393610e35565b93909a5f5160206110a05f395f51905f5260088309915f5160206110a05f395f51905f5260088309610fd493610e35565b610fde9391610e35565b9890610fe990611079565b5f5160206110a05f395f51905f5291089761100390611079565b5f5160206110a05f395f51905f529108969760025f5160206110a05f395f51905f5291099260025f5160206110a05f395f51905f52910961104393610e35565b96909761104f93610e35565b9060085f5160206110a05f395f51905f5291099060085f5160206110a05f395f51905f5291099091565b5f5160206110a05f395f51905f5203905f5160206110a05f395f51905f5282116103e25756fe30644e72e131a029b85045b68181585d97816a916871ca8d3c208c16d87cfd47a26469706673582212204efa16f7b65266947e03a20c120dc120c5c34b9a4b6f10d6eaef95780411ad2a64736f6c634300081b0033","linkReferences":{}},"methodIdentifiers":{"ECTwistAdd(uint256,uint256,uint256,uint256,uint256,uint256,uint256,uint256)":"61a931ec","ECTwistMul(uint256,uint256,uint256,uint256,uint256)":"b73ab75d","GetFieldModulus()":"55a3e90f"},"id":139}