{"abi":[{"type":"constructor","inputs":[{"name":"params","type":"tuple","internalType":"struct IRegistryCoordinatorTypes.RegistryCoordinatorParams","components":[{"name":"serviceManager","type":"address","internalType":"contract IServiceManager"},{"name":"slashingParams","type":"tuple","internalType":"struct IRegistryCoordinatorTypes.SlashingRegistryParams","components":[{"name":"stakeRegistry","type":"address","internalType":"contract IStakeRegistry"},{"name":"blsApkRegistry","type":"address","internalType":"contract IBLSApkRegistry"},{"name":"indexRegistry","type":"address","internalType":"contract IIndexRegistry"},{"name":"socketRegistry","type":"address","internalType":"contract ISocketRegistry"},{"name":"allocationManager","type":"address","internalType":"contract IAllocationManager"},{"name":"pauserRegistry","type":"address","internalType":"contract IPauserRegistry"}]}]}],"stateMutability":"nonpayable"},{"type":"function","name":"OPERATOR_CHURN_APPROVAL_TYPEHASH","inputs":[],"outputs":[{"name":"","type":"bytes32","internalType":"bytes32"}],"stateMutability":"view"},{"type":"function","name":"PUBKEY_REGISTRATION_TYPEHASH","inputs":[],"outputs":[{"name":"","type":"bytes32","internalType":"bytes32"}],"stateMutability":"view"},{"type":"function","name":"allocationManager","inputs":[],"outputs":[{"name":"","type":"address","internalType":"contract IAllocationManager"}],"stateMutability":"view"},{"type":"function","name":"avs","inputs":[],"outputs":[{"name":"","type":"address","internalType":"address"}],"stateMutability":"view"},{"type":"function","name":"blsApkRegistry","inputs":[],"outputs":[{"name":"","type":"address","internalType":"contract IBLSApkRegistry"}],"stateMutability":"view"},{"type":"function","name":"calculateOperatorChurnApprovalDigestHash","inputs":[{"name":"registeringOperator","type":"address","internalType":"address"},{"name":"registeringOperatorId","type":"bytes32","internalType":"bytes32"},{"name":"operatorKickParams","type":"tuple[]","internalType":"struct ISlashingRegistryCoordinatorTypes.OperatorKickParam[]","components":[{"name":"quorumNumber","type":"uint8","internalType":"uint8"},{"name":"operator","type":"address","internalType":"address"}]},{"name":"salt","type":"bytes32","internalType":"bytes32"},{"name":"expiry","type":"uint256","internalType":"uint256"}],"outputs":[{"name":"","type":"bytes32","internalType":"bytes32"}],"stateMutability":"view"},{"type":"function","name":"calculatePubkeyRegistrationMessageHash","inputs":[{"name":"operator","type":"address","internalType":"address"}],"outputs":[{"name":"","type":"bytes32","internalType":"bytes32"}],"stateMutability":"view"},{"type":"function","name":"churnApprover","inputs":[],"outputs":[{"name":"","type":"address","internalType":"address"}],"stateMutability":"view"},{"type":"function","name":"createSlashableStakeQuorum","inputs":[{"name":"operatorSetParams","type":"tuple","internalType":"struct ISlashingRegistryCoordinatorTypes.OperatorSetParam","components":[{"name":"maxOperatorCount","type":"uint32","internalType":"uint32"},{"name":"kickBIPsOfOperatorStake","type":"uint16","internalType":"uint16"},{"name":"kickBIPsOfTotalStake","type":"uint16","internalType":"uint16"}]},{"name":"minimumStake","type":"uint96","internalType":"uint96"},{"name":"strategyParams","type":"tuple[]","internalType":"struct IStakeRegistryTypes.StrategyParams[]","components":[{"name":"strategy","type":"address","internalType":"contract IStrategy"},{"name":"multiplier","type":"uint96","internalType":"uint96"}]},{"name":"lookAheadPeriod","type":"uint32","internalType":"uint32"}],"outputs":[],"stateMutability":"nonpayable"},{"type":"function","name":"createTotalDelegatedStakeQuorum","inputs":[{"name":"operatorSetParams","type":"tuple","internalType":"struct ISlashingRegistryCoordinatorTypes.OperatorSetParam","components":[{"name":"maxOperatorCount","type":"uint32","internalType":"uint32"},{"name":"kickBIPsOfOperatorStake","type":"uint16","internalType":"uint16"},{"name":"kickBIPsOfTotalStake","type":"uint16","internalType":"uint16"}]},{"name":"minimumStake","type":"uint96","internalType":"uint96"},{"name":"strategyParams","type":"tuple[]","internalType":"struct IStakeRegistryTypes.StrategyParams[]","components":[{"name":"strategy","type":"address","internalType":"contract IStrategy"},{"name":"multiplier","type":"uint96","internalType":"uint96"}]}],"outputs":[],"stateMutability":"nonpayable"},{"type":"function","name":"deregisterOperator","inputs":[{"name":"operator","type":"address","internalType":"address"},{"name":"avs","type":"address","internalType":"address"},{"name":"operatorSetIds","type":"uint32[]","internalType":"uint32[]"}],"outputs":[],"stateMutability":"nonpayable"},{"type":"function","name":"deregisterOperator","inputs":[{"name":"quorumNumbers","type":"bytes","internalType":"bytes"}],"outputs":[],"stateMutability":"nonpayable"},{"type":"function","name":"disableM2QuorumRegistration","inputs":[],"outputs":[],"stateMutability":"nonpayable"},{"type":"function","name":"domainSeparator","inputs":[],"outputs":[{"name":"","type":"bytes32","internalType":"bytes32"}],"stateMutability":"view"},{"type":"function","name":"eip712Domain","inputs":[],"outputs":[{"name":"fields","type":"bytes1","internalType":"bytes1"},{"name":"name","type":"string","internalType":"string"},{"name":"version","type":"string","internalType":"string"},{"name":"chainId","type":"uint256","internalType":"uint256"},{"name":"verifyingContract","type":"address","internalType":"address"},{"name":"salt","type":"bytes32","internalType":"bytes32"},{"name":"extensions","type":"uint256[]","internalType":"uint256[]"}],"stateMutability":"view"},{"type":"function","name":"ejectOperator","inputs":[{"name":"operator","type":"address","internalType":"address"},{"name":"quorumNumbers","type":"bytes","internalType":"bytes"}],"outputs":[],"stateMutability":"nonpayable"},{"type":"function","name":"ejectionCooldown","inputs":[],"outputs":[{"name":"","type":"uint256","internalType":"uint256"}],"stateMutability":"view"},{"type":"function","name":"ejector","inputs":[],"outputs":[{"name":"","type":"address","internalType":"address"}],"stateMutability":"view"},{"type":"function","name":"getCurrentQuorumBitmap","inputs":[{"name":"operatorId","type":"bytes32","internalType":"bytes32"}],"outputs":[{"name":"","type":"uint192","internalType":"uint192"}],"stateMutability":"view"},{"type":"function","name":"getOperator","inputs":[{"name":"operator","type":"address","internalType":"address"}],"outputs":[{"name":"","type":"tuple","internalType":"struct ISlashingRegistryCoordinatorTypes.OperatorInfo","components":[{"name":"operatorId","type":"bytes32","internalType":"bytes32"},{"name":"status","type":"uint8","internalType":"enum ISlashingRegistryCoordinatorTypes.OperatorStatus"}]}],"stateMutability":"view"},{"type":"function","name":"getOperatorFromId","inputs":[{"name":"operatorId","type":"bytes32","internalType":"bytes32"}],"outputs":[{"name":"","type":"address","internalType":"address"}],"stateMutability":"view"},{"type":"function","name":"getOperatorId","inputs":[{"name":"operator","type":"address","internalType":"address"}],"outputs":[{"name":"","type":"bytes32","internalType":"bytes32"}],"stateMutability":"view"},{"type":"function","name":"getOperatorSetParams","inputs":[{"name":"quorumNumber","type":"uint8","internalType":"uint8"}],"outputs":[{"name":"","type":"tuple","internalType":"struct ISlashingRegistryCoordinatorTypes.OperatorSetParam","components":[{"name":"maxOperatorCount","type":"uint32","internalType":"uint32"},{"name":"kickBIPsOfOperatorStake","type":"uint16","internalType":"uint16"},{"name":"kickBIPsOfTotalStake","type":"uint16","internalType":"uint16"}]}],"stateMutability":"view"},{"type":"function","name":"getOperatorStatus","inputs":[{"name":"operator","type":"address","internalType":"address"}],"outputs":[{"name":"","type":"uint8","internalType":"enum ISlashingRegistryCoordinatorTypes.OperatorStatus"}],"stateMutability":"view"},{"type":"function","name":"getQuorumBitmapAtBlockNumberByIndex","inputs":[{"name":"operatorId","type":"bytes32","internalType":"bytes32"},{"name":"blockNumber","type":"uint32","internalType":"uint32"},{"name":"index","type":"uint256","internalType":"uint256"}],"outputs":[{"name":"","type":"uint192","internalType":"uint192"}],"stateMutability":"view"},{"type":"function","name":"getQuorumBitmapHistoryLength","inputs":[{"name":"operatorId","type":"bytes32","internalType":"bytes32"}],"outputs":[{"name":"","type":"uint256","internalType":"uint256"}],"stateMutability":"view"},{"type":"function","name":"getQuorumBitmapIndicesAtBlockNumber","inputs":[{"name":"blockNumber","type":"uint32","internalType":"uint32"},{"name":"operatorIds","type":"bytes32[]","internalType":"bytes32[]"}],"outputs":[{"name":"","type":"uint32[]","internalType":"uint32[]"}],"stateMutability":"view"},{"type":"function","name":"getQuorumBitmapUpdateByIndex","inputs":[{"name":"operatorId","type":"bytes32","internalType":"bytes32"},{"name":"index","type":"uint256","internalType":"uint256"}],"outputs":[{"name":"","type":"tuple","internalType":"struct ISlashingRegistryCoordinatorTypes.QuorumBitmapUpdate","components":[{"name":"updateBlockNumber","type":"uint32","internalType":"uint32"},{"name":"nextUpdateBlockNumber","type":"uint32","internalType":"uint32"},{"name":"quorumBitmap","type":"uint192","internalType":"uint192"}]}],"stateMutability":"view"},{"type":"function","name":"indexRegistry","inputs":[],"outputs":[{"name":"","type":"address","internalType":"contract IIndexRegistry"}],"stateMutability":"view"},{"type":"function","name":"initialize","inputs":[{"name":"initialOwner","type":"address","internalType":"address"},{"name":"churnApprover","type":"address","internalType":"address"},{"name":"ejector","type":"address","internalType":"address"},{"name":"initialPausedStatus","type":"uint256","internalType":"uint256"},{"name":"avs","type":"address","internalType":"address"}],"outputs":[],"stateMutability":"nonpayable"},{"type":"function","name":"isChurnApproverSaltUsed","inputs":[{"name":"","type":"bytes32","internalType":"bytes32"}],"outputs":[{"name":"","type":"bool","internalType":"bool"}],"stateMutability":"view"},{"type":"function","name":"isM2Quorum","inputs":[{"name":"quorumNumber","type":"uint8","internalType":"uint8"}],"outputs":[{"name":"","type":"bool","internalType":"bool"}],"stateMutability":"view"},{"type":"function","name":"isM2QuorumRegistrationDisabled","inputs":[],"outputs":[{"name":"","type":"bool","internalType":"bool"}],"stateMutability":"view"},{"type":"function","name":"lastEjectionTimestamp","inputs":[{"name":"","type":"address","internalType":"address"}],"outputs":[{"name":"","type":"uint256","internalType":"uint256"}],"stateMutability":"view"},{"type":"function","name":"m2QuorumBitmap","inputs":[],"outputs":[{"name":"","type":"uint256","internalType":"uint256"}],"stateMutability":"view"},{"type":"function","name":"operatorSetsEnabled","inputs":[],"outputs":[{"name":"","type":"bool","internalType":"bool"}],"stateMutability":"view"},{"type":"function","name":"owner","inputs":[],"outputs":[{"name":"","type":"address","internalType":"address"}],"stateMutability":"view"},{"type":"function","name":"pause","inputs":[{"name":"newPausedStatus","type":"uint256","internalType":"uint256"}],"outputs":[],"stateMutability":"nonpayable"},{"type":"function","name":"pauseAll","inputs":[],"outputs":[],"stateMutability":"nonpayable"},{"type":"function","name":"paused","inputs":[{"name":"index","type":"uint8","internalType":"uint8"}],"outputs":[{"name":"","type":"bool","internalType":"bool"}],"stateMutability":"view"},{"type":"function","name":"paused","inputs":[],"outputs":[{"name":"","type":"uint256","internalType":"uint256"}],"stateMutability":"view"},{"type":"function","name":"pauserRegistry","inputs":[],"outputs":[{"name":"","type":"address","internalType":"contract IPauserRegistry"}],"stateMutability":"view"},{"type":"function","name":"pubkeyRegistrationMessageHash","inputs":[{"name":"operator","type":"address","internalType":"address"}],"outputs":[{"name":"","type":"tuple","internalType":"struct BN254.G1Point","components":[{"name":"X","type":"uint256","internalType":"uint256"},{"name":"Y","type":"uint256","internalType":"uint256"}]}],"stateMutability":"view"},{"type":"function","name":"quorumCount","inputs":[],"outputs":[{"name":"","type":"uint8","internalType":"uint8"}],"stateMutability":"view"},{"type":"function","name":"quorumUpdateBlockNumber","inputs":[{"name":"","type":"uint8","internalType":"uint8"}],"outputs":[{"name":"","type":"uint256","internalType":"uint256"}],"stateMutability":"view"},{"type":"function","name":"registerOperator","inputs":[{"name":"quorumNumbers","type":"bytes","internalType":"bytes"},{"name":"socket","type":"string","internalType":"string"},{"name":"params","type":"tuple","internalType":"struct IBLSApkRegistryTypes.PubkeyRegistrationParams","components":[{"name":"pubkeyRegistrationSignature","type":"tuple","internalType":"struct BN254.G1Point","components":[{"name":"X","type":"uint256","internalType":"uint256"},{"name":"Y","type":"uint256","internalType":"uint256"}]},{"name":"pubkeyG1","type":"tuple","internalType":"struct BN254.G1Point","components":[{"name":"X","type":"uint256","internalType":"uint256"},{"name":"Y","type":"uint256","internalType":"uint256"}]},{"name":"pubkeyG2","type":"tuple","internalType":"struct BN254.G2Point","components":[{"name":"X","type":"uint256[2]","internalType":"uint256[2]"},{"name":"Y","type":"uint256[2]","internalType":"uint256[2]"}]}]},{"name":"operatorSignature","type":"tuple","internalType":"struct ISignatureUtilsMixinTypes.SignatureWithSaltAndExpiry","components":[{"name":"signature","type":"bytes","internalType":"bytes"},{"name":"salt","type":"bytes32","internalType":"bytes32"},{"name":"expiry","type":"uint256","internalType":"uint256"}]}],"outputs":[],"stateMutability":"nonpayable"},{"type":"function","name":"registerOperator","inputs":[{"name":"operator","type":"address","internalType":"address"},{"name":"avs","type":"address","internalType":"address"},{"name":"operatorSetIds","type":"uint32[]","internalType":"uint32[]"},{"name":"data","type":"bytes","internalType":"bytes"}],"outputs":[],"stateMutability":"nonpayable"},{"type":"function","name":"registerOperatorWithChurn","inputs":[{"name":"quorumNumbers","type":"bytes","internalType":"bytes"},{"name":"socket","type":"string","internalType":"string"},{"name":"params","type":"tuple","internalType":"struct IBLSApkRegistryTypes.PubkeyRegistrationParams","components":[{"name":"pubkeyRegistrationSignature","type":"tuple","internalType":"struct BN254.G1Point","components":[{"name":"X","type":"uint256","internalType":"uint256"},{"name":"Y","type":"uint256","internalType":"uint256"}]},{"name":"pubkeyG1","type":"tuple","internalType":"struct BN254.G1Point","components":[{"name":"X","type":"uint256","internalType":"uint256"},{"name":"Y","type":"uint256","internalType":"uint256"}]},{"name":"pubkeyG2","type":"tuple","internalType":"struct BN254.G2Point","components":[{"name":"X","type":"uint256[2]","internalType":"uint256[2]"},{"name":"Y","type":"uint256[2]","internalType":"uint256[2]"}]}]},{"name":"operatorKickParams","type":"tuple[]","internalType":"struct ISlashingRegistryCoordinatorTypes.OperatorKickParam[]","components":[{"name":"quorumNumber","type":"uint8","internalType":"uint8"},{"name":"operator","type":"address","internalType":"address"}]},{"name":"churnApproverSignature","type":"tuple","internalType":"struct ISignatureUtilsMixinTypes.SignatureWithSaltAndExpiry","components":[{"name":"signature","type":"bytes","internalType":"bytes"},{"name":"salt","type":"bytes32","internalType":"bytes32"},{"name":"expiry","type":"uint256","internalType":"uint256"}]},{"name":"operatorSignature","type":"tuple","internalType":"struct ISignatureUtilsMixinTypes.SignatureWithSaltAndExpiry","components":[{"name":"signature","type":"bytes","internalType":"bytes"},{"name":"salt","type":"bytes32","internalType":"bytes32"},{"name":"expiry","type":"uint256","internalType":"uint256"}]}],"outputs":[],"stateMutability":"nonpayable"},{"type":"function","name":"renounceOwnership","inputs":[],"outputs":[],"stateMutability":"nonpayable"},{"type":"function","name":"serviceManager","inputs":[],"outputs":[{"name":"","type":"address","internalType":"contract IServiceManager"}],"stateMutability":"view"},{"type":"function","name":"setAVS","inputs":[{"name":"_avs","type":"address","internalType":"address"}],"outputs":[],"stateMutability":"nonpayable"},{"type":"function","name":"setChurnApprover","inputs":[{"name":"_churnApprover","type":"address","internalType":"address"}],"outputs":[],"stateMutability":"nonpayable"},{"type":"function","name":"setEjectionCooldown","inputs":[{"name":"_ejectionCooldown","type":"uint256","internalType":"uint256"}],"outputs":[],"stateMutability":"nonpayable"},{"type":"function","name":"setEjector","inputs":[{"name":"_ejector","type":"address","internalType":"address"}],"outputs":[],"stateMutability":"nonpayable"},{"type":"function","name":"setOperatorSetParams","inputs":[{"name":"quorumNumber","type":"uint8","internalType":"uint8"},{"name":"operatorSetParams","type":"tuple","internalType":"struct ISlashingRegistryCoordinatorTypes.OperatorSetParam","components":[{"name":"maxOperatorCount","type":"uint32","internalType":"uint32"},{"name":"kickBIPsOfOperatorStake","type":"uint16","internalType":"uint16"},{"name":"kickBIPsOfTotalStake","type":"uint16","internalType":"uint16"}]}],"outputs":[],"stateMutability":"nonpayable"},{"type":"function","name":"socketRegistry","inputs":[],"outputs":[{"name":"","type":"address","internalType":"contract ISocketRegistry"}],"stateMutability":"view"},{"type":"function","name":"stakeRegistry","inputs":[],"outputs":[{"name":"","type":"address","internalType":"contract IStakeRegistry"}],"stateMutability":"view"},{"type":"function","name":"supportsAVS","inputs":[{"name":"_avs","type":"address","internalType":"address"}],"outputs":[{"name":"","type":"bool","internalType":"bool"}],"stateMutability":"view"},{"type":"function","name":"transferOwnership","inputs":[{"name":"newOwner","type":"address","internalType":"address"}],"outputs":[],"stateMutability":"nonpayable"},{"type":"function","name":"unpause","inputs":[{"name":"newPausedStatus","type":"uint256","internalType":"uint256"}],"outputs":[],"stateMutability":"nonpayable"},{"type":"function","name":"updateOperators","inputs":[{"name":"operators","type":"address[]","internalType":"address[]"}],"outputs":[],"stateMutability":"nonpayable"},{"type":"function","name":"updateOperatorsForQuorum","inputs":[{"name":"operatorsPerQuorum","type":"address[][]","internalType":"address[][]"},{"name":"quorumNumbers","type":"bytes","internalType":"bytes"}],"outputs":[],"stateMutability":"nonpayable"},{"type":"function","name":"updateSocket","inputs":[{"name":"socket","type":"string","internalType":"string"}],"outputs":[],"stateMutability":"nonpayable"},{"type":"function","name":"version","inputs":[],"outputs":[{"name":"","type":"string","internalType":"string"}],"stateMutability":"view"},{"type":"event","name":"AVSUpdated","inputs":[{"name":"prevAVS","type":"address","indexed":false,"internalType":"address"},{"name":"newAVS","type":"address","indexed":false,"internalType":"address"}],"anonymous":false},{"type":"event","name":"ChurnApproverUpdated","inputs":[{"name":"prevChurnApprover","type":"address","indexed":false,"internalType":"address"},{"name":"newChurnApprover","type":"address","indexed":false,"internalType":"address"}],"anonymous":false},{"type":"event","name":"EIP712DomainChanged","inputs":[],"anonymous":false},{"type":"event","name":"EjectionCooldownUpdated","inputs":[{"name":"prevEjectionCooldown","type":"uint256","indexed":false,"internalType":"uint256"},{"name":"newEjectionCooldown","type":"uint256","indexed":false,"internalType":"uint256"}],"anonymous":false},{"type":"event","name":"EjectorUpdated","inputs":[{"name":"prevEjector","type":"address","indexed":false,"internalType":"address"},{"name":"newEjector","type":"address","indexed":false,"internalType":"address"}],"anonymous":false},{"type":"event","name":"Initialized","inputs":[{"name":"version","type":"uint8","indexed":false,"internalType":"uint8"}],"anonymous":false},{"type":"event","name":"M2QuorumRegistrationDisabled","inputs":[],"anonymous":false},{"type":"event","name":"OperatorDeregistered","inputs":[{"name":"operator","type":"address","indexed":true,"internalType":"address"},{"name":"operatorId","type":"bytes32","indexed":true,"internalType":"bytes32"}],"anonymous":false},{"type":"event","name":"OperatorRegistered","inputs":[{"name":"operator","type":"address","indexed":true,"internalType":"address"},{"name":"operatorId","type":"bytes32","indexed":true,"internalType":"bytes32"}],"anonymous":false},{"type":"event","name":"OperatorSetParamsUpdated","inputs":[{"name":"quorumNumber","type":"uint8","indexed":true,"internalType":"uint8"},{"name":"operatorSetParams","type":"tuple","indexed":false,"internalType":"struct ISlashingRegistryCoordinatorTypes.OperatorSetParam","components":[{"name":"maxOperatorCount","type":"uint32","internalType":"uint32"},{"name":"kickBIPsOfOperatorStake","type":"uint16","internalType":"uint16"},{"name":"kickBIPsOfTotalStake","type":"uint16","internalType":"uint16"}]}],"anonymous":false},{"type":"event","name":"OperatorSetsEnabled","inputs":[],"anonymous":false},{"type":"event","name":"OperatorSocketUpdate","inputs":[{"name":"operatorId","type":"bytes32","indexed":true,"internalType":"bytes32"},{"name":"socket","type":"string","indexed":false,"internalType":"string"}],"anonymous":false},{"type":"event","name":"OwnershipTransferred","inputs":[{"name":"previousOwner","type":"address","indexed":true,"internalType":"address"},{"name":"newOwner","type":"address","indexed":true,"internalType":"address"}],"anonymous":false},{"type":"event","name":"Paused","inputs":[{"name":"account","type":"address","indexed":true,"internalType":"address"},{"name":"newPausedStatus","type":"uint256","indexed":false,"internalType":"uint256"}],"anonymous":false},{"type":"event","name":"QuorumBlockNumberUpdated","inputs":[{"name":"quorumNumber","type":"uint8","indexed":true,"internalType":"uint8"},{"name":"blocknumber","type":"uint256","indexed":false,"internalType":"uint256"}],"anonymous":false},{"type":"event","name":"QuorumCreated","inputs":[{"name":"quorumNumber","type":"uint8","indexed":true,"internalType":"uint8"},{"name":"operatorSetParams","type":"tuple","indexed":false,"internalType":"struct ISlashingRegistryCoordinatorTypes.OperatorSetParam","components":[{"name":"maxOperatorCount","type":"uint32","internalType":"uint32"},{"name":"kickBIPsOfOperatorStake","type":"uint16","internalType":"uint16"},{"name":"kickBIPsOfTotalStake","type":"uint16","internalType":"uint16"}]},{"name":"minimumStake","type":"uint96","indexed":false,"internalType":"uint96"},{"name":"strategyParams","type":"tuple[]","indexed":false,"internalType":"struct IStakeRegistryTypes.StrategyParams[]","components":[{"name":"strategy","type":"address","internalType":"contract IStrategy"},{"name":"multiplier","type":"uint96","internalType":"uint96"}]},{"name":"stakeType","type":"uint8","indexed":false,"internalType":"enum IStakeRegistryTypes.StakeType"},{"name":"lookAheadPeriod","type":"uint32","indexed":false,"internalType":"uint32"}],"anonymous":false},{"type":"event","name":"Unpaused","inputs":[{"name":"account","type":"address","indexed":true,"internalType":"address"},{"name":"newPausedStatus","type":"uint256","indexed":false,"internalType":"uint256"}],"anonymous":false},{"type":"error","name":"AlreadyRegisteredForQuorums","inputs":[]},{"type":"error","name":"BitmapCannotBeZero","inputs":[]},{"type":"error","name":"BitmapEmpty","inputs":[]},{"type":"error","name":"BitmapValueTooLarge","inputs":[]},{"type":"error","name":"BytesArrayLengthTooLong","inputs":[]},{"type":"error","name":"BytesArrayNotOrdered","inputs":[]},{"type":"error","name":"CannotChurnSelf","inputs":[]},{"type":"error","name":"CannotKickOperatorAboveThreshold","inputs":[]},{"type":"error","name":"CannotReregisterYet","inputs":[]},{"type":"error","name":"ChurnApproverSaltUsed","inputs":[]},{"type":"error","name":"CurrentlyPaused","inputs":[]},{"type":"error","name":"ExpModFailed","inputs":[]},{"type":"error","name":"InputAddressZero","inputs":[]},{"type":"error","name":"InputLengthMismatch","inputs":[]},{"type":"error","name":"InsufficientStakeForChurn","inputs":[]},{"type":"error","name":"InvalidAVS","inputs":[]},{"type":"error","name":"InvalidNewPausedStatus","inputs":[]},{"type":"error","name":"InvalidRegistrationType","inputs":[]},{"type":"error","name":"InvalidSignature","inputs":[]},{"type":"error","name":"LookAheadPeriodTooLong","inputs":[]},{"type":"error","name":"M2QuorumRegistrationIsDisabled","inputs":[]},{"type":"error","name":"MaxOperatorCountReached","inputs":[]},{"type":"error","name":"MaxQuorumsReached","inputs":[]},{"type":"error","name":"NotRegistered","inputs":[]},{"type":"error","name":"NotRegisteredForQuorum","inputs":[]},{"type":"error","name":"NotSorted","inputs":[]},{"type":"error","name":"OnlyAllocationManager","inputs":[]},{"type":"error","name":"OnlyEjector","inputs":[]},{"type":"error","name":"OnlyM2QuorumsAllowed","inputs":[]},{"type":"error","name":"OnlyPauser","inputs":[]},{"type":"error","name":"OnlyUnpauser","inputs":[]},{"type":"error","name":"OperatorNotRegistered","inputs":[]},{"type":"error","name":"OperatorNotRegisteredForQuorum","inputs":[]},{"type":"error","name":"OperatorSetQuorum","inputs":[]},{"type":"error","name":"OperatorSetsAlreadyEnabled","inputs":[]},{"type":"error","name":"OperatorSetsNotEnabled","inputs":[]},{"type":"error","name":"QuorumDoesNotExist","inputs":[]},{"type":"error","name":"QuorumOperatorCountMismatch","inputs":[]},{"type":"error","name":"SignatureExpired","inputs":[]},{"type":"error","name":"StringTooLong","inputs":[{"name":"str","type":"string","internalType":"string"}]}],"bytecode":{"object":"0x610180604052346103a557604051615c6838819003601f8101601f191683016001600160401b038111848210176103a95783928291604052833981010360e081126103a55761004c6103bd565b825190916001600160a01b03821682036103a55760c0918352601f1901126103a5576040519160c083016001600160401b038111848210176103a95760405260208101516001600160a01b03811681036103a557835260408101516001600160a01b03811681036103a5576020840190815260608201516001600160a01b03811681036103a557604085019081526080830151916001600160a01b03831683036103a5576060860192835260a0840151936001600160a01b03851685036103a5576080870194855260c00151946001600160a01b03861686036103a55760a0870195865260208101879052519551905191519251935194516001600160a01b039687169695861695948516949384169392831692918216911661016d6103bd565b60068082526576302e302e3160d01b602090920182905290610395565b1760805280156103865760a0526101005260e0526101205260c052610140525f5460ff8160081c166103315760ff808216036102f7575b506101605260405161588b90816103dd823960805181505060a0518181816109b10152818161161d01528181611eb8015261296d015260c051818181612850015261388e015260e051818181610bb6015281816111be0152818161175b01528181611b8b01528181613c4f0152818161476701528181614b5a0152614ddb0152610100518181816110f90152818161179f01528181611ac7015281816137e001528181613cb101528181614be301528181614e64015261555201526101205181818161115d01528181611b2a015281816121ac01528181612c4d01528181613d1301528181614c4e0152614ece01526101405181818161104201528181611a5d0152818161272101528181613ac701526152a7015261016051818181610d97015281816123610152818161324f01526150410152f35b60ff90811916175f557f7f26b83ff96e1f2b6a682f133852f6798a09c465da95921460cefb3847402498602060405160ff8152a15f6101c1565b60405162461bcd60e51b815260206004820152602760248201527f496e697469616c697a61626c653a20636f6e747261637420697320696e697469604482015266616c697a696e6760c81b6064820152608490fd5b6339b190bb60e11b5f5260045ffd5b5f198260200360031b1b1661018a565b5f80fd5b634e487b7160e01b5f52604160045260245ffd5b60408051919082016001600160401b038111838210176103a95760405256fe60806040526004361015610011575f80fd5b5f3560e01c8062cf2ab51461041357806303fd34921461040e57806304ec635114610409578063054310e6146104045780630cf4b767146103ff5780630d3f2134146103fa578063125e0584146103f557806313542a4e146103f0578063136439dd146103eb5780631478851f146103e65780631eb812da146103e1578063249a0c42146103dc57806328f61b31146103d7578063296bb064146103d257806329d1e0c3146103cd5780632cdd1e86146103c8578063303ca956146103c35780633998fdd3146103be5780633c2a7f4c146103b95780633eef3a51146103b45780635140a548146103af578063530b97a4146103aa57806354fd4d50146103a55780635865c60c146103a0578063595c6a671461039b5780635ac86ab7146103965780635b0b829f146103915780635c975abb1461038c5780635df459461461038757806368304835146103825780636e3b17db1461037d578063715018a614610378578063733b750714610373578063734479921461036e57806381f936d2146103695780638281ab751461036457806384b0196e1461035f57806384ca52131461035a578063871ef04914610355578063886f1195146103505780638da5cb5b1461034b5780639aa1653d146103465780639b5d177b146103415780639e9923c21461033c5780639feab85914610337578063a4d7871f14610332578063a50857bf1461032d578063a65497c614610328578063a96f783e14610323578063b52657871461031e578063c391425e14610319578063c63fd50214610314578063ca0de8821461030f578063ca4f2d971461030a578063ca8aa7c714610305578063de1164bb14610300578063e65797ad146102fb578063e814ca9d146102f6578063ea32afae146102f1578063ec8c3a1e146102ec578063f2fde38b146102e7578063f698da25146102e2578063fabc1cbc146102dd5763fd39105a146102d8575f80fd5b612a26565b612944565b61292a565b612899565b61287f565b61283b565b612816565b6127a9565b612750565b61270c565b6126a6565b61266c565b61253a565b612496565b61241e565b612401565b6123d4565b612253565b612215565b6121db565b612197565b6120d1565b611f0f565b611ee7565b611ea3565b611e73565b611e1f565b611ced565b611957565b611935565b611906565b6118a9565b61184e565b6117ce565b61178a565b611746565b611729565b611694565b611665565b6115f2565b611582565b61150d565b6113d0565b61130a565b610f09565b610dc6565b610d82565b610cf4565b610c60565b610c33565b610b80565b610b58565b610b26565b610a69565b610a3a565b610981565b610946565b61090b565b6108b7565b610844565b6107ad565b6106d4565b61069c565b61053b565b634e487b7160e01b5f52604160045260245ffd5b606081019081106001600160401b0382111761044757604052565b610418565b604081019081106001600160401b0382111761044757604052565b90601f801991011681019081106001600160401b0382111761044757604052565b60405190610497604083610467565b565b60405190610497606083610467565b6001600160401b0381116104475760051b60200190565b6001600160a01b038116036104d057565b5f80fd5b9080601f830112156104d05781356104eb816104a8565b926104f96040519485610467565b81845260208085019260051b8201019283116104d057602001905b8282106105215750505090565b602080918335610530816104bf565b815201910190610514565b346104d05760203660031901126104d0576004356001600160401b0381116104d05761056b9036906004016104d4565b61058261057c600480600154161490565b15612a6c565b6040905f60205b825182101561069a5783519061059f8583610467565b60018252803660208401376105df6105c76105ba8587612aa3565b516001600160a01b031690565b6105d084612a96565b6001600160a01b039091169052565b6105e7612ab7565b906106116105f86105ba8688612aa3565b6001600160a01b03165f90815260996020526040902090565b5461061b83612a96565b5261064561064061063461062e85612a96565b51613537565b6001600160c01b031690565b6135e7565b945f5b8651811015610688578061068261067b6106756106676001958c612b0b565b516001600160f81b03191690565b60f81c90565b8688613794565b01610648565b50945060019093019291506105899050565b005b346104d05760203660031901126104d0576004355f526098602052602060405f2054604051908152f35b63ffffffff8116036104d057565b346104d05760603660031901126104d0576004356024356106f4816106c6565b63ffffffff6044359160405193638192610f60e01b8552609860048601526024850152166044830152606482015260208160848173__$16e6d8f39d2650a6c0713d1f187d9aa2cf$__5af4801561079e5761076b915f9161076f575b506040516001600160c01b0390911681529081906020820190565b0390f35b610791915060203d602011610797575b6107898183610467565b810190612b1c565b5f610750565b503d61077f565b612b3b565b5f9103126104d057565b346104d0575f3660031901126104d057609d546040516001600160a01b039091168152602090f35b6001600160401b03811161044757601f01601f191660200190565b9291926107fc826107d5565b9161080a6040519384610467565b8294818452818301116104d0578281602093845f960137010152565b9080601f830112156104d057816020610841933591016107f0565b90565b346104d05760203660031901126104d0576004356001600160401b0381116104d057610874903690600401610826565b335f52609960205260ff600160405f200154169060038210156108b2576108a0600161069a9314612b46565b335f52609960205260405f205461388b565b61153c565b346104d05760203660031901126104d0577fa77a91bea7b6d95a8eb5a54878a1d9e3c875e26c86a9b70e3420c5c5db193b6260406004356108f661394b565b60a054908060a05582519182526020820152a1005b346104d05760203660031901126104d057600435610928816104bf565b60018060a01b03165f52609f602052602060405f2054604051908152f35b346104d05760203660031901126104d057600435610963816104bf565b60018060a01b03165f526099602052602060405f2054604051908152f35b346104d05760203660031901126104d05760043560405163237dfb4760e11b8152336004820152906020826024817f00000000000000000000000000000000000000000000000000000000000000006001600160a01b03165afa91821561079e5761069a926109f7915f91610a0b575b50612b7d565b610a0660015482811614612b93565b6139d7565b610a2d915060203d602011610a33575b610a258183610467565b810190612b69565b5f6109f1565b503d610a1b565b346104d05760203660031901126104d0576004355f52609a602052602060ff60405f2054166040519015158152f35b346104d05760403660031901126104d057602435600435610a88612ba9565b505f52609860205260405f20908154811015610b035761076b915f5260205f200160405190610ab68261042c565b5463ffffffff808216808452602083811c8316818601908152604094851c9585019586528451928352519092169181019190915291516001600160c01b0316908201529081906060820190565b612a82565b6004359060ff821682036104d057565b359060ff821682036104d057565b346104d05760203660031901126104d05760ff610b41610b08565b165f52609b602052602060405f2054604051908152f35b346104d0575f3660031901126104d057609e546040516001600160a01b039091168152602090f35b346104d05760203660031901126104d0576040516308f6629d60e31b815260048035908201526020816024816001600160a01b037f0000000000000000000000000000000000000000000000000000000000000000165afa801561079e5761076b915f91610c04575b506040516001600160a01b0390911681529081906020820190565b610c26915060203d602011610c2c575b610c1e8183610467565b810190612bc7565b5f610be9565b503d610c14565b346104d05760203660031901126104d05761069a600435610c53816104bf565b610c5b61394b565b613a09565b346104d05760203660031901126104d05761069a600435610c80816104bf565b610c8861394b565b613a67565b9080601f830112156104d0578135610ca4816104a8565b92610cb26040519485610467565b81845260208085019260051b8201019283116104d057602001905b828210610cda5750505090565b602080918335610ce9816106c6565b815201910190610ccd565b346104d05760603660031901126104d057600435610d11816104bf565b60243590610d1e826104bf565b6044356001600160401b0381116104d05761069a92610d77610d47610d7c933690600401610c8d565b91610d50613ac5565b610d6161057c600280600154161490565b60a1546001600160a01b03918216911614612bdc565b613b06565b90613b9e565b346104d0575f3660031901126104d0576040517f00000000000000000000000000000000000000000000000000000000000000006001600160a01b03168152602090f35b346104d05760203660031901126104d0576040610dfe610df9600435610deb816104bf565b610df3612bf2565b506130b4565b613e2f565b610e148251809260208091805184520151910152565bf35b60609060031901126104d05760405190610e2f8261042c565b81600435610e3c816106c6565b815260243561ffff811681036104d05760208201526044359061ffff821682036104d05760400152565b6001600160601b038116036104d057565b81601f820112156104d057803590610e8e826104a8565b92610e9c6040519485610467565b82845260208085019360061b830101918183116104d057602001925b828410610ec6575050505090565b6040848303126104d05760206040918251610ee08161044c565b8635610eeb816104bf565b815282870135610efa81610e66565b83820152815201930192610eb8565b346104d05760c03660031901126104d057610f2336610e16565b606435610f2f81610e66565b6084356001600160401b0381116104d057610f4e903690600401610e77565b60a43592610f5b846106c6565b610f6361394b565b60965460ff1692610f726150a7565b60ff841691610f8360c08410613f4d565b610faa610f9a610f9560965460ff1690565b613f63565b60ff1660ff196096541617609655565b610fb481866142e0565b610fbc613f75565b94610fc78551612ad9565b965f5b86518110156110045780610ffe610ff4610fe66001948b612aa3565b51516001600160a01b031690565b6105d0838d612aa3565b01610fca565b508688969596611012610488565b63ffffffff8916815290602082015261102a82612a96565b5261103481612a96565b5060a1546001600160a01b037f000000000000000000000000000000000000000000000000000000000000000081169116813b156104d057604051630130fc2760e51b8152925f918491829161108e919060048401613fc2565b038183855af190811561079e576004926020926112c9575b506110b1600161345e565b6110bb600161345e565b604051632981eb7760e01b815292839182905afa90811561079e576110f79163ffffffff915f9161129a575b501663ffffffff8316111561407d565b7f00000000000000000000000000000000000000000000000000000000000000006001600160a01b0316803b156104d0575f6040518092630662d3e160e51b825281838161114b8c898d8c600486016140e4565b03925af1801561079e57611286575b507f00000000000000000000000000000000000000000000000000000000000000006001600160a01b0316803b156104d05760405163136ca0f960e11b815260ff84166004820152905f908290602490829084905af1801561079e57611272575b507f00000000000000000000000000000000000000000000000000000000000000006001600160a01b0316803b156104d05760405163136ca0f960e11b815260ff9390931660048401525f908390602490829084905af1801561079e577fa34835bc2b673ec37fcf1591a91295b163fc2e181e4ea4e733beb27de1ceac4c9561125393600192611258575b5060405195869586614141565b0390a2005b806112665f61126c93610467565b806107a3565b88611246565b806112665f61128093610467565b866111bb565b806112665f61129493610467565b8661115a565b6112bc915060203d6020116112c2575b6112b48183610467565b810190612e38565b896110e7565b503d6112aa565b806112665f6112d793610467565b896110a6565b9181601f840112156104d0578235916001600160401b0383116104d057602083818601950101116104d057565b346104d05760403660031901126104d0576004356001600160401b0381116104d057366023820112156104d0578060040135611345816104a8565b916113536040519384610467565b8183526024602084019260051b820101903682116104d05760248101925b8284106113a157602435856001600160401b0382116104d05761139b61069a9236906004016112dd565b91612c0a565b83356001600160401b0381116104d0576020916113c58392602436918701016104d4565b815201930192611371565b346104d05760a03660031901126104d0576004356113ed816104bf565b6114616024356113fc816104bf565b604435611408816104bf565b6064359060843592611419846104bf565b5f549561144760ff600889901c1615611431565b1590565b809881996114db575b81156114bb575b50612e8f565b86611458600160ff195f5416175f55565b6114a457612f16565b61146757005b61147561ff00195f54165f55565b604051600181527f7f26b83ff96e1f2b6a682f133852f6798a09c465da95921460cefb384740249890602090a1005b6114b661010061ff00195f5416175f55565b612f16565b303b159150816114cd575b505f611441565b60ff1660011490505f6114c6565b600160ff821610915061143a565b805180835260209291819084018484015e5f828201840152601f01601f1916010190565b346104d0575f3660031901126104d05761076b611528612ef2565b6040519182916020835260208301906114e9565b634e487b7160e01b5f52602160045260245ffd5b600311156108b257565b9060038210156108b25752565b8151815260209182015160408201939261049792019061155a565b346104d05760203660031901126104d05760043561159f816104bf565b6115a7612bf2565b5060018060a01b03165f52609960205260405f2060ff6001604051926115cc8461044c565b805484520154169060038210156108b25761076b91602082015260405191829182611567565b346104d0575f3660031901126104d05760405163237dfb4760e11b81523360048201526020816024817f00000000000000000000000000000000000000000000000000000000000000006001600160a01b03165afa801561079e5761165d915f91610a0b5750612b7d565b61069a6139a3565b346104d05760203660031901126104d0576020600160ff611684610b08565b161b806001541614604051908152f35b346104d05760803660031901126104d0576116ad610b08565b60603660231901126104d0576040516116c58161042c565b6024356116d1816106c6565b815260443561ffff811681036104d057602082015260643561ffff811681036104d057604082015261170161394b565b60ff6096541660ff8316101561171a5761069a916142e0565b637310cff560e11b5f5260045ffd5b346104d0575f3660031901126104d0576020600154604051908152f35b346104d0575f3660031901126104d0576040517f00000000000000000000000000000000000000000000000000000000000000006001600160a01b03168152602090f35b346104d0575f3660031901126104d0576040517f00000000000000000000000000000000000000000000000000000000000000006001600160a01b03168152602090f35b346104d05760403660031901126104d0576004356117eb816104bf565b6024356001600160401b0381116104d05761180a903690600401610826565b609e546001600160a01b0316330361183f576001600160a01b0382165f908152609f6020526040902042905561069a91614383565b6376d8ab1760e11b5f5260045ffd5b346104d0575f3660031901126104d05761186661394b565b606480546001600160a01b031981169091555f906001600160a01b03167f8be0079c531659141344cd1fd0a4f28419497f9722a3daafe3b4186f6b6457e08280a3005b346104d0575f3660031901126104d0576118c161394b565b61010060fc546118d760ff8260081c161561309e565b61ff0019161760fc557f0fc3c0e6f8b4795f371e19de7f4c5733dd9e549fa8c39e5842eb66c31572d99e5f80a1005b346104d05760203660031901126104d057602061192d600435611928816104bf565b6130b4565b604051908152f35b346104d0575f3660031901126104d057602060ff60fc54166040519015158152f35b346104d05760a03660031901126104d05761197136610e16565b60643561197d81610e66565b6084356001600160401b0381116104d05761199c903690600401610e77565b6119a461394b565b60965460ff166119b26150a7565b60ff8116906119c360c08310613f4d565b6119d5610f9a610f9560965460ff1690565b6119df85826142e0565b6119e7613f75565b936119f28451612ad9565b955f5b8551811015611a215780611a1b611a11610fe66001948a612aa3565b6105d0838c612aa3565b016119f5565b50848688611a2d610488565b63ffffffff88168152906020820152611a4582612a96565b52611a4f81612a96565b5060a1546001600160a01b037f0000000000000000000000000000000000000000000000000000000000000000811692911690823b156104d057611aac925f9283604051809681958294630130fc2760e51b845260048401613fc2565b03925af1801561079e57611c56575b50611ac55f61345e565b7f00000000000000000000000000000000000000000000000000000000000000006001600160a01b0316803b156104d0575f6040518092633aea0b9d60e11b8252818381611b18888b8d60048501614119565b03925af1801561079e57611c42575b507f00000000000000000000000000000000000000000000000000000000000000006001600160a01b0316803b156104d05760405163136ca0f960e11b815260ff86166004820152905f908290602490829084905af1801561079e57611c2e575b507f00000000000000000000000000000000000000000000000000000000000000006001600160a01b0316803b156104d05760405163136ca0f960e11b815260ff9590951660048601525f908590602490829084905af193841561079e575f6112539281927fa34835bc2b673ec37fcf1591a91295b163fc2e181e4ea4e733beb27de1ceac4c97611c20575060405195869586614141565b806112668461126c93610467565b806112665f611c3c93610467565b85611b88565b806112665f611c5093610467565b85611b27565b806112665f611c6493610467565b85611abb565b929391611c8c611c9a92600f60f81b865260e0602087015260e08601906114e9565b9084820360408601526114e9565b92606083015260018060a01b031660808201525f60a082015260c0818303910152602080835192838152019201905f5b818110611cd75750505090565b8251845260209384019390920191600101611cca565b346104d0575f3660031901126104d05760c8541580611d85575b15611d4857611d146144bb565b611d1c614570565b9061076b604051611d2e602082610467565b5f8082523660208301376040519384933091469186611c6a565b60405162461bcd60e51b81526020600482015260156024820152741152540dcc4c8e88155b9a5b9a5d1a585b1a5e9959605a1b6044820152606490fd5b5060c95415611d07565b81601f820112156104d057803590611da6826104a8565b92611db46040519485610467565b82845260208085019360061b830101918183116104d057602001925b828410611dde575050505090565b6040848303126104d05760206040918251611df88161044c565b611e0187610b18565b815282870135611e10816104bf565b83820152815201930192611dd0565b346104d05760a03660031901126104d057600435611e3c816104bf565b60243590604435906001600160401b0382116104d057602092611e6661192d933690600401611d8f565b6064359160843593613107565b346104d05760203660031901126104d0576020611e91600435613537565b6040516001600160c01b039091168152f35b346104d0575f3660031901126104d0576040517f00000000000000000000000000000000000000000000000000000000000000006001600160a01b03168152602090f35b346104d0575f3660031901126104d0576064546040516001600160a01b039091168152602090f35b346104d0575f3660031901126104d057602060ff60965416604051908152f35b91908260409103126104d057604051611f478161044c565b6020808294803584520135910152565b9080601f830112156104d05760405191611f72604084610467565b8290604081019283116104d057905b828210611f8e5750505090565b8135815260209182019101611f81565b906101006043198301126104d05760405191611fb98361042c565b82611fc5826044611f2f565b8152611fd2826084611f2f565b6020820152608060c3198301126104d05760409061200a825193611ff58561044c565b6120008160c4611f57565b8552610104611f57565b60208401520152565b808203929161010084126104d05760405161202d8161042c565b6080819561203b8486611f2f565b835261204a8460408701611f2f565b6020840152607f1901126104d05761200a60409260c084519561206c8761044c565b6120798360808301611f57565b875201611f57565b9190916060818403126104d0576040519061209b8261042c565b81938135916001600160401b0383116104d0576120be6040939284938301610826565b8452602081013560208501520135910152565b346104d0576101a03660031901126104d0576004356001600160401b0381116104d0576121029036906004016112dd565b906024356001600160401b0381116104d057612122903690600401610826565b61212b36611f9e565b610144356001600160401b0381116104d05761214b903690600401611d8f565b90610164356001600160401b0381116104d05761216c903690600401612081565b9261018435956001600160401b0387116104d05761219161069a973690600401612081565b956131c2565b346104d0575f3660031901126104d0576040517f00000000000000000000000000000000000000000000000000000000000000006001600160a01b03168152602090f35b346104d0575f3660031901126104d05760206040517f2bd82124057f0913bc3b772ce7b83e8057c1ad1f3510fc83778be20f10ec5de68152f35b346104d05760203660031901126104d0576020612249612233610b08565b61223b61351f565b60ff600192161c1660011490565b6040519015158152f35b346104d0576101603660031901126104d0576004356001600160401b0381116104d057612284903690600401610826565b6024356001600160401b0381116104d0576122a3903690600401610826565b6122ac36611f9e565b610144356001600160401b0381116104d0576001926122d2612357923690600401612081565b946122e361057c6001808054161490565b6122fe6122f961142d60fc5460ff9060081c1690565b61309e565b61232061231b61230d8361461b565b61231561351f565b81161490565b6132c3565b335f908152609960205260409020612351906123419087905b015460ff1690565b9461234b86611550565b336146c9565b33614a91565b500361235f57005b7f00000000000000000000000000000000000000000000000000000000000000006001600160a01b0316803b156104d057604051639926ee7d60e01b8152915f9183918290849082906123b69033600484016132d9565b03925af1801561079e576123c657005b806112665f61069a93610467565b346104d05760203660031901126104d05761069a6004356123f4816104bf565b6123fc61394b565b614282565b346104d0575f3660031901126104d057602060a054604051908152f35b346104d05760203660031901126104d057602060043561243d816104bf565b60a1546040516001600160a01b0392831691909216148152f35b60206040818301928281528451809452019201905f5b81811061247a5750505090565b825163ffffffff1684526020938401939092019160010161246d565b346104d05760403660031901126104d0576004356124b3816106c6565b602435906001600160401b0382116104d057366023830112156104d0578160040135916124df836104a8565b926124ed6040519485610467565b8084526024602085019160051b830101913683116104d057602401905b82821061252a5761076b61251e86866133a6565b60405191829182612457565b813581526020918201910161250a565b346104d05760803660031901126104d057600435612557816104bf565b602435612563816104bf565b6044356001600160401b0381116104d057612582903690600401610c8d565b6064356001600160401b0381116104d057610d77916125a86125c39236906004016112dd565b9390946125b3613ac5565b610d6161057c6001808054161490565b90820192610140838503126104d0576125db83613451565b9060208401356001600160401b0381116104d057856125fb918601610826565b9361261261260c8760408401612013565b836146c9565b9261261c8161345e565b8061262d57505061069a9450614a91565b8061263f60019297959796949661345e565b0361265d5761069a9561265191613468565b979350959150506147cb565b63354bb8ab60e01b5f5260045ffd5b346104d0575f3660031901126104d05760206040517f4d404e3276e7ac2163d8ee476afa6a41d1f68fb71f2d8b6546b24e55ce01b72a8152f35b346104d05760203660031901126104d0576004356001600160401b0381116104d0576126d961069a913690600401610826565b6126ea61057c600280600154161490565b6127066126f68261461b565b6126fe61351f565b8116146132c3565b33613b9e565b346104d0575f3660031901126104d0576040517f00000000000000000000000000000000000000000000000000000000000000006001600160a01b03168152602090f35b346104d0575f3660031901126104d05760a1546040516001600160a01b039091168152602090f35b61049790929192606081019361ffff6040809263ffffffff8151168552826020820151166020860152015116910152565b346104d05760203660031901126104d05760ff6127c4610b08565b6127cc612ba9565b50165f52609760205261076b60405f2061ffff604051916127ec8361042c565b5463ffffffff81168352818160201c16602084015260301c16604082015260405191829182612778565b346104d0575f3660031901126104d057602060ff60fc5460081c166040519015158152f35b346104d0575f3660031901126104d0576040517f00000000000000000000000000000000000000000000000000000000000000006001600160a01b03168152602090f35b346104d0575f3660031901126104d057602061192d61351f565b346104d05760203660031901126104d0576004356128b6816104bf565b6128be61394b565b6001600160a01b038116156128d65761069a9061423a565b60405162461bcd60e51b815260206004820152602660248201527f4f776e61626c653a206e6577206f776e657220697320746865207a65726f206160448201526564647265737360d01b6064820152608490fd5b346104d0575f3660031901126104d057602061192d61561c565b346104d05760203660031901126104d05760043560405163755b36bd60e11b81526020816004817f00000000000000000000000000000000000000000000000000000000000000006001600160a01b03165afa90811561079e575f91612a07575b506001600160a01b031633036129f8576129c6600154198219811614612b93565b806001556040519081527f3582d1828e26bf56bd801502bc021ac0bc8afb57c826e4986b45593c8fad389c60203392a2005b63794821ff60e01b5f5260045ffd5b612a20915060203d602011610c2c57610c1e8183610467565b5f6129a5565b346104d05760203660031901126104d057600435612a43816104bf565b60018060a01b03165f526099602052602060ff600160405f20015416610e14604051809261155a565b15612a7357565b63840a48d560e01b5f5260045ffd5b634e487b7160e01b5f52603260045260245ffd5b805115610b035760200190565b8051821015610b035760209160051b010190565b60408051909190612ac88382610467565b6001815291601f1901366020840137565b90612ae3826104a8565b612af06040519182610467565b8281528092612b01601f19916104a8565b0190602036910137565b908151811015610b03570160200190565b908160209103126104d057516001600160c01b03811681036104d05790565b6040513d5f823e3d90fd5b15612b4d57565b63aba4733960e01b5f5260045ffd5b519081151582036104d057565b908160209103126104d05761084190612b5c565b15612b8457565b631d77d47760e21b5f5260045ffd5b15612b9a57565b63c61dca5d60e01b5f5260045ffd5b60405190612bb68261042c565b5f6040838281528260208201520152565b908160209103126104d05751610841816104bf565b15612be357565b6366e565df60e01b5f5260045ffd5b60405190612bff8261044c565b5f6020838281520152565b9190612c1d61057c600480600154161490565b612c3c612c2c60965460ff1690565b612c373685856107f0565b6141af565b50612c4982845114612e16565b5f917f00000000000000000000000000000000000000000000000000000000000000006001600160a01b03165b818410612c84575050505050565b612ca8610675612c9a86858798999a9697612e2c565b356001600160f81b03191690565b91612cb38688612aa3565b5180516040516379a0849160e11b815260ff8616600482015291939190602082602481865afa91821561079e57612cf99263ffffffff915f91612df8575b501614612e4d565b612d038351612ad9565b955f985f995b85518b1015612d865788612d7e600192612d69612d648f61223b61063461062e8f938f6105ba82612d3992612aa3565b6001600160a01b0381165f908152609960205260409020909a9054612d5e8383612aa3565b52612aa3565b612e63565b838060a01b0316838060a01b03831611612e79565b9a0199612d09565b509594809298939950612d9c9197600195613794565b43612db28260ff165f52609b60205260405f2090565b557f46077d55330763f16269fd75e5761663f4192d2791747c0189b16ad31db07db460ff60405192169180612dec43829190602083019252565b0390a201929193612c76565b612e10915060203d81116112c2576112b48183610467565b5f612cf1565b15612e1d57565b63aaad13f760e01b5f5260045ffd5b90821015610b03570190565b908160209103126104d05751610841816106c6565b15612e5457565b638e5aeee760e01b5f5260045ffd5b15612e6a57565b63d053aa2160e01b5f5260045ffd5b15612e8057565b63ba50f91160e01b5f5260045ffd5b15612e9657565b60405162461bcd60e51b815260206004820152602e60248201527f496e697469616c697a61626c653a20636f6e747261637420697320616c72656160448201526d191e481a5b9a5d1a585b1a5e995960921b6064820152608490fd5b60405190612f01604083610467565b600682526576302e302e3160d01b6020830152565b929192604051612f27604082610467565b601681527520ab29a932b3b4b9ba393ca1b7b7b93234b730ba37b960511b6020820152612f52612ef2565b90612f6c60ff5f5460081c16612f67816141da565b6141da565b8051906001600160401b03821161044757612f9182612f8c60ca54614483565b615108565b602090601f831160011461300357610c8894612fe16123fc9895612fd986610a06976104979e9d9b97610c5b975f92612ff8575b50508160011b915f199060031b1c19161790565b60ca556151a7565b612fea5f60c855565b612ff35f60c955565b61423a565b015190505f80612fc5565b60ca5f52601f19831691907f42d72674974f694b5f5159593243114d38a5c39c89d6b62fee061ff523240ee1925f5b81811061308657506123fc98956001866104979d9c9a96610c5b96610c889b96610a069a612fe1971061306e575b505050811b0160ca556151a7565b01515f1960f88460031b161c191690555f8080613060565b92936020600181928786015181550195019301613032565b156130a557565b6321fa91f360e01b5f5260045ffd5b6108419060405160208101917f2bd82124057f0913bc3b772ce7b83e8057c1ad1f3510fc83778be20f10ec5de6835260018060a01b03166040820152604081526130ff606082610467565b51902061445d565b919493909260405192602084019460e08501917f4d404e3276e7ac2163d8ee476afa6a41d1f68fb71f2d8b6546b24e55ce01b72a875260018060a01b03166040860152606085015260c060808501528651809152602061010085019701905f5b8181106131945750505061084194956130ff92849260a084015260c083015203601f198101835282610467565b8251805160ff168a526020908101516001600160a01b0316818b015260409099019890920191600101613167565b9161324593949161323e600197946131e061057c6001808054161490565b6131f66122f961142d60fc5460ff9060081c1690565b61320f61231b61230d61320a3687866107f0565b61461b565b335f9081526099602052604090206132369061322c908b90612339565b9861234b8a611550565b9236916107f0565b90336147cb565b0361324d5750565b7f00000000000000000000000000000000000000000000000000000000000000006001600160a01b0316803b156104d057604051639926ee7d60e01b8152915f9183918290849082906132a49033600484016132d9565b03925af1801561079e576132b55750565b806112665f61049793610467565b156132ca57565b63afaa70ef60e01b5f5260045ffd5b9060018060a01b031681526040602082015260806040613304845160608386015260a08501906114e9565b9360208101516060850152015191015290565b6108419061223b61351f565b6020818303126104d0578051906001600160401b0382116104d057019080601f830112156104d0578151613356816104a8565b926133646040519485610467565b81845260208085019260051b8201019283116104d057602001905b82821061338c5750505090565b60208091835161339b816106c6565b81520191019061337f565b604051918291630449895d60e31b835263ffffffff6064840191609860048601521660248401526060604484015281518091526020608484019201905f5b8181106134385750505090805f92038173__$16e6d8f39d2650a6c0713d1f187d9aa2cf$__5af490811561079e575f9161341c575090565b61084191503d805f833e6134308183610467565b810190613323565b82518452859450602093840193909201916001016133e4565b359060028210156104d057565b600211156108b257565b919091610180818403126104d05761347f81613451565b9260208201356001600160401b0381116104d0578161349f918401610826565b926134ad8260408501612013565b926101408101356001600160401b0381116104d057836134ce918301611d8f565b926101608201356001600160401b0381116104d0576108419201612081565b906040516134fa8161042c565b604061ffff82945463ffffffff81168452818160201c16602085015260301c16910152565b60ff60fc541661353157610841614f95565b60fd5490565b60405190631a3894e960e01b825260986004830152602482015260208160448173__$16e6d8f39d2650a6c0713d1f187d9aa2cf$__5af490811561079e575f9161357f575090565b610841915060203d602011610797576107898183610467565b906135a2826107d5565b6135af6040519182610467565b8281528092612b01601f19916107d5565b634e487b7160e01b5f52601160045260245ffd5b5f1981146135e25760010190565b6135c0565b5f81805b61366157506135fd9061ffff16613598565b5f5f5b8251821080613656575b1561364f576001811b8416613628575b613623906135d4565b613600565b9060016136239160ff60f81b8460f81b165f1a6136458287612b0b565b530191905061361a565b5050905090565b50610100811061360a565b5f1981018181116135e25761ffff9116911661ffff81146135e25760010190806135eb565b6020818303126104d0578051906001600160401b0382116104d057019080601f830112156104d05781516136b9816104a8565b926136c76040519485610467565b81845260208085019260051b8201019283116104d057602001905b8282106136ef5750505090565b602080916136fc84612b5c565b8152019101906136e2565b93929190606085016060865281518091526020608087019201905f5b818110613775575050508481036020860152602080835192838152019201905f5b81811061375f575050509060406104979294019060ff169052565b8251845260209384019390920191600101613744565b82516001600160a01b0316845260209384019390920191600101613723565b905f6137db94936137a3612ab7565b9260f882901b6001600160f81b031916831a6137be85612a96565b53604051636c3fb4bf60e01b815296879283928760048501613707565b0381837f00000000000000000000000000000000000000000000000000000000000000006001600160a01b03165af193841561079e575f94613867575b505f5b8251811015613860578061383a61383460019388612aa3565b51151590565b613845575b0161381b565b61385b836138566105ba8488612aa3565b614383565b61383f565b5050509050565b6138849194503d805f833e61387c8183610467565b810190613686565b925f613818565b907f00000000000000000000000000000000000000000000000000000000000000006001600160a01b031690813b156104d0575f60405180936378219b3f60e11b8252856004830152604060248301528183816138eb60448201886114e9565b03925af190811561079e577fec2963ab21c1e50e1e582aa542af2e4bf7bf38e6e1403c27b42e1c5d6e621eaa926139369261393b575b506040519182916020835260208301906114e9565b0390a2565b5f61394591610467565b5f613921565b6064546001600160a01b0316330361395f57565b606460405162461bcd60e51b815260206004820152602060248201527f4f776e61626c653a2063616c6c6572206973206e6f7420746865206f776e65726044820152fd5b5f196001556040515f1981527fab40a374bc51de372200a8bc981af8c9ecdc08dfdaef0bb6e09f88f3c616ef3d60203392a2565b806001556040519081527fab40a374bc51de372200a8bc981af8c9ecdc08dfdaef0bb6e09f88f3c616ef3d60203392a2565b609d54604080516001600160a01b038084168252841660208201529192917f315457d8a8fe60f04af17c16e2f5a5e1db612b31648e58030360759ef8f3528c9190a16001600160a01b03166001600160a01b03199190911617609d55565b609e54604080516001600160a01b038084168252841660208201529192917f8f30ab09f43a6c157d7fce7e0a13c003042c1c95e8a72e7a146a21c0caa24dc99190a16001600160a01b03166001600160a01b03199190911617609e55565b7f00000000000000000000000000000000000000000000000000000000000000006001600160a01b03163303613af757565b6323d871a560e01b5f5260045ffd5b90613b118251613598565b5f5b8351811015613b4a576001906001600160f81b0319613b328287612aa3565b5160f81b165f1a613b438285612b0b565b5301613b13565b509150565b15613b5657565b6368b6a87560e11b5f5260045ffd5b6001600160a01b039091168152604060208201819052610841929101906114e9565b6040906108419392815281602082015201906114e9565b6001600160a01b0381165f90815260996020526040902090613c32825492613be66001613bd781613bce88613537565b94015460ff1690565b613be081611550565b14612b46565b613c01610634610634613bfb60965460ff1690565b886141af565b90613c0d821515613b4f565b613c238282166001600160c01b03168314612e63565b9019166001600160c01b031690565b91613c3d8382614fac565b6001600160c01b03831615613dbc575b7f00000000000000000000000000000000000000000000000000000000000000006001600160a01b0316803b156104d0575f604051809263f4e24fe560e01b8252818381613c9f8b8a60048401613b65565b03925af1801561079e57613da8575b507f00000000000000000000000000000000000000000000000000000000000000006001600160a01b0316803b156104d0575f604051809263bd29b8cd60e01b8252818381613d018b8960048401613b87565b03925af1801561079e57613d94575b507f00000000000000000000000000000000000000000000000000000000000000006001600160a01b031693843b156104d057613d66945f928360405180988195829463bd29b8cd60e01b845260048401613b87565b03925af192831561079e5761049793613d80575b50615016565b806112665f613d8e93610467565b5f613d7a565b806112665f613da293610467565b5f613d10565b806112665f613db693610467565b5f613cae565b6001600160a01b0382165f908152609960205260409020613de790600101805460ff19166002179055565b806001600160a01b0383167f396fdcb180cb0fea26928113fb0fd1c3549863f9cd563e6a184f1d578116c8e45f80a3613c4d565b634e487b7160e01b5f52601260045260245ffd5b5f5160206158365f395f51905f5290613e46612bf2565b505f919006602060c0835b613f46575f935f5160206158365f395f51905f5260038186818180090908604051613e7c8582610467565b84368237848185604051613e908282610467565b813682378381528360208201528360408201528560608201527f0c19139cb84c680a6e14116da060561765e05aa45a1c72a34f082305b61f3f5260808201525f5160206158365f395f51905f5260a082015260056107cf195a01fa8015613f4b57613efa90615683565b5191613f46575f5160206158365f395f51905f5282800914613f3157505f5160206158365f395f51905f5260015f94089293613e51565b92935050613f3d610488565b92835282015290565b613e1b565bfe5b15613f5457565b633cb89c9760e01b5f5260045ffd5b60ff60019116019060ff82116135e257565b60408051909190613f868382610467565b6001815291601f1901825f5b828110613f9e57505050565b602090604051613fad8161044c565b5f815260608382015282828501015201613f92565b90604082019060018060a01b031682526040602083015282518091526060820191602060608360051b8301019401925f915b83831061400357505050505090565b9091929394605f1982820301835285516020606081604085019363ffffffff81511686520151936040838201528451809452019201905f905b80821061405b5750505060208060019297019301930191939290613ff4565b82516001600160a01b031684526020938401939092019160019091019061403c565b1561408457565b630bd441b960e21b5f5260045ffd5b90602080835192838152019201905f5b8181106140b05750505090565b825180516001600160a01b031685526020908101516001600160601b031681860152604090940193909201916001016140a3565b9061084194936001600160601b0360809460ff63ffffffff941685521660208401521660408201528160608201520190614093565b6001600160601b03610841949360ff6060941683521660208201528160408201520190614093565b9395949060c0936001600160601b0363ffffffff946141838861419a9561ffff6040809263ffffffff8151168552826020820151166020860152015116910152565b16606087015260e0608087015260e0860190614093565b956141a48161345e565b60a085015216910152565b9060016141bd60ff9361461b565b928392161b11156141cb5790565b63ca95733360e01b5f5260045ffd5b156141e157565b60405162461bcd60e51b815260206004820152602b60248201527f496e697469616c697a61626c653a20636f6e7472616374206973206e6f74206960448201526a6e697469616c697a696e6760a81b6064820152608490fd5b606480546001600160a01b039283166001600160a01b0319821681179092559091167f8be0079c531659141344cd1fd0a4f28419497f9722a3daafe3b4186f6b6457e05f80a3565b60a154604080516001600160a01b038084168252841660208201529192917f9770f3cadfdcbb6f93af935e86047111590c3768271d237e4a2bc0b874bed6939190a16001600160a01b03166001600160a01b0319919091161760a155565b60ff7f3ee6fe8d54610244c3e9d3c066ae4aee997884aa28f10616ae821925401318ac911691825f52609760205260405f2063ffffffff82511681549065ffff00000000602085015160201b169067ffff000000000000604086015160301b16926001600160401b0319161717179055604051809161393682606081019261ffff6040809263ffffffff8151168552826020820151166020860152015116910152565b6001600160a01b0381165f90815260996020526040902091929160016143c4816143bb6106346143b560965460ff1690565b896141af565b93015460ff1690565b6143cd81611550565b14908161444a575b506143df57509050565b6143e7612ab7565b5f5b8451811015613860578061440261066760019388612b0b565b5f1a61440d84612a96565b53614426614421610675610667848a612b0b565b613317565b1561443b576144358385613b9e565b016143e9565b614445838561527e565b614435565b6001600160c01b0316151590505f6143d5565b60429061446861561c565b906040519161190160f01b8352600283015260228201522090565b90600182811c921680156144b1575b602083101461449d57565b634e487b7160e01b5f52602260045260245ffd5b91607f1691614492565b604051905f8260ca54916144ce83614483565b808352926001811690811561455157506001146144f2575b61049792500383610467565b5060ca5f90815290917f42d72674974f694b5f5159593243114d38a5c39c89d6b62fee061ff523240ee15b818310614535575050906020610497928201016144e6565b602091935080600191548385890101520191019091849261451d565b6020925061049794915060ff191682840152151560051b8201016144e6565b604051905f8260cb549161458383614483565b808352926001811690811561455157506001146145a65761049792500383610467565b5060cb5f90815290917fa7ce836d032b2bf62b7e2097a8e0a6d8aeb35405ad15271e96d3b0188a1d06fb5b8183106145e9575050906020610497928201016144e6565b60209193508060019154838589010152019101909184926145d1565b1561460c57565b631019106960e31b5f5260045ffd5b906101008251116146845781511561467f57602082015160019060f81c81901b5b835182101561467a5760019061466561465b6106756106678689612b0b565b60ff600191161b90565b90614671818311614605565b1791019061463c565b925050565b5f9150565b637da54e4760e11b5f5260045ffd5b908160209103126104d0575190565b905f905b600282106146b357505050565b60208060019285518152019301910190916146a6565b9061475d906146d6612bf2565b50614749602060406146ea610df9876130b4565b81516301e2d35b60e11b81526001600160a01b039097166004880152845180516024890152602001516044880152938083015180516064890152602001516084880152015161473d60a4870182516146a2565b015160e48501906146a2565b805161012484015260200151610144830152565b602081610164815f7f00000000000000000000000000000000000000000000000000000000000000006001600160a01b03165af190811561079e575f916147a2575090565b610841915060203d6020116147c4575b6147bc8183610467565b810190614693565b503d6147b2565b94918093916147ec6147f2946147e48851855114612e16565b87838a615361565b86614d9f565b5f5b8251811015614910578061482c61482761481661067561066760019689612b0b565b60ff165f52609760205260405f2090565b6134ed565b61484461483a838651612aa3565b5163ffffffff1690565b63ffffffff61486361485a845163ffffffff1690565b63ffffffff1690565b911611614872575b50016147f4565b6148c8906148866106756106678589612b0b565b6148a4614897856040890151612aa3565b516001600160601b031690565b896148b66148978760208b0151612aa3565b916148c1878c612aa3565b519361549f565b61490a6148d3612ab7565b6148e06106678488612b0b565b5f1a6148eb82612a96565b5361385660206148fb858a612aa3565b5101516001600160a01b031690565b5f61486b565b5050505050565b604051906149248261042c565b60606040838281528260208201520152565b1561493d57565b6313ca465760e01b5f5260045ffd5b1561495357565b630c6816cd60e01b5f5260045ffd5b919082018092116135e257565b1561497657565b631968677d60e11b5f5260045ffd5b6001602091835181550191015160038110156108b25760ff80198354169116179055565b9080601f830112156104d05781516149c0816104a8565b926149ce6040519485610467565b81845260208085019260051b8201019283116104d057602001905b8282106149f65750505090565b602080918351614a0581610e66565b8152019101906149e9565b9190916040818403126104d05780516001600160401b0381116104d05783614a399183016149a9565b9260208201516001600160401b0381116104d05761084192016149a9565b610841939260609260018060a01b03168252602082015281604082015201906114e9565b15614a8257565b63c6b9e76760e01b5f5260045ffd5b614b29614a9c614917565b94614b23614ab2610634613bfb60965460ff1690565b614abb86613537565b6001600160c01b0390911690614ad2821515614936565b60018060c01b0316614aec614ae78284161590565b61494c565b6001600160a01b0386165f908152609f60205260409020614b1c90614b15905460a05490614962565b421161496f565b1785614fac565b8361388b565b6001614b49816123398460018060a01b03165f52609960205260405f2090565b614b5281611550565b03614d3a575b7f00000000000000000000000000000000000000000000000000000000000000006001600160a01b0316803b156104d0575f6040518092631fd93ca960e11b8252818381614baa8a8960048401613b65565b03925af1801561079e5784925f928592614d26575b50614bde6040519485938493632550477760e01b855260048501614a57565b0381837f00000000000000000000000000000000000000000000000000000000000000006001600160a01b03165af1801561079e57614c49925f92859284918591614d02575b5060408801526020870152604051938492839262bff04d60e01b845260048401613b87565b0381837f00000000000000000000000000000000000000000000000000000000000000006001600160a01b03165af190811561079e575f91614ce8575b5082525f5b8151811015614ce35780614cdd614cb061482761481661067561066760019789612b0b565b63ffffffff614cd461485a614cc961483a878b51612aa3565b935163ffffffff1690565b91161115614a7b565b01614c8b565b505090565b614cfc91503d805f833e6134308183610467565b5f614c86565b9050614d2091503d8086833e614d188183610467565b810190614a10565b5f614c24565b8061126685614d3493610467565b5f614bbf565b614d6b614d45610488565b838152600160208201526001600160a01b0383165f908152609960205260409020614985565b816001600160a01b0382167fe8e68cef1c3a761ed7be7e8463a375f27f7bc335e51824223cacce636ec5c3fe5f80a3614b58565b614daa614a9c614917565b6001614dca816123398460018060a01b03165f52609960205260405f2090565b614dd381611550565b03614f56575b7f00000000000000000000000000000000000000000000000000000000000000006001600160a01b0316803b156104d0575f6040518092631fd93ca960e11b8252818381614e2b8a8960048401613b65565b03925af1801561079e5784925f928592614f42575b50614e5f6040519687938493632550477760e01b855260048501614a57565b0381837f00000000000000000000000000000000000000000000000000000000000000006001600160a01b03165af191821561079e57614ec9935f9384918591614f26575b5060408701526020860152604051938492839262bff04d60e01b845260048401613b87565b0381837f00000000000000000000000000000000000000000000000000000000000000006001600160a01b03165af190811561079e575f91614f0c575b50815290565b614f2091503d805f833e6134308183610467565b5f614f06565b9050614f3c91503d8086833e614d188183610467565b5f614ea4565b8061126685614f5093610467565b5f614e40565b614f61614d45610488565b816001600160a01b0382167fe8e68cef1c3a761ed7be7e8463a375f27f7bc335e51824223cacce636ec5c3fe5f80a3614dd9565b600160ff609654161b5f1981019081116135e25790565b73__$16e6d8f39d2650a6c0713d1f187d9aa2cf$__91823b156104d05760405163ae1d62db60e01b81526098600482015260248101929092526001600160c01b03166044820152905f90829060649082905af4801561079e5761500c5750565b5f61049791610467565b9061501f614f95565b9061502861351f565b1990911619166001600160c01b03161561503f5750565b7f00000000000000000000000000000000000000000000000000000000000000006001600160a01b0316803b156104d0576040516351b27a6d60e11b81526001600160a01b0390921660048301525f908290602490829084905af1801561079e5761500c5750565b60fc5460ff811615806150b8575050565b156150f9576001906150c8614f95565b60fd5560ff19161760fc557f0b88306ff4627121f5b3e5b1c5f88f6b1e42fd2c0478ef1c91662d49d1f077555f80a1565b63b2e18e0560e01b5f5260045ffd5b601f8111615114575050565b60ca5f5260205f20906020601f840160051c8301931061514e575b601f0160051c01905b818110615143575050565b5f8155600101615138565b909150819061512f565b601f821161516557505050565b5f5260205f20906020601f840160051c8301931061519d575b601f0160051c01905b818110615192575050565b5f8155600101615187565b909150819061517e565b9081516001600160401b038111610447576151ce816151c760cb54614483565b60cb615158565b602092601f8211600114615202576151fd929382915f92612ff85750508160011b915f199060031b1c19161790565b60cb55565b60cb5f52601f198216937fa7ce836d032b2bf62b7e2097a8e0a6d8aeb35405ad15271e96d3b0188a1d06fb915f5b868110615266575083600195961061524e575b505050811b0160cb55565b01515f1960f88460031b161c191690555f8080615243565b91926020600181928685015181550194019201615230565b9061528b61529a9161461b565b61529361351f565b19166135e7565b60a1546001600160a01b037f0000000000000000000000000000000000000000000000000000000000000000811692911690615304906152d9906157d8565b916152f46152e5610499565b6001600160a01b039096168652565b6001600160a01b03166020850152565b6040830152803b156104d057604051636e3492b560e01b8152915f9183918290849082906132a49060048301615699565b1561533c57565b636fbefec360e11b5f5260045ffd5b1561535257565b630819bdcd60e01b5f5260045ffd5b6153f490602085019361539261538d61142d61538688515f52609a60205260405f2090565b5460ff1690565b615335565b60408601906153a4825142111561534b565b6153c76153ba87515f52609a60205260405f2090565b805460ff19166001179055565b609d5473__$a78dad5d5fbb4a778d84dbcee850f0c805$__95906001600160a01b03169651925193613107565b925190803b156104d057615421935f93604051958694859384936311c5268f60e11b855260048501614a57565b03915af4801561079e576132b55750565b1561543957565b6356168b4160e11b5f5260045ffd5b1561544f57565b63263a721560e11b5f5260045ffd5b908160209103126104d0575161084181610e66565b1561547a57565b634c44995d60e01b5f5260045ffd5b1561549057565b63b187e86960e01b5f5260045ffd5b602091926154fc6154ef61554e9896976154e86154c48783015160018060a01b031690565b6001600160a01b039081165f81815260996020526040902054969091161415615432565b5160ff1690565b60ff808516911614612e4d565b61552361551e615512610634600160ff87161b81565b61231561063485613537565b615448565b604051635401ed2760e01b8152600481019190915260ff909116602482015294859081906044820190565b03817f00000000000000000000000000000000000000000000000000000000000000006001600160a01b03165afa92831561079e57610497945f946155d2575b50826155ca926155c56155b1936001600160601b036155bd6155b182998b615726565b6001600160601b031690565b911611615473565b615749565b911610615489565b6155b1919450926155ca926155c56156096001600160601b039660203d602011615615575b6156018183610467565b81019061545e565b9693505092509261558e565b503d6155f7565b615624615767565b61562c6157b2565b6040519060208201927f8b73c3c69bb8fe3d512ecc4cf759cc79239f7b179b0ffacaa9a75d522b39400f8452604083015260608201524660808201523060a082015260a0815261567d60c082610467565b51902090565b1561568a57565b63d51edae360e01b5f5260045ffd5b602080825282516001600160a01b039081168284015281840151166040808401919091529092015160608083015280516080830181905260a09092019201905f5b8181106156e75750505090565b825163ffffffff168452602093840193909201916001016156da565b906001600160601b03809116911602906001600160601b0382169182036135e257565b6157446001600160601b039161ffff60206127109501511690615703565b160490565b6157446001600160601b039161ffff60406127109501511690615703565b61576f6144bb565b805190811561577f576020012090565b505060c854801561578d5790565b507fc5d2460186f7233c927e7db2dcc703c0e500b653ca82273b7bfad8045d85a47090565b6157ba614570565b80519081156157ca576020012090565b505060c954801561578d5790565b9081516157e4816104a8565b906157f26040519283610467565b808252615801601f19916104a8565b013660208301375f5b8351811015613b4a578061582060019286612b0b565b5160f81c61582e8285612aa3565b520161580a56fe30644e72e131a029b85045b68181585d97816a916871ca8d3c208c16d87cfd47a26469706673582212203918cefa5694829c50d777b37414599a220ffc1901379875c5b9d19350f02b4264736f6c634300081b0033","linkReferences":{"lib/eigenlayer-middleware/src/libraries/QuorumBitmapHistoryLib.sol":{"QuorumBitmapHistoryLib":[{"start":2823,"length":20},{"start":14291,"length":20},{"start":14646,"length":20},{"start":21387,"length":20}]},"lib/eigenlayer-middleware/src/libraries/SignatureCheckerLib.sol":{"SignatureCheckerLib":[{"start":22441,"length":20}]}}},"methodIdentifiers":{"OPERATOR_CHURN_APPROVAL_TYPEHASH()":"ca0de882","PUBKEY_REGISTRATION_TYPEHASH()":"9feab859","allocationManager()":"ca8aa7c7","avs()":"de1164bb","blsApkRegistry()":"5df45946","calculateOperatorChurnApprovalDigestHash(address,bytes32,(uint8,address)[],bytes32,uint256)":"84ca5213","calculatePubkeyRegistrationMessageHash(address)":"73447992","churnApprover()":"054310e6","createSlashableStakeQuorum((uint32,uint16,uint16),uint96,(address,uint96)[],uint32)":"3eef3a51","createTotalDelegatedStakeQuorum((uint32,uint16,uint16),uint96,(address,uint96)[])":"8281ab75","deregisterOperator(address,address,uint32[])":"303ca956","deregisterOperator(bytes)":"ca4f2d97","disableM2QuorumRegistration()":"733b7507","domainSeparator()":"f698da25","eip712Domain()":"84b0196e","ejectOperator(address,bytes)":"6e3b17db","ejectionCooldown()":"a96f783e","ejector()":"28f61b31","getCurrentQuorumBitmap(bytes32)":"871ef049","getOperator(address)":"5865c60c","getOperatorFromId(bytes32)":"296bb064","getOperatorId(address)":"13542a4e","getOperatorSetParams(uint8)":"e65797ad","getOperatorStatus(address)":"fd39105a","getQuorumBitmapAtBlockNumberByIndex(bytes32,uint32,uint256)":"04ec6351","getQuorumBitmapHistoryLength(bytes32)":"03fd3492","getQuorumBitmapIndicesAtBlockNumber(uint32,bytes32[])":"c391425e","getQuorumBitmapUpdateByIndex(bytes32,uint256)":"1eb812da","indexRegistry()":"9e9923c2","initialize(address,address,address,uint256,address)":"530b97a4","isChurnApproverSaltUsed(bytes32)":"1478851f","isM2Quorum(uint8)":"a4d7871f","isM2QuorumRegistrationDisabled()":"e814ca9d","lastEjectionTimestamp(address)":"125e0584","m2QuorumBitmap()":"ec8c3a1e","operatorSetsEnabled()":"81f936d2","owner()":"8da5cb5b","pause(uint256)":"136439dd","pauseAll()":"595c6a67","paused()":"5c975abb","paused(uint8)":"5ac86ab7","pauserRegistry()":"886f1195","pubkeyRegistrationMessageHash(address)":"3c2a7f4c","quorumCount()":"9aa1653d","quorumUpdateBlockNumber(uint8)":"249a0c42","registerOperator(address,address,uint32[],bytes)":"c63fd502","registerOperator(bytes,string,((uint256,uint256),(uint256,uint256),(uint256[2],uint256[2])),(bytes,bytes32,uint256))":"a50857bf","registerOperatorWithChurn(bytes,string,((uint256,uint256),(uint256,uint256),(uint256[2],uint256[2])),(uint8,address)[],(bytes,bytes32,uint256),(bytes,bytes32,uint256))":"9b5d177b","renounceOwnership()":"715018a6","serviceManager()":"3998fdd3","setAVS(address)":"a65497c6","setChurnApprover(address)":"29d1e0c3","setEjectionCooldown(uint256)":"0d3f2134","setEjector(address)":"2cdd1e86","setOperatorSetParams(uint8,(uint32,uint16,uint16))":"5b0b829f","socketRegistry()":"ea32afae","stakeRegistry()":"68304835","supportsAVS(address)":"b5265787","transferOwnership(address)":"f2fde38b","unpause(uint256)":"fabc1cbc","updateOperators(address[])":"00cf2ab5","updateOperatorsForQuorum(address[][],bytes)":"5140a548","updateSocket(string)":"0cf4b767","version()":"54fd4d50"},"id":100}