{"abi":[{"type":"constructor","inputs":[{"name":"_slashingRegistryCoordinator","type":"address","internalType":"contract ISlashingRegistryCoordinator"}],"stateMutability":"nonpayable"},{"type":"function","name":"apkHistory","inputs":[{"name":"quorumNumber","type":"uint8","internalType":"uint8"},{"name":"","type":"uint256","internalType":"uint256"}],"outputs":[{"name":"apkHash","type":"bytes24","internalType":"bytes24"},{"name":"updateBlockNumber","type":"uint32","internalType":"uint32"},{"name":"nextUpdateBlockNumber","type":"uint32","internalType":"uint32"}],"stateMutability":"view"},{"type":"function","name":"currentApk","inputs":[{"name":"quorumNumber","type":"uint8","internalType":"uint8"}],"outputs":[{"name":"X","type":"uint256","internalType":"uint256"},{"name":"Y","type":"uint256","internalType":"uint256"}],"stateMutability":"view"},{"type":"function","name":"deregisterOperator","inputs":[{"name":"operator","type":"address","internalType":"address"},{"name":"quorumNumbers","type":"bytes","internalType":"bytes"}],"outputs":[],"stateMutability":"nonpayable"},{"type":"function","name":"getApk","inputs":[{"name":"quorumNumber","type":"uint8","internalType":"uint8"}],"outputs":[{"name":"","type":"tuple","internalType":"struct BN254.G1Point","components":[{"name":"X","type":"uint256","internalType":"uint256"},{"name":"Y","type":"uint256","internalType":"uint256"}]}],"stateMutability":"view"},{"type":"function","name":"getApkHashAtBlockNumberAndIndex","inputs":[{"name":"quorumNumber","type":"uint8","internalType":"uint8"},{"name":"blockNumber","type":"uint32","internalType":"uint32"},{"name":"index","type":"uint256","internalType":"uint256"}],"outputs":[{"name":"","type":"bytes24","internalType":"bytes24"}],"stateMutability":"view"},{"type":"function","name":"getApkHistoryLength","inputs":[{"name":"quorumNumber","type":"uint8","internalType":"uint8"}],"outputs":[{"name":"","type":"uint32","internalType":"uint32"}],"stateMutability":"view"},{"type":"function","name":"getApkIndicesAtBlockNumber","inputs":[{"name":"quorumNumbers","type":"bytes","internalType":"bytes"},{"name":"blockNumber","type":"uint256","internalType":"uint256"}],"outputs":[{"name":"","type":"uint32[]","internalType":"uint32[]"}],"stateMutability":"view"},{"type":"function","name":"getApkUpdateAtIndex","inputs":[{"name":"quorumNumber","type":"uint8","internalType":"uint8"},{"name":"index","type":"uint256","internalType":"uint256"}],"outputs":[{"name":"","type":"tuple","internalType":"struct IBLSApkRegistryTypes.ApkUpdate","components":[{"name":"apkHash","type":"bytes24","internalType":"bytes24"},{"name":"updateBlockNumber","type":"uint32","internalType":"uint32"},{"name":"nextUpdateBlockNumber","type":"uint32","internalType":"uint32"}]}],"stateMutability":"view"},{"type":"function","name":"getOperatorFromPubkeyHash","inputs":[{"name":"pubkeyHash","type":"bytes32","internalType":"bytes32"}],"outputs":[{"name":"","type":"address","internalType":"address"}],"stateMutability":"view"},{"type":"function","name":"getOperatorId","inputs":[{"name":"operator","type":"address","internalType":"address"}],"outputs":[{"name":"","type":"bytes32","internalType":"bytes32"}],"stateMutability":"view"},{"type":"function","name":"getOperatorPubkeyG2","inputs":[{"name":"operator","type":"address","internalType":"address"}],"outputs":[{"name":"","type":"tuple","internalType":"struct BN254.G2Point","components":[{"name":"X","type":"uint256[2]","internalType":"uint256[2]"},{"name":"Y","type":"uint256[2]","internalType":"uint256[2]"}]}],"stateMutability":"view"},{"type":"function","name":"getOrRegisterOperatorId","inputs":[{"name":"operator","type":"address","internalType":"address"},{"name":"params","type":"tuple","internalType":"struct IBLSApkRegistryTypes.PubkeyRegistrationParams","components":[{"name":"pubkeyRegistrationSignature","type":"tuple","internalType":"struct BN254.G1Point","components":[{"name":"X","type":"uint256","internalType":"uint256"},{"name":"Y","type":"uint256","internalType":"uint256"}]},{"name":"pubkeyG1","type":"tuple","internalType":"struct BN254.G1Point","components":[{"name":"X","type":"uint256","internalType":"uint256"},{"name":"Y","type":"uint256","internalType":"uint256"}]},{"name":"pubkeyG2","type":"tuple","internalType":"struct BN254.G2Point","components":[{"name":"X","type":"uint256[2]","internalType":"uint256[2]"},{"name":"Y","type":"uint256[2]","internalType":"uint256[2]"}]}]},{"name":"pubkeyRegistrationMessageHash","type":"tuple","internalType":"struct BN254.G1Point","components":[{"name":"X","type":"uint256","internalType":"uint256"},{"name":"Y","type":"uint256","internalType":"uint256"}]}],"outputs":[{"name":"operatorId","type":"bytes32","internalType":"bytes32"}],"stateMutability":"nonpayable"},{"type":"function","name":"getRegisteredPubkey","inputs":[{"name":"operator","type":"address","internalType":"address"}],"outputs":[{"name":"","type":"tuple","internalType":"struct BN254.G1Point","components":[{"name":"X","type":"uint256","internalType":"uint256"},{"name":"Y","type":"uint256","internalType":"uint256"}]},{"name":"","type":"bytes32","internalType":"bytes32"}],"stateMutability":"view"},{"type":"function","name":"initializeQuorum","inputs":[{"name":"quorumNumber","type":"uint8","internalType":"uint8"}],"outputs":[],"stateMutability":"nonpayable"},{"type":"function","name":"operatorToPubkey","inputs":[{"name":"operator","type":"address","internalType":"address"}],"outputs":[{"name":"X","type":"uint256","internalType":"uint256"},{"name":"Y","type":"uint256","internalType":"uint256"}],"stateMutability":"view"},{"type":"function","name":"operatorToPubkeyHash","inputs":[{"name":"operator","type":"address","internalType":"address"}],"outputs":[{"name":"operatorId","type":"bytes32","internalType":"bytes32"}],"stateMutability":"view"},{"type":"function","name":"pubkeyHashToOperator","inputs":[{"name":"pubkeyHash","type":"bytes32","internalType":"bytes32"}],"outputs":[{"name":"operator","type":"address","internalType":"address"}],"stateMutability":"view"},{"type":"function","name":"registerBLSPublicKey","inputs":[{"name":"operator","type":"address","internalType":"address"},{"name":"params","type":"tuple","internalType":"struct IBLSApkRegistryTypes.PubkeyRegistrationParams","components":[{"name":"pubkeyRegistrationSignature","type":"tuple","internalType":"struct BN254.G1Point","components":[{"name":"X","type":"uint256","internalType":"uint256"},{"name":"Y","type":"uint256","internalType":"uint256"}]},{"name":"pubkeyG1","type":"tuple","internalType":"struct BN254.G1Point","components":[{"name":"X","type":"uint256","internalType":"uint256"},{"name":"Y","type":"uint256","internalType":"uint256"}]},{"name":"pubkeyG2","type":"tuple","internalType":"struct BN254.G2Point","components":[{"name":"X","type":"uint256[2]","internalType":"uint256[2]"},{"name":"Y","type":"uint256[2]","internalType":"uint256[2]"}]}]},{"name":"pubkeyRegistrationMessageHash","type":"tuple","internalType":"struct BN254.G1Point","components":[{"name":"X","type":"uint256","internalType":"uint256"},{"name":"Y","type":"uint256","internalType":"uint256"}]}],"outputs":[{"name":"operatorId","type":"bytes32","internalType":"bytes32"}],"stateMutability":"nonpayable"},{"type":"function","name":"registerOperator","inputs":[{"name":"operator","type":"address","internalType":"address"},{"name":"quorumNumbers","type":"bytes","internalType":"bytes"}],"outputs":[],"stateMutability":"nonpayable"},{"type":"function","name":"registryCoordinator","inputs":[],"outputs":[{"name":"","type":"address","internalType":"address"}],"stateMutability":"view"},{"type":"function","name":"setBLSPublicKey","inputs":[{"name":"account","type":"address","internalType":"address"},{"name":"pk","type":"tuple","internalType":"struct BN254.G1Point","components":[{"name":"X","type":"uint256","internalType":"uint256"},{"name":"Y","type":"uint256","internalType":"uint256"}]}],"outputs":[],"stateMutability":"nonpayable"},{"type":"function","name":"verifyAndRegisterG2PubkeyForOperator","inputs":[{"name":"operator","type":"address","internalType":"address"},{"name":"pubkeyG2","type":"tuple","internalType":"struct BN254.G2Point","components":[{"name":"X","type":"uint256[2]","internalType":"uint256[2]"},{"name":"Y","type":"uint256[2]","internalType":"uint256[2]"}]}],"outputs":[],"stateMutability":"nonpayable"},{"type":"event","name":"Initialized","inputs":[{"name":"version","type":"uint8","indexed":false,"internalType":"uint8"}],"anonymous":false},{"type":"event","name":"NewG2PubkeyRegistration","inputs":[{"name":"operator","type":"address","indexed":true,"internalType":"address"},{"name":"pubkeyG2","type":"tuple","indexed":false,"internalType":"struct BN254.G2Point","components":[{"name":"X","type":"uint256[2]","internalType":"uint256[2]"},{"name":"Y","type":"uint256[2]","internalType":"uint256[2]"}]}],"anonymous":false},{"type":"event","name":"NewPubkeyRegistration","inputs":[{"name":"operator","type":"address","indexed":true,"internalType":"address"},{"name":"pubkeyG1","type":"tuple","indexed":false,"internalType":"struct BN254.G1Point","components":[{"name":"X","type":"uint256","internalType":"uint256"},{"name":"Y","type":"uint256","internalType":"uint256"}]},{"name":"pubkeyG2","type":"tuple","indexed":false,"internalType":"struct BN254.G2Point","components":[{"name":"X","type":"uint256[2]","internalType":"uint256[2]"},{"name":"Y","type":"uint256[2]","internalType":"uint256[2]"}]}],"anonymous":false},{"type":"event","name":"OperatorAddedToQuorums","inputs":[{"name":"operator","type":"address","indexed":false,"internalType":"address"},{"name":"operatorId","type":"bytes32","indexed":false,"internalType":"bytes32"},{"name":"quorumNumbers","type":"bytes","indexed":false,"internalType":"bytes"}],"anonymous":false},{"type":"event","name":"OperatorRemovedFromQuorums","inputs":[{"name":"operator","type":"address","indexed":false,"internalType":"address"},{"name":"operatorId","type":"bytes32","indexed":false,"internalType":"bytes32"},{"name":"quorumNumbers","type":"bytes","indexed":false,"internalType":"bytes"}],"anonymous":false},{"type":"error","name":"BLSPubkeyAlreadyRegistered","inputs":[]},{"type":"error","name":"BlockNumberBeforeFirstUpdate","inputs":[]},{"type":"error","name":"BlockNumberNotLatest","inputs":[]},{"type":"error","name":"BlockNumberTooRecent","inputs":[]},{"type":"error","name":"ECAddFailed","inputs":[]},{"type":"error","name":"ECMulFailed","inputs":[]},{"type":"error","name":"ECPairingFailed","inputs":[]},{"type":"error","name":"G2PubkeyAlreadySet","inputs":[]},{"type":"error","name":"InvalidBLSSignatureOrPrivateKey","inputs":[]},{"type":"error","name":"OnlyRegistryCoordinator","inputs":[]},{"type":"error","name":"OnlyRegistryCoordinatorOwner","inputs":[]},{"type":"error","name":"OperatorAlreadyRegistered","inputs":[]},{"type":"error","name":"OperatorNotRegistered","inputs":[]},{"type":"error","name":"QuorumAlreadyExists","inputs":[]},{"type":"error","name":"QuorumDoesNotExist","inputs":[]},{"type":"error","name":"ZeroPubKey","inputs":[]}],"bytecode":{"object":"0x60a03461012157601f611ce538819003918201601f19168301916001600160401b038311848410176101255780849260209460405283398101031261012157516001600160a01b03811690819003610121576080525f5460ff8160081c166100cc5760ff80821603610092575b604051611bab908161013a82396080518181816107830152818161095501526115250152f35b60ff90811916175f557f7f26b83ff96e1f2b6a682f133852f6798a09c465da95921460cefb3847402498602060405160ff8152a15f61006c565b60405162461bcd60e51b815260206004820152602760248201527f496e697469616c697a61626c653a20636f6e747261637420697320696e697469604482015266616c697a696e6760c81b6064820152608490fd5b5f80fd5b634e487b7160e01b5f52604160045260245ffdfe60806040526004361015610011575f80fd5b5f3560e01c8062a1f4cb1461016957806303c5a6b61461016457806313542a4e1461011957806326d941f21461015f578063377ed99d1461015a5780633fb279521461015557806347b314e81461010f5780635f61a88414610150578063605747d51461014b578063671699111461014657806368bccaac146101415780636d14a9871461013c5780637916cea6146101375780637ff81a8714610132578063a3db80e21461012d578063bf79ce5814610128578063d1a6465014610123578063d5254a8c1461011e578063de29fac014610119578063df4d09e014610114578063e8bb9ae61461010f5763f4e24fe51461010a575f80fd5b610b8d565b610506565b610af5565b61026c565b610a38565b610916565b6108f5565b6108aa565b610865565b6107f2565b61076e565b61068f565b610648565b610594565b610532565b61047f565b61032f565b6102b7565b610217565b610183565b6001600160a01b0381160361017f57565b5f80fd5b3461017f57602036600319011261017f576004356101a08161016e565b60018060a01b03165f52600360205260405f2060018154910154906101d76040519283928360209093929193604081019481520152565b0390f35b61016060031982011261017f576004356101f48161016e565b9161010060231983011261017f57604060249261012319011261017f5761012490565b3461017f576020610227366101db565b90610230611523565b6001600160a01b0383165f90815260018552604090205492831561025a575b505050604051908152f35b6102649350610e59565b5f808061024f565b3461017f57602036600319011261017f576004356102898161016e565b60018060a01b03165f526001602052602060405f2054604051908152f35b6004359060ff8216820361017f57565b3461017f57602036600319011261017f5760ff6102d26102a7565b6102da611523565b16805f52600460205260405f2054610320575f52600460205261031e60405f206103026103da565b5f81524363ffffffff166020820152905b5f6040830152610be0565b005b6310cda51760e21b5f5260045ffd5b3461017f57602036600319011261017f5760ff61034a6102a7565b165f526004602052602063ffffffff60405f205416604051908152f35b634e487b7160e01b5f52604160045260245ffd5b6040810190811067ffffffffffffffff82111761039757604052565b610367565b6060810190811067ffffffffffffffff82111761039757604052565b90601f8019910116810190811067ffffffffffffffff82111761039757604052565b604051906103e96060836103b8565b565b906103e960405192836103b8565b90604060031983011261017f576004356104128161016e565b9160243567ffffffffffffffff811161017f578160238201121561017f5780600401359067ffffffffffffffff8211610397576040519261045d601f8401601f1916602001856103b8565b8284526024838301011161017f57815f92602460209301838601378301015290565b3461017f577f73a2b7fb844724b971802ae9b15db094d4b7192df9d7350e14eb466b9b22eb4e6104ae366103f9565b906104b7611523565b6104ca6104c382610dfa565b508361158b565b60018060a01b0381165f5260016020526104ef60405f20549260405193849384610c55565b0390a1005b602090600319011261017f5760043590565b3461017f57610514366104f4565b5f526002602052602060018060a01b0360405f205416604051908152f35b3461017f57602036600319011261017f5760ff61054d6102a7565b610555610c95565b50165f5260056020526040805f2060018251916105718361037b565b80548352015460208201526105928251809260208091805184520151910152565bf35b3461017f57604036600319011261017f576105e96105e36105b36102a7565b60ff602435915f604080516105c78161039c565b8281528260208201520152165f52600460205260405f206107dd565b50610ccb565b604051809163ffffffff6040606084019267ffffffffffffffff19815116855282602082015116602086015201511660408301520390f35b905f905b6002821061063257505050565b6020806001928551815201930191019091610625565b3461017f57602036600319011261017f57608061066f60043561066a8161016e565b610d9d565b610592602060405192610683848251610621565b01516040830190610621565b3461017f57606036600319011261017f576106a86102a7565b6024359063ffffffff821680920361017f576105e36106de9160ff6106cc60443590565b91165f52600460205260405f206107dd565b9063ffffffff602083015116811061075f57816107246107339261070c60406101d796015163ffffffff1690565b9063ffffffff82161591821561074f575b5050610de4565b5167ffffffffffffffff191690565b60405167ffffffffffffffff1990911681529081906020820190565b63ffffffff161190505f8061071d565b633d22884160e01b5f5260045ffd5b3461017f575f36600319011261017f576040517f00000000000000000000000000000000000000000000000000000000000000006001600160a01b03168152602090f35b634e487b7160e01b5f52603260045260245ffd5b8054156107d8575f5260205f20905f90565b6107b2565b80548210156107d8575f5260205f2001905f90565b3461017f57604036600319011261017f5761080b6102a7565b60ff60243591165f52600460205260405f2090815481101561017f57610830916107dd565b50546040805182821b67ffffffffffffffff1916815260c083901c63ffffffff16602082015260e09290921c90820152606090f35b3461017f57602036600319011261017f57606061088c6004356108878161016e565b610dfa565b6108a3604051809360208091805184520151910152565b6040820152f35b3461017f57602036600319011261017f5760ff6108c56102a7565b165f52600560205260405f2060018154910154906101d76040519283928360209093929193604081019481520152565b3461017f57602061090e610908366101db565b91610e59565b604051908152f35b3461017f5760a036600319011261017f576004356109338161016e565b608036602319011261017f57604051638da5cb5b60e01b8152906020826004817f00000000000000000000000000000000000000000000000000000000000000006001600160a01b03165afa9182156109ee575f926109ab575b5061031e916109a6906001600160a01b03163314611a89565b61126a565b91506020823d6020116109e6575b816109c6602093836103b8565b8101031261017f576109a661031e92516109df8161016e565b925061098d565b3d91506109b9565b6040513d5f823e3d90fd5b60206040818301928281528451809452019201905f5b818110610a1c5750505090565b825163ffffffff16845260209384019390920191600101610a0f565b3461017f57604036600319011261017f5760043567ffffffffffffffff811161017f573660238201121561017f57806004013567ffffffffffffffff811161017f57366024828401011161017f576101d791610a99916024803592016113e6565b604051918291826109f9565b604090602319011261017f5760405190610abe8261037b565b60243582526044356020830152565b919082604091031261017f57604051610ae58161037b565b6020808294803584520135910152565b3461017f57606036600319011261017f57600435610b128161016e565b610b1b36610aa5565b90610b70610b358380515f526020015160205260405f2090565b6001600160a01b039092165f818152600160209081526040808320869055948252600290529290922080546001600160a01b03191683179055565b5f5260036020526001602060405f20928051845501519101555f80f35b3461017f577ff843ecd53a563675e62107be1494fdde4a3d49aeedaf8d88c616d85346e3500e610bbc366103f9565b90610bc5611523565b6104ca610bda610bd483610dfa565b50611ab5565b8361158b565b80546801000000000000000081101561039757610c02916001820181556107dd565b610c42578151602083015160409384015163ffffffff60c01b60c09290921b919091169190931c1760e09290921b6001600160e01b031916919091179055565b634e487b7160e01b5f525f60045260245ffd5b919260809360209260018060a01b0316845282840152606060408401528051918291826060860152018484015e5f828201840152601f01601f1916010190565b60405190610ca28261037b565b5f6020838281520152565b90604051610cba8161037b565b602060018294805484520154910152565b90604051610cd88161039c565b604081935467ffffffffffffffff1981831b16835263ffffffff8160c01c16602084015260e01c910152565b60405190610180610d1581846103b8565b368337565b60405190610d296020836103b8565b6020368337565b60405190610d3d8261037b565b8160206040918251610d4f84826103b8565b833682378152825192610d6281856103b8565b3684370152565b60405191905f835b60028210610d87575050506103e96040836103b8565b6001602081928554815201930191019091610d71565b610da5610d30565b5060018060a01b03165f52600660205260405f20610ddc600260405192610dcb8461037b565b610dd481610d69565b845201610d69565b602082015290565b15610deb57565b636fe02d4b60e01b5f5260045ffd5b610e02610c95565b5060018060a01b031690815f52600360205260405f2091600160405193610e288561037b565b80548552015460208401525f52600160205260405f2054918215610e4a579190565b6325ec6c1f60e01b5f5260045ffd5b919091610e64611523565b6040830190610e733683610acd565b610e899080515f526020015160205260405f2090565b93610eb67fad3228b676f7d3cd4284a5443f17f1962b36e491b30a40b2405849e597ba5fb586141561109c565b6001600160a01b0382165f9081526001602052604090205415610ed8906110b2565b5f85815260026020526040902054610ef9906001600160a01b0316156110c8565b80359360208201358435906060840135608085019788928535602087013591604051958695602087019860c08c0193610f32978b6110de565b03601f1981018252610f4490826103b8565b5190207f30644e72e131a029b85045b68181585d2833e84879b9709143e1f593f000000190069136610f7591610acd565b82610f803687610acd565b90610f8a91611739565b610f939161177f565b91610f9c6117e1565b9136610fa791610acd565b90610fb06118ab565b90610fba91611739565b610fc39161177f565b610fcd368761115f565b91610fd79361194c565b610fe090611198565b6001600160a01b0381165f90815260036020908152604080832085358155858301356001909101556006909152902061101a9084906111dd565b6001600160a01b0381165f90815260016020526040902084905580611047855f52600260205260405f2090565b80546001600160a01b0319166001600160a01b03928316179055604051911692909182916110759183611238565b037fe3fb6613af2e8930cf85d47fcf6db10192224a64c6cbe8023e0eee1ba382804191a290565b156110a357565b630cc7509160e01b5f5260045ffd5b156110b957565b6342ee68b560e01b5f5260045ffd5b156110cf57565b634c334c9760e11b5f5260045ffd5b969490936101409896936040959386948a5260208a0152838901526060880152608087013760c08501376101008301526101208201520190565b9080601f8301121561017f57604051916111336040846103b8565b82906040810192831161017f57905b82821061114f5750505090565b8135815260209182019101611142565b919060808382031261017f5760206111936040519261117d8461037b565b6040849661118b8382611118565b865201611118565b910152565b1561119f57565b63a72d026360e01b5f5260045ffd5b634e487b7160e01b5f52601160045260245ffd5b906006820291808304600614901517156111d857565b6111ae565b90805f5b600281106112145750506040015f5b600281106111fd57505050565b6001906020833593019260028286010155016111f0565b6001906020833593019281860155016111e1565b9060408080938181853701910137565b9160406103e9929493602060c082019680358352013560208201520190611228565b6080810192916103e99190611228565b6112ca6112c561127983610dfa565b506112a361128685610d9d565b805151159081611354575b81611346575b8161132f575b50611a9f565b6112ab6117e1565b6112b36118ab565b906112bf36602461115f565b9261194c565b611198565b6001600160a01b0381165f9081526006602052604090206112ed906024906111dd565b6040516001600160a01b03909116907f5c4f9f28153dbf3f00e69607a59e82ad806fffb78d09f179f62432f7e9d2511a908061132a60248261125a565b0390a2565b61133e91506020015160200190565b51155f61129d565b602081015151159150611297565b805160200151159150611291565b67ffffffffffffffff81116103975760051b60200190565b9061138482611362565b61139160405191826103b8565b82815280926113a2601f1991611362565b0190602036910137565b908210156107d8570190565b80156111d8575f190190565b5f198101919082116111d857565b80518210156107d85760209160051b010190565b9190916113f28361137a565b925f5b818110611403575050505090565b6114286114226114148385876113ac565b356001600160f81b03191690565b60f81c90565b61143d8160ff165f52600460205260405f2090565b54801580156114f8575b6114e957805b61145c575b50506001016113f5565b8563ffffffff61149a61148c61147d8660ff165f52600460205260405f2090565b611486866113c4565b906107dd565b505460c01c63ffffffff1690565b1611156114b0576114aa906113b8565b8061144d565b60019291506114cd6114c46114e2926113c4565b63ffffffff1690565b6114d783896113d2565b9063ffffffff169052565b905f611452565b633f4cb70f60e01b5f5260045ffd5b5061151c6114c461148c6115178560ff165f52600460205260405f2090565b6107c6565b8610611447565b7f00000000000000000000000000000000000000000000000000000000000000006001600160a01b0316330361155557565b634394dbdf60e11b5f5260045ffd5b9081518110156107d8570160200190565b1561157c57565b637310cff560e11b5f5260045ffd5b9190611595610c95565b504363ffffffff16905f5b84518110156117325780836115cb6114226115bd6001958a611564565b516001600160f81b03191690565b6115e08160ff165f52600460205260405f2090565b54906115ed821515611575565b61168561166661165861161c896116176116128760ff165f52600560205260405f2090565b610cad565b61177f565b611646816116358760ff165f52600560205260405f2090565b906020600191805184550151910155565b80515f526020015160205260405f2090565b67ffffffffffffffff191690565b9261148661167f8460ff165f52600460205260405f2090565b916113c4565b50908361169d6114c4845463ffffffff9060c01c1690565b036116c657506116c092509060401c67ffffffffffffffff60c01b825416179055565b016115a0565b81546001600160e01b031660e09490941b6001600160e01b03191693909317905561172d916117009060ff165f52600460205260405f2090565b61171c61170b6103da565b67ffffffffffffffff199093168352565b63ffffffff87166020830152610313565b6116c0565b5050509050565b91906040906060611748610c95565b948592602085519261175a85856103b8565b8436853780518452015160208301528482015260076107cf195a01fa1561177d57565bfe5b602092916080604092611790610c95565b958693818651936117a186866103b8565b85368637805185520151828401528051868401520151606082015260066107cf195a01fa801561177d57156117d257565b63d4b68fd760e01b5f5260045ffd5b6117e9610d30565b506040516117f68161037b565b7f198e9393920d483a7260bfb731fb5d25f1aa493335a9e71297e485b7aef312c281527f1800deef121f1e76426a00665e5c4479674322d4f75edadd46debd5cd992f6ed602082015260405161184b8161037b565b7f275dc4a288d1afb3cbb1ac09187524c7db36395df7be3b99e673b13a075a65ec81527f1d9befcd05a5323e6da4d435f3b617cdb3af83285c2df711ef39c01571827f9d6020820152604051916118a18361037b565b8252602082015290565b6118b3610c95565b506040516118c08161037b565b600181526002602082015290565b9060028110156107d85760051b0190565b90600182018092116111d857565b90600282018092116111d857565b90600382018092116111d857565b90600482018092116111d857565b90600582018092116111d857565b90600c8110156107d85760051b0190565b1561193d57565b6324ccc79360e21b5f5260045ffd5b92909161195960406103eb565b938452602084015261196b60406103eb565b918252602082015261197b610d04565b915f5b600281106119b857505050602061018091611997610d1a565b92839160086107cf195a01fa801561177d576119b290611936565b51151590565b806119c46001926111c2565b6119ce82856118ce565b51516119da8288611925565b5260206119e783866118ce565b5101516119fc6119f6836118df565b88611925565b52611a0782866118ce565b515151611a166119f6836118ed565b52611a2c611a2483876118ce565b515160200190565b51611a396119f6836118fb565b526020611a4683876118ce565b51015151611a566119f683611909565b52611a82611a7c611a756020611a6c868a6118ce565b51015160200190565b5192611917565b87611925565b520161197e565b15611a9057565b637070f3b160e11b5f5260045ffd5b15611aa657565b630849e5cf60e41b5f5260045ffd5b611abd610c95565b50805190811580611b69575b15611aea575050604051611ade6040826103b8565b5f81525f602082015290565b60207f30644e72e131a029b85045b68181585d97816a916871ca8d3c208c16d87cfd47910151067f30644e72e131a029b85045b68181585d97816a916871ca8d3c208c16d87cfd47037f30644e72e131a029b85045b68181585d97816a916871ca8d3c208c16d87cfd4781116111d857604051916118a16040846103b8565b50602081015115611ac956fea26469706673582212204d476ae3810601b7777cf924442579d3df8b294cdd64b364b9ede4003656604d64736f6c634300081b0033","linkReferences":{}},"methodIdentifiers":{"apkHistory(uint8,uint256)":"7916cea6","currentApk(uint8)":"a3db80e2","deregisterOperator(address,bytes)":"f4e24fe5","getApk(uint8)":"5f61a884","getApkHashAtBlockNumberAndIndex(uint8,uint32,uint256)":"68bccaac","getApkHistoryLength(uint8)":"377ed99d","getApkIndicesAtBlockNumber(bytes,uint256)":"d5254a8c","getApkUpdateAtIndex(uint8,uint256)":"605747d5","getOperatorFromPubkeyHash(bytes32)":"47b314e8","getOperatorId(address)":"13542a4e","getOperatorPubkeyG2(address)":"67169911","getOrRegisterOperatorId(address,((uint256,uint256),(uint256,uint256),(uint256[2],uint256[2])),(uint256,uint256))":"03c5a6b6","getRegisteredPubkey(address)":"7ff81a87","initializeQuorum(uint8)":"26d941f2","operatorToPubkey(address)":"00a1f4cb","operatorToPubkeyHash(address)":"de29fac0","pubkeyHashToOperator(bytes32)":"e8bb9ae6","registerBLSPublicKey(address,((uint256,uint256),(uint256,uint256),(uint256[2],uint256[2])),(uint256,uint256))":"bf79ce58","registerOperator(address,bytes)":"3fb27952","registryCoordinator()":"6d14a987","setBLSPublicKey(address,(uint256,uint256))":"df4d09e0","verifyAndRegisterG2PubkeyForOperator(address,(uint256[2],uint256[2]))":"d1a64650"},"id":127}