{"abi":[{"type":"constructor","inputs":[{"name":"_slashingRegistryCoordinator","type":"address","internalType":"contract ISlashingRegistryCoordinator"},{"name":"_delegationManager","type":"address","internalType":"contract IDelegationManager"},{"name":"_avsDirectory","type":"address","internalType":"contract IAVSDirectory"},{"name":"_allocationManager","type":"address","internalType":"contract IAllocationManager"}],"stateMutability":"nonpayable"},{"type":"function","name":"MAX_WEIGHING_FUNCTION_LENGTH","inputs":[],"outputs":[{"name":"","type":"uint8","internalType":"uint8"}],"stateMutability":"view"},{"type":"function","name":"WEIGHTING_DIVISOR","inputs":[],"outputs":[{"name":"","type":"uint256","internalType":"uint256"}],"stateMutability":"view"},{"type":"function","name":"addStrategies","inputs":[{"name":"quorumNumber","type":"uint8","internalType":"uint8"},{"name":"_strategyParams","type":"tuple[]","internalType":"struct IStakeRegistryTypes.StrategyParams[]","components":[{"name":"strategy","type":"address","internalType":"contract IStrategy"},{"name":"multiplier","type":"uint96","internalType":"uint96"}]}],"outputs":[],"stateMutability":"nonpayable"},{"type":"function","name":"allocationManager","inputs":[],"outputs":[{"name":"","type":"address","internalType":"contract IAllocationManager"}],"stateMutability":"view"},{"type":"function","name":"avsDirectory","inputs":[],"outputs":[{"name":"","type":"address","internalType":"contract IAVSDirectory"}],"stateMutability":"view"},{"type":"function","name":"delegation","inputs":[],"outputs":[{"name":"","type":"address","internalType":"contract IDelegationManager"}],"stateMutability":"view"},{"type":"function","name":"deregisterOperator","inputs":[{"name":"operatorId","type":"bytes32","internalType":"bytes32"},{"name":"quorumNumbers","type":"bytes","internalType":"bytes"}],"outputs":[],"stateMutability":"nonpayable"},{"type":"function","name":"getCurrentStake","inputs":[{"name":"operatorId","type":"bytes32","internalType":"bytes32"},{"name":"quorumNumber","type":"uint8","internalType":"uint8"}],"outputs":[{"name":"","type":"uint96","internalType":"uint96"}],"stateMutability":"view"},{"type":"function","name":"getCurrentTotalStake","inputs":[{"name":"quorumNumber","type":"uint8","internalType":"uint8"}],"outputs":[{"name":"","type":"uint96","internalType":"uint96"}],"stateMutability":"view"},{"type":"function","name":"getLatestStakeUpdate","inputs":[{"name":"operatorId","type":"bytes32","internalType":"bytes32"},{"name":"quorumNumber","type":"uint8","internalType":"uint8"}],"outputs":[{"name":"","type":"tuple","internalType":"struct IStakeRegistryTypes.StakeUpdate","components":[{"name":"updateBlockNumber","type":"uint32","internalType":"uint32"},{"name":"nextUpdateBlockNumber","type":"uint32","internalType":"uint32"},{"name":"stake","type":"uint96","internalType":"uint96"}]}],"stateMutability":"view"},{"type":"function","name":"getStakeAtBlockNumber","inputs":[{"name":"operatorId","type":"bytes32","internalType":"bytes32"},{"name":"quorumNumber","type":"uint8","internalType":"uint8"},{"name":"blockNumber","type":"uint32","internalType":"uint32"}],"outputs":[{"name":"","type":"uint96","internalType":"uint96"}],"stateMutability":"view"},{"type":"function","name":"getStakeAtBlockNumberAndIndex","inputs":[{"name":"quorumNumber","type":"uint8","internalType":"uint8"},{"name":"blockNumber","type":"uint32","internalType":"uint32"},{"name":"operatorId","type":"bytes32","internalType":"bytes32"},{"name":"index","type":"uint256","internalType":"uint256"}],"outputs":[{"name":"","type":"uint96","internalType":"uint96"}],"stateMutability":"view"},{"type":"function","name":"getStakeHistory","inputs":[{"name":"operatorId","type":"bytes32","internalType":"bytes32"},{"name":"quorumNumber","type":"uint8","internalType":"uint8"}],"outputs":[{"name":"","type":"tuple[]","internalType":"struct IStakeRegistryTypes.StakeUpdate[]","components":[{"name":"updateBlockNumber","type":"uint32","internalType":"uint32"},{"name":"nextUpdateBlockNumber","type":"uint32","internalType":"uint32"},{"name":"stake","type":"uint96","internalType":"uint96"}]}],"stateMutability":"view"},{"type":"function","name":"getStakeHistoryLength","inputs":[{"name":"operatorId","type":"bytes32","internalType":"bytes32"},{"name":"quorumNumber","type":"uint8","internalType":"uint8"}],"outputs":[{"name":"","type":"uint256","internalType":"uint256"}],"stateMutability":"view"},{"type":"function","name":"getStakeUpdateAtIndex","inputs":[{"name":"quorumNumber","type":"uint8","internalType":"uint8"},{"name":"operatorId","type":"bytes32","internalType":"bytes32"},{"name":"index","type":"uint256","internalType":"uint256"}],"outputs":[{"name":"","type":"tuple","internalType":"struct IStakeRegistryTypes.StakeUpdate","components":[{"name":"updateBlockNumber","type":"uint32","internalType":"uint32"},{"name":"nextUpdateBlockNumber","type":"uint32","internalType":"uint32"},{"name":"stake","type":"uint96","internalType":"uint96"}]}],"stateMutability":"view"},{"type":"function","name":"getStakeUpdateIndexAtBlockNumber","inputs":[{"name":"operatorId","type":"bytes32","internalType":"bytes32"},{"name":"quorumNumber","type":"uint8","internalType":"uint8"},{"name":"blockNumber","type":"uint32","internalType":"uint32"}],"outputs":[{"name":"","type":"uint32","internalType":"uint32"}],"stateMutability":"view"},{"type":"function","name":"getTotalStakeAtBlockNumberFromIndex","inputs":[{"name":"quorumNumber","type":"uint8","internalType":"uint8"},{"name":"blockNumber","type":"uint32","internalType":"uint32"},{"name":"index","type":"uint256","internalType":"uint256"}],"outputs":[{"name":"","type":"uint96","internalType":"uint96"}],"stateMutability":"view"},{"type":"function","name":"getTotalStakeHistoryLength","inputs":[{"name":"quorumNumber","type":"uint8","internalType":"uint8"}],"outputs":[{"name":"","type":"uint256","internalType":"uint256"}],"stateMutability":"view"},{"type":"function","name":"getTotalStakeIndicesAtBlockNumber","inputs":[{"name":"blockNumber","type":"uint32","internalType":"uint32"},{"name":"quorumNumbers","type":"bytes","internalType":"bytes"}],"outputs":[{"name":"","type":"uint32[]","internalType":"uint32[]"}],"stateMutability":"view"},{"type":"function","name":"getTotalStakeUpdateAtIndex","inputs":[{"name":"quorumNumber","type":"uint8","internalType":"uint8"},{"name":"index","type":"uint256","internalType":"uint256"}],"outputs":[{"name":"","type":"tuple","internalType":"struct IStakeRegistryTypes.StakeUpdate","components":[{"name":"updateBlockNumber","type":"uint32","internalType":"uint32"},{"name":"nextUpdateBlockNumber","type":"uint32","internalType":"uint32"},{"name":"stake","type":"uint96","internalType":"uint96"}]}],"stateMutability":"view"},{"type":"function","name":"initializeDelegatedStakeQuorum","inputs":[{"name":"quorumNumber","type":"uint8","internalType":"uint8"},{"name":"minimumStake","type":"uint96","internalType":"uint96"},{"name":"_strategyParams","type":"tuple[]","internalType":"struct IStakeRegistryTypes.StrategyParams[]","components":[{"name":"strategy","type":"address","internalType":"contract IStrategy"},{"name":"multiplier","type":"uint96","internalType":"uint96"}]}],"outputs":[],"stateMutability":"nonpayable"},{"type":"function","name":"initializeSlashableStakeQuorum","inputs":[{"name":"quorumNumber","type":"uint8","internalType":"uint8"},{"name":"minimumStake","type":"uint96","internalType":"uint96"},{"name":"lookAheadPeriod","type":"uint32","internalType":"uint32"},{"name":"_strategyParams","type":"tuple[]","internalType":"struct IStakeRegistryTypes.StrategyParams[]","components":[{"name":"strategy","type":"address","internalType":"contract IStrategy"},{"name":"multiplier","type":"uint96","internalType":"uint96"}]}],"outputs":[],"stateMutability":"nonpayable"},{"type":"function","name":"minimumStakeForQuorum","inputs":[{"name":"","type":"uint8","internalType":"uint8"}],"outputs":[{"name":"","type":"uint96","internalType":"uint96"}],"stateMutability":"view"},{"type":"function","name":"modifyStrategyParams","inputs":[{"name":"quorumNumber","type":"uint8","internalType":"uint8"},{"name":"strategyIndices","type":"uint256[]","internalType":"uint256[]"},{"name":"newMultipliers","type":"uint96[]","internalType":"uint96[]"}],"outputs":[],"stateMutability":"nonpayable"},{"type":"function","name":"registerOperator","inputs":[{"name":"operator","type":"address","internalType":"address"},{"name":"operatorId","type":"bytes32","internalType":"bytes32"},{"name":"quorumNumbers","type":"bytes","internalType":"bytes"}],"outputs":[{"name":"","type":"uint96[]","internalType":"uint96[]"},{"name":"","type":"uint96[]","internalType":"uint96[]"}],"stateMutability":"nonpayable"},{"type":"function","name":"registryCoordinator","inputs":[],"outputs":[{"name":"","type":"address","internalType":"contract ISlashingRegistryCoordinator"}],"stateMutability":"view"},{"type":"function","name":"removeStrategies","inputs":[{"name":"quorumNumber","type":"uint8","internalType":"uint8"},{"name":"indicesToRemove","type":"uint256[]","internalType":"uint256[]"}],"outputs":[],"stateMutability":"nonpayable"},{"type":"function","name":"setMinimumStakeForQuorum","inputs":[{"name":"quorumNumber","type":"uint8","internalType":"uint8"},{"name":"minimumStake","type":"uint96","internalType":"uint96"}],"outputs":[],"stateMutability":"nonpayable"},{"type":"function","name":"setSlashableStakeLookahead","inputs":[{"name":"quorumNumber","type":"uint8","internalType":"uint8"},{"name":"_lookAheadBlocks","type":"uint32","internalType":"uint32"}],"outputs":[],"stateMutability":"nonpayable"},{"type":"function","name":"slashableStakeLookAheadPerQuorum","inputs":[{"name":"quorumNumber","type":"uint8","internalType":"uint8"}],"outputs":[{"name":"","type":"uint32","internalType":"uint32"}],"stateMutability":"view"},{"type":"function","name":"stakeTypePerQuorum","inputs":[{"name":"quorumNumber","type":"uint8","internalType":"uint8"}],"outputs":[{"name":"","type":"uint8","internalType":"enum IStakeRegistryTypes.StakeType"}],"stateMutability":"view"},{"type":"function","name":"strategiesPerQuorum","inputs":[{"name":"quorumNumber","type":"uint8","internalType":"uint8"},{"name":"","type":"uint256","internalType":"uint256"}],"outputs":[{"name":"","type":"address","internalType":"contract IStrategy"}],"stateMutability":"view"},{"type":"function","name":"strategyParams","inputs":[{"name":"quorumNumber","type":"uint8","internalType":"uint8"},{"name":"","type":"uint256","internalType":"uint256"}],"outputs":[{"name":"strategy","type":"address","internalType":"contract IStrategy"},{"name":"multiplier","type":"uint96","internalType":"uint96"}],"stateMutability":"view"},{"type":"function","name":"strategyParamsByIndex","inputs":[{"name":"quorumNumber","type":"uint8","internalType":"uint8"},{"name":"index","type":"uint256","internalType":"uint256"}],"outputs":[{"name":"","type":"tuple","internalType":"struct IStakeRegistryTypes.StrategyParams","components":[{"name":"strategy","type":"address","internalType":"contract IStrategy"},{"name":"multiplier","type":"uint96","internalType":"uint96"}]}],"stateMutability":"view"},{"type":"function","name":"strategyParamsLength","inputs":[{"name":"quorumNumber","type":"uint8","internalType":"uint8"}],"outputs":[{"name":"","type":"uint256","internalType":"uint256"}],"stateMutability":"view"},{"type":"function","name":"updateOperatorsStake","inputs":[{"name":"operators","type":"address[]","internalType":"address[]"},{"name":"operatorIds","type":"bytes32[]","internalType":"bytes32[]"},{"name":"quorumNumber","type":"uint8","internalType":"uint8"}],"outputs":[{"name":"","type":"bool[]","internalType":"bool[]"}],"stateMutability":"nonpayable"},{"type":"function","name":"weightOfOperatorForQuorum","inputs":[{"name":"quorumNumber","type":"uint8","internalType":"uint8"},{"name":"operator","type":"address","internalType":"address"}],"outputs":[{"name":"","type":"uint96","internalType":"uint96"}],"stateMutability":"view"},{"type":"event","name":"LookAheadPeriodChanged","inputs":[{"name":"oldLookAheadBlocks","type":"uint32","indexed":false,"internalType":"uint32"},{"name":"newLookAheadBlocks","type":"uint32","indexed":false,"internalType":"uint32"}],"anonymous":false},{"type":"event","name":"MinimumStakeForQuorumUpdated","inputs":[{"name":"quorumNumber","type":"uint8","indexed":true,"internalType":"uint8"},{"name":"minimumStake","type":"uint96","indexed":false,"internalType":"uint96"}],"anonymous":false},{"type":"event","name":"OperatorStakeUpdate","inputs":[{"name":"operatorId","type":"bytes32","indexed":true,"internalType":"bytes32"},{"name":"quorumNumber","type":"uint8","indexed":false,"internalType":"uint8"},{"name":"stake","type":"uint96","indexed":false,"internalType":"uint96"}],"anonymous":false},{"type":"event","name":"QuorumCreated","inputs":[{"name":"quorumNumber","type":"uint8","indexed":true,"internalType":"uint8"}],"anonymous":false},{"type":"event","name":"StakeTypeSet","inputs":[{"name":"newStakeType","type":"uint8","indexed":false,"internalType":"enum IStakeRegistryTypes.StakeType"}],"anonymous":false},{"type":"event","name":"StrategyAddedToQuorum","inputs":[{"name":"quorumNumber","type":"uint8","indexed":true,"internalType":"uint8"},{"name":"strategy","type":"address","indexed":false,"internalType":"contract IStrategy"}],"anonymous":false},{"type":"event","name":"StrategyMultiplierUpdated","inputs":[{"name":"quorumNumber","type":"uint8","indexed":true,"internalType":"uint8"},{"name":"strategy","type":"address","indexed":false,"internalType":"contract IStrategy"},{"name":"multiplier","type":"uint256","indexed":false,"internalType":"uint256"}],"anonymous":false},{"type":"event","name":"StrategyRemovedFromQuorum","inputs":[{"name":"quorumNumber","type":"uint8","indexed":true,"internalType":"uint8"},{"name":"strategy","type":"address","indexed":false,"internalType":"contract IStrategy"}],"anonymous":false},{"type":"error","name":"BelowMinimumStakeRequirement","inputs":[]},{"type":"error","name":"EmptyStakeHistory","inputs":[]},{"type":"error","name":"InputArrayLengthMismatch","inputs":[]},{"type":"error","name":"InputArrayLengthZero","inputs":[]},{"type":"error","name":"InputDuplicateStrategy","inputs":[]},{"type":"error","name":"InputMultiplierZero","inputs":[]},{"type":"error","name":"InvalidBlockNumber","inputs":[]},{"type":"error","name":"LookAheadPeriodTooLong","inputs":[]},{"type":"error","name":"OnlySlashingRegistryCoordinator","inputs":[]},{"type":"error","name":"OnlySlashingRegistryCoordinatorOwner","inputs":[]},{"type":"error","name":"QuorumAlreadyExists","inputs":[]},{"type":"error","name":"QuorumDoesNotExist","inputs":[]},{"type":"error","name":"QuorumNotSlashable","inputs":[]}],"bytecode":{"object":"0x6101003461011757601f61315238819003918201601f19168301916001600160401b0383118484101761011b57808492608094604052833981010312610117578051906001600160a01b03821682036101175760208101516001600160a01b0381168103610117576040820151916001600160a01b03831683036101175760600151926001600160a01b03841684036101175760e05260805260a05260c0526040516130229081610130823960805181818161032f01526129a5015260a0518161101f015260c05181818161054a01528181610673015281816111ad015281816127d20152612d36015260e05181818161063501528181610daf0152818161116f01528181611fe40152818161205e01526127010152f35b5f80fd5b634e487b7160e01b5f52604160045260245ffdfe6080806040526004361015610012575f80fd5b5f905f3560e01c9081630491b41c146119f65750806308732461146119995780631f9b74e01461194557806320b66298146117dd57806325504777146116c25780632cd95940146115c65780633ca5a5f5146115945780634bd26e09146115555780635401ed271461152d5780635e5a67751461150b5780635f1f2d771461108c578063697fbd931461104e5780636b3aa72e146110095780636c3fb4bf14610dde5780636d14a98714610d9957806375d4173a14610cb25780637c17234714610c9757806381c0750214610aaf5780639ab4d6ff14610a775780639f3ccf6514610a1c578063ac6bfb03146109cd578063adc804da14610959578063b6904b7814610917578063bc9a40c3146108db578063bd29b8cd14610856578063c46778a51461081c578063c601527d146105c7578063c8294c5614610579578063ca8aa7c714610534578063cc5a7c20146103f0578063d5eccc0514610386578063dd9846b91461035e578063df5cf72314610319578063e086adb3146102da578063f2be94ae1461026a578063f851e1981461020b5763fa28c627146101b5575f80fd5b34610208576001600160601b036101fa6020926101f460406101d636611c69565b92909194858152600289522060ff82165f52875260405f2093612e3e565b90611a44565b505460401c16604051908152f35b80fd5b503461020857604036600319011261020857606061023261022a611a34565b600435611ed3565b61026860405180926001600160601b036040809263ffffffff815116855263ffffffff6020820151166020860152015116910152565bf35b5034610208576080366003190112610208576001600160601b036040602092610291611a24565b60ff8361029c611c56565b936044358152600288522091165f5284526102cf6102c86102c2845f2060643590611a44565b50611d1d565b9182612cb4565b015116604051908152f35b5034610208576040366003190112610208576103166102f7611a24565b6102ff611c56565b90610308611fcf565b61031181611f43565b612cfc565b80f35b50346102085780600319360112610208576040517f00000000000000000000000000000000000000000000000000000000000000006001600160a01b03168152602090f35b503461020857602061037861037236611c69565b91612e3e565b63ffffffff60405191168152f35b50346102085760203660031901126102085760ff6103a2611a24565b1680825260016020526040822090825260016020526040822054915f1983019283116103dc5760206001600160601b036101fa8585611a44565b634e487b7160e01b81526011600452602490fd5b50346102085760803660031901126102085761040a611a24565b610412611b9b565b906044359163ffffffff83168303610530576064356001600160401b03811161052c57610443903690600401611bb1565b61044b61205c565b6104638360ff165f52600160205260405f2054151590565b61051d579061047561047b9284612a28565b82612c5e565b60ff8116808452600560209081526040808620805460ff19166001179055519193919290830183807f7c112e863ccf007862e2c9e25819c933fedbc9350a6443423b4a8599c2e8a52d9260016104d497520390a1612cfc565b8152600160205261031660408220604051906104ef82611b35565b63ffffffff43168252836020830152836040830152611e26565b634e487b7160e01b5f52602160045260245ffd5b6310cda51760e21b8552600485fd5b8480fd5b8380fd5b50346102085780600319360112610208576040517f00000000000000000000000000000000000000000000000000000000000000006001600160a01b03168152602090f35b5034610208576060366003190112610208576001600160601b0360406020926102cf6102c86102c26105a9611a24565b9360ff6105b4611c56565b9516815260018852856044359120611a44565b5034610208576040366003190112610208576105e1611a24565b906024356001600160401b03811161081857610601903690600401611bb1565b9161060a611fcf565b61061381611f43565b61061d8382612a28565b825160405163de1164bb60e01b8152906020826004817f00000000000000000000000000000000000000000000000000000000000000006001600160a01b03165afa91821561080d5784926107dc575b506040517f00000000000000000000000000000000000000000000000000000000000000006001600160a01b0316906106a581611b06565b6001600160a01b03848116825260ff8616602083019081526040516304c1b8eb60e31b8152925190911660048301525163ffffffff166024820152602081604481855afa9081156107d15786916107a2575b50610700578480f35b61070982611cbe565b91855b818110610779575050849550803b1561052c576107439385809460405196879586948593630287f75160e51b855260048501611d9b565b03925af1801561076e57610759575b8080808480f35b8161076391611b50565b61020857805f610752565b6040513d84823e3d90fd5b6001906001600160a01b0361078e828b611d09565b51511661079b8287611d09565b520161070c565b6107c4915060203d6020116107ca575b6107bc8183611b50565b810190611d83565b5f6106f7565b503d6107b2565b6040513d88823e3d90fd5b6107ff91925060203d602011610806575b6107f78183611b50565b810190611d64565b905f61066d565b503d6107ed565b6040513d86823e3d90fd5b5080fd5b5034610208576020366003190112610208576001600160601b03604060209260ff610845611a24565b168152808452205416604051908152f35b5034610208576040366003190112610208576004356024356001600160401b0381116108d75761088a903690600401611a9d565b61089592919261205c565b835b8181106108a2578480f35b806108d06108b36001938588611cf0565b3560f81c6108c081611f43565b6108ca818761209d565b906123ee565b5001610897565b8280fd5b5034610208576040366003190112610208576103166108f8611a24565b610900611b9b565b90610909611fcf565b61091281611f43565b612c5e565b5034610208576040366003190112610208576102326102c260609260ff61093c611a24565b610944611e90565b50168152600160205260406024359120611a44565b5034610208576040366003190112610208576109aa6109a460409260ff61097e611a24565b826020875161098c81611b06565b82815201521681526003602052836024359120611a44565b50611eae565b6001600160601b03602083519260018060a01b0381511684520151166020820152f35b50346102085760603660031901126102085760ff60406109eb611a24565b926109f4611e90565b50602435815260026020522091165f5260205260606102326102c260405f2060443590611a44565b503461020857604036600319011261020857610a36611a24565b60ff16815260046020526040812080546024359290831015610208576020610a5e8484611a44565b905460405160039290921b1c6001600160a01b03168152f35b50346102085760203660031901126102085763ffffffff604060209260ff610a9d611a24565b16815260068452205416604051908152f35b50346102085760403660031901126102085760043563ffffffff8116809103610818576024356001600160401b0381116108d757610af1903690600401611a9d565b9190610afc83611b71565b91610b0a6040519384611b50565b838352610b1684611b71565b602084019490601f1901368637855b818110610b7657868587604051928392602084019060208552518091526040840192915b818110610b57575050500390f35b825163ffffffff16845285945060209384019390920191600101610b49565b610b81818386611cf0565b3560f81c610b8e81611f43565b808852600160205260408820805415610c835788528363ffffffff60208a20541611610c745780885260016020526040882054885b818110610bd6575b505050600101610b25565b828a52600160205260408a20610bec8284611d57565b5f19810191908211610c6057610c08889263ffffffff92611a44565b5054161115610c1957600101610bc3565b90610c249250611d57565b5f198101908111610c4c579063ffffffff60019216610c438288611d09565b52905f80610bcb565b634e487b7160e01b88526011600452602488fd5b634e487b7160e01b8c52601160045260248cfd5b63cc64657360e01b8852600488fd5b634e487b7160e01b89526032600452602489fd5b50346102085780600319360112610208576020604051818152f35b503461020857606036600319011261020857610ccc611a24565b610cd4611b9b565b6044356001600160401b03811161053057610cf3903690600401611bb1565b610cfb61205c565b610d138360ff165f52600160205260405f2054151590565b610d8a578291610475610d289260ff95612a28565b1680825260056020526040822060ff1981541690557f7c112e863ccf007862e2c9e25819c933fedbc9350a6443423b4a8599c2e8a52d60405180610d6c8582611b88565b0390a18152600160205261031660408220604051906104ef82611b35565b6310cda51760e21b8452600484fd5b50346102085780600319360112610208576040517f00000000000000000000000000000000000000000000000000000000000000006001600160a01b03168152602090f35b5034610208576060366003190112610208576004356001600160401b0381116108185736602382011215610818578060040135610e1a81611b71565b91610e286040519384611b50565b8183526024602084019260051b8201019036821161052c57602401915b818310610fe957505050602435906001600160401b0382116108d757366023830112156108d757816004013591610e7b83611b71565b92610e896040519485611b50565b8084526024602085019160051b83010191368311610fe557602401905b828210610fd55750505060443560ff8116810361053057610ec561205c565b610ecf8251611cbe565b92610ed982611f43565b610ee3838361264d565b8693919290845b8651861015610f8257610efd8683611d09565b5115610f64575b610f2d610f118785611d09565b51856001600160601b03610f258a8a611d09565b511691612241565b90898282019283129112908015821691151617610f505760019590950194610eea565b634e487b7160e01b89526011600452602489fd5b88610f6f8787611d09565b526001610f7c878a611d09565b52610f04565b88610f8e8992866123ee565b50604051918291602083016020845282518091526020604085019301915b818110610fba575050500390f35b82511515845285945060209384019390920191600101610fac565b8135815260209182019101610ea6565b8580fd5b82356001600160a01b0381168103610fe557815260209283019201610e45565b50346102085780600319360112610208576040517f00000000000000000000000000000000000000000000000000000000000000006001600160a01b03168152602090f35b50346102085760203660031901126102085760ff60406110889282611071611a24565b168152600560205220541660405191829182611b88565b0390f35b5034611292576040366003190112611292576110a6611a24565b6024356001600160401b0381116112925736602382011215611292578060040135906110d182611b71565b916110df6040519384611b50565b8083526024602084019160051b8301019136831161129257602401905b8282106114fb5750505061110e611fcf565b61111782611f43565b805180156114ec5760ff831691825f52600360205260405f2091835f52600460205260405f209161114782611cbe565b935f5b8381106112d657505060405163de1164bb60e01b8152949250602091508490506004817f00000000000000000000000000000000000000000000000000000000000000006001600160a01b03165afa928315611287575f936112b5575b506040517f00000000000000000000000000000000000000000000000000000000000000006001600160a01b0316916111df82611b06565b6001600160a01b038581168352602083019182526040516304c1b8eb60e31b815292511660048301525163ffffffff166024820152602081604481855afa908115611287575f91611296575b50611234578480f35b803b156112925761125f935f80946040519687958694859363b66bd98960e01b855260048501611d9b565b03925af1801561128757611274578080808480f35b61128091505f90611b50565b5f5f610752565b6040513d5f823e3d90fd5b5f80fd5b6112af915060203d6020116107ca576107bc8183611b50565b5f61122b565b6112cf91935060203d602011610806576107f78183611b50565b915f6111a7565b6112ea6112e38285611d09565b5183611a44565b50546001600160a01b03166112ff8288611d09565b52867f31fa2e2cd280c9375e13ffcf3d81e2378100186e4058f8d3ddb690b82dcd31f760206113386113318588611d09565b5186611a44565b50546040516001600160a01b039091168152a2867f11a5641322da1dff56a4b66eaac31ffa465295ece907cd163437793b4d009a75604061137c6113318588611d09565b505481516001600160a01b0390911681525f6020820152a281545f198101908111611497576113ab9083611a44565b506113c06113b98386611d09565b5184611a44565b6114ab578181036114be575b505081548015611483575f19016113e38184611a44565b6114ab575f9055825584545f198101908111611497576114066114509187611a44565b905460039190911b1c6001600160a01b031661142c6114258487611d09565b5188611a44565b81546001600160a01b0393841660039290921b91821b9390911b1916919091179055565b8454908115611483576001915f19016114698188611a44565b815490858060a01b039060031b1b1916905586550161114a565b634e487b7160e01b5f52603160045260245ffd5b634e487b7160e01b5f52601160045260245ffd5b634e487b7160e01b5f525f60045260245ffd5b815481546001600160a01b039091166001600160a01b03199182168117835592541690911790555f806113cc565b63796cc52560e01b5f5260045ffd5b81358152602091820191016110fc565b34611292575f366003190112611292576020604051670de0b6b3a76400008152f35b346112925760403660031901126112925760206001600160601b0360406102cf61022a611a34565b346112925760403660031901126112925761156e611a34565b6004355f52600260205260ff60405f2091165f52602052602060405f2054604051908152f35b346112925760203660031901126112925760ff6115af611a24565b165f526003602052602060405f2054604051908152f35b34611292576040366003190112611292576115df611a34565b6004355f52600260205260ff60405f2091165f5260205260405f2080549061160682611b71565b916116146040519384611b50565b8083526020830180925f5260205f205f915b8383106116a5578486604051918291602083019060208452518091526040830191905f5b818110611658575050500390f35b91935091602060608261169760019488516001600160601b036040809263ffffffff815116855263ffffffff6020820151166020860152015116910152565b01940191019184939261164a565b6001602081926116b485611d1d565b815201920192019190611626565b34611292576060366003190112611292576004356001600160a01b038116810361129257602435906044356001600160401b03811161129257611709903690600401611a9d565b9061171261205c565b61171b82611cbe565b9261172583611cbe565b925f5b8181106117595761174b8661108887604051938493604085526040850190611aca565b908382036020850152611aca565b611764818386611cf0565b3560f81c9061177282611f43565b61177c8483611f71565b929092156117ce5782816117966001956117b2948d612241565b916001600160601b036117a9868d611d09565b911690526123ee565b6001600160601b036117c48389611d09565b9116905201611728565b63207f13e360e11b5f5260045ffd5b34611292576060366003190112611292576117f6611a24565b6024356001600160401b03811161129257611815903690600401611a6d565b916044356001600160401b03811161129257611835903690600401611a6d565b909161183f611fcf565b61184881611f43565b84156114ec578482036119365760ff1691825f52600360205260405f20935f5b86811061187157005b806118c361188a6118856001948888611c9a565b611caa565b61189f611898848c88611c9a565b358a611a44565b5080546001600160a01b031660a09290921b6001600160a01b031916919091179055565b857f11a5641322da1dff56a4b66eaac31ffa465295ece907cd163437793b4d009a756118f3611898848c88611c9a565b50848060a01b0390541661190b611885858a8a611c9a565b604080516001600160a01b039390931683526001600160601b0391909116602083015290a201611868565b6343714afd60e01b5f5260045ffd5b346112925760403660031901126112925761195e611a24565b602435906001600160a01b0382168203611292576020918161198261198793611f43565b611f71565b506001600160601b0360405191168152f35b34611292576040366003190112611292576119b2611a24565b60ff60243591165f52600360205260405f208054821015611292576040916119d991611a44565b505481516001600160a01b038216815260a09190911c6020820152f35b346112925760203660031901126112925760209060ff611a14611a24565b165f526001825260405f20548152f35b6004359060ff8216820361129257565b6024359060ff8216820361129257565b8054821015611a59575f5260205f2001905f90565b634e487b7160e01b5f52603260045260245ffd5b9181601f84011215611292578235916001600160401b038311611292576020808501948460051b01011161129257565b9181601f84011215611292578235916001600160401b038311611292576020838186019501011161129257565b90602080835192838152019201905f5b818110611ae75750505090565b82516001600160601b0316845260209384019390920191600101611ada565b604081019081106001600160401b03821117611b2157604052565b634e487b7160e01b5f52604160045260245ffd5b606081019081106001600160401b03821117611b2157604052565b90601f801991011681019081106001600160401b03821117611b2157604052565b6001600160401b038111611b215760051b60200190565b9190602083019260028210156105095752565b602435906001600160601b038216820361129257565b81601f8201121561129257803590611bc882611b71565b92611bd66040519485611b50565b82845260208085019360061b8301019181831161129257602001925b828410611c00575050505090565b6040848303126112925760405190611c1782611b06565b84356001600160a01b03811681036112925782526020850135906001600160601b03821682036112925782602092836040950152815201930192611bf2565b6024359063ffffffff8216820361129257565b6060906003190112611292576004359060243560ff81168103611292579060443563ffffffff811681036112925790565b9190811015611a595760051b0190565b356001600160601b03811681036112925790565b90611cc882611b71565b611cd56040519182611b50565b8281528092611ce6601f1991611b71565b0190602036910137565b90821015611a59570190565b805115611a595760200190565b8051821015611a595760209160051b010190565b90604051611d2a81611b35565b60406001600160601b0382945463ffffffff8116845263ffffffff8160201c166020850152821c16910152565b9190820391821161149757565b9081602091031261129257516001600160a01b03811681036112925790565b90816020910312611292575180151581036112925790565b60809060ff60209394606083019560018060a01b031683521683820152606060408201528451809452019201905f5b818110611dd75750505090565b82516001600160a01b0316845260209384019390920191600101611dca565b906bffffffffffffffffffffffff60401b82549160401b16906bffffffffffffffffffffffff60401b1916179055565b8054600160401b811015611b2157611e4391600182018155611a44565b6114ab578151815460208085015167ffffffff00000000911b1663ffffffff90921667ffffffffffffffff1990911617178155611e8e916001600160601b0390604001511690611df6565b565b60405190611e9d82611b35565b5f6040838281528260208201520152565b90604051611ebb81611b06565b91546001600160a01b038116835260a01c6020830152565b90611edc611e90565b50815f52600260205260405f2060ff82165f5260205260405f205490611f00611e90565b9282611f0c5750505090565b909192505f52600260205260ff60405f2091165f5260205260405f205f19820191821161149757611f40916102c291611a44565b90565b611f5b9060ff165f52600160205260405f2054151590565b15611f6257565b637310cff560e11b5f5260045ffd5b6001600160601b03611fba611fc19493611fc99360405191611f94604084611b50565b6001835260203681850137611fa883611cfc565b6001600160a01b03909116905261264d565b9490611cfc565b511692611cfc565b51151590565b604051638da5cb5b60e01b81526020816004817f00000000000000000000000000000000000000000000000000000000000000006001600160a01b03165afa908115611287575f9161203d575b506001600160a01b0316330361202e57565b63ce98c24b60e01b5f5260045ffd5b612056915060203d602011610806576107f78183611b50565b5f61201c565b7f00000000000000000000000000000000000000000000000000000000000000006001600160a01b0316330361208e57565b632c01b20560e21b5f5260045ffd5b5f90805f52600260205260405f2060ff84165f5260205260405f205480155f1461214457505f516020612fcd5f395f51905f5260406001600160601b0394835f526002602052815f2060ff82165f5260205261211a825f2083519061210182611b35565b63ffffffff431682525f60208301525f85830152611e26565b60ff8251911681525f6020820152a2165f81810391125f82128116905f8313901516176114975790565b908092505f52600260205260405f2060ff84165f5260205260405f20905f1981019081116114975761217591611a44565b50908154916001600160601b038360401c16928315612238576001600160601b03945f516020612fcd5f395f51905f529260409263ffffffff438116911681036121da5750805473ffffffffffffffffffffffff00000000000000001916905561211a565b815467ffffffff000000001916602082901b67ffffffff00000000161790915561223390855f526002602052835f2060ff84165f52602052835f2084519161222183611b35565b82525f60208301525f85830152611e26565b61211a565b50505050505f90565b9190915f90805f52600260205260405f2060ff85165f5260205260405f205480155f146122f057505f516020612fcd5f395f51905f5260406001600160601b038095845f526002602052825f2060ff89165f526020526122c4835f208451906122a982611b35565b63ffffffff431682525f602083015284841686830152611e26565b60ff8351981688521695866020820152a216905f82820392128183128116918313901516176114975790565b908092505f52600260205260405f2060ff85165f5260205260405f20905f1981019081116114975761232191611a44565b50908154916001600160601b038360401c16926001600160601b038516908185146123e357855f516020612fcd5f395f51905f52936001600160601b039763ffffffff6040958a9582431692839116145f1461238757505061238291611df6565b6122c4565b835467ffffffff000000001916602083901b67ffffffff00000000161790935561238292909150875f526002602052855f2060ff8c165f52602052855f20908651926123d284611b35565b83525f602084015286830152611e26565b505050505050505f90565b60ff165f81815260016020526040902080549192915f1981019081116114975761241791611a44565b509080156124b05763ffffffff61243c8354926001600160601b038460401c16612f83565b93849243831692168203612455575050611f4091611df6565b835467ffffffff000000001916602083901b67ffffffff000000001617909355611f40929091505f52600160205260405f206040519161249483611b35565b82525f60208301526001600160601b0384166040830152611e26565b506001600160601b0391505460401c1690565b602081830312611292578051906001600160401b03821161129257019080601f83011215611292578151906124f782611b71565b926125056040519485611b50565b82845260208085019360051b820101908282116112925760208101935b82851061253157505050505090565b84516001600160401b03811161129257820184603f820112156112925760208101519061255d82611b71565b9161256b6040519384611b50565b8083526020808085019260051b840101019187831161129257604001905b8282106125a157505050815260209485019401612522565b8151815260209182019101612589565b90602080835192838152019201905f5b8181106125ce5750505090565b82516001600160a01b03168452602093840193909201916001016125c1565b90602082549182815201915f5260205f20905f5b81811061260e5750505090565b82546001600160a01b0316845260209093019260019283019201612601565b906001600160601b03809116911601906001600160601b03821161149757565b6126578251611cbe565b60ff6126638451611cbe565b92165f8181526003602052604090208054919591908161268281611b71565b916126906040519384611b50565b81835260208301905f5260205f205f915b8383106129fe5750505050865f52600560205260ff60405f20541660028110156105095760010361295a57865f52600660205263ffffffff6126e98160405f20541643612a1b565b60405163de1164bb60e01b81529116906020816004817f00000000000000000000000000000000000000000000000000000000000000006001600160a01b03165afa908115611287575f916127a091839161293b575b506040519061274d82611b06565b6001600160a01b03908116825260208083018d81528d8652600491829052604080872090516315d5962560e11b81529451909316918401919091525163ffffffff1660248301529093849283926127c691565b60a060448501526127b460a485018e6125b1565b848103600319016064860152906125ed565b608483019190915203817f00000000000000000000000000000000000000000000000000000000000000006001600160a01b03165afa908115611287575f91612919575b50925b5f5b875181101561290c575f5b8481106128615750806001600160601b0361283760019389611d09565b51168a5f525f6020526001600160601b0360405f205416111561285a828a611d09565b520161280f565b61286b8185611d09565b51906128818161287b858a611d09565b51611d09565b51612891575b600191500161281a565b6001600160601b0360206128a98361287b878c611d09565b519301511691828102928184041490151715611497576128f16001600160601b03670de0b6b3a764000060019404166001600160601b036128ea868c611d09565b511661262d565b6001600160601b03612903858b611d09565b91169052612887565b5095505050509092509190565b61293591503d805f833e61292d8183611b50565b8101906124c3565b5f61280a565b612954915060203d602011610806576107f78183611b50565b5f61273f565b865f5260046020526129a15f6040812060405180938192637870733b60e11b83526040600484015261298f604484018d6125b1565b838103600319016024850152906125ed565b03817f00000000000000000000000000000000000000000000000000000000000000006001600160a01b03165afa908115611287575f916129e4575b509261280d565b6129f891503d805f833e61292d8183611b50565b5f6129dd565b600160208192612a0d85611eae565b8152019201920191906126a1565b9190820180921161149757565b8151156114ec5760ff8251911691825f52600360205260405f2054926020612a508486612a1b565b11611936575f925b808410612a66575050505050565b90919293945f5b612a778688612a1b565b811015612aca57835f526003602052612a938160405f20611a44565b50546001600160a01b0390811690612aab8888611d09565b51511614612abb57600101612a6d565b637b74340b60e01b5f5260045ffd5b509493929190926001600160601b036020612ae58386611d09565b5101511615612c4f57815f52600360205260405f20612b048285611d09565b51908054600160401b811015611b2157612b2391600182018155611a44565b6114ab5781516020929092015160a01b6001600160a01b0319166001600160a01b03929092169190911790555f828152600460205260409020906001600160a01b03612b6f8286611d09565b515116825490600160401b821015611b215761142c8260019586612b9595018155611a44565b827f10565e56cacbf32eca267945f054fec02e59750032d113d3302182ad967f54046020848060a01b03612bc98589611d09565b515116604051908152a2827f11a5641322da1dff56a4b66eaac31ffa465295ece907cd163437793b4d009a75838060a01b03612c058488611d09565b5151166001600160601b036020612c1c868a611d09565b510151604080516001600160a01b0394909416845291166001600160601b03166020830152819081010390a20192612a58565b637257125160e01b5f5260045ffd5b602060ff7f26eecff2b70b0a71104ff4d940ba7162d23a95c248771fc487a7be17a596b3cf921692835f525f82526001600160601b0360405f20911690816001600160601b0319825416179055604051908152a2565b63ffffffff808251169216918210612ce3576020015163ffffffff168015918215612cf2575b505015612ce357565b631391e11b60e21b5f5260045ffd5b1090505f80612cda565b60ff1690815f52600560205260ff60405f205416600281101561050957600103612e2f57604051632981eb7760e01b8152906020826004817f00000000000000000000000000000000000000000000000000000000000000006001600160a01b03165afa918215611287575f92612dea575b5063ffffffff80911691168111612ddb57816040917f28d7358b79f02d21b8b7e17aefc4185a64308aa37406fa5befc05b91932c39c7935f52600660205263ffffffff835f205416915f526006602052825f208163ffffffff1982541617905582519182526020820152a1565b630bd441b960e21b5f5260045ffd5b9091506020813d602011612e27575b81612e0660209383611b50565b81010312611292575163ffffffff81168103611292579063ffffffff612d6e565b3d9150612df9565b63a3be258360e01b5f5260045ffd5b929190835f52600260205260405f2060ff82165f5260205260405f2054805b612f225760405162461bcd60e51b815260206004820152608160248201527f5374616b6552656769737472792e5f6765745374616b65557064617465496e6460448201527f6578466f724f70657261746f724174426c6f636b4e756d6265723a206e6f207360648201527f74616b652075706461746520666f756e6420666f72206f70657261746f72496460848201527f20616e642071756f72756d4e756d62657220617420626c6f636b206e756d626560a4820152603960f91b60c482015260e490fd5b845f52600260205260405f2060ff83165f5260205260405f205f1982019082821161149757612f568263ffffffff92611a44565b50541663ffffffff85161015612f7657508015611497575f190180612e5d565b63ffffffff169450505050565b905f811215612fb857600160ff1b8114611497576001600160601b0380915f03169116036001600160601b0381116114975790565b906001600160601b03611f4092169061262d56fe2f527d527e95d8fe40aec55377743bb779087da3f6d0d08f12e36444da62327da2646970667358221220c66fe04d367c5f7d1e3a2cfd48b0fe4f6deeabe35620d183eb3f64729daf031964736f6c634300081b0033","linkReferences":{}},"methodIdentifiers":{"MAX_WEIGHING_FUNCTION_LENGTH()":"7c172347","WEIGHTING_DIVISOR()":"5e5a6775","addStrategies(uint8,(address,uint96)[])":"c601527d","allocationManager()":"ca8aa7c7","avsDirectory()":"6b3aa72e","delegation()":"df5cf723","deregisterOperator(bytes32,bytes)":"bd29b8cd","getCurrentStake(bytes32,uint8)":"5401ed27","getCurrentTotalStake(uint8)":"d5eccc05","getLatestStakeUpdate(bytes32,uint8)":"f851e198","getStakeAtBlockNumber(bytes32,uint8,uint32)":"fa28c627","getStakeAtBlockNumberAndIndex(uint8,uint32,bytes32,uint256)":"f2be94ae","getStakeHistory(bytes32,uint8)":"2cd95940","getStakeHistoryLength(bytes32,uint8)":"4bd26e09","getStakeUpdateAtIndex(uint8,bytes32,uint256)":"ac6bfb03","getStakeUpdateIndexAtBlockNumber(bytes32,uint8,uint32)":"dd9846b9","getTotalStakeAtBlockNumberFromIndex(uint8,uint32,uint256)":"c8294c56","getTotalStakeHistoryLength(uint8)":"0491b41c","getTotalStakeIndicesAtBlockNumber(uint32,bytes)":"81c07502","getTotalStakeUpdateAtIndex(uint8,uint256)":"b6904b78","initializeDelegatedStakeQuorum(uint8,uint96,(address,uint96)[])":"75d4173a","initializeSlashableStakeQuorum(uint8,uint96,uint32,(address,uint96)[])":"cc5a7c20","minimumStakeForQuorum(uint8)":"c46778a5","modifyStrategyParams(uint8,uint256[],uint96[])":"20b66298","registerOperator(address,bytes32,bytes)":"25504777","registryCoordinator()":"6d14a987","removeStrategies(uint8,uint256[])":"5f1f2d77","setMinimumStakeForQuorum(uint8,uint96)":"bc9a40c3","setSlashableStakeLookahead(uint8,uint32)":"e086adb3","slashableStakeLookAheadPerQuorum(uint8)":"9ab4d6ff","stakeTypePerQuorum(uint8)":"697fbd93","strategiesPerQuorum(uint8,uint256)":"9f3ccf65","strategyParams(uint8,uint256)":"08732461","strategyParamsByIndex(uint8,uint256)":"adc804da","strategyParamsLength(uint8)":"3ca5a5f5","updateOperatorsStake(address[],bytes32[],uint8)":"6c3fb4bf","weightOfOperatorForQuorum(uint8,address)":"1f9b74e0"},"id":108}