{"abi":[{"type":"constructor","inputs":[{"name":"_strategyManager","type":"address","internalType":"contract IStrategyManager"},{"name":"_pauserRegistry","type":"address","internalType":"contract IPauserRegistry"},{"name":"_version","type":"string","internalType":"string"}],"stateMutability":"nonpayable"},{"type":"function","name":"deposit","inputs":[{"name":"token","type":"address","internalType":"contract IERC20"},{"name":"amount","type":"uint256","internalType":"uint256"}],"outputs":[{"name":"newShares","type":"uint256","internalType":"uint256"}],"stateMutability":"nonpayable"},{"type":"function","name":"explanation","inputs":[],"outputs":[{"name":"","type":"string","internalType":"string"}],"stateMutability":"pure"},{"type":"function","name":"getTVLLimits","inputs":[],"outputs":[{"name":"","type":"uint256","internalType":"uint256"},{"name":"","type":"uint256","internalType":"uint256"}],"stateMutability":"view"},{"type":"function","name":"initialize","inputs":[{"name":"_maxPerDeposit","type":"uint256","internalType":"uint256"},{"name":"_maxTotalDeposits","type":"uint256","internalType":"uint256"},{"name":"_underlyingToken","type":"address","internalType":"contract IERC20"}],"outputs":[],"stateMutability":"nonpayable"},{"type":"function","name":"initialize","inputs":[{"name":"_underlyingToken","type":"address","internalType":"contract IERC20"}],"outputs":[],"stateMutability":"nonpayable"},{"type":"function","name":"maxPerDeposit","inputs":[],"outputs":[{"name":"","type":"uint256","internalType":"uint256"}],"stateMutability":"view"},{"type":"function","name":"maxTotalDeposits","inputs":[],"outputs":[{"name":"","type":"uint256","internalType":"uint256"}],"stateMutability":"view"},{"type":"function","name":"pause","inputs":[{"name":"newPausedStatus","type":"uint256","internalType":"uint256"}],"outputs":[],"stateMutability":"nonpayable"},{"type":"function","name":"pauseAll","inputs":[],"outputs":[],"stateMutability":"nonpayable"},{"type":"function","name":"paused","inputs":[{"name":"index","type":"uint8","internalType":"uint8"}],"outputs":[{"name":"","type":"bool","internalType":"bool"}],"stateMutability":"view"},{"type":"function","name":"paused","inputs":[],"outputs":[{"name":"","type":"uint256","internalType":"uint256"}],"stateMutability":"view"},{"type":"function","name":"pauserRegistry","inputs":[],"outputs":[{"name":"","type":"address","internalType":"contract IPauserRegistry"}],"stateMutability":"view"},{"type":"function","name":"setTVLLimits","inputs":[{"name":"newMaxPerDeposit","type":"uint256","internalType":"uint256"},{"name":"newMaxTotalDeposits","type":"uint256","internalType":"uint256"}],"outputs":[],"stateMutability":"nonpayable"},{"type":"function","name":"shares","inputs":[{"name":"user","type":"address","internalType":"address"}],"outputs":[{"name":"","type":"uint256","internalType":"uint256"}],"stateMutability":"view"},{"type":"function","name":"sharesToUnderlying","inputs":[{"name":"amountShares","type":"uint256","internalType":"uint256"}],"outputs":[{"name":"","type":"uint256","internalType":"uint256"}],"stateMutability":"view"},{"type":"function","name":"sharesToUnderlyingView","inputs":[{"name":"amountShares","type":"uint256","internalType":"uint256"}],"outputs":[{"name":"","type":"uint256","internalType":"uint256"}],"stateMutability":"view"},{"type":"function","name":"strategyManager","inputs":[],"outputs":[{"name":"","type":"address","internalType":"contract IStrategyManager"}],"stateMutability":"view"},{"type":"function","name":"totalShares","inputs":[],"outputs":[{"name":"","type":"uint256","internalType":"uint256"}],"stateMutability":"view"},{"type":"function","name":"underlyingToShares","inputs":[{"name":"amountUnderlying","type":"uint256","internalType":"uint256"}],"outputs":[{"name":"","type":"uint256","internalType":"uint256"}],"stateMutability":"view"},{"type":"function","name":"underlyingToSharesView","inputs":[{"name":"amountUnderlying","type":"uint256","internalType":"uint256"}],"outputs":[{"name":"","type":"uint256","internalType":"uint256"}],"stateMutability":"view"},{"type":"function","name":"underlyingToken","inputs":[],"outputs":[{"name":"","type":"address","internalType":"contract IERC20"}],"stateMutability":"view"},{"type":"function","name":"unpause","inputs":[{"name":"newPausedStatus","type":"uint256","internalType":"uint256"}],"outputs":[],"stateMutability":"nonpayable"},{"type":"function","name":"userUnderlying","inputs":[{"name":"user","type":"address","internalType":"address"}],"outputs":[{"name":"","type":"uint256","internalType":"uint256"}],"stateMutability":"nonpayable"},{"type":"function","name":"userUnderlyingView","inputs":[{"name":"user","type":"address","internalType":"address"}],"outputs":[{"name":"","type":"uint256","internalType":"uint256"}],"stateMutability":"view"},{"type":"function","name":"version","inputs":[],"outputs":[{"name":"","type":"string","internalType":"string"}],"stateMutability":"view"},{"type":"function","name":"withdraw","inputs":[{"name":"recipient","type":"address","internalType":"address"},{"name":"token","type":"address","internalType":"contract IERC20"},{"name":"amountShares","type":"uint256","internalType":"uint256"}],"outputs":[],"stateMutability":"nonpayable"},{"type":"event","name":"ExchangeRateEmitted","inputs":[{"name":"rate","type":"uint256","indexed":false,"internalType":"uint256"}],"anonymous":false},{"type":"event","name":"Initialized","inputs":[{"name":"version","type":"uint8","indexed":false,"internalType":"uint8"}],"anonymous":false},{"type":"event","name":"MaxPerDepositUpdated","inputs":[{"name":"previousValue","type":"uint256","indexed":false,"internalType":"uint256"},{"name":"newValue","type":"uint256","indexed":false,"internalType":"uint256"}],"anonymous":false},{"type":"event","name":"MaxTotalDepositsUpdated","inputs":[{"name":"previousValue","type":"uint256","indexed":false,"internalType":"uint256"},{"name":"newValue","type":"uint256","indexed":false,"internalType":"uint256"}],"anonymous":false},{"type":"event","name":"Paused","inputs":[{"name":"account","type":"address","indexed":true,"internalType":"address"},{"name":"newPausedStatus","type":"uint256","indexed":false,"internalType":"uint256"}],"anonymous":false},{"type":"event","name":"StrategyTokenSet","inputs":[{"name":"token","type":"address","indexed":false,"internalType":"contract IERC20"},{"name":"decimals","type":"uint8","indexed":false,"internalType":"uint8"}],"anonymous":false},{"type":"event","name":"Unpaused","inputs":[{"name":"account","type":"address","indexed":true,"internalType":"address"},{"name":"newPausedStatus","type":"uint256","indexed":false,"internalType":"uint256"}],"anonymous":false},{"type":"error","name":"BalanceExceedsMaxTotalDeposits","inputs":[]},{"type":"error","name":"CurrentlyPaused","inputs":[]},{"type":"error","name":"InputAddressZero","inputs":[]},{"type":"error","name":"InvalidNewPausedStatus","inputs":[]},{"type":"error","name":"InvalidShortString","inputs":[]},{"type":"error","name":"MaxPerDepositExceedsMax","inputs":[]},{"type":"error","name":"NewSharesZero","inputs":[]},{"type":"error","name":"OnlyPauser","inputs":[]},{"type":"error","name":"OnlyStrategyManager","inputs":[]},{"type":"error","name":"OnlyUnderlyingToken","inputs":[]},{"type":"error","name":"OnlyUnpauser","inputs":[]},{"type":"error","name":"StringTooLong","inputs":[{"name":"str","type":"string","internalType":"string"}]},{"type":"error","name":"TotalSharesExceedsMax","inputs":[]},{"type":"error","name":"WithdrawalAmountExceedsTotalDeposits","inputs":[]}],"bytecode":{"object":"0x60e060405234610239576115508038038061001981610251565b9283398101606082820312610239578151916001600160a01b03831683036102395760208101516001600160a01b03811691828203610239576040810151906001600160401b03821161023957019183601f840112156102395782516001600160401b03811161023d57610096601f8201601f1916602001610251565b9381855260208501956020838301011161023957815f926020809301885e850101521561022a57608052601f8151116101ee57519051602082106101de575b1760a05260c0525f5460ff8160081c166101895760ff8082160361014f575b6040516112d9908161027782396080518181816101660152818161098601528181610a4d01528181610d730152610e1d015260a05181610afc015260c0518181816102f101528181610b8f01528181610cea01526110310152f35b60ff90811916175f557f7f26b83ff96e1f2b6a682f133852f6798a09c465da95921460cefb3847402498602060405160ff8152a15f6100f4565b60405162461bcd60e51b815260206004820152602760248201527f496e697469616c697a61626c653a20636f6e747261637420697320696e697469604482015266616c697a696e6760c81b6064820152608490fd5b5f198260200360031b1b166100d5565b60449060405192839163305a27a960e01b8352602060048401525180918160248501528484015e5f828201840152601f01601f19168101030190fd5b6339b190bb60e11b5f5260045ffd5b5f80fd5b634e487b7160e01b5f52604160045260245ffd5b6040519190601f01601f191682016001600160401b0381118382101761023d5760405256fe6080806040526004361015610012575f80fd5b5f3560e01c90816311c70c9d14610dfa57508063136439dd14610d415780632495a59914610d1957806339b70e3814610cd55780633a98ef3914610cb857806343fe08b014610c9b57806347e7ef2414610b6557806354fd4d5014610aea578063553ca5f81461094b578063595c6a6714610a225780635ac86ab7146109ef5780635c975abb146109d257806361b01b5d146109b55780637a8b263714610249578063886f1195146109715780638c8710191461026f5780638f6a62401461094b578063a6ab36f21461080c578063ab5921e114610775578063c4d66de81461055f578063ce7c2ac21461053c578063d9caed12146102b1578063df6fadc11461028d578063e3dae51c1461026f578063f3e73875146102495763fabc1cbc1461013a575f80fd5b346102455760203660031901126102455760405163755b36bd60e11b81526004803591906020908290817f00000000000000000000000000000000000000000000000000000000000000006001600160a01b03165afa90811561023a575f9161020b575b506001600160a01b031633036101fc576001541981198116036101ed57806001556040519081527f3582d1828e26bf56bd801502bc021ac0bc8afb57c826e4986b45593c8fad389c60203392a2005b63c61dca5d60e01b5f5260045ffd5b63794821ff60e01b5f5260045ffd5b61022d915060203d602011610233575b6102258183610ed4565b810190610ef6565b5f61019e565b503d61021b565b6040513d5f823e3d90fd5b5f80fd5b34610245576020366003190112610245576020610267600435610f6b565b604051908152f35b34610245576020366003190112610245576020610267600435611093565b34610245575f36600319011261024557604060645460655482519182526020820152f35b34610245576060366003190112610245576102ca610e94565b6024356001600160a01b038116918282036102455760443591600280600154161461052d577f00000000000000000000000000000000000000000000000000000000000000006001600160a01b0316330361051e57610328906111c8565b60335480831161050f576103e881018082116104fb57610346611138565b916103e883018093116104fb5761037461036c61037e936103678887610f3a565b610f4d565b958692610f2d565b9283603355610f2d565b916103e882018092116104fb576103985f93928493611175565b60405163a9059cbb60e01b602082019081526001600160a01b0390921660248201526044808201959095529384526103d1606485610ed4565b604051936103e0604086610ed4565b602085527f5361666545524332303a206c6f772d6c6576656c2063616c6c206661696c65646020860152519082865af13d156104ee573d9067ffffffffffffffff82116104da57604051610452949092610444601f8201601f191660200185610ed4565b83523d5f602085013e6111ee565b80519081159182156104c0575b50501561046857005b60405162461bcd60e51b815260206004820152602a60248201527f5361666545524332303a204552433230206f7065726174696f6e20646964206e6044820152691bdd081cdd58d8d9595960b21b6064820152608490fd5b6104d39250602080918301019101610f15565b818061045f565b634e487b7160e01b5f52604160045260245ffd5b91610452926060916111ee565b634e487b7160e01b5f52601160045260245ffd5b630b469df360e41b5f5260045ffd5b6348da714f60e01b5f5260045ffd5b63840a48d560e01b5f5260045ffd5b3461024557602036600319011261024557602061026761055a610e94565b611001565b3461024557602036600319011261024557610578610e94565b5f5460ff8160081c161590818092610768575b8015610751575b61059b90610f9e565b60ff1981166001175f5581610740575b505f549160ff8360081c16156106e75760018060a01b0316806bffffffffffffffffffffffff60a01b60325416176032555f6001556040515f81525f5160206112845f395f51905f5260203392a260405163313ce56760e01b8152602081600481855afa90811561023a575f9161068b575b507f1c540707b00eb5427b6b774fc799d756516a54aee108b64b327acc55af5575079160ff6040928351928352166020820152a161065757005b61ff0019165f557f7f26b83ff96e1f2b6a682f133852f6798a09c465da95921460cefb3847402498602060405160018152a1005b90506020813d6020116106df575b816106a660209383610ed4565b81010312610245575160ff81168103610245577f1c540707b00eb5427b6b774fc799d756516a54aee108b64b327acc55af55750761061d565b3d9150610699565b60405162461bcd60e51b815260206004820152602b60248201527f496e697469616c697a61626c653a20636f6e7472616374206973206e6f74206960448201526a6e697469616c697a696e6760a81b6064820152608490fd5b61ffff1916610101175f55826105ab565b50303b158015610592575060ff8116600114610592565b50600160ff82161061058b565b34610245575f36600319011261024557610808604051610796608082610ed4565b604d81527f4261736520537472617465677920696d706c656d656e746174696f6e20746f2060208201527f696e68657269742066726f6d20666f72206d6f726520636f6d706c657820696d60408201526c706c656d656e746174696f6e7360981b606082015260405191829182610eaa565b0390f35b34610245576060366003190112610245576044356001600160a01b03811690819003610245575f5460ff8160081c16159081809261093e575b8015610927575b61085590610f9e565b60ff1981166001175f5581610916575b506108746024356004356110c5565b5f549160ff8360081c16156106e757806bffffffffffffffffffffffff60a01b60325416176032555f6001556040515f81525f5160206112845f395f51905f5260203392a260405163313ce56760e01b8152602081600481855afa90811561023a575f9161068b57507f1c540707b00eb5427b6b774fc799d756516a54aee108b64b327acc55af5575079160ff6040928351928352166020820152a161065757005b61ffff1916610101175f5582610865565b50303b15801561084c575060ff811660011461084c565b50600160ff821610610845565b3461024557602036600319011261024557602061026761096c61055a610e94565b610f6b565b34610245575f366003190112610245576040517f00000000000000000000000000000000000000000000000000000000000000006001600160a01b03168152602090f35b34610245575f366003190112610245576020606554604051908152f35b34610245575f366003190112610245576020600154604051908152f35b346102455760203660031901126102455760043560ff81168091036102455760016020911b806001541614604051908152f35b34610245575f3660031901126102455760405163237dfb4760e11b81523360048201526020816024817f00000000000000000000000000000000000000000000000000000000000000006001600160a01b03165afa90811561023a575f91610abb575b5015610aac575f196001556040515f1981525f5160206112845f395f51905f5260203392a2005b631d77d47760e21b5f5260045ffd5b610add915060203d602011610ae3575b610ad58183610ed4565b810190610f15565b81610a85565b503d610acb565b34610245575f366003190112610245577f000000000000000000000000000000000000000000000000000000000000000060ff8116601f8111610b56576108089160405191610b3a604084610ed4565b6020808452838101919036833783525260405191829182610eaa565b632cd44ac360e21b5f5260045ffd5b3461024557604036600319011261024557610b7e610e94565b602435906001808054161461052d577f00000000000000000000000000000000000000000000000000000000000000006001600160a01b0316330361051e576064548211610c8c57610bce611138565b60655410610c7d57610bdf906111c8565b603354906103e882018083116104fb57610bf7611138565b916103e883018093116104fb57610367610c1b92610c158386610f2d565b92610f3a565b908115610c6e578183018093116104fb57826033556f4b3b4ca85a86c47a098a223fffffffff8311610c5f576103e883018093116104fb5760209261026791611175565b632f14e8a360e11b5f5260045ffd5b630c392ed360e11b5f5260045ffd5b63d86bae6760e01b5f5260045ffd5b63052b07b760e21b5f5260045ffd5b34610245575f366003190112610245576020606454604051908152f35b34610245575f366003190112610245576020603354604051908152f35b34610245575f366003190112610245576040517f00000000000000000000000000000000000000000000000000000000000000006001600160a01b03168152602090f35b34610245575f366003190112610245576032546040516001600160a01b039091168152602090f35b346102455760203660031901126102455760405163237dfb4760e11b81523360048281019190915235906020816024817f00000000000000000000000000000000000000000000000000000000000000006001600160a01b03165afa90811561023a575f91610ddb575b5015610aac57600154818116036101ed57806001556040519081525f5160206112845f395f51905f5260203392a2005b610df4915060203d602011610ae357610ad58183610ed4565b82610dab565b346102455760403660031901126102455763755b36bd60e11b81526020816004817f00000000000000000000000000000000000000000000000000000000000000006001600160a01b03165afa90811561023a575f91610e75575b506001600160a01b031633036101fc57610e736024356004356110c5565b005b610e8e915060203d602011610233576102258183610ed4565b81610e55565b600435906001600160a01b038216820361024557565b602060409281835280519182918282860152018484015e5f828201840152601f01601f1916010190565b90601f8019910116810190811067ffffffffffffffff8211176104da57604052565b9081602091031261024557516001600160a01b03811681036102455790565b90816020910312610245575180151581036102455790565b919082039182116104fb57565b818102929181159184041417156104fb57565b8115610f57570490565b634e487b7160e01b5f52601260045260245ffd5b6033546103e881018091116104fb57610f82611138565b6103e881018091116104fb57610f9b9261036791610f3a565b90565b15610fa557565b60405162461bcd60e51b815260206004820152602e60248201527f496e697469616c697a61626c653a20636f6e747261637420697320616c72656160448201526d191e481a5b9a5d1a585b1a5e995960921b6064820152608490fd5b60405163fe243a1760e01b81526001600160a01b03918216600482015230602482015290602090829060449082907f0000000000000000000000000000000000000000000000000000000000000000165afa90811561023a575f91611064575090565b90506020813d60201161108b575b8161107f60209383610ed4565b81010312610245575190565b3d9150611072565b603354906103e882018092116104fb576110ab611138565b906103e882018092116104fb57610f9b9261036791610f3a565b7ff97ed4e083acac67830025ecbc756d8fe847cdbdca4cee3fe1e128e98b54ecb560406064548151908152836020820152a17f6ab181e0440bfbf4bacdf2e99674735ce6638005490688c5f994f5399353e45260406065548151908152846020820152a1818111610c8c57606455606555565b6032546040516370a0823160e01b815230600482015290602090829060249082906001600160a01b03165afa90811561023a575f91611064575090565b9081670de0b6b3a76400000291670de0b6b3a76400008304036104fb576111bf6020917fd2494f3479e5da49d386657c292c610b5b01df313d07c62eb0cfa49924a31be893610f4d565b604051908152a1565b6032546001600160a01b039081169116036111df57565b630312abdd60e61b5f5260045ffd5b919290156112505750815115611202575090565b3b1561120b5790565b60405162461bcd60e51b815260206004820152601d60248201527f416464726573733a2063616c6c20746f206e6f6e2d636f6e74726163740000006044820152606490fd5b8251909150156112635750805190602001fd5b60405162461bcd60e51b815290819061127f9060048301610eaa565b0390fdfeab40a374bc51de372200a8bc981af8c9ecdc08dfdaef0bb6e09f88f3c616ef3da264697066735822122031d7c17e21320395a18d0641192dbf9656e2f87529fe7794c18aac45b434a07c64736f6c634300081b0033","linkReferences":{}},"methodIdentifiers":{"deposit(address,uint256)":"47e7ef24","explanation()":"ab5921e1","getTVLLimits()":"df6fadc1","initialize(address)":"c4d66de8","initialize(uint256,uint256,address)":"a6ab36f2","maxPerDeposit()":"43fe08b0","maxTotalDeposits()":"61b01b5d","pause(uint256)":"136439dd","pauseAll()":"595c6a67","paused()":"5c975abb","paused(uint8)":"5ac86ab7","pauserRegistry()":"886f1195","setTVLLimits(uint256,uint256)":"11c70c9d","shares(address)":"ce7c2ac2","sharesToUnderlying(uint256)":"f3e73875","sharesToUnderlyingView(uint256)":"7a8b2637","strategyManager()":"39b70e38","totalShares()":"3a98ef39","underlyingToShares(uint256)":"8c871019","underlyingToSharesView(uint256)":"e3dae51c","underlyingToken()":"2495a599","unpause(uint256)":"fabc1cbc","userUnderlying(address)":"8f6a6240","userUnderlyingView(address)":"553ca5f8","version()":"54fd4d50","withdraw(address,address,uint256)":"d9caed12"},"id":46}