{"abi":[{"type":"constructor","inputs":[{"name":"_avsDirectory","type":"address","internalType":"contract IAVSDirectory"},{"name":"_rewardsCoordinator","type":"address","internalType":"contract IRewardsCoordinator"},{"name":"_slashingRegistryCoordinator","type":"address","internalType":"contract ISlashingRegistryCoordinator"},{"name":"_stakeRegistry","type":"address","internalType":"contract IStakeRegistry"},{"name":"_permissionController","type":"address","internalType":"contract IPermissionController"},{"name":"_allocationManager","type":"address","internalType":"contract IAllocationManager"}],"stateMutability":"nonpayable"},{"type":"function","name":"addPendingAdmin","inputs":[{"name":"admin","type":"address","internalType":"address"}],"outputs":[],"stateMutability":"nonpayable"},{"type":"function","name":"avsDirectory","inputs":[],"outputs":[{"name":"","type":"address","internalType":"address"}],"stateMutability":"view"},{"type":"function","name":"createAVSRewardsSubmission","inputs":[{"name":"rewardsSubmissions","type":"tuple[]","internalType":"struct IRewardsCoordinatorTypes.RewardsSubmission[]","components":[{"name":"strategiesAndMultipliers","type":"tuple[]","internalType":"struct IRewardsCoordinatorTypes.StrategyAndMultiplier[]","components":[{"name":"strategy","type":"address","internalType":"contract IStrategy"},{"name":"multiplier","type":"uint96","internalType":"uint96"}]},{"name":"token","type":"address","internalType":"contract IERC20"},{"name":"amount","type":"uint256","internalType":"uint256"},{"name":"startTimestamp","type":"uint32","internalType":"uint32"},{"name":"duration","type":"uint32","internalType":"uint32"}]}],"outputs":[],"stateMutability":"nonpayable"},{"type":"function","name":"createOperatorDirectedAVSRewardsSubmission","inputs":[{"name":"operatorDirectedRewardsSubmissions","type":"tuple[]","internalType":"struct IRewardsCoordinatorTypes.OperatorDirectedRewardsSubmission[]","components":[{"name":"strategiesAndMultipliers","type":"tuple[]","internalType":"struct IRewardsCoordinatorTypes.StrategyAndMultiplier[]","components":[{"name":"strategy","type":"address","internalType":"contract IStrategy"},{"name":"multiplier","type":"uint96","internalType":"uint96"}]},{"name":"token","type":"address","internalType":"contract IERC20"},{"name":"operatorRewards","type":"tuple[]","internalType":"struct IRewardsCoordinatorTypes.OperatorReward[]","components":[{"name":"operator","type":"address","internalType":"address"},{"name":"amount","type":"uint256","internalType":"uint256"}]},{"name":"startTimestamp","type":"uint32","internalType":"uint32"},{"name":"duration","type":"uint32","internalType":"uint32"},{"name":"description","type":"string","internalType":"string"}]}],"outputs":[],"stateMutability":"nonpayable"},{"type":"function","name":"deregisterOperatorFromAVS","inputs":[{"name":"operator","type":"address","internalType":"address"}],"outputs":[],"stateMutability":"nonpayable"},{"type":"function","name":"deregisterOperatorFromOperatorSets","inputs":[{"name":"operator","type":"address","internalType":"address"},{"name":"operatorSetIds","type":"uint32[]","internalType":"uint32[]"}],"outputs":[],"stateMutability":"nonpayable"},{"type":"function","name":"getOperatorRestakedStrategies","inputs":[{"name":"operator","type":"address","internalType":"address"}],"outputs":[{"name":"","type":"address[]","internalType":"address[]"}],"stateMutability":"view"},{"type":"function","name":"getRestakeableStrategies","inputs":[],"outputs":[{"name":"","type":"address[]","internalType":"address[]"}],"stateMutability":"view"},{"type":"function","name":"initialize","inputs":[{"name":"initialOwner","type":"address","internalType":"address"},{"name":"rewardsInitiator","type":"address","internalType":"address"}],"outputs":[],"stateMutability":"nonpayable"},{"type":"function","name":"owner","inputs":[],"outputs":[{"name":"","type":"address","internalType":"address"}],"stateMutability":"view"},{"type":"function","name":"registerOperatorToAVS","inputs":[{"name":"operator","type":"address","internalType":"address"},{"name":"operatorSignature","type":"tuple","internalType":"struct ISignatureUtilsMixinTypes.SignatureWithSaltAndExpiry","components":[{"name":"signature","type":"bytes","internalType":"bytes"},{"name":"salt","type":"bytes32","internalType":"bytes32"},{"name":"expiry","type":"uint256","internalType":"uint256"}]}],"outputs":[],"stateMutability":"nonpayable"},{"type":"function","name":"removeAdmin","inputs":[{"name":"admin","type":"address","internalType":"address"}],"outputs":[],"stateMutability":"nonpayable"},{"type":"function","name":"removeAppointee","inputs":[{"name":"appointee","type":"address","internalType":"address"},{"name":"target","type":"address","internalType":"address"},{"name":"selector","type":"bytes4","internalType":"bytes4"}],"outputs":[],"stateMutability":"nonpayable"},{"type":"function","name":"removePendingAdmin","inputs":[{"name":"pendingAdmin","type":"address","internalType":"address"}],"outputs":[],"stateMutability":"nonpayable"},{"type":"function","name":"renounceOwnership","inputs":[],"outputs":[],"stateMutability":"nonpayable"},{"type":"function","name":"rewardsInitiator","inputs":[],"outputs":[{"name":"","type":"address","internalType":"address"}],"stateMutability":"view"},{"type":"function","name":"setAppointee","inputs":[{"name":"appointee","type":"address","internalType":"address"},{"name":"target","type":"address","internalType":"address"},{"name":"selector","type":"bytes4","internalType":"bytes4"}],"outputs":[],"stateMutability":"nonpayable"},{"type":"function","name":"setClaimerFor","inputs":[{"name":"claimer","type":"address","internalType":"address"}],"outputs":[],"stateMutability":"nonpayable"},{"type":"function","name":"setRewardsInitiator","inputs":[{"name":"newRewardsInitiator","type":"address","internalType":"address"}],"outputs":[],"stateMutability":"nonpayable"},{"type":"function","name":"slashOperator","inputs":[{"name":"_params","type":"tuple","internalType":"struct IAllocationManagerTypes.SlashingParams","components":[{"name":"operator","type":"address","internalType":"address"},{"name":"operatorSetId","type":"uint32","internalType":"uint32"},{"name":"strategies","type":"address[]","internalType":"contract IStrategy[]"},{"name":"wadsToSlash","type":"uint256[]","internalType":"uint256[]"},{"name":"description","type":"string","internalType":"string"}]}],"outputs":[],"stateMutability":"nonpayable"},{"type":"function","name":"transferOwnership","inputs":[{"name":"newOwner","type":"address","internalType":"address"}],"outputs":[],"stateMutability":"nonpayable"},{"type":"function","name":"updateAVSMetadataURI","inputs":[{"name":"_metadataURI","type":"string","internalType":"string"}],"outputs":[],"stateMutability":"nonpayable"},{"type":"event","name":"Initialized","inputs":[{"name":"version","type":"uint8","indexed":false,"internalType":"uint8"}],"anonymous":false},{"type":"event","name":"OwnershipTransferred","inputs":[{"name":"previousOwner","type":"address","indexed":true,"internalType":"address"},{"name":"newOwner","type":"address","indexed":true,"internalType":"address"}],"anonymous":false},{"type":"event","name":"RewardsInitiatorUpdated","inputs":[{"name":"prevRewardsInitiator","type":"address","indexed":false,"internalType":"address"},{"name":"newRewardsInitiator","type":"address","indexed":false,"internalType":"address"}],"anonymous":false},{"type":"error","name":"DelayPeriodNotPassed","inputs":[]},{"type":"error","name":"OnlyRegistryCoordinator","inputs":[]},{"type":"error","name":"OnlyRewardsInitiator","inputs":[]},{"type":"error","name":"OnlyStakeRegistry","inputs":[]}],"bytecode":{"object":"0x6101403461022857601f61256b38819003918201601f19168301916001600160401b0383118484101761022c5780849260c094604052833981010312610228578051906001600160a01b03821682036102285760208101516001600160a01b03811681036102285760408201516001600160a01b0381168103610228576060830151916001600160a01b0383168303610228576080840151936001600160a01b03851685036102285760a00151946001600160a01b03861686036102285760805260c05260e052610100526101205260a0525f5460ff8160081c166101d35760ff80821603610199575b60405161232a908161024182396080518181816106830152818161073201528181610c4f0152610d8d015260a0518181816104b901526110d9015260c051818181610149015281816107d70152610a96015260e0518181816104600152818161070001528181610c22015281816117470152611ca60152610100518181816118610152611cf20152610120518181816105c001528181610b230152818161129f0152818161131e01526113bc0152f35b60ff90811916175f557f7f26b83ff96e1f2b6a682f133852f6798a09c465da95921460cefb3847402498602060405160ff8152a15f6100e9565b60405162461bcd60e51b815260206004820152602760248201527f496e697469616c697a61626c653a20636f6e747261637420697320696e697469604482015266616c697a696e6760c81b6064820152608490fd5b5f80fd5b634e487b7160e01b5f52604160045260245ffdfe60806040526004361015610011575f80fd5b5f5f3560e01c80631785f53c146113985780631fdb0cfd14611301578063279432eb1461127a57806333cfb7b7146112555780633bc28c8c146112305780633d07142214610f61578063485cc95514610dbc5780636b3aa72e14610d77578063715018a614610d1a5780638da5cb5b14610cf15780639926ee7d14610b855780639da16d8e14610afe578063a0169ddd14610a71578063a20b99bf1461079a578063a364f4da146106e4578063a98fb35514610647578063ba550880146105a3578063c1a8e2c5146103e2578063e481af9d146103b6578063f2fde38b14610325578063fc299dee146102fc5763fce36c7d1461010c575f80fd5b346101e95760203660031901126101e9576004356001600160401b0381116102f85761013c9036906004016115e5565b610147929192612017565b7f00000000000000000000000000000000000000000000000000000000000000006001600160a01b031690825b8181106102945750813b15610290576040519363fce36c7d60e01b8552816024860160206004880152526044850160448360051b87010192828690609e19813603015b8383106101f75788808b8181808c0381838f5af180156101ec576101d85750f35b816101e29161152d565b6101e95780f35b80fd5b6040513d84823e3d90fd5b9091929394956043198a820301865286358281121561028c5760206001928582930190608063ffffffff61027a826102406102328780611bfd565b60a0885260a0880191611c31565b95898060a01b0361025289830161145d565b1688870152604081013560408701528361026e6060830161154e565b1660608701520161154e565b169101529801960194930191906101b7565b8980fd5b8280fd5b806102c96102b060206102aa600195878b611ef7565b01611be9565b60406102bd84878b611ef7565b0135903090339061203a565b6102f26102dc60206102aa84878b611ef7565b8560406102ea85888c611ef7565b013591612085565b01610174565b5080fd5b50346101e957806003193601126101e9576065546040516001600160a01b039091168152602090f35b50346101e95760203660031901126101e95761033f611447565b610347611f19565b6001600160a01b038116156103625761035f90611fcf565b80f35b60405162461bcd60e51b815260206004820152602660248201527f4f776e61626c653a206e6577206f776e657220697320746865207a65726f206160448201526564647265737360d01b6064820152608490fd5b50346101e957806003193601126101e9576103de6103d2611c97565b604051918291826114bc565b0390f35b50346101e95760403660031901126101e9576103fc611447565b90602435916001600160401b0383116102f857366023840112156102f8578260040135926104298461155f565b93610437604051958661152d565b8085526024602086019160051b8301019136831161059f57602401905b828210610587575050507f00000000000000000000000000000000000000000000000000000000000000006001600160a01b03163303610578576040519061049b826114fe565b6001600160a01b0390811682523060208301908152604083019485527f000000000000000000000000000000000000000000000000000000000000000090911693909190843b1561057457604051636e3492b560e01b815260206004820181905292516001600160a01b03908116602483015293519093166044840152516060606484015280516084840181905260a48401929190910190845b81811061055857505050818394818581819503925af180156101ec576101d85750f35b825163ffffffff16845260209384019390920191600101610535565b8380fd5b634394dbdf60e11b8252600482fd5b602080916105948461154e565b815201910190610454565b8480fd5b50346101e957806105b336611471565b6105be929192611f19565b7f00000000000000000000000000000000000000000000000000000000000000006001600160a01b0316803b1561059f57604051630664120160e01b81523060048201526001600160a01b0393841660248201529390921660448401526001600160e01b031916606483015282908290818381608481015b03925af180156101ec576101d85750f35b50346101e95760203660031901126101e957806004356001600160401b0381116106e1576106799036906004016115c7565b610681611f19565b7f00000000000000000000000000000000000000000000000000000000000000006001600160a01b0316803b156106df5760405163a98fb35560e01b8152602060048201529183918391829084908290610636906024830190611b6e565b505b50fd5b50346101e95760203660031901126101e9576106fe611447565b7f00000000000000000000000000000000000000000000000000000000000000006001600160a01b031633036105785781907f00000000000000000000000000000000000000000000000000000000000000006001600160a01b031690813b156106df576040516351b27a6d60e11b81526001600160a01b0390911660048201529082908290602490829084905af180156101ec576101d85750f35b50346101e95760203660031901126101e9576004356001600160401b0381116102f8576107cb9036906004016115e5565b91906107d5612017565b7f00000000000000000000000000000000000000000000000000000000000000006001600160a01b0316825b8481106109bc5750803b156102905760409391935191634e5cd2fd60e11b8352806044840130600486015260406024860152526064830160648260051b850101918691869760be19813603015b838a1061086f578880898181808b0381838e5af180156101ec576101d85750f35b909192939460631988820301845285358281121561028c578301906108a56108978380611bfd565b60c0845260c0840191611c31565b916001600160a01b036108ba6020830161145d565b16602083015260206108cf6040830183611bfd565b848603604086015280865294909101938c905b80821061098c5750505063ffffffff6108fd6060830161154e565b16606083015263ffffffff6109146080830161154e565b16608083015260a0810135601e1982360301811215610988570190602082359201906001600160401b03831161098857823603821361098857838360209485948460a0879660019a03910152818452848401378d838284010152601f8019910116010197019401990198919093929361084e565b8b80fd5b909194604080600192838060a01b036109a48a61145d565b168152602089013560208201520196019201906108e2565b90929193829483955b6109dd6109d3858585611b92565b6040810190611bb4565b9050871015610a2d576109f46109d3858585611b92565b881015610a19576001916020610a11928a60061b01013590611685565b9601956109c5565b634e487b7160e01b86526032600452602486fd5b919550929391600191610a6b90610a55813033610a5060206102aa898f8e611b92565b61203a565b84610a6660206102aa868c8b611b92565b612085565b01610801565b50346101e95760203660031901126101e95780610a8c611447565b610a94611f19565b7f00000000000000000000000000000000000000000000000000000000000000006001600160a01b031690813b156106df5760405163a0169ddd60e01b81526001600160a01b0390911660048201529082908290602490829084905af180156101ec576101d85750f35b50346101e95760203660031901126101e95780610b19611447565b610b21611f19565b7f00000000000000000000000000000000000000000000000000000000000000006001600160a01b0316803b156106df57604051634f906cf960e01b81523060048201526001600160a01b0390921660248301528290829081838160448101610636565b50346101e95760403660031901126101e957610b9f611447565b906024356001600160401b0381116102f857606060031982360301126102f85760405192610bcc846114fe565b81600401356001600160401b0381116105745782013660238201121561057457610c00903690602460048201359101611591565b8452602084019060248301358252604460408601930135835260018060a01b037f0000000000000000000000000000000000000000000000000000000000000000163303610ce25792938493907f00000000000000000000000000000000000000000000000000000000000000006001600160a01b031690813b15610cde5785610cc093819560405197889687958694639926ee7d60e01b865260018060a01b0316600486015260406024860152516060604486015260a4850190611b6e565b9151606484015251608483015203925af180156101ec576101d85750f35b8580fd5b634394dbdf60e11b8452600484fd5b50346101e957806003193601126101e9576033546040516001600160a01b039091168152602090f35b50346101e957806003193601126101e957610d33611f19565b603380546001600160a01b0319811690915581906001600160a01b03167f8be0079c531659141344cd1fd0a4f28419497f9722a3daafe3b4186f6b6457e08280a380f35b50346101e957806003193601126101e9576040517f00000000000000000000000000000000000000000000000000000000000000006001600160a01b03168152602090f35b50346101e95760403660031901126101e957610dd6611447565b602435906001600160a01b03821682036102905782549160ff8360081c161592838094610f54575b8015610f3d575b15610ee15760ff198116600117855583610ed0575b5060ff845460081c1615610e7757610e34610e3992611fcf565b611f71565b610e405780f35b61ff001981541681557f7f26b83ff96e1f2b6a682f133852f6798a09c465da95921460cefb3847402498602060405160018152a180f35b60405162461bcd60e51b815260206004820152602b60248201527f496e697469616c697a61626c653a20636f6e7472616374206973206e6f74206960448201526a6e697469616c697a696e6760a81b6064820152608490fd5b61ffff19166101011784555f610e1a565b60405162461bcd60e51b815260206004820152602e60248201527f496e697469616c697a61626c653a20636f6e747261637420697320616c72656160448201526d191e481a5b9a5d1a585b1a5e995960921b6064820152608490fd5b50303b158015610e055750600160ff821614610e05565b50600160ff821610610dfe565b50346101e95760203660031901126101e957600435906001600160401b0382116101e95760a060031983360301126101e9576040519160a083018381106001600160401b0382111761121c57604052610fbc8160040161145d565b8352610fca6024820161154e565b906020840191825260448101356001600160401b0381116105745781019036602383011215610574576004820135916110028361155f565b92611010604051948561152d565b808452602060048186019260051b840101019136831161121857602401905b828210611200575050506040850191825260648101356001600160401b03811161059f578101903660238301121561059f576004820135916110708361155f565b9261107e604051948561152d565b808452602060048186019260051b84010101913683116111fc57602401905b8282106111ec575050506060860191825260848101356001600160401b038111610cde576110d0913691016004016115c7565b608086019081527f00000000000000000000000000000000000000000000000000000000000000006001600160a01b031692909190833b15610cde5760408051633635205760e01b8152306004820152602481019190915296516001600160a01b03166044880152935163ffffffff166064870152925160a06084870152805160e48701819052929593610104850193909160200190865b8181106111cd5750505051916043198482030160a485015260208084519283815201930190855b8181106111b757505050839483858161063682968296516043198483030160c4850152611b6e565b825185526020948501949092019160010161118f565b82516001600160a01b0316865260209586019590920191600101611168565b813581526020918201910161109d565b8780fd5b6020809161120d8461145d565b81520191019061102f565b8680fd5b634e487b7160e01b83526041600452602483fd5b50346101e95760203660031901126101e95761035f61124d611447565b610e34611f19565b50346101e95760203660031901126101e9576103de6103d2611275611447565b611727565b50346101e95760203660031901126101e95780611295611447565b61129d611f19565b7f00000000000000000000000000000000000000000000000000000000000000006001600160a01b0316803b156106df5760405163eb5a4e8760e01b81523060048201526001600160a01b0390921660248301528290829081838160448101610636565b50346101e9578061131136611471565b61131c929192611f19565b7f00000000000000000000000000000000000000000000000000000000000000006001600160a01b0316803b1561059f57604051634a86c03760e11b81523060048201526001600160a01b0393841660248201529390921660448401526001600160e01b03191660648301528290829081838160848101610636565b5034611443576020366003190112611443576113b2611447565b6113ba611f19565b7f00000000000000000000000000000000000000000000000000000000000000006001600160a01b0316803b156114435760405163268959e560e01b81523060048201526001600160a01b039290921660248301525f908290604490829084905af180156114385761142a575080f35b61143691505f9061152d565b005b6040513d5f823e3d90fd5b5f80fd5b600435906001600160a01b038216820361144357565b35906001600160a01b038216820361144357565b6060906003190112611443576004356001600160a01b038116810361144357906024356001600160a01b038116810361144357906044356001600160e01b0319811681036114435790565b60206040818301928281528451809452019201905f5b8181106114df5750505090565b82516001600160a01b03168452602093840193909201916001016114d2565b606081019081106001600160401b0382111761151957604052565b634e487b7160e01b5f52604160045260245ffd5b90601f801991011681019081106001600160401b0382111761151957604052565b359063ffffffff8216820361144357565b6001600160401b0381116115195760051b60200190565b6001600160401b03811161151957601f01601f191660200190565b92919261159d82611576565b916115ab604051938461152d565b829481845281830111611443578281602093845f960137010152565b9080601f83011215611443578160206115e293359101611591565b90565b9181601f84011215611443578235916001600160401b038311611443576020808501948460051b01011161144357565b90816020910312611443575160ff811681036114435790565b906116388261155f565b611645604051918261152d565b8281528092611656601f199161155f565b0190602036910137565b908151811015611671570160200190565b634e487b7160e01b5f52603260045260245ffd5b9190820180921161169257565b634e487b7160e01b5f52601160045260245ffd5b908160409103126114435760405190604082018281106001600160401b03821117611519576040528051906001600160a01b038216820361144357602091835201516bffffffffffffffffffffffff8116810361144357602082015290565b80518210156116715760209160051b010190565b5f1981146116925760010190565b6040516309aa152760e11b81526001600160a01b039182166004820152907f000000000000000000000000000000000000000000000000000000000000000016602082602481845afa918215611438575f92611b3a575b506040519163871ef04960e01b83526004830152602082602481845afa918215611438575f92611af6575b506001600160c01b038216908115908115611a93575b50611a7957805f915b611a54575061ffff166117da81611576565b906117e8604051928361152d565b8082526117f7601f1991611576565b013660208301375f5f5b8251821080611a49575b15611859576001811b84166001600160c01b0316611832575b61182d90611719565b611801565b90600161182d9160ff60f81b8460f81b165f1a61184f8287611660565b5301919050611824565b505f939250507f00000000000000000000000000000000000000000000000000000000000000006001600160a01b031690835b81518510156119145761189f8583611660565b5160f81c60405190633ca5a5f560e01b82526004820152602081602481875afa908115611438575f916118e2575b506118da90600192611685565b94019361188c565b90506020813d821161190c575b816118fc6020938361152d565b81010312611443575160016118cd565b3d91506118ef565b61191f91945061162e565b925f905f5b8151811015611a43576119378183611660565b5160f81c60405190633ca5a5f560e01b8252806004830152602082602481895afa918215611438575f92611a10575b50905f915b81831061197d57505050600101611924565b604080516356e4026d60e11b815260ff83166004820152602481018590529396929391929190816044818b5afa918215611438576001926119d9925f916119e2575b50838060a01b039051166119d3828d611705565b52611719565b9501919061196b565b611a03915060403d8111611a09575b6119fb818361152d565b8101906116a6565b5f6119bf565b503d6119f1565b9091506020813d8211611a3b575b81611a2b6020938361152d565b810103126114435751905f611966565b3d9150611a1e565b50505050565b50610100811061180b565b5f1981018181116116925761ffff9116911661ffff81146116925760010190806117c8565b5050604051611a8960208261152d565b5f81525f36813790565b604051639aa1653d60e01b81529150602090829060049082905afa80156114385760ff915f91611ac7575b5016155f6117bf565b611ae9915060203d602011611aef575b611ae1818361152d565b810190611615565b5f611abe565b503d611ad7565b9091506020813d602011611b32575b81611b126020938361152d565b8101031261144357516001600160c01b038116810361144357905f6117a9565b3d9150611b05565b9091506020813d602011611b66575b81611b566020938361152d565b810103126114435751905f61177e565b3d9150611b49565b805180835260209291819084018484015e5f828201840152601f01601f1916010190565b91908110156116715760051b8101359060be1981360301821215611443570190565b903590601e198136030182121561144357018035906001600160401b03821161144357602001918160061b3603831361144357565b356001600160a01b03811681036114435790565b9035601e19823603018112156114435701602081359101916001600160401b038211611443578160061b3603831361144357565b916020908281520191905f905b808210611c4b5750505090565b91929091906001600160a01b03611c618561145d565b1681526020840135906bffffffffffffffffffffffff821680920361144357604081600193602083940152019401920190611c3e565b604051639aa1653d60e01b81527f00000000000000000000000000000000000000000000000000000000000000006001600160a01b031690602081600481855afa80156114385760ff915f91611ed8575b50168015611a79577f00000000000000000000000000000000000000000000000000000000000000006001600160a01b0316905f9081905b808310611e625750611d32915061162e565b925f905f5b604051639aa1653d60e01b8152602081600481895afa80156114385760ff915f91611e44575b5016811015611e3d57604051633ca5a5f560e01b815260ff821660048201819052602082602481895afa918215611438575f92611e0a575b50905f915b818310611dac57505050600101611d37565b604080516356e4026d60e11b815260ff83166004820152602481018590529396929391929190816044818b5afa91821561143857600192611e01925f916119e25750838060a01b039051166119d3828d611705565b95019190611d9a565b9091506020813d8211611e35575b81611e256020938361152d565b810103126114435751905f611d95565b3d9150611e18565b5092505050565b611e5c915060203d8111611aef57611ae1818361152d565b5f611d5d565b90604051633ca5a5f560e01b815260ff84166004820152602081602481885afa908115611438575f91611ea6575b50611e9d90600192611685565b92019190611d20565b90506020813d8211611ed0575b81611ec06020938361152d565b8101031261144357516001611e90565b3d9150611eb3565b611ef1915060203d602011611aef57611ae1818361152d565b5f611ce8565b91908110156116715760051b81013590609e1981360301821215611443570190565b6033546001600160a01b03163303611f2d57565b606460405162461bcd60e51b815260206004820152602060248201527f4f776e61626c653a2063616c6c6572206973206e6f7420746865206f776e65726044820152fd5b606554604080516001600160a01b038084168252841660208201529192917fe11cddf1816a43318ca175bbc52cd0185436e9cbead7c83acc54a73e461717e39190a16001600160a01b03166001600160a01b03199190911617606555565b603380546001600160a01b039283166001600160a01b0319821681179092559091167f8be0079c531659141344cd1fd0a4f28419497f9722a3daafe3b4186f6b6457e05f80a3565b6065546001600160a01b0316330361202b57565b638e79fdb560e01b5f5260045ffd5b6040516323b872dd60e01b60208201526001600160a01b0392831660248201529290911660448301526064808301939093529181526120839161207e60848361152d565b612143565b565b604051636eb1769f60e11b81523060048201526001600160a01b0383166024820152602081806044810103816001600160a01b0386165afa908115611438575f9161210f575b50612083936120d991611685565b60405163095ea7b360e01b60208201526001600160a01b039093166024840152604480840191909152825261207e60648361152d565b90506020813d60201161213b575b8161212a6020938361152d565b8101031261144357516120836120cb565b3d915061211d565b906121c29160018060a01b03165f806040519361216160408661152d565b602085527f5361666545524332303a206c6f772d6c6576656c2063616c6c206661696c6564602086015260208151910182855af13d15612253573d916121a683611576565b926121b4604051948561152d565b83523d5f602085013e612257565b8051908115918215612230575b5050156121d857565b60405162461bcd60e51b815260206004820152602a60248201527f5361666545524332303a204552433230206f7065726174696f6e20646964206e6044820152691bdd081cdd58d8d9595960b21b6064820152608490fd5b819250906020918101031261144357602001518015158103611443575f806121cf565b6060915b919290156122b9575081511561226b575090565b3b156122745790565b60405162461bcd60e51b815260206004820152601d60248201527f416464726573733a2063616c6c20746f206e6f6e2d636f6e74726163740000006044820152606490fd5b8251909150156122cc5750805190602001fd5b60405162461bcd60e51b8152602060048201529081906122f0906024830190611b6e565b0390fdfea26469706673582212205eea7de0ea03e3de18243d79f8e70c11d553033fe9edc0788c22304f7c7db89964736f6c634300081b0033","linkReferences":{}},"methodIdentifiers":{"addPendingAdmin(address)":"279432eb","avsDirectory()":"6b3aa72e","createAVSRewardsSubmission(((address,uint96)[],address,uint256,uint32,uint32)[])":"fce36c7d","createOperatorDirectedAVSRewardsSubmission(((address,uint96)[],address,(address,uint256)[],uint32,uint32,string)[])":"a20b99bf","deregisterOperatorFromAVS(address)":"a364f4da","deregisterOperatorFromOperatorSets(address,uint32[])":"c1a8e2c5","getOperatorRestakedStrategies(address)":"33cfb7b7","getRestakeableStrategies()":"e481af9d","initialize(address,address)":"485cc955","owner()":"8da5cb5b","registerOperatorToAVS(address,(bytes,bytes32,uint256))":"9926ee7d","removeAdmin(address)":"1785f53c","removeAppointee(address,address,bytes4)":"ba550880","removePendingAdmin(address)":"9da16d8e","renounceOwnership()":"715018a6","rewardsInitiator()":"fc299dee","setAppointee(address,address,bytes4)":"1fdb0cfd","setClaimerFor(address)":"a0169ddd","setRewardsInitiator(address)":"3bc28c8c","slashOperator((address,uint32,address[],uint256[],string))":"3d071422","transferOwnership(address)":"f2fde38b","updateAVSMetadataURI(string)":"a98fb355"},"id":137}