{"abi":[{"type":"function","name":"DELEGATION_APPROVAL_TYPEHASH","inputs":[],"outputs":[{"name":"","type":"bytes32","internalType":"bytes32"}],"stateMutability":"view"},{"type":"function","name":"beaconChainETHStrategy","inputs":[],"outputs":[{"name":"","type":"address","internalType":"contract IStrategy"}],"stateMutability":"view"},{"type":"function","name":"burnOperatorShares","inputs":[{"name":"operator","type":"address","internalType":"address"},{"name":"strategy","type":"address","internalType":"contract IStrategy"},{"name":"prevMaxMagnitude","type":"uint64","internalType":"uint64"},{"name":"newMaxMagnitude","type":"uint64","internalType":"uint64"}],"outputs":[],"stateMutability":"nonpayable"},{"type":"function","name":"calculateDelegationApprovalDigestHash","inputs":[{"name":"staker","type":"address","internalType":"address"},{"name":"operator","type":"address","internalType":"address"},{"name":"_delegationApprover","type":"address","internalType":"address"},{"name":"approverSalt","type":"bytes32","internalType":"bytes32"},{"name":"expiry","type":"uint256","internalType":"uint256"}],"outputs":[{"name":"","type":"bytes32","internalType":"bytes32"}],"stateMutability":"view"},{"type":"function","name":"calculateWithdrawalRoot","inputs":[{"name":"withdrawal","type":"tuple","internalType":"struct IDelegationManagerTypes.Withdrawal","components":[{"name":"staker","type":"address","internalType":"address"},{"name":"delegatedTo","type":"address","internalType":"address"},{"name":"withdrawer","type":"address","internalType":"address"},{"name":"nonce","type":"uint256","internalType":"uint256"},{"name":"startBlock","type":"uint32","internalType":"uint32"},{"name":"strategies","type":"address[]","internalType":"contract IStrategy[]"},{"name":"scaledShares","type":"uint256[]","internalType":"uint256[]"}]}],"outputs":[{"name":"","type":"bytes32","internalType":"bytes32"}],"stateMutability":"pure"},{"type":"function","name":"completeQueuedWithdrawal","inputs":[{"name":"withdrawal","type":"tuple","internalType":"struct IDelegationManagerTypes.Withdrawal","components":[{"name":"staker","type":"address","internalType":"address"},{"name":"delegatedTo","type":"address","internalType":"address"},{"name":"withdrawer","type":"address","internalType":"address"},{"name":"nonce","type":"uint256","internalType":"uint256"},{"name":"startBlock","type":"uint32","internalType":"uint32"},{"name":"strategies","type":"address[]","internalType":"contract IStrategy[]"},{"name":"scaledShares","type":"uint256[]","internalType":"uint256[]"}]},{"name":"tokens","type":"address[]","internalType":"contract IERC20[]"},{"name":"middlewareTimesIndex","type":"uint256","internalType":"uint256"},{"name":"receiveAsTokens","type":"bool","internalType":"bool"}],"outputs":[],"stateMutability":"nonpayable"},{"type":"function","name":"completeQueuedWithdrawal","inputs":[{"name":"withdrawal","type":"tuple","internalType":"struct IDelegationManagerTypes.Withdrawal","components":[{"name":"staker","type":"address","internalType":"address"},{"name":"delegatedTo","type":"address","internalType":"address"},{"name":"withdrawer","type":"address","internalType":"address"},{"name":"nonce","type":"uint256","internalType":"uint256"},{"name":"startBlock","type":"uint32","internalType":"uint32"},{"name":"strategies","type":"address[]","internalType":"contract IStrategy[]"},{"name":"scaledShares","type":"uint256[]","internalType":"uint256[]"}]},{"name":"tokens","type":"address[]","internalType":"contract IERC20[]"},{"name":"receiveAsTokens","type":"bool","internalType":"bool"}],"outputs":[],"stateMutability":"nonpayable"},{"type":"function","name":"completeQueuedWithdrawals","inputs":[{"name":"withdrawals","type":"tuple[]","internalType":"struct IDelegationManagerTypes.Withdrawal[]","components":[{"name":"staker","type":"address","internalType":"address"},{"name":"delegatedTo","type":"address","internalType":"address"},{"name":"withdrawer","type":"address","internalType":"address"},{"name":"nonce","type":"uint256","internalType":"uint256"},{"name":"startBlock","type":"uint32","internalType":"uint32"},{"name":"strategies","type":"address[]","internalType":"contract IStrategy[]"},{"name":"scaledShares","type":"uint256[]","internalType":"uint256[]"}]},{"name":"tokens","type":"address[][]","internalType":"contract IERC20[][]"},{"name":"middlewareTimesIndexes","type":"uint256[]","internalType":"uint256[]"},{"name":"receiveAsTokens","type":"bool[]","internalType":"bool[]"}],"outputs":[],"stateMutability":"nonpayable"},{"type":"function","name":"completeQueuedWithdrawals","inputs":[{"name":"tokens","type":"address[][]","internalType":"contract IERC20[][]"},{"name":"receiveAsTokens","type":"bool[]","internalType":"bool[]"},{"name":"numToComplete","type":"uint256","internalType":"uint256"}],"outputs":[],"stateMutability":"nonpayable"},{"type":"function","name":"completeQueuedWithdrawals","inputs":[{"name":"withdrawals","type":"tuple[]","internalType":"struct IDelegationManagerTypes.Withdrawal[]","components":[{"name":"staker","type":"address","internalType":"address"},{"name":"delegatedTo","type":"address","internalType":"address"},{"name":"withdrawer","type":"address","internalType":"address"},{"name":"nonce","type":"uint256","internalType":"uint256"},{"name":"startBlock","type":"uint32","internalType":"uint32"},{"name":"strategies","type":"address[]","internalType":"contract IStrategy[]"},{"name":"scaledShares","type":"uint256[]","internalType":"uint256[]"}]},{"name":"tokens","type":"address[][]","internalType":"contract IERC20[][]"},{"name":"receiveAsTokens","type":"bool[]","internalType":"bool[]"}],"outputs":[],"stateMutability":"nonpayable"},{"type":"function","name":"convertToDepositShares","inputs":[{"name":"staker","type":"address","internalType":"address"},{"name":"strategies","type":"address[]","internalType":"contract IStrategy[]"},{"name":"withdrawableShares","type":"uint256[]","internalType":"uint256[]"}],"outputs":[{"name":"","type":"uint256[]","internalType":"uint256[]"}],"stateMutability":"view"},{"type":"function","name":"cumulativeWithdrawalsQueued","inputs":[{"name":"staker","type":"address","internalType":"address"}],"outputs":[{"name":"","type":"uint256","internalType":"uint256"}],"stateMutability":"view"},{"type":"function","name":"decreaseBeaconChainScalingFactor","inputs":[{"name":"staker","type":"address","internalType":"address"},{"name":"existingShares","type":"uint256","internalType":"uint256"},{"name":"proportionOfOldBalance","type":"uint64","internalType":"uint64"}],"outputs":[],"stateMutability":"nonpayable"},{"type":"function","name":"decreaseDelegatedShares","inputs":[{"name":"staker","type":"address","internalType":"address"},{"name":"curDepositShares","type":"uint256","internalType":"uint256"},{"name":"beaconChainSlashingFactorDecrease","type":"uint64","internalType":"uint64"}],"outputs":[],"stateMutability":"nonpayable"},{"type":"function","name":"decreaseDelegatedShares","inputs":[{"name":"staker","type":"address","internalType":"address"},{"name":"curDepositShares","type":"uint256","internalType":"uint256"},{"name":"prevBeaconChainSlashingFactor","type":"uint64","internalType":"uint64"},{"name":"wadSlashed","type":"uint256","internalType":"uint256"}],"outputs":[],"stateMutability":"nonpayable"},{"type":"function","name":"delegateTo","inputs":[{"name":"operator","type":"address","internalType":"address"},{"name":"approverSignatureAndExpiry","type":"tuple","internalType":"struct ISignatureUtilsMixinTypes.SignatureWithExpiry","components":[{"name":"signature","type":"bytes","internalType":"bytes"},{"name":"expiry","type":"uint256","internalType":"uint256"}]},{"name":"approverSalt","type":"bytes32","internalType":"bytes32"}],"outputs":[],"stateMutability":"nonpayable"},{"type":"function","name":"delegatedTo","inputs":[{"name":"staker","type":"address","internalType":"address"}],"outputs":[{"name":"","type":"address","internalType":"address"}],"stateMutability":"view"},{"type":"function","name":"delegationApprover","inputs":[{"name":"operator","type":"address","internalType":"address"}],"outputs":[{"name":"","type":"address","internalType":"address"}],"stateMutability":"view"},{"type":"function","name":"delegationApproverSaltIsSpent","inputs":[{"name":"_delegationApprover","type":"address","internalType":"address"},{"name":"salt","type":"bytes32","internalType":"bytes32"}],"outputs":[{"name":"","type":"bool","internalType":"bool"}],"stateMutability":"view"},{"type":"function","name":"depositScalingFactor","inputs":[{"name":"staker","type":"address","internalType":"address"},{"name":"strategy","type":"address","internalType":"contract IStrategy"}],"outputs":[{"name":"","type":"uint256","internalType":"uint256"}],"stateMutability":"view"},{"type":"function","name":"domainSeparator","inputs":[],"outputs":[{"name":"","type":"bytes32","internalType":"bytes32"}],"stateMutability":"pure"},{"type":"function","name":"getBeaconChainSlashingFactor","inputs":[{"name":"staker","type":"address","internalType":"address"}],"outputs":[{"name":"","type":"uint64","internalType":"uint64"}],"stateMutability":"view"},{"type":"function","name":"getDepositedShares","inputs":[{"name":"staker","type":"address","internalType":"address"}],"outputs":[{"name":"","type":"address[]","internalType":"contract IStrategy[]"},{"name":"","type":"uint256[]","internalType":"uint256[]"}],"stateMutability":"view"},{"type":"function","name":"getOperatorShares","inputs":[{"name":"operator","type":"address","internalType":"address"},{"name":"strategies","type":"address[]","internalType":"contract IStrategy[]"}],"outputs":[{"name":"","type":"uint256[]","internalType":"uint256[]"}],"stateMutability":"view"},{"type":"function","name":"getOperatorsShares","inputs":[{"name":"operators","type":"address[]","internalType":"address[]"},{"name":"strategies","type":"address[]","internalType":"contract IStrategy[]"}],"outputs":[{"name":"","type":"uint256[][]","internalType":"uint256[][]"}],"stateMutability":"view"},{"type":"function","name":"getQueuedWithdrawal","inputs":[{"name":"withdrawalRoot","type":"bytes32","internalType":"bytes32"}],"outputs":[{"name":"withdrawal","type":"tuple","internalType":"struct IDelegationManagerTypes.Withdrawal","components":[{"name":"staker","type":"address","internalType":"address"},{"name":"delegatedTo","type":"address","internalType":"address"},{"name":"withdrawer","type":"address","internalType":"address"},{"name":"nonce","type":"uint256","internalType":"uint256"},{"name":"startBlock","type":"uint32","internalType":"uint32"},{"name":"strategies","type":"address[]","internalType":"contract IStrategy[]"},{"name":"scaledShares","type":"uint256[]","internalType":"uint256[]"}]},{"name":"shares","type":"uint256[]","internalType":"uint256[]"}],"stateMutability":"view"},{"type":"function","name":"getQueuedWithdrawalRoots","inputs":[{"name":"staker","type":"address","internalType":"address"}],"outputs":[{"name":"","type":"bytes32[]","internalType":"bytes32[]"}],"stateMutability":"view"},{"type":"function","name":"getQueuedWithdrawals","inputs":[{"name":"staker","type":"address","internalType":"address"}],"outputs":[{"name":"withdrawals","type":"tuple[]","internalType":"struct IDelegationManagerTypes.Withdrawal[]","components":[{"name":"staker","type":"address","internalType":"address"},{"name":"delegatedTo","type":"address","internalType":"address"},{"name":"withdrawer","type":"address","internalType":"address"},{"name":"nonce","type":"uint256","internalType":"uint256"},{"name":"startBlock","type":"uint32","internalType":"uint32"},{"name":"strategies","type":"address[]","internalType":"contract IStrategy[]"},{"name":"scaledShares","type":"uint256[]","internalType":"uint256[]"}]},{"name":"shares","type":"uint256[][]","internalType":"uint256[][]"}],"stateMutability":"view"},{"type":"function","name":"getSlashableSharesInQueue","inputs":[{"name":"operator","type":"address","internalType":"address"},{"name":"strategy","type":"address","internalType":"contract IStrategy"}],"outputs":[{"name":"","type":"uint256","internalType":"uint256"}],"stateMutability":"view"},{"type":"function","name":"getWithdrawableShares","inputs":[{"name":"staker","type":"address","internalType":"address"},{"name":"strategies","type":"address[]","internalType":"contract IStrategy[]"}],"outputs":[{"name":"withdrawableShares","type":"uint256[]","internalType":"uint256[]"},{"name":"depositShares","type":"uint256[]","internalType":"uint256[]"}],"stateMutability":"view"},{"type":"function","name":"increaseDelegatedShares","inputs":[{"name":"staker","type":"address","internalType":"address"},{"name":"strategy","type":"address","internalType":"contract IStrategy"},{"name":"existingDepositShares","type":"uint256","internalType":"uint256"},{"name":"addedShares","type":"uint256","internalType":"uint256"}],"outputs":[],"stateMutability":"nonpayable"},{"type":"function","name":"initialize","inputs":[{"name":"initialOwner","type":"address","internalType":"address"},{"name":"initialPausedStatus","type":"uint256","internalType":"uint256"}],"outputs":[],"stateMutability":"nonpayable"},{"type":"function","name":"isDelegated","inputs":[{"name":"staker","type":"address","internalType":"address"}],"outputs":[{"name":"","type":"bool","internalType":"bool"}],"stateMutability":"view"},{"type":"function","name":"isOperator","inputs":[{"name":"operator","type":"address","internalType":"address"}],"outputs":[{"name":"","type":"bool","internalType":"bool"}],"stateMutability":"view"},{"type":"function","name":"minWithdrawalDelayBlocks","inputs":[],"outputs":[{"name":"","type":"uint32","internalType":"uint32"}],"stateMutability":"view"},{"type":"function","name":"modifyOperatorDetails","inputs":[{"name":"operator","type":"address","internalType":"address"},{"name":"newDelegationApprover","type":"address","internalType":"address"}],"outputs":[],"stateMutability":"nonpayable"},{"type":"function","name":"modifyOperatorDetails","inputs":[{"name":"newOperatorDetails","type":"tuple","internalType":"struct IDelegationManagerTypes.OperatorDetails","components":[{"name":"__deprecated_earningsReceiver","type":"address","internalType":"address"},{"name":"delegationApprover","type":"address","internalType":"address"},{"name":"__deprecated_stakerOptOutWindowBlocks","type":"uint32","internalType":"uint32"}]}],"outputs":[],"stateMutability":"nonpayable"},{"type":"function","name":"operatorDetails","inputs":[{"name":"operator","type":"address","internalType":"address"}],"outputs":[{"name":"","type":"tuple","internalType":"struct IDelegationManagerTypes.OperatorDetails","components":[{"name":"__deprecated_earningsReceiver","type":"address","internalType":"address"},{"name":"delegationApprover","type":"address","internalType":"address"},{"name":"__deprecated_stakerOptOutWindowBlocks","type":"uint32","internalType":"uint32"}]}],"stateMutability":"view"},{"type":"function","name":"queueWithdrawals","inputs":[{"name":"params","type":"tuple[]","internalType":"struct IDelegationManagerTypes.QueuedWithdrawalParams[]","components":[{"name":"strategies","type":"address[]","internalType":"contract IStrategy[]"},{"name":"depositShares","type":"uint256[]","internalType":"uint256[]"},{"name":"__deprecated_withdrawer","type":"address","internalType":"address"}]}],"outputs":[{"name":"","type":"bytes32[]","internalType":"bytes32[]"}],"stateMutability":"nonpayable"},{"type":"function","name":"queuedWithdrawals","inputs":[{"name":"withdrawalRoot","type":"bytes32","internalType":"bytes32"}],"outputs":[{"name":"withdrawal","type":"tuple","internalType":"struct IDelegationManagerTypes.Withdrawal","components":[{"name":"staker","type":"address","internalType":"address"},{"name":"delegatedTo","type":"address","internalType":"address"},{"name":"withdrawer","type":"address","internalType":"address"},{"name":"nonce","type":"uint256","internalType":"uint256"},{"name":"startBlock","type":"uint32","internalType":"uint32"},{"name":"strategies","type":"address[]","internalType":"contract IStrategy[]"},{"name":"scaledShares","type":"uint256[]","internalType":"uint256[]"}]}],"stateMutability":"view"},{"type":"function","name":"redelegate","inputs":[{"name":"newOperator","type":"address","internalType":"address"},{"name":"newOperatorApproverSig","type":"tuple","internalType":"struct ISignatureUtilsMixinTypes.SignatureWithExpiry","components":[{"name":"signature","type":"bytes","internalType":"bytes"},{"name":"expiry","type":"uint256","internalType":"uint256"}]},{"name":"approverSalt","type":"bytes32","internalType":"bytes32"}],"outputs":[{"name":"withdrawalRoots","type":"bytes32[]","internalType":"bytes32[]"}],"stateMutability":"nonpayable"},{"type":"function","name":"registerAsOperator","inputs":[{"name":"initDelegationApprover","type":"address","internalType":"address"},{"name":"allocationDelay","type":"uint32","internalType":"uint32"},{"name":"metadataURI","type":"string","internalType":"string"}],"outputs":[],"stateMutability":"nonpayable"},{"type":"function","name":"registerAsOperator","inputs":[{"name":"registeringOperatorDetails","type":"tuple","internalType":"struct IDelegationManagerTypes.OperatorDetails","components":[{"name":"__deprecated_earningsReceiver","type":"address","internalType":"address"},{"name":"delegationApprover","type":"address","internalType":"address"},{"name":"__deprecated_stakerOptOutWindowBlocks","type":"uint32","internalType":"uint32"}]},{"name":"allocationDelay","type":"uint32","internalType":"uint32"},{"name":"metadataURI","type":"string","internalType":"string"}],"outputs":[],"stateMutability":"nonpayable"},{"type":"function","name":"setIsOperator","inputs":[{"name":"operator","type":"address","internalType":"address"},{"name":"isOperator","type":"bool","internalType":"bool"}],"outputs":[],"stateMutability":"nonpayable"},{"type":"function","name":"setOperatorShares","inputs":[{"name":"operator","type":"address","internalType":"address"},{"name":"strategy","type":"address","internalType":"contract IStrategy"},{"name":"actualWeight","type":"uint256","internalType":"uint256"}],"outputs":[],"stateMutability":"nonpayable"},{"type":"function","name":"slashOperatorShares","inputs":[{"name":"operator","type":"address","internalType":"address"},{"name":"strategy","type":"address","internalType":"contract IStrategy"},{"name":"prevMaxMagnitude","type":"uint64","internalType":"uint64"},{"name":"newMaxMagnitude","type":"uint64","internalType":"uint64"}],"outputs":[],"stateMutability":"nonpayable"},{"type":"function","name":"undelegate","inputs":[{"name":"staker","type":"address","internalType":"address"}],"outputs":[{"name":"withdrawalRoots","type":"bytes32[]","internalType":"bytes32[]"}],"stateMutability":"nonpayable"},{"type":"function","name":"updateOperatorMetadataURI","inputs":[{"name":"operator","type":"address","internalType":"address"},{"name":"metadataURI","type":"string","internalType":"string"}],"outputs":[],"stateMutability":"nonpayable"},{"type":"function","name":"updateOperatorMetadataURI","inputs":[{"name":"metadataURI","type":"string","internalType":"string"}],"outputs":[],"stateMutability":"nonpayable"},{"type":"function","name":"version","inputs":[],"outputs":[{"name":"","type":"string","internalType":"string"}],"stateMutability":"pure"},{"type":"event","name":"DelegationApproverUpdated","inputs":[{"name":"operator","type":"address","indexed":true,"internalType":"address"},{"name":"newDelegationApprover","type":"address","indexed":false,"internalType":"address"}],"anonymous":false},{"type":"event","name":"DepositScalingFactorUpdated","inputs":[{"name":"staker","type":"address","indexed":false,"internalType":"address"},{"name":"strategy","type":"address","indexed":false,"internalType":"contract IStrategy"},{"name":"newDepositScalingFactor","type":"uint256","indexed":false,"internalType":"uint256"}],"anonymous":false},{"type":"event","name":"OperatorMetadataURIUpdated","inputs":[{"name":"operator","type":"address","indexed":true,"internalType":"address"},{"name":"metadataURI","type":"string","indexed":false,"internalType":"string"}],"anonymous":false},{"type":"event","name":"OperatorRegistered","inputs":[{"name":"operator","type":"address","indexed":true,"internalType":"address"},{"name":"delegationApprover","type":"address","indexed":false,"internalType":"address"}],"anonymous":false},{"type":"event","name":"OperatorSharesDecreased","inputs":[{"name":"operator","type":"address","indexed":true,"internalType":"address"},{"name":"staker","type":"address","indexed":false,"internalType":"address"},{"name":"strategy","type":"address","indexed":false,"internalType":"contract IStrategy"},{"name":"shares","type":"uint256","indexed":false,"internalType":"uint256"}],"anonymous":false},{"type":"event","name":"OperatorSharesIncreased","inputs":[{"name":"operator","type":"address","indexed":true,"internalType":"address"},{"name":"staker","type":"address","indexed":false,"internalType":"address"},{"name":"strategy","type":"address","indexed":false,"internalType":"contract IStrategy"},{"name":"shares","type":"uint256","indexed":false,"internalType":"uint256"}],"anonymous":false},{"type":"event","name":"OperatorSharesSlashed","inputs":[{"name":"operator","type":"address","indexed":true,"internalType":"address"},{"name":"strategy","type":"address","indexed":false,"internalType":"contract IStrategy"},{"name":"totalSlashedShares","type":"uint256","indexed":false,"internalType":"uint256"}],"anonymous":false},{"type":"event","name":"SlashingWithdrawalCompleted","inputs":[{"name":"withdrawalRoot","type":"bytes32","indexed":false,"internalType":"bytes32"}],"anonymous":false},{"type":"event","name":"SlashingWithdrawalQueued","inputs":[{"name":"withdrawalRoot","type":"bytes32","indexed":false,"internalType":"bytes32"},{"name":"withdrawal","type":"tuple","indexed":false,"internalType":"struct IDelegationManagerTypes.Withdrawal","components":[{"name":"staker","type":"address","internalType":"address"},{"name":"delegatedTo","type":"address","internalType":"address"},{"name":"withdrawer","type":"address","internalType":"address"},{"name":"nonce","type":"uint256","internalType":"uint256"},{"name":"startBlock","type":"uint32","internalType":"uint32"},{"name":"strategies","type":"address[]","internalType":"contract IStrategy[]"},{"name":"scaledShares","type":"uint256[]","internalType":"uint256[]"}]},{"name":"sharesToWithdraw","type":"uint256[]","indexed":false,"internalType":"uint256[]"}],"anonymous":false},{"type":"event","name":"StakerDelegated","inputs":[{"name":"staker","type":"address","indexed":true,"internalType":"address"},{"name":"operator","type":"address","indexed":true,"internalType":"address"}],"anonymous":false},{"type":"event","name":"StakerForceUndelegated","inputs":[{"name":"staker","type":"address","indexed":true,"internalType":"address"},{"name":"operator","type":"address","indexed":true,"internalType":"address"}],"anonymous":false},{"type":"event","name":"StakerUndelegated","inputs":[{"name":"staker","type":"address","indexed":true,"internalType":"address"},{"name":"operator","type":"address","indexed":true,"internalType":"address"}],"anonymous":false},{"type":"error","name":"ActivelyDelegated","inputs":[]},{"type":"error","name":"CallerCannotUndelegate","inputs":[]},{"type":"error","name":"FullySlashed","inputs":[]},{"type":"error","name":"InputArrayLengthMismatch","inputs":[]},{"type":"error","name":"InputArrayLengthZero","inputs":[]},{"type":"error","name":"InvalidSignature","inputs":[]},{"type":"error","name":"NotActivelyDelegated","inputs":[]},{"type":"error","name":"OnlyAllocationManager","inputs":[]},{"type":"error","name":"OnlyEigenPodManager","inputs":[]},{"type":"error","name":"OnlyStrategyManagerOrEigenPodManager","inputs":[]},{"type":"error","name":"OperatorNotRegistered","inputs":[]},{"type":"error","name":"OperatorsCannotUndelegate","inputs":[]},{"type":"error","name":"SaltSpent","inputs":[]},{"type":"error","name":"SignatureExpired","inputs":[]},{"type":"error","name":"WithdrawalDelayNotElapsed","inputs":[]},{"type":"error","name":"WithdrawalNotQueued","inputs":[]},{"type":"error","name":"WithdrawerNotCaller","inputs":[]}],"bytecode":{"object":"0x608080604052346015576115c2908161001a8239f35b5f80fdfe6080806040526004361015610012575f80fd5b5f3560e01c90816304a4f97914610ff3575080630b9f487a14610fc85780630dd8dd0214610f8957806325df922e14610f1b57806326f5e75b1461075d5780632aa6d88814610ed95780633340439614610e465780633c651cf214610e2d5780633cdeb5e014610a375780633e28391d1461075d5780634973006014610dec57806354b7c96c14610dca57806354fd4d5014610d6e578063597b36da14610c8a5780635d975e8814610be95780635d9aed2314610ab85780635dd6857914610b0e5780635f48e66714610abd578063601bb36f146104de57806360a0d1ce14610ab857806360d7faed14610a5e57806363ceb57d14610a3c57806365da126414610a3757806366d5ba93146109c45780636d70f7ae146109885780636e1744481461071657806378296ec51461094f57806390041347146108965780639104c319146102b45780639435bb431461082457806399be81c8146107f457806399f5371b14610776578063a17884841461075d578063a33a34331461073f578063bb45fef21461071b578063bfae3fd214610716578063c448feb8146106fa578063c5e480db14610677578063c978f7ac14610619578063cbb5d4db146105cf578063cd6dc687146105b6578063da8be8641461058b578063dbe35bd81461053d578063e4cc3f90146104e3578063ee74937f146104de578063eea9064b146104ce578063f0e0e676146102e1578063f16172b0146102ce578063f698da25146102b45763fd8aa88d14610242575f80fd5b346102b05760203660031901126102b05761025b61100b565b506020610267816110eb565b905f82525f368137604051918291808301818452825180915281604085019301915f5b82811061029957505050500390f35b83518552869550938101939281019260010161028a565b5f80fd5b346102b0575f3660031901126102b05760206040515f8152f35b346102b05760603660031901126102b057005b346102b05760403660031901126102b0576004356001600160401b0381116102b057366023820112156102b05780600401359061032561032083611110565b6110eb565b916024602084838152019160051b830101913683116102b057602401905b8282106104b657836024356001600160401b0381116102b05761036a903690600401611127565b90805161037961032082611110565b90808252610389601f1991611110565b015f5b8181106104a55750505f5b8251811015610439576103aa845161153c565b6103b48284611564565b526103bf8183611564565b505f5b8451811015610430576001949085906001600160a01b036103e38588611564565b51165f528160205260405f20828060a01b036103ff8386611564565b5116838060a01b03165f5260205260405f2054610426826104208789611564565b51611564565b52019094506103c2565b50600101610397565b506040518091602082016020835281518091526040830190602080808360051b870101019301915f905b82821061047257505050500390f35b919360019193955060206104958192601f19601f198b8303010186528851611208565b9601920192018594939192610463565b80606060208093860101520161038c565b602080916104c38461104d565b815201910190610343565b346102b0576104dc36611432565b005b611390565b346102b05760603660031901126102b0576004356001600160401b0381116102b05760e09060031990360301126102b0576024356001600160401b0381116102b057610533903690600401611061565b50506104dc611401565b346102b05760603660031901126102b05761055661100b565b61055e611021565b6001600160a01b039182165f90815260016020908152604080832093909416825291909152206044359055005b346102b05760203660031901126102b0576105a461100b565b50604051806105b281611091565b0390f35b346102b05760403660031901126102b0576104dc61100b565b346102b05760403660031901126102b0576105e861100b565b602435908115158092036102b05760018060a01b03165f525f60205260405f209060ff801983541691161790555f80f35b346102b05760403660031901126102b05761063261100b565b506024356001600160401b0381116102b057610652903690600401611127565b5060405160408152806105b261066a604083016111d5565b82810360208401526111d5565b346102b05760203660031901126102b05761069061100b565b5060405160608101908082106001600160401b038311176106e6576060916040525f815263ffffffff604060208301925f8452015f8152604051925f845260018060a01b03905116602084015251166040820152f35b634e487b7160e01b5f52604160045260245ffd5b346102b0575f3660031901126102b05760206040516127108152f35b611410565b346102b05760403660031901126102b05761073461100b565b5060206040515f8152f35b346102b05761074d36611432565b505050604051806105b281611091565b346102b05760203660031901126102b05761073461100b565b346102b05760203660031901126102b05761078f611508565b50602061079b816110eb565b905f82525f3681376107ac816110eb565b5f81525f3681376107bb6110cc565b925f84525f838501525f60408501525f60608501525f608085015260a084015260c08301526105b260405192828493845283019061128e565b346102b05760203660031901126102b0576004356001600160401b0381116102b0576104dc903690600401611261565b346102b05760603660031901126102b0576004356001600160401b0381116102b057610854903690600401611061565b50506024356001600160401b0381116102b057610875903690600401611061565b50506044356001600160401b0381116102b0576104dc903690600401611061565b346102b05760403660031901126102b0576108af61100b565b6024356001600160401b0381116102b0576108ce903690600401611061565b90916108d98261153c565b906001600160a01b03165f5b83811015610939575f828152600160205260409020600582901b86013591906001600160a01b03831683036102b057600192838060a01b03165f5260205260405f20546109328286611564565b52016108e5565b604051602080825281906105b290820186611208565b346102b05760403660031901126102b05761096861100b565b506024356001600160401b0381116102b0576104dc903690600401611261565b346102b05760203660031901126102b0576001600160a01b036109a961100b565b165f525f602052602060ff60405f2054166040519015158152f35b346102b05760203660031901126102b0576109dd61100b565b5060405180604081016040825260605180915260608201906080905f5b818110610a155750505081810360208301526105b2906111d5565b82516001600160a01b03168452859450602093840193909201916001016109fa565b61075d565b346102b05760803660031901126102b057610a5561100b565b506104dc611340565b346102b05760803660031901126102b0576004356001600160401b0381116102b05760e09060031990360301126102b0576024356001600160401b0381116102b057610aae903690600401611061565b50506104dc6113f2565b611356565b346102b05760603660031901126102b0576004356001600160401b0381116102b057610aed903690600401611061565b50506024356001600160401b0381116102b0576104dc903690600401611061565b346102b05760203660031901126102b057610b2761100b565b506040518060408101604082526060518091526060820160608260051b840101916080915f905b828210610bba57505050508181036020830152606051808252602082019060208160051b840101926080925f915b838310610b895786860387f35b919395509193602080610ba8600193601f198682030187528951611208565b97019301930190928695949293610b7c565b91936001919395506020610bd98192605f198a8203018652885161128e565b9601920192018594939192610b4e565b346102b05760203660031901126102b057610c02611508565b50610c7d60206105b2610c14826110eb565b915f83525f368137610c25816110eb565b5f81525f368137610c346110cc565b935f85525f838601525f60408601525f60608601525f608086015260a085015260c0840152610c62816110eb565b5f81525f36813760405194859460408652604086019061128e565b9184830390850152611208565b346102b05760203660031901126102b0576004356001600160401b0381116102b05760e060031982360301126102b057610cc26110cc565b90610ccf8160040161104d565b8252610cdd6024820161104d565b6020830152610cee6044820161104d565b604083015260648101356060830152608481013563ffffffff811681036102b057608083015260a48101356001600160401b0381116102b057610d379060043691840101611127565b60a083015260c48101356001600160401b0381116102b05760c0916004610d619236920101611182565b91015260206040515f8152f35b346102b0575f3660031901126102b0576040610d89816110eb565b906006825260208201916576302e302e3160d01b83528151928391602083525180918160208501528484015e5f828201840152601f01601f19168101030190f35b346102b05760403660031901126102b057610de361100b565b506104dc611021565b346102b057366003190160a081126102b0576060136102b057610e0d61124e565b506084356001600160401b0381116102b0576104dc903690600401611261565b346102b05760803660031901126102b057610de361100b565b346102b05760803660031901126102b0576004356001600160401b0381116102b057610e76903690600401611061565b50506024356001600160401b0381116102b057610e97903690600401611061565b50506044356001600160401b0381116102b057610eb8903690600401611061565b50506064356001600160401b0381116102b0576104dc903690600401611061565b346102b05760603660031901126102b057610ef261100b565b50610efb61123b565b506044356001600160401b0381116102b0576104dc903690600401611261565b346102b05760603660031901126102b057610f3461100b565b506024356001600160401b0381116102b057610f54903690600401611127565b506044356001600160401b0381116102b057610f74903690600401611182565b5060405160208152806105b2602082016111d5565b346102b05760203660031901126102b0576004356001600160401b0381116102b057610fb9903690600401611061565b5050604051806105b281611091565b346102b05760a03660031901126102b057610fe161100b565b50610fea611021565b50610734611037565b346102b0575f3660031901126102b057805f60209252f35b600435906001600160a01b03821682036102b057565b602435906001600160a01b03821682036102b057565b604435906001600160a01b03821682036102b057565b35906001600160a01b03821682036102b057565b9181601f840112156102b0578235916001600160401b0383116102b0576020808501948460051b0101116102b057565b604060208201916020815260605180935201906080905f5b8181106110b65750505090565b82518452602093840193909201916001016110a9565b6040519060e082018281106001600160401b038211176106e657604052565b6040519190601f01601f191682016001600160401b038111838210176106e657604052565b6001600160401b0381116106e65760051b60200190565b9080601f830112156102b057813561114161032082611110565b9260208085848152019260051b8201019283116102b057602001905b82821061116a5750505090565b602080916111778461104d565b81520191019061115d565b9080601f830112156102b057813561119c61032082611110565b9260208085848152019260051b8201019283116102b057602001905b8282106111c55750505090565b81358152602091820191016111b8565b60206060519182815201906080905f5b8181106111f25750505090565b82518452602093840193909201916001016111e5565b90602080835192838152019201905f5b8181106112255750505090565b8251845260209384019390920191600101611218565b6024359063ffffffff821682036102b057565b6064359063ffffffff821682036102b057565b9181601f840112156102b0578235916001600160401b0383116102b057602083818601950101116102b057565b919060e081019060018060a01b03845116815260018060a01b03602085015116602082015260018060a01b0360408501511660408201526060840151606082015263ffffffff608085015116608082015260a08401519160e060a08301528251809152602061010083019301905f5b8181106113215750505060c061131e939401519060c0818403910152611208565b90565b82516001600160a01b03168552602094850194909201916001016112fd565b604435906001600160401b03821682036102b057565b346102b05760603660031901126102b0576004356001600160a01b03811681036102b057506044356001600160401b03811681036102b057005b346102b05760803660031901126102b0576004356001600160a01b03811681036102b057506024356001600160a01b03811681036102b057506044356001600160401b03811681036102b057506064356001600160401b03811681036102b057005b6064359081151582036102b057565b6044359081151582036102b057565b346102b05760403660031901126102b05761142961100b565b50610734611021565b9060606003198301126102b0576004356001600160a01b03811681036102b05791602435906001600160401b0382116102b057604082820360031901126102b05760405191604083018381106001600160401b038211176106e65760405280600401356001600160401b0381116102b057810191806023840112156102b05760048301356001600160401b0381116106e6576114d7601f8201601f19166020016110eb565b81815291602485830101116102b0576020815f92602480970183860137830101528352013560208201529060443590565b6115106110cc565b905f82525f60208301525f60408301525f60608301525f6080830152606060a0830152606060c0830152565b9061154961032083611110565b828152809261155a601f1991611110565b0190602036910137565b80518210156115785760209160051b010190565b634e487b7160e01b5f52603260045260245ffdfea26469706673582212209e0d7c980fc542b2ecab74df192b5864873dac3fcb7a4910a7693f0798c3fef264736f6c634300081b0033","linkReferences":{}},"methodIdentifiers":{"DELEGATION_APPROVAL_TYPEHASH()":"04a4f979","beaconChainETHStrategy()":"9104c319","burnOperatorShares(address,address,uint64,uint64)":"ee74937f","calculateDelegationApprovalDigestHash(address,address,address,bytes32,uint256)":"0b9f487a","calculateWithdrawalRoot((address,address,address,uint256,uint32,address[],uint256[]))":"597b36da","completeQueuedWithdrawal((address,address,address,uint256,uint32,address[],uint256[]),address[],bool)":"e4cc3f90","completeQueuedWithdrawal((address,address,address,uint256,uint32,address[],uint256[]),address[],uint256,bool)":"60d7faed","completeQueuedWithdrawals((address,address,address,uint256,uint32,address[],uint256[])[],address[][],bool[])":"9435bb43","completeQueuedWithdrawals((address,address,address,uint256,uint32,address[],uint256[])[],address[][],uint256[],bool[])":"33404396","completeQueuedWithdrawals(address[][],bool[],uint256)":"5f48e667","convertToDepositShares(address,address[],uint256[])":"25df922e","cumulativeWithdrawalsQueued(address)":"a1788484","decreaseBeaconChainScalingFactor(address,uint256,uint64)":"5d9aed23","decreaseDelegatedShares(address,uint256,uint64)":"60a0d1ce","decreaseDelegatedShares(address,uint256,uint64,uint256)":"63ceb57d","delegateTo(address,(bytes,uint256),bytes32)":"eea9064b","delegatedTo(address)":"65da1264","delegationApprover(address)":"3cdeb5e0","delegationApproverSaltIsSpent(address,bytes32)":"bb45fef2","depositScalingFactor(address,address)":"bfae3fd2","domainSeparator()":"f698da25","getBeaconChainSlashingFactor(address)":"26f5e75b","getDepositedShares(address)":"66d5ba93","getOperatorShares(address,address[])":"90041347","getOperatorsShares(address[],address[])":"f0e0e676","getQueuedWithdrawal(bytes32)":"5d975e88","getQueuedWithdrawalRoots(address)":"fd8aa88d","getQueuedWithdrawals(address)":"5dd68579","getSlashableSharesInQueue(address,address)":"6e174448","getWithdrawableShares(address,address[])":"c978f7ac","increaseDelegatedShares(address,address,uint256,uint256)":"3c651cf2","initialize(address,uint256)":"cd6dc687","isDelegated(address)":"3e28391d","isOperator(address)":"6d70f7ae","minWithdrawalDelayBlocks()":"c448feb8","modifyOperatorDetails((address,address,uint32))":"f16172b0","modifyOperatorDetails(address,address)":"54b7c96c","operatorDetails(address)":"c5e480db","queueWithdrawals((address[],uint256[],address)[])":"0dd8dd02","queuedWithdrawals(bytes32)":"99f5371b","redelegate(address,(bytes,uint256),bytes32)":"a33a3433","registerAsOperator((address,address,uint32),uint32,string)":"49730060","registerAsOperator(address,uint32,string)":"2aa6d888","setIsOperator(address,bool)":"cbb5d4db","setOperatorShares(address,address,uint256)":"dbe35bd8","slashOperatorShares(address,address,uint64,uint64)":"601bb36f","undelegate(address)":"da8be864","updateOperatorMetadataURI(address,string)":"78296ec5","updateOperatorMetadataURI(string)":"99be81c8","version()":"54fd4d50"},"id":132}