{"abi":[{"type":"function","name":"DELEGATION_APPROVAL_TYPEHASH","inputs":[],"outputs":[{"name":"","type":"bytes32","internalType":"bytes32"}],"stateMutability":"view"},{"type":"function","name":"beaconChainETHStrategy","inputs":[],"outputs":[{"name":"","type":"address","internalType":"contract IStrategy"}],"stateMutability":"view"},{"type":"function","name":"burnOperatorShares","inputs":[{"name":"operator","type":"address","internalType":"address"},{"name":"strategy","type":"address","internalType":"contract IStrategy"},{"name":"prevMaxMagnitude","type":"uint64","internalType":"uint64"},{"name":"newMaxMagnitude","type":"uint64","internalType":"uint64"}],"outputs":[],"stateMutability":"nonpayable"},{"type":"function","name":"calculateDelegationApprovalDigestHash","inputs":[{"name":"staker","type":"address","internalType":"address"},{"name":"operator","type":"address","internalType":"address"},{"name":"_delegationApprover","type":"address","internalType":"address"},{"name":"approverSalt","type":"bytes32","internalType":"bytes32"},{"name":"expiry","type":"uint256","internalType":"uint256"}],"outputs":[{"name":"","type":"bytes32","internalType":"bytes32"}],"stateMutability":"view"},{"type":"function","name":"calculateWithdrawalRoot","inputs":[{"name":"withdrawal","type":"tuple","internalType":"struct IDelegationManagerTypes.Withdrawal","components":[{"name":"staker","type":"address","internalType":"address"},{"name":"delegatedTo","type":"address","internalType":"address"},{"name":"withdrawer","type":"address","internalType":"address"},{"name":"nonce","type":"uint256","internalType":"uint256"},{"name":"startBlock","type":"uint32","internalType":"uint32"},{"name":"strategies","type":"address[]","internalType":"contract IStrategy[]"},{"name":"scaledShares","type":"uint256[]","internalType":"uint256[]"}]}],"outputs":[{"name":"","type":"bytes32","internalType":"bytes32"}],"stateMutability":"pure"},{"type":"function","name":"completeQueuedWithdrawal","inputs":[{"name":"withdrawal","type":"tuple","internalType":"struct IDelegationManagerTypes.Withdrawal","components":[{"name":"staker","type":"address","internalType":"address"},{"name":"delegatedTo","type":"address","internalType":"address"},{"name":"withdrawer","type":"address","internalType":"address"},{"name":"nonce","type":"uint256","internalType":"uint256"},{"name":"startBlock","type":"uint32","internalType":"uint32"},{"name":"strategies","type":"address[]","internalType":"contract IStrategy[]"},{"name":"scaledShares","type":"uint256[]","internalType":"uint256[]"}]},{"name":"tokens","type":"address[]","internalType":"contract IERC20[]"},{"name":"middlewareTimesIndex","type":"uint256","internalType":"uint256"},{"name":"receiveAsTokens","type":"bool","internalType":"bool"}],"outputs":[],"stateMutability":"nonpayable"},{"type":"function","name":"completeQueuedWithdrawal","inputs":[{"name":"withdrawal","type":"tuple","internalType":"struct IDelegationManagerTypes.Withdrawal","components":[{"name":"staker","type":"address","internalType":"address"},{"name":"delegatedTo","type":"address","internalType":"address"},{"name":"withdrawer","type":"address","internalType":"address"},{"name":"nonce","type":"uint256","internalType":"uint256"},{"name":"startBlock","type":"uint32","internalType":"uint32"},{"name":"strategies","type":"address[]","internalType":"contract IStrategy[]"},{"name":"scaledShares","type":"uint256[]","internalType":"uint256[]"}]},{"name":"tokens","type":"address[]","internalType":"contract IERC20[]"},{"name":"receiveAsTokens","type":"bool","internalType":"bool"}],"outputs":[],"stateMutability":"nonpayable"},{"type":"function","name":"completeQueuedWithdrawals","inputs":[{"name":"withdrawals","type":"tuple[]","internalType":"struct IDelegationManagerTypes.Withdrawal[]","components":[{"name":"staker","type":"address","internalType":"address"},{"name":"delegatedTo","type":"address","internalType":"address"},{"name":"withdrawer","type":"address","internalType":"address"},{"name":"nonce","type":"uint256","internalType":"uint256"},{"name":"startBlock","type":"uint32","internalType":"uint32"},{"name":"strategies","type":"address[]","internalType":"contract IStrategy[]"},{"name":"scaledShares","type":"uint256[]","internalType":"uint256[]"}]},{"name":"tokens","type":"address[][]","internalType":"contract IERC20[][]"},{"name":"middlewareTimesIndexes","type":"uint256[]","internalType":"uint256[]"},{"name":"receiveAsTokens","type":"bool[]","internalType":"bool[]"}],"outputs":[],"stateMutability":"nonpayable"},{"type":"function","name":"completeQueuedWithdrawals","inputs":[{"name":"tokens","type":"address[][]","internalType":"contract IERC20[][]"},{"name":"receiveAsTokens","type":"bool[]","internalType":"bool[]"},{"name":"numToComplete","type":"uint256","internalType":"uint256"}],"outputs":[],"stateMutability":"nonpayable"},{"type":"function","name":"completeQueuedWithdrawals","inputs":[{"name":"withdrawals","type":"tuple[]","internalType":"struct IDelegationManagerTypes.Withdrawal[]","components":[{"name":"staker","type":"address","internalType":"address"},{"name":"delegatedTo","type":"address","internalType":"address"},{"name":"withdrawer","type":"address","internalType":"address"},{"name":"nonce","type":"uint256","internalType":"uint256"},{"name":"startBlock","type":"uint32","internalType":"uint32"},{"name":"strategies","type":"address[]","internalType":"contract IStrategy[]"},{"name":"scaledShares","type":"uint256[]","internalType":"uint256[]"}]},{"name":"tokens","type":"address[][]","internalType":"contract IERC20[][]"},{"name":"receiveAsTokens","type":"bool[]","internalType":"bool[]"}],"outputs":[],"stateMutability":"nonpayable"},{"type":"function","name":"convertToDepositShares","inputs":[{"name":"staker","type":"address","internalType":"address"},{"name":"strategies","type":"address[]","internalType":"contract IStrategy[]"},{"name":"withdrawableShares","type":"uint256[]","internalType":"uint256[]"}],"outputs":[{"name":"","type":"uint256[]","internalType":"uint256[]"}],"stateMutability":"view"},{"type":"function","name":"cumulativeWithdrawalsQueued","inputs":[{"name":"staker","type":"address","internalType":"address"}],"outputs":[{"name":"","type":"uint256","internalType":"uint256"}],"stateMutability":"view"},{"type":"function","name":"decreaseBeaconChainScalingFactor","inputs":[{"name":"staker","type":"address","internalType":"address"},{"name":"existingShares","type":"uint256","internalType":"uint256"},{"name":"proportionOfOldBalance","type":"uint64","internalType":"uint64"}],"outputs":[],"stateMutability":"nonpayable"},{"type":"function","name":"decreaseDelegatedShares","inputs":[{"name":"staker","type":"address","internalType":"address"},{"name":"curDepositShares","type":"uint256","internalType":"uint256"},{"name":"beaconChainSlashingFactorDecrease","type":"uint64","internalType":"uint64"}],"outputs":[],"stateMutability":"nonpayable"},{"type":"function","name":"decreaseDelegatedShares","inputs":[{"name":"staker","type":"address","internalType":"address"},{"name":"curDepositShares","type":"uint256","internalType":"uint256"},{"name":"prevBeaconChainSlashingFactor","type":"uint64","internalType":"uint64"},{"name":"wadSlashed","type":"uint256","internalType":"uint256"}],"outputs":[],"stateMutability":"nonpayable"},{"type":"function","name":"delegateTo","inputs":[{"name":"operator","type":"address","internalType":"address"},{"name":"approverSignatureAndExpiry","type":"tuple","internalType":"struct ISignatureUtilsMixinTypes.SignatureWithExpiry","components":[{"name":"signature","type":"bytes","internalType":"bytes"},{"name":"expiry","type":"uint256","internalType":"uint256"}]},{"name":"approverSalt","type":"bytes32","internalType":"bytes32"}],"outputs":[],"stateMutability":"nonpayable"},{"type":"function","name":"delegatedTo","inputs":[{"name":"staker","type":"address","internalType":"address"}],"outputs":[{"name":"","type":"address","internalType":"address"}],"stateMutability":"view"},{"type":"function","name":"delegationApprover","inputs":[{"name":"operator","type":"address","internalType":"address"}],"outputs":[{"name":"","type":"address","internalType":"address"}],"stateMutability":"view"},{"type":"function","name":"delegationApproverSaltIsSpent","inputs":[{"name":"_delegationApprover","type":"address","internalType":"address"},{"name":"salt","type":"bytes32","internalType":"bytes32"}],"outputs":[{"name":"","type":"bool","internalType":"bool"}],"stateMutability":"view"},{"type":"function","name":"depositScalingFactor","inputs":[{"name":"staker","type":"address","internalType":"address"},{"name":"strategy","type":"address","internalType":"contract IStrategy"}],"outputs":[{"name":"","type":"uint256","internalType":"uint256"}],"stateMutability":"view"},{"type":"function","name":"domainSeparator","inputs":[],"outputs":[{"name":"","type":"bytes32","internalType":"bytes32"}],"stateMutability":"pure"},{"type":"function","name":"getBeaconChainSlashingFactor","inputs":[{"name":"staker","type":"address","internalType":"address"}],"outputs":[{"name":"","type":"uint64","internalType":"uint64"}],"stateMutability":"view"},{"type":"function","name":"getDepositedShares","inputs":[{"name":"staker","type":"address","internalType":"address"}],"outputs":[{"name":"","type":"address[]","internalType":"contract IStrategy[]"},{"name":"","type":"uint256[]","internalType":"uint256[]"}],"stateMutability":"view"},{"type":"function","name":"getOperatorShares","inputs":[{"name":"operator","type":"address","internalType":"address"},{"name":"strategies","type":"address[]","internalType":"contract IStrategy[]"}],"outputs":[{"name":"","type":"uint256[]","internalType":"uint256[]"}],"stateMutability":"view"},{"type":"function","name":"getOperatorsShares","inputs":[{"name":"operators","type":"address[]","internalType":"address[]"},{"name":"strategies","type":"address[]","internalType":"contract IStrategy[]"}],"outputs":[{"name":"","type":"uint256[][]","internalType":"uint256[][]"}],"stateMutability":"view"},{"type":"function","name":"getQueuedWithdrawal","inputs":[{"name":"withdrawalRoot","type":"bytes32","internalType":"bytes32"}],"outputs":[{"name":"withdrawal","type":"tuple","internalType":"struct IDelegationManagerTypes.Withdrawal","components":[{"name":"staker","type":"address","internalType":"address"},{"name":"delegatedTo","type":"address","internalType":"address"},{"name":"withdrawer","type":"address","internalType":"address"},{"name":"nonce","type":"uint256","internalType":"uint256"},{"name":"startBlock","type":"uint32","internalType":"uint32"},{"name":"strategies","type":"address[]","internalType":"contract IStrategy[]"},{"name":"scaledShares","type":"uint256[]","internalType":"uint256[]"}]},{"name":"shares","type":"uint256[]","internalType":"uint256[]"}],"stateMutability":"view"},{"type":"function","name":"getQueuedWithdrawalRoots","inputs":[{"name":"staker","type":"address","internalType":"address"}],"outputs":[{"name":"","type":"bytes32[]","internalType":"bytes32[]"}],"stateMutability":"view"},{"type":"function","name":"getQueuedWithdrawals","inputs":[{"name":"staker","type":"address","internalType":"address"}],"outputs":[{"name":"withdrawals","type":"tuple[]","internalType":"struct IDelegationManagerTypes.Withdrawal[]","components":[{"name":"staker","type":"address","internalType":"address"},{"name":"delegatedTo","type":"address","internalType":"address"},{"name":"withdrawer","type":"address","internalType":"address"},{"name":"nonce","type":"uint256","internalType":"uint256"},{"name":"startBlock","type":"uint32","internalType":"uint32"},{"name":"strategies","type":"address[]","internalType":"contract IStrategy[]"},{"name":"scaledShares","type":"uint256[]","internalType":"uint256[]"}]},{"name":"shares","type":"uint256[][]","internalType":"uint256[][]"}],"stateMutability":"view"},{"type":"function","name":"getSlashableSharesInQueue","inputs":[{"name":"operator","type":"address","internalType":"address"},{"name":"strategy","type":"address","internalType":"contract IStrategy"}],"outputs":[{"name":"","type":"uint256","internalType":"uint256"}],"stateMutability":"view"},{"type":"function","name":"getWithdrawableShares","inputs":[{"name":"staker","type":"address","internalType":"address"},{"name":"strategies","type":"address[]","internalType":"contract IStrategy[]"}],"outputs":[{"name":"withdrawableShares","type":"uint256[]","internalType":"uint256[]"},{"name":"depositShares","type":"uint256[]","internalType":"uint256[]"}],"stateMutability":"view"},{"type":"function","name":"increaseDelegatedShares","inputs":[{"name":"staker","type":"address","internalType":"address"},{"name":"strategy","type":"address","internalType":"contract IStrategy"},{"name":"existingDepositShares","type":"uint256","internalType":"uint256"},{"name":"addedShares","type":"uint256","internalType":"uint256"}],"outputs":[],"stateMutability":"nonpayable"},{"type":"function","name":"initialize","inputs":[{"name":"initialOwner","type":"address","internalType":"address"},{"name":"initialPausedStatus","type":"uint256","internalType":"uint256"}],"outputs":[],"stateMutability":"nonpayable"},{"type":"function","name":"isDelegated","inputs":[{"name":"staker","type":"address","internalType":"address"}],"outputs":[{"name":"","type":"bool","internalType":"bool"}],"stateMutability":"view"},{"type":"function","name":"isOperator","inputs":[{"name":"operator","type":"address","internalType":"address"}],"outputs":[{"name":"","type":"bool","internalType":"bool"}],"stateMutability":"view"},{"type":"function","name":"minWithdrawalDelayBlocks","inputs":[],"outputs":[{"name":"","type":"uint32","internalType":"uint32"}],"stateMutability":"view"},{"type":"function","name":"modifyOperatorDetails","inputs":[{"name":"operator","type":"address","internalType":"address"},{"name":"newDelegationApprover","type":"address","internalType":"address"}],"outputs":[],"stateMutability":"nonpayable"},{"type":"function","name":"modifyOperatorDetails","inputs":[{"name":"newOperatorDetails","type":"tuple","internalType":"struct IDelegationManagerTypes.OperatorDetails","components":[{"name":"__deprecated_earningsReceiver","type":"address","internalType":"address"},{"name":"delegationApprover","type":"address","internalType":"address"},{"name":"__deprecated_stakerOptOutWindowBlocks","type":"uint32","internalType":"uint32"}]}],"outputs":[],"stateMutability":"nonpayable"},{"type":"function","name":"operatorDetails","inputs":[{"name":"operator","type":"address","internalType":"address"}],"outputs":[{"name":"","type":"tuple","internalType":"struct IDelegationManagerTypes.OperatorDetails","components":[{"name":"__deprecated_earningsReceiver","type":"address","internalType":"address"},{"name":"delegationApprover","type":"address","internalType":"address"},{"name":"__deprecated_stakerOptOutWindowBlocks","type":"uint32","internalType":"uint32"}]}],"stateMutability":"view"},{"type":"function","name":"queueWithdrawals","inputs":[{"name":"params","type":"tuple[]","internalType":"struct IDelegationManagerTypes.QueuedWithdrawalParams[]","components":[{"name":"strategies","type":"address[]","internalType":"contract IStrategy[]"},{"name":"depositShares","type":"uint256[]","internalType":"uint256[]"},{"name":"__deprecated_withdrawer","type":"address","internalType":"address"}]}],"outputs":[{"name":"","type":"bytes32[]","internalType":"bytes32[]"}],"stateMutability":"nonpayable"},{"type":"function","name":"queuedWithdrawals","inputs":[{"name":"withdrawalRoot","type":"bytes32","internalType":"bytes32"}],"outputs":[{"name":"withdrawal","type":"tuple","internalType":"struct IDelegationManagerTypes.Withdrawal","components":[{"name":"staker","type":"address","internalType":"address"},{"name":"delegatedTo","type":"address","internalType":"address"},{"name":"withdrawer","type":"address","internalType":"address"},{"name":"nonce","type":"uint256","internalType":"uint256"},{"name":"startBlock","type":"uint32","internalType":"uint32"},{"name":"strategies","type":"address[]","internalType":"contract IStrategy[]"},{"name":"scaledShares","type":"uint256[]","internalType":"uint256[]"}]}],"stateMutability":"view"},{"type":"function","name":"redelegate","inputs":[{"name":"newOperator","type":"address","internalType":"address"},{"name":"newOperatorApproverSig","type":"tuple","internalType":"struct ISignatureUtilsMixinTypes.SignatureWithExpiry","components":[{"name":"signature","type":"bytes","internalType":"bytes"},{"name":"expiry","type":"uint256","internalType":"uint256"}]},{"name":"approverSalt","type":"bytes32","internalType":"bytes32"}],"outputs":[{"name":"withdrawalRoots","type":"bytes32[]","internalType":"bytes32[]"}],"stateMutability":"nonpayable"},{"type":"function","name":"registerAsOperator","inputs":[{"name":"initDelegationApprover","type":"address","internalType":"address"},{"name":"allocationDelay","type":"uint32","internalType":"uint32"},{"name":"metadataURI","type":"string","internalType":"string"}],"outputs":[],"stateMutability":"nonpayable"},{"type":"function","name":"registerAsOperator","inputs":[{"name":"registeringOperatorDetails","type":"tuple","internalType":"struct IDelegationManagerTypes.OperatorDetails","components":[{"name":"__deprecated_earningsReceiver","type":"address","internalType":"address"},{"name":"delegationApprover","type":"address","internalType":"address"},{"name":"__deprecated_stakerOptOutWindowBlocks","type":"uint32","internalType":"uint32"}]},{"name":"allocationDelay","type":"uint32","internalType":"uint32"},{"name":"metadataURI","type":"string","internalType":"string"}],"outputs":[],"stateMutability":"nonpayable"},{"type":"function","name":"slashOperatorShares","inputs":[{"name":"operator","type":"address","internalType":"address"},{"name":"strategy","type":"address","internalType":"contract IStrategy"},{"name":"prevMaxMagnitude","type":"uint64","internalType":"uint64"},{"name":"newMaxMagnitude","type":"uint64","internalType":"uint64"}],"outputs":[],"stateMutability":"nonpayable"},{"type":"function","name":"undelegate","inputs":[{"name":"staker","type":"address","internalType":"address"}],"outputs":[{"name":"withdrawalRoots","type":"bytes32[]","internalType":"bytes32[]"}],"stateMutability":"nonpayable"},{"type":"function","name":"updateOperatorMetadataURI","inputs":[{"name":"operator","type":"address","internalType":"address"},{"name":"metadataURI","type":"string","internalType":"string"}],"outputs":[],"stateMutability":"nonpayable"},{"type":"function","name":"updateOperatorMetadataURI","inputs":[{"name":"metadataURI","type":"string","internalType":"string"}],"outputs":[],"stateMutability":"nonpayable"},{"type":"function","name":"version","inputs":[],"outputs":[{"name":"","type":"string","internalType":"string"}],"stateMutability":"pure"},{"type":"event","name":"DelegationApproverUpdated","inputs":[{"name":"operator","type":"address","indexed":true,"internalType":"address"},{"name":"newDelegationApprover","type":"address","indexed":false,"internalType":"address"}],"anonymous":false},{"type":"event","name":"DepositScalingFactorUpdated","inputs":[{"name":"staker","type":"address","indexed":false,"internalType":"address"},{"name":"strategy","type":"address","indexed":false,"internalType":"contract IStrategy"},{"name":"newDepositScalingFactor","type":"uint256","indexed":false,"internalType":"uint256"}],"anonymous":false},{"type":"event","name":"OperatorMetadataURIUpdated","inputs":[{"name":"operator","type":"address","indexed":true,"internalType":"address"},{"name":"metadataURI","type":"string","indexed":false,"internalType":"string"}],"anonymous":false},{"type":"event","name":"OperatorRegistered","inputs":[{"name":"operator","type":"address","indexed":true,"internalType":"address"},{"name":"delegationApprover","type":"address","indexed":false,"internalType":"address"}],"anonymous":false},{"type":"event","name":"OperatorSharesDecreased","inputs":[{"name":"operator","type":"address","indexed":true,"internalType":"address"},{"name":"staker","type":"address","indexed":false,"internalType":"address"},{"name":"strategy","type":"address","indexed":false,"internalType":"contract IStrategy"},{"name":"shares","type":"uint256","indexed":false,"internalType":"uint256"}],"anonymous":false},{"type":"event","name":"OperatorSharesIncreased","inputs":[{"name":"operator","type":"address","indexed":true,"internalType":"address"},{"name":"staker","type":"address","indexed":false,"internalType":"address"},{"name":"strategy","type":"address","indexed":false,"internalType":"contract IStrategy"},{"name":"shares","type":"uint256","indexed":false,"internalType":"uint256"}],"anonymous":false},{"type":"event","name":"OperatorSharesSlashed","inputs":[{"name":"operator","type":"address","indexed":true,"internalType":"address"},{"name":"strategy","type":"address","indexed":false,"internalType":"contract IStrategy"},{"name":"totalSlashedShares","type":"uint256","indexed":false,"internalType":"uint256"}],"anonymous":false},{"type":"event","name":"SlashingWithdrawalCompleted","inputs":[{"name":"withdrawalRoot","type":"bytes32","indexed":false,"internalType":"bytes32"}],"anonymous":false},{"type":"event","name":"SlashingWithdrawalQueued","inputs":[{"name":"withdrawalRoot","type":"bytes32","indexed":false,"internalType":"bytes32"},{"name":"withdrawal","type":"tuple","indexed":false,"internalType":"struct IDelegationManagerTypes.Withdrawal","components":[{"name":"staker","type":"address","internalType":"address"},{"name":"delegatedTo","type":"address","internalType":"address"},{"name":"withdrawer","type":"address","internalType":"address"},{"name":"nonce","type":"uint256","internalType":"uint256"},{"name":"startBlock","type":"uint32","internalType":"uint32"},{"name":"strategies","type":"address[]","internalType":"contract IStrategy[]"},{"name":"scaledShares","type":"uint256[]","internalType":"uint256[]"}]},{"name":"sharesToWithdraw","type":"uint256[]","indexed":false,"internalType":"uint256[]"}],"anonymous":false},{"type":"event","name":"StakerDelegated","inputs":[{"name":"staker","type":"address","indexed":true,"internalType":"address"},{"name":"operator","type":"address","indexed":true,"internalType":"address"}],"anonymous":false},{"type":"event","name":"StakerForceUndelegated","inputs":[{"name":"staker","type":"address","indexed":true,"internalType":"address"},{"name":"operator","type":"address","indexed":true,"internalType":"address"}],"anonymous":false},{"type":"event","name":"StakerUndelegated","inputs":[{"name":"staker","type":"address","indexed":true,"internalType":"address"},{"name":"operator","type":"address","indexed":true,"internalType":"address"}],"anonymous":false},{"type":"error","name":"ActivelyDelegated","inputs":[]},{"type":"error","name":"CallerCannotUndelegate","inputs":[]},{"type":"error","name":"FullySlashed","inputs":[]},{"type":"error","name":"InputArrayLengthMismatch","inputs":[]},{"type":"error","name":"InputArrayLengthZero","inputs":[]},{"type":"error","name":"InvalidSignature","inputs":[]},{"type":"error","name":"NotActivelyDelegated","inputs":[]},{"type":"error","name":"OnlyAllocationManager","inputs":[]},{"type":"error","name":"OnlyEigenPodManager","inputs":[]},{"type":"error","name":"OnlyStrategyManagerOrEigenPodManager","inputs":[]},{"type":"error","name":"OperatorNotRegistered","inputs":[]},{"type":"error","name":"OperatorsCannotUndelegate","inputs":[]},{"type":"error","name":"SaltSpent","inputs":[]},{"type":"error","name":"SignatureExpired","inputs":[]},{"type":"error","name":"WithdrawalDelayNotElapsed","inputs":[]},{"type":"error","name":"WithdrawalNotQueued","inputs":[]},{"type":"error","name":"WithdrawerNotCaller","inputs":[]}],"bytecode":{"object":"0x608080604052346015576112b7908161001a8239f35b5f80fdfe6080806040526004361015610012575f80fd5b5f3560e01c90816304a4f97914610ca1575080630b9f487a14610c765780630dd8dd0214610c3757806325df922e14610bc957806326f5e75b1461052f5780632aa6d88814610b875780633340439614610af45780633c651cf214610adb5780633cdeb5e0146106c55780633e28391d146106c55780634973006014610a9a57806354b7c96c14610a7857806354fd4d5014610a1c578063597b36da146109385780635d975e88146108975780635d9aed23146107b95780635dd685791461080f5780635f48e667146107be578063601bb36f1461039257806360a0d1ce146107b957806360d7faed1461075f57806363ceb57d1461073d57806365da1264146106c557806366d5ba93146106ca5780636d70f7ae146106c55780636e174448146104e857806378296ec51461068c57806390041347146106685780639104c3191461029e5780639435bb43146105f657806399be81c8146105c657806399f5371b14610548578063a17884841461052f578063a33a343314610511578063bb45fef2146104ed578063bfae3fd2146104e8578063c448feb81461029e578063c5e480db14610465578063c978f7ac14610431578063cd6dc68714610418578063da8be864146103f1578063e4cc3f9014610397578063ee74937f14610392578063eea9064b14610382578063f0e0e676146102cb578063f16172b0146102b8578063f698da251461029e5763fd8aa88d1461022c575f80fd5b3461029a57602036600319011261029a57610245610cb9565b50602061025181610d99565b905f82525f368137604051918291808301818452825180915281604085019301915f5b82811061028357505050500390f35b835185528695509381019392810192600101610274565b5f80fd5b3461029a575f36600319011261029a5760206040515f8152f35b3461029a57606036600319011261029a57005b3461029a57604036600319011261029a576004356001600160401b03811161029a573660238201121561029a578060040135906024602061031361030e85610dbe565b610d99565b848152019260051b8201019036821161029a57602401915b81831061036a576024356001600160401b03811161029a57610351903690600401610dd5565b5060405160208152806103666020820161103e565b0390f35b6020809161037785610cfb565b81520192019161032b565b3461029a5761039036611177565b005b611096565b3461029a57606036600319011261029a576004356001600160401b03811161029a5760e090600319903603011261029a576024356001600160401b03811161029a576103e7903690600401610d0f565b5050610390611107565b3461029a57602036600319011261029a5761040a610cb9565b506040518061036681610d3f565b3461029a57604036600319011261029a57610390610cb9565b3461029a5761043f36611138565b5050604051604081528061036661045860408301610e83565b8281036020840152610e83565b3461029a57602036600319011261029a5761047e610cb9565b5060405160608101908082106001600160401b038311176104d4576060916040525f815263ffffffff604060208301925f8452015f8152604051925f845260018060a01b03905116602084015251166040820152f35b634e487b7160e01b5f52604160045260245ffd5b611116565b3461029a57604036600319011261029a57610506610cb9565b5060206040515f8152f35b3461029a5761051f36611177565b5050506040518061036681610d3f565b3461029a57602036600319011261029a57610506610cb9565b3461029a57602036600319011261029a5761056161124d565b50602061056d81610d99565b905f82525f36813761057e81610d99565b5f81525f36813761058d610d7a565b925f84525f838501525f60408501525f60608501525f608085015260a084015260c0830152610366604051928284938452830190610f3c565b3461029a57602036600319011261029a576004356001600160401b03811161029a57610390903690600401610f0f565b3461029a57606036600319011261029a576004356001600160401b03811161029a57610626903690600401610d0f565b50506024356001600160401b03811161029a57610647903690600401610d0f565b50506044356001600160401b03811161029a57610390903690600401610d0f565b3461029a5761067636611138565b5050604051602081528061036660208201610e83565b3461029a57604036600319011261029a576106a5610cb9565b506024356001600160401b03811161029a57610390903690600401610f0f565b61052f565b3461029a57602036600319011261029a576106e3610cb9565b5060405180604081016040825260605180915260608201906080905f5b81811061071b57505050818103602083015261036690610e83565b82516001600160a01b0316845285945060209384019390920191600101610700565b3461029a57608036600319011261029a57610756610cb9565b50610390610fee565b3461029a57608036600319011261029a576004356001600160401b03811161029a5760e090600319903603011261029a576024356001600160401b03811161029a576107af903690600401610d0f565b50506103906110f8565b611004565b3461029a57606036600319011261029a576004356001600160401b03811161029a576107ee903690600401610d0f565b50506024356001600160401b03811161029a57610390903690600401610d0f565b3461029a57602036600319011261029a57610828610cb9565b50604051604081016040825260605180915281606081019160608160051b830101906080935f905b82821061086a57848061036686828103602084015261103e565b91935091602080610887600193605f198a82030186528851610f3c565b9601920192018593919492610850565b3461029a57602036600319011261029a576108b061124d565b5061092b60206103666108c282610d99565b915f83525f3681376108d381610d99565b5f81525f3681376108e2610d7a565b935f85525f838601525f60408601525f60608601525f608086015260a085015260c084015261091081610d99565b5f81525f368137604051948594604086526040860190610f3c565b9184830390850152610eb6565b3461029a57602036600319011261029a576004356001600160401b03811161029a5760e0600319823603011261029a57610970610d7a565b9061097d81600401610cfb565b825261098b60248201610cfb565b602083015261099c60448201610cfb565b604083015260648101356060830152608481013563ffffffff8116810361029a57608083015260a48101356001600160401b03811161029a576109e59060043691840101610dd5565b60a083015260c48101356001600160401b03811161029a5760c0916004610a0f9236920101610e30565b91015260206040515f8152f35b3461029a575f36600319011261029a576040610a3781610d99565b906006825260208201916576302e302e3160d01b83528151928391602083525180918160208501528484015e5f828201840152601f01601f19168101030190f35b3461029a57604036600319011261029a57610a91610cb9565b50610390610ccf565b3461029a57366003190160a0811261029a5760601361029a57610abb610efc565b506084356001600160401b03811161029a57610390903690600401610f0f565b3461029a57608036600319011261029a57610a91610cb9565b3461029a57608036600319011261029a576004356001600160401b03811161029a57610b24903690600401610d0f565b50506024356001600160401b03811161029a57610b45903690600401610d0f565b50506044356001600160401b03811161029a57610b66903690600401610d0f565b50506064356001600160401b03811161029a57610390903690600401610d0f565b3461029a57606036600319011261029a57610ba0610cb9565b50610ba9610ee9565b506044356001600160401b03811161029a57610390903690600401610f0f565b3461029a57606036600319011261029a57610be2610cb9565b506024356001600160401b03811161029a57610c02903690600401610dd5565b506044356001600160401b03811161029a57610c22903690600401610e30565b50604051602081528061036660208201610e83565b3461029a57602036600319011261029a576004356001600160401b03811161029a57610c67903690600401610d0f565b50506040518061036681610d3f565b3461029a5760a036600319011261029a57610c8f610cb9565b50610c98610ccf565b50610506610ce5565b3461029a575f36600319011261029a57805f60209252f35b600435906001600160a01b038216820361029a57565b602435906001600160a01b038216820361029a57565b604435906001600160a01b038216820361029a57565b35906001600160a01b038216820361029a57565b9181601f8401121561029a578235916001600160401b03831161029a576020808501948460051b01011161029a57565b604060208201916020815260605180935201906080905f5b818110610d645750505090565b8251845260209384019390920191600101610d57565b6040519060e082018281106001600160401b038211176104d457604052565b6040519190601f01601f191682016001600160401b038111838210176104d457604052565b6001600160401b0381116104d45760051b60200190565b9080601f8301121561029a578135610def61030e82610dbe565b9260208085848152019260051b82010192831161029a57602001905b828210610e185750505090565b60208091610e2584610cfb565b815201910190610e0b565b9080601f8301121561029a578135610e4a61030e82610dbe565b9260208085848152019260051b82010192831161029a57602001905b828210610e735750505090565b8135815260209182019101610e66565b60206060519182815201906080905f5b818110610ea05750505090565b8251845260209384019390920191600101610e93565b90602080835192838152019201905f5b818110610ed35750505090565b8251845260209384019390920191600101610ec6565b6024359063ffffffff8216820361029a57565b6064359063ffffffff8216820361029a57565b9181601f8401121561029a578235916001600160401b03831161029a576020838186019501011161029a57565b919060e081019060018060a01b03845116815260018060a01b03602085015116602082015260018060a01b0360408501511660408201526060840151606082015263ffffffff608085015116608082015260a08401519160e060a08301528251809152602061010083019301905f5b818110610fcf5750505060c0610fcc939401519060c0818403910152610eb6565b90565b82516001600160a01b0316855260209485019490920191600101610fab565b604435906001600160401b038216820361029a57565b3461029a57606036600319011261029a576004356001600160a01b038116810361029a57506044356001600160401b038116810361029a57005b80602060605191828152019060208160051b840101926080925f915b83831061106957505050505090565b9091929394602080611087600193601f198682030187528951610eb6565b9701930193019193929061105a565b3461029a57608036600319011261029a576004356001600160a01b038116810361029a57506024356001600160a01b038116810361029a57506044356001600160401b038116810361029a57506064356001600160401b038116810361029a57005b60643590811515820361029a57565b60443590811515820361029a57565b3461029a57604036600319011261029a5761112f610cb9565b50610506610ccf565b90604060031983011261029a576004356001600160a01b038116810361029a5791602435906001600160401b03821161029a57610fcc91600401610dd5565b90606060031983011261029a576004356001600160a01b038116810361029a5791602435906001600160401b03821161029a576040828203600319011261029a5760405191604083018381106001600160401b038211176104d45760405280600401356001600160401b03811161029a578101918060238401121561029a5760048301356001600160401b0381116104d45761121c601f8201601f1916602001610d99565b818152916024858301011161029a576020815f92602480970183860137830101528352013560208201529060443590565b611255610d7a565b905f82525f60208301525f60408301525f60608301525f6080830152606060a0830152606060c083015256fea26469706673582212208be583dfb3fe0b9036d80f2ba055b7bfb62284f3668ec877f60a0b1802b73af264736f6c634300081b0033","linkReferences":{}},"methodIdentifiers":{"DELEGATION_APPROVAL_TYPEHASH()":"04a4f979","beaconChainETHStrategy()":"9104c319","burnOperatorShares(address,address,uint64,uint64)":"ee74937f","calculateDelegationApprovalDigestHash(address,address,address,bytes32,uint256)":"0b9f487a","calculateWithdrawalRoot((address,address,address,uint256,uint32,address[],uint256[]))":"597b36da","completeQueuedWithdrawal((address,address,address,uint256,uint32,address[],uint256[]),address[],bool)":"e4cc3f90","completeQueuedWithdrawal((address,address,address,uint256,uint32,address[],uint256[]),address[],uint256,bool)":"60d7faed","completeQueuedWithdrawals((address,address,address,uint256,uint32,address[],uint256[])[],address[][],bool[])":"9435bb43","completeQueuedWithdrawals((address,address,address,uint256,uint32,address[],uint256[])[],address[][],uint256[],bool[])":"33404396","completeQueuedWithdrawals(address[][],bool[],uint256)":"5f48e667","convertToDepositShares(address,address[],uint256[])":"25df922e","cumulativeWithdrawalsQueued(address)":"a1788484","decreaseBeaconChainScalingFactor(address,uint256,uint64)":"5d9aed23","decreaseDelegatedShares(address,uint256,uint64)":"60a0d1ce","decreaseDelegatedShares(address,uint256,uint64,uint256)":"63ceb57d","delegateTo(address,(bytes,uint256),bytes32)":"eea9064b","delegatedTo(address)":"65da1264","delegationApprover(address)":"3cdeb5e0","delegationApproverSaltIsSpent(address,bytes32)":"bb45fef2","depositScalingFactor(address,address)":"bfae3fd2","domainSeparator()":"f698da25","getBeaconChainSlashingFactor(address)":"26f5e75b","getDepositedShares(address)":"66d5ba93","getOperatorShares(address,address[])":"90041347","getOperatorsShares(address[],address[])":"f0e0e676","getQueuedWithdrawal(bytes32)":"5d975e88","getQueuedWithdrawalRoots(address)":"fd8aa88d","getQueuedWithdrawals(address)":"5dd68579","getSlashableSharesInQueue(address,address)":"6e174448","getWithdrawableShares(address,address[])":"c978f7ac","increaseDelegatedShares(address,address,uint256,uint256)":"3c651cf2","initialize(address,uint256)":"cd6dc687","isDelegated(address)":"3e28391d","isOperator(address)":"6d70f7ae","minWithdrawalDelayBlocks()":"c448feb8","modifyOperatorDetails((address,address,uint32))":"f16172b0","modifyOperatorDetails(address,address)":"54b7c96c","operatorDetails(address)":"c5e480db","queueWithdrawals((address[],uint256[],address)[])":"0dd8dd02","queuedWithdrawals(bytes32)":"99f5371b","redelegate(address,(bytes,uint256),bytes32)":"a33a3433","registerAsOperator((address,address,uint32),uint32,string)":"49730060","registerAsOperator(address,uint32,string)":"2aa6d888","slashOperatorShares(address,address,uint64,uint64)":"601bb36f","undelegate(address)":"da8be864","updateOperatorMetadataURI(address,string)":"78296ec5","updateOperatorMetadataURI(string)":"99be81c8","version()":"54fd4d50"},"id":132}