{"abi":[{"type":"function","name":"OPERATOR_AVS_REGISTRATION_TYPEHASH","inputs":[],"outputs":[{"name":"","type":"bytes32","internalType":"bytes32"}],"stateMutability":"view"},{"type":"function","name":"OPERATOR_SET_REGISTRATION_TYPEHASH","inputs":[],"outputs":[{"name":"","type":"bytes32","internalType":"bytes32"}],"stateMutability":"view"},{"type":"function","name":"addStrategiesToOperatorSet","inputs":[{"name":"operatorSetId","type":"uint32","internalType":"uint32"},{"name":"strategies","type":"address[]","internalType":"contract IStrategy[]"}],"outputs":[],"stateMutability":"nonpayable"},{"type":"function","name":"becomeOperatorSetAVS","inputs":[],"outputs":[],"stateMutability":"nonpayable"},{"type":"function","name":"calculateOperatorAVSRegistrationDigestHash","inputs":[{"name":"operator","type":"address","internalType":"address"},{"name":"avs","type":"address","internalType":"address"},{"name":"salt","type":"bytes32","internalType":"bytes32"},{"name":"expiry","type":"uint256","internalType":"uint256"}],"outputs":[{"name":"","type":"bytes32","internalType":"bytes32"}],"stateMutability":"view"},{"type":"function","name":"calculateOperatorSetForceDeregistrationTypehash","inputs":[{"name":"avs","type":"address","internalType":"address"},{"name":"operatorSetIds","type":"uint32[]","internalType":"uint32[]"},{"name":"salt","type":"bytes32","internalType":"bytes32"},{"name":"expiry","type":"uint256","internalType":"uint256"}],"outputs":[{"name":"","type":"bytes32","internalType":"bytes32"}],"stateMutability":"view"},{"type":"function","name":"calculateOperatorSetRegistrationDigestHash","inputs":[{"name":"avs","type":"address","internalType":"address"},{"name":"operatorSetIds","type":"uint32[]","internalType":"uint32[]"},{"name":"salt","type":"bytes32","internalType":"bytes32"},{"name":"expiry","type":"uint256","internalType":"uint256"}],"outputs":[{"name":"","type":"bytes32","internalType":"bytes32"}],"stateMutability":"view"},{"type":"function","name":"cancelSalt","inputs":[{"name":"salt","type":"bytes32","internalType":"bytes32"}],"outputs":[],"stateMutability":"nonpayable"},{"type":"function","name":"createOperatorSets","inputs":[{"name":"operatorSetIds","type":"uint32[]","internalType":"uint32[]"}],"outputs":[],"stateMutability":"nonpayable"},{"type":"function","name":"deregisterOperatorFromAVS","inputs":[{"name":"operator","type":"address","internalType":"address"}],"outputs":[],"stateMutability":"nonpayable"},{"type":"function","name":"deregisterOperatorFromOperatorSets","inputs":[{"name":"operator","type":"address","internalType":"address"},{"name":"operatorSetIds","type":"uint32[]","internalType":"uint32[]"}],"outputs":[],"stateMutability":"nonpayable"},{"type":"function","name":"domainSeparator","inputs":[],"outputs":[{"name":"","type":"bytes32","internalType":"bytes32"}],"stateMutability":"pure"},{"type":"function","name":"forceDeregisterFromOperatorSets","inputs":[{"name":"operator","type":"address","internalType":"address"},{"name":"avs","type":"address","internalType":"address"},{"name":"operatorSetIds","type":"uint32[]","internalType":"uint32[]"},{"name":"operatorSignature","type":"tuple","internalType":"struct ISignatureUtilsMixinTypes.SignatureWithSaltAndExpiry","components":[{"name":"signature","type":"bytes","internalType":"bytes"},{"name":"salt","type":"bytes32","internalType":"bytes32"},{"name":"expiry","type":"uint256","internalType":"uint256"}]}],"outputs":[],"stateMutability":"nonpayable"},{"type":"function","name":"getNumOperatorSetsOfOperator","inputs":[{"name":"operator","type":"address","internalType":"address"}],"outputs":[{"name":"","type":"uint256","internalType":"uint256"}],"stateMutability":"view"},{"type":"function","name":"getNumOperatorsInOperatorSet","inputs":[{"name":"operatorSet","type":"tuple","internalType":"struct OperatorSet","components":[{"name":"avs","type":"address","internalType":"address"},{"name":"id","type":"uint32","internalType":"uint32"}]}],"outputs":[{"name":"","type":"uint256","internalType":"uint256"}],"stateMutability":"view"},{"type":"function","name":"getOperatorsInOperatorSet","inputs":[{"name":"operatorSet","type":"tuple","internalType":"struct OperatorSet","components":[{"name":"avs","type":"address","internalType":"address"},{"name":"id","type":"uint32","internalType":"uint32"}]},{"name":"start","type":"uint256","internalType":"uint256"},{"name":"length","type":"uint256","internalType":"uint256"}],"outputs":[{"name":"operators","type":"address[]","internalType":"address[]"}],"stateMutability":"view"},{"type":"function","name":"getStrategiesInOperatorSet","inputs":[{"name":"operatorSet","type":"tuple","internalType":"struct OperatorSet","components":[{"name":"avs","type":"address","internalType":"address"},{"name":"id","type":"uint32","internalType":"uint32"}]}],"outputs":[{"name":"strategies","type":"address[]","internalType":"contract IStrategy[]"}],"stateMutability":"view"},{"type":"function","name":"inTotalOperatorSets","inputs":[{"name":"operator","type":"address","internalType":"address"}],"outputs":[{"name":"","type":"uint256","internalType":"uint256"}],"stateMutability":"view"},{"type":"function","name":"initialize","inputs":[{"name":"initialOwner","type":"address","internalType":"address"},{"name":"_pauserRegistry","type":"address","internalType":"contract IPauserRegistry"},{"name":"initialPausedStatus","type":"uint256","internalType":"uint256"}],"outputs":[],"stateMutability":"nonpayable"},{"type":"function","name":"initialize","inputs":[{"name":"initialOwner","type":"address","internalType":"address"},{"name":"initialPausedStatus","type":"uint256","internalType":"uint256"}],"outputs":[],"stateMutability":"nonpayable"},{"type":"function","name":"isMember","inputs":[{"name":"operator","type":"address","internalType":"address"},{"name":"operatorSet","type":"tuple","internalType":"struct OperatorSet","components":[{"name":"avs","type":"address","internalType":"address"},{"name":"id","type":"uint32","internalType":"uint32"}]}],"outputs":[{"name":"","type":"bool","internalType":"bool"}],"stateMutability":"view"},{"type":"function","name":"isOperatorSet","inputs":[{"name":"avs","type":"address","internalType":"address"},{"name":"operatorSetId","type":"uint32","internalType":"uint32"}],"outputs":[{"name":"","type":"bool","internalType":"bool"}],"stateMutability":"view"},{"type":"function","name":"isOperatorSetBatch","inputs":[{"name":"operatorSets","type":"tuple[]","internalType":"struct OperatorSet[]","components":[{"name":"avs","type":"address","internalType":"address"},{"name":"id","type":"uint32","internalType":"uint32"}]}],"outputs":[{"name":"","type":"bool","internalType":"bool"}],"stateMutability":"view"},{"type":"function","name":"isOperatorSlashable","inputs":[{"name":"operator","type":"address","internalType":"address"},{"name":"operatorSet","type":"tuple","internalType":"struct OperatorSet","components":[{"name":"avs","type":"address","internalType":"address"},{"name":"id","type":"uint32","internalType":"uint32"}]}],"outputs":[{"name":"","type":"bool","internalType":"bool"}],"stateMutability":"view"},{"type":"function","name":"migrateOperatorsToOperatorSets","inputs":[{"name":"operators","type":"address[]","internalType":"address[]"},{"name":"operatorSetIds","type":"uint32[][]","internalType":"uint32[][]"}],"outputs":[],"stateMutability":"nonpayable"},{"type":"function","name":"operatorSaltIsSpent","inputs":[{"name":"operator","type":"address","internalType":"address"},{"name":"salt","type":"bytes32","internalType":"bytes32"}],"outputs":[{"name":"","type":"bool","internalType":"bool"}],"stateMutability":"view"},{"type":"function","name":"operatorSetMemberAtIndex","inputs":[{"name":"operatorSet","type":"tuple","internalType":"struct OperatorSet","components":[{"name":"avs","type":"address","internalType":"address"},{"name":"id","type":"uint32","internalType":"uint32"}]},{"name":"index","type":"uint256","internalType":"uint256"}],"outputs":[{"name":"","type":"address","internalType":"address"}],"stateMutability":"view"},{"type":"function","name":"operatorSetStatus","inputs":[{"name":"avs","type":"address","internalType":"address"},{"name":"operator","type":"address","internalType":"address"},{"name":"operatorSetId","type":"uint32","internalType":"uint32"}],"outputs":[{"name":"registered","type":"bool","internalType":"bool"},{"name":"lastDeregisteredTimestamp","type":"uint32","internalType":"uint32"}],"stateMutability":"view"},{"type":"function","name":"operatorSetsEnabled","inputs":[{"name":"avs","type":"address","internalType":"address"}],"outputs":[{"name":"","type":"bool","internalType":"bool"}],"stateMutability":"view"},{"type":"function","name":"registerOperatorToAVS","inputs":[{"name":"operator","type":"address","internalType":"address"},{"name":"operatorSignature","type":"tuple","internalType":"struct ISignatureUtilsMixinTypes.SignatureWithSaltAndExpiry","components":[{"name":"signature","type":"bytes","internalType":"bytes"},{"name":"salt","type":"bytes32","internalType":"bytes32"},{"name":"expiry","type":"uint256","internalType":"uint256"}]}],"outputs":[],"stateMutability":"nonpayable"},{"type":"function","name":"registerOperatorToOperatorSets","inputs":[{"name":"operator","type":"address","internalType":"address"},{"name":"operatorSetIds","type":"uint32[]","internalType":"uint32[]"},{"name":"operatorSignature","type":"tuple","internalType":"struct ISignatureUtilsMixinTypes.SignatureWithSaltAndExpiry","components":[{"name":"signature","type":"bytes","internalType":"bytes"},{"name":"salt","type":"bytes32","internalType":"bytes32"},{"name":"expiry","type":"uint256","internalType":"uint256"}]}],"outputs":[],"stateMutability":"nonpayable"},{"type":"function","name":"removeStrategiesFromOperatorSet","inputs":[{"name":"operatorSetId","type":"uint32","internalType":"uint32"},{"name":"strategies","type":"address[]","internalType":"contract IStrategy[]"}],"outputs":[],"stateMutability":"nonpayable"},{"type":"function","name":"updateAVSMetadataURI","inputs":[{"name":"metadataURI","type":"string","internalType":"string"}],"outputs":[],"stateMutability":"nonpayable"},{"type":"function","name":"version","inputs":[],"outputs":[{"name":"","type":"string","internalType":"string"}],"stateMutability":"pure"},{"type":"event","name":"AVSMetadataURIUpdated","inputs":[{"name":"avs","type":"address","indexed":true,"internalType":"address"},{"name":"metadataURI","type":"string","indexed":false,"internalType":"string"}],"anonymous":false},{"type":"event","name":"OperatorAVSRegistrationStatusUpdated","inputs":[{"name":"operator","type":"address","indexed":true,"internalType":"address"},{"name":"avs","type":"address","indexed":true,"internalType":"address"},{"name":"status","type":"uint8","indexed":false,"internalType":"enum IAVSDirectoryTypes.OperatorAVSRegistrationStatus"}],"anonymous":false},{"type":"error","name":"InvalidSignature","inputs":[]},{"type":"error","name":"OperatorAlreadyRegisteredToAVS","inputs":[]},{"type":"error","name":"OperatorNotRegisteredToAVS","inputs":[]},{"type":"error","name":"OperatorNotRegisteredToEigenLayer","inputs":[]},{"type":"error","name":"SaltSpent","inputs":[]},{"type":"error","name":"SignatureExpired","inputs":[]}],"bytecode":{"object":"0x608080604052346015576109a7908161001a8239f35b5f80fdfe60806040526004361015610011575f80fd5b5f3560e01c80631023aa35146106a45780631352c3e6146102185780631794bb3c146106765780631e2199e21461061c5780631e68134e146105e157806320c4e23614610587578063374823b51461056e5780633fee332d1461050b578063411d415b146104f15780634177a87c1461048a57806354fd4d501461042e5780637357723b146103c7578063769993421461022257806384d76f7b146103a5578063955e66961461029d5780639926ee7d1461036c578063a1060c881461034a578063a364f4da14610331578063a98fb355146102e4578063aec205c5146102d2578063afe02ed5146102a2578063b2841d481461029d578063becff06314610279578063c1a8e2c514610240578063c825fe681461021d578063cbdf0e4214610213578063cd6dc68714610227578063ce7b5e4b14610222578063d79aceab1461021d578063da2ff05d14610218578063e88d804914610213578063ec76f44214610200578063ef2dfa8d146101ad5763f698da251461018f575f80fd5b346101a9575f3660031901126101a95760206040515f8152f35b5f80fd5b346101a95760403660031901126101a9576004356001600160401b0381116101a9576101dd90369060040161080d565b50506024356001600160401b0381116101a9576101fe90369060040161080d565b005b346101a95760203660031901126101a957005b610279565b6107ea565b61018f565b6108df565b346101a95760403660031901126101a9576101fe610716565b346101a95760403660031901126101a957610259610716565b506024356001600160401b0381116101a9576101fe90369060040161080d565b346101a95760203660031901126101a957610292610716565b5060206040515f8152f35b610920565b346101a95760203660031901126101a9576004356001600160401b0381116101a9576101fe90369060040161080d565b346101a9575f3660031901126101a957005b346101a95760203660031901126101a9576004356001600160401b0381116101a957366023820112156101a95780600401356001600160401b0381116101a957369101602401116101a957005b346101a95760203660031901126101a9576101fe610716565b346101a95760803660031901126101a957610363610716565b5061029261072c565b346101a95760403660031901126101a957610385610716565b506024356001600160401b0381116101a9576101fe90369060040161083d565b346101a95760403660031901126101a9576103be610716565b50610292610755565b346101a95760803660031901126101a9576103e136610768565b5060405180602081016020825260605180915260408201906080905f5b81811061040c575050500390f35b82516001600160a01b03168452859450602093840193909201916001016103fe565b346101a9575f3660031901126101a9576040610449816106f1565b906006825260208201916576302e302e3160d01b83528151928391602083525180918160208501528484015e5f828201840152601f01601f19168101030190f35b346101a95760403660031901126101a9576104a436610768565b5060405180602081016020825260605180915260408201906080905f5b8181106104cf575050500390f35b82516001600160a01b03168452859450602093840193909201916001016104c1565b346101a95760603660031901126101a95761029236610768565b346101a95760803660031901126101a957610524610716565b5061052d61072c565b506044356001600160401b0381116101a95761054d90369060040161080d565b50506064356001600160401b0381116101a9576101fe90369060040161083d565b346101a95760403660031901126101a957610292610716565b346101a95760203660031901126101a9576004356001600160401b0381116101a957366023820112156101a9578060040135906001600160401b0382116101a957602490369260061b0101116101a95760206040515f8152f35b346101a95760603660031901126101a9576105fa610716565b5061060361072c565b5061060c610742565b50604080515f81525f6020820152f35b346101a95760603660031901126101a957610635610716565b506024356001600160401b0381116101a95761065590369060040161080d565b50506044356001600160401b0381116101a9576101fe90369060040161083d565b346101a95760603660031901126101a95761068f610716565b506024356001600160a01b038116036101a957005b346101a95760403660031901126101a95761029236610768565b60405190604082018281106001600160401b038211176106dd57604052565b634e487b7160e01b5f52604160045260245ffd5b6040519190601f01601f191682016001600160401b038111838210176106dd57604052565b600435906001600160a01b03821682036101a957565b602435906001600160a01b03821682036101a957565b6044359063ffffffff821682036101a957565b6024359063ffffffff821682036101a957565b60409060031901126101a95761077c6106be565b906004356001600160a01b03811681036101a957825260243563ffffffff811681036101a9576020830152565b60409060231901126101a9576107bd6106be565b906024356001600160a01b03811681036101a957825260443563ffffffff811681036101a9576020830152565b346101a95760603660031901126101a957610803610716565b50610292366107a9565b9181601f840112156101a9578235916001600160401b0383116101a9576020808501948460051b0101116101a957565b91906060838203126101a95760405190606082018281106001600160401b038211176106dd57604052819380356001600160401b0381116101a95781019082601f830112156101a9578135926001600160401b0384116106dd576108aa601f8501601f19166020016106f1565b90848252602085850101116101a9575f6020856040968288970183860137830101528452602081013560208501520135910152565b346101a95760403660031901126101a95760043563ffffffff811681036101a957506024356001600160401b0381116101a9576101fe90369060040161080d565b346101a95760803660031901126101a9576004356001600160a01b03811681036101a957506024356001600160401b0381116101a95761096490369060040161080d565b90505060206040515f8152f3fea2646970667358221220234a7b53628c3554ddaeb3ec411ef345d54d8f4700dad1819abd0d70d2da669664736f6c634300081b0033","linkReferences":{}},"methodIdentifiers":{"OPERATOR_AVS_REGISTRATION_TYPEHASH()":"d79aceab","OPERATOR_SET_REGISTRATION_TYPEHASH()":"c825fe68","addStrategiesToOperatorSet(uint32,address[])":"76999342","becomeOperatorSetAVS()":"aec205c5","calculateOperatorAVSRegistrationDigestHash(address,address,bytes32,uint256)":"a1060c88","calculateOperatorSetForceDeregistrationTypehash(address,uint32[],bytes32,uint256)":"b2841d48","calculateOperatorSetRegistrationDigestHash(address,uint32[],bytes32,uint256)":"955e6696","cancelSalt(bytes32)":"ec76f442","createOperatorSets(uint32[])":"afe02ed5","deregisterOperatorFromAVS(address)":"a364f4da","deregisterOperatorFromOperatorSets(address,uint32[])":"c1a8e2c5","domainSeparator()":"f698da25","forceDeregisterFromOperatorSets(address,address,uint32[],(bytes,bytes32,uint256))":"3fee332d","getNumOperatorSetsOfOperator(address)":"e88d8049","getNumOperatorsInOperatorSet((address,uint32))":"1023aa35","getOperatorsInOperatorSet((address,uint32),uint256,uint256)":"7357723b","getStrategiesInOperatorSet((address,uint32))":"4177a87c","inTotalOperatorSets(address)":"cbdf0e42","initialize(address,address,uint256)":"1794bb3c","initialize(address,uint256)":"cd6dc687","isMember(address,(address,uint32))":"da2ff05d","isOperatorSet(address,uint32)":"84d76f7b","isOperatorSetBatch((address,uint32)[])":"20c4e236","isOperatorSlashable(address,(address,uint32))":"1352c3e6","migrateOperatorsToOperatorSets(address[],uint32[][])":"ef2dfa8d","operatorSaltIsSpent(address,bytes32)":"374823b5","operatorSetMemberAtIndex((address,uint32),uint256)":"411d415b","operatorSetStatus(address,address,uint32)":"1e68134e","operatorSetsEnabled(address)":"becff063","registerOperatorToAVS(address,(bytes,bytes32,uint256))":"9926ee7d","registerOperatorToOperatorSets(address,uint32[],(bytes,bytes32,uint256))":"1e2199e2","removeStrategiesFromOperatorSet(uint32,address[])":"ce7b5e4b","updateAVSMetadataURI(string)":"a98fb355","version()":"54fd4d50"},"id":130}