{"abi":[{"type":"constructor","inputs":[{"name":"_slashingRegistryCoordinator","type":"address","internalType":"contract ISlashingRegistryCoordinator"}],"stateMutability":"nonpayable"},{"type":"function","name":"OPERATOR_DOES_NOT_EXIST_ID","inputs":[],"outputs":[{"name":"","type":"bytes32","internalType":"bytes32"}],"stateMutability":"view"},{"type":"function","name":"currentOperatorIndex","inputs":[{"name":"","type":"uint8","internalType":"uint8"},{"name":"","type":"bytes32","internalType":"bytes32"}],"outputs":[{"name":"","type":"uint32","internalType":"uint32"}],"stateMutability":"view"},{"type":"function","name":"deregisterOperator","inputs":[{"name":"operatorId","type":"bytes32","internalType":"bytes32"},{"name":"quorumNumbers","type":"bytes","internalType":"bytes"}],"outputs":[],"stateMutability":"nonpayable"},{"type":"function","name":"getLatestOperatorUpdate","inputs":[{"name":"quorumNumber","type":"uint8","internalType":"uint8"},{"name":"operatorIndex","type":"uint32","internalType":"uint32"}],"outputs":[{"name":"","type":"tuple","internalType":"struct IIndexRegistryTypes.OperatorUpdate","components":[{"name":"fromBlockNumber","type":"uint32","internalType":"uint32"},{"name":"operatorId","type":"bytes32","internalType":"bytes32"}]}],"stateMutability":"view"},{"type":"function","name":"getLatestQuorumUpdate","inputs":[{"name":"quorumNumber","type":"uint8","internalType":"uint8"}],"outputs":[{"name":"","type":"tuple","internalType":"struct IIndexRegistryTypes.QuorumUpdate","components":[{"name":"fromBlockNumber","type":"uint32","internalType":"uint32"},{"name":"numOperators","type":"uint32","internalType":"uint32"}]}],"stateMutability":"view"},{"type":"function","name":"getOperatorListAtBlockNumber","inputs":[{"name":"quorumNumber","type":"uint8","internalType":"uint8"},{"name":"blockNumber","type":"uint32","internalType":"uint32"}],"outputs":[{"name":"","type":"bytes32[]","internalType":"bytes32[]"}],"stateMutability":"view"},{"type":"function","name":"getOperatorUpdateAtIndex","inputs":[{"name":"quorumNumber","type":"uint8","internalType":"uint8"},{"name":"operatorIndex","type":"uint32","internalType":"uint32"},{"name":"arrayIndex","type":"uint32","internalType":"uint32"}],"outputs":[{"name":"","type":"tuple","internalType":"struct IIndexRegistryTypes.OperatorUpdate","components":[{"name":"fromBlockNumber","type":"uint32","internalType":"uint32"},{"name":"operatorId","type":"bytes32","internalType":"bytes32"}]}],"stateMutability":"view"},{"type":"function","name":"getQuorumUpdateAtIndex","inputs":[{"name":"quorumNumber","type":"uint8","internalType":"uint8"},{"name":"quorumIndex","type":"uint32","internalType":"uint32"}],"outputs":[{"name":"","type":"tuple","internalType":"struct IIndexRegistryTypes.QuorumUpdate","components":[{"name":"fromBlockNumber","type":"uint32","internalType":"uint32"},{"name":"numOperators","type":"uint32","internalType":"uint32"}]}],"stateMutability":"view"},{"type":"function","name":"initializeQuorum","inputs":[{"name":"quorumNumber","type":"uint8","internalType":"uint8"}],"outputs":[],"stateMutability":"nonpayable"},{"type":"function","name":"registerOperator","inputs":[{"name":"operatorId","type":"bytes32","internalType":"bytes32"},{"name":"quorumNumbers","type":"bytes","internalType":"bytes"}],"outputs":[{"name":"","type":"uint32[]","internalType":"uint32[]"}],"stateMutability":"nonpayable"},{"type":"function","name":"registryCoordinator","inputs":[],"outputs":[{"name":"","type":"address","internalType":"address"}],"stateMutability":"view"},{"type":"function","name":"totalOperatorsForQuorum","inputs":[{"name":"quorumNumber","type":"uint8","internalType":"uint8"}],"outputs":[{"name":"","type":"uint32","internalType":"uint32"}],"stateMutability":"view"},{"type":"function","name":"totalOperatorsForQuorumAtBlockNumber","inputs":[{"name":"quorumNumber","type":"uint8","internalType":"uint8"},{"name":"blockNumber","type":"uint32","internalType":"uint32"}],"outputs":[{"name":"","type":"uint32","internalType":"uint32"}],"stateMutability":"view"},{"type":"event","name":"Initialized","inputs":[{"name":"version","type":"uint8","indexed":false,"internalType":"uint8"}],"anonymous":false},{"type":"event","name":"QuorumIndexUpdate","inputs":[{"name":"operatorId","type":"bytes32","indexed":true,"internalType":"bytes32"},{"name":"quorumNumber","type":"uint8","indexed":false,"internalType":"uint8"},{"name":"newOperatorIndex","type":"uint32","indexed":false,"internalType":"uint32"}],"anonymous":false},{"type":"error","name":"OnlyRegistryCoordinator","inputs":[]},{"type":"error","name":"OperatorIdDoesNotExist","inputs":[]},{"type":"error","name":"QuorumDoesNotExist","inputs":[]}],"bytecode":{"object":"0x60a03461011a57601f610e8738819003918201601f19168301916001600160401b0383118484101761011e5780849260209460405283398101031261011a57516001600160a01b0381169081900361011a576080525f5460ff8160081c166100c55760ff8082160361008b575b604051610d5490816101338239608051818181610456015261096f0152f35b60ff90811916175f557f7f26b83ff96e1f2b6a682f133852f6798a09c465da95921460cefb3847402498602060405160ff8152a15f61006c565b60405162461bcd60e51b815260206004820152602760248201527f496e697469616c697a61626c653a20636f6e747261637420697320696e697469604482015266616c697a696e6760c81b6064820152608490fd5b5f80fd5b634e487b7160e01b5f52604160045260245ffdfe60806040526004361015610011575f80fd5b5f3560e01c8062bff04d146105c657806312d1d74d1461058157806326d941f21461051f5780632ed583e5146104855780636d14a987146104415780637b5d26be146104075780638121906f146103cb57806389026245146102de578063a48bb0ac14610261578063bd29b8cd1461013d578063caa3cd7614610123578063e2e68580146100df5763f3410922146100a7575f80fd5b346100db5760203660031901126100db57602063ffffffff6100cf6100ca6107b1565b610bec565b54821c16604051908152f35b5f80fd5b346100db5760403660031901126100db5760ff6100fa6107b1565b165f52600160205260405f206024355f52602052602063ffffffff60405f205416604051908152f35b346100db575f3660031901126100db5760206040515f8152f35b346100db5761014b3661075d565b61015361096d565b4363ffffffff16905f5b81811061016657005b610171818386610846565b3560f81c90815f52600360205260405f20541561025257816001925f528260205260405f20875f5260205263ffffffff60405f2054166101b082610bec565b916101cf6101c763ffffffff855460201c16610866565b809483610cab565b6101d98382610aa9565b928584018863ffffffff8254965416145f14610216575f9150555b828903610205575b5050500161015d565b61020e926109f4565b8680806101fc565b50815f52600260205263ffffffff60405f2091165f5260205261024d60405f2061023e6107d4565b908982525f60208301526109ae565b6101f4565b637310cff560e11b5f5260045ffd5b346100db5760403660031901126100db576102da6102b56102af6102836107b1565b60ff61028d6107c1565b915f60206102996107d4565b8281520152165f52600360205260405f206108b1565b5061094d565b60405191829182919091602063ffffffff816040840195828151168552015116910152565b0390f35b346100db5760403660031901126100db576102f76107b1565b6102ff6107c1565b9063ffffffff61030f8383610af1565b1661032161031c8261082e565b610808565b9281845261032e8261082e565b602085019390601f19013685375f5b838110610388578486604051918291602083019060208452518091526040830191905f5b81811061036f575050500390f35b8251845285945060209384019390920191600101610361565b6103998363ffffffff831684610c12565b6103a3828861087e565b526103ae818761087e565b51156103bc5760010161033d565b637f12098d60e11b5f5260045ffd5b346100db5760203660031901126100db576102da6102b56104026103ed6107b1565b5f60206103f86107d4565b8281520152610bec565b61094d565b346100db5760403660031901126100db5760206104336104256107b1565b61042d6107c1565b90610af1565b63ffffffff60405191168152f35b346100db575f3660031901126100db576040517f00000000000000000000000000000000000000000000000000000000000000006001600160a01b03168152602090f35b346100db5760603660031901126100db5761049e6107b1565b6104a66107c1565b6044359163ffffffff831683036100db576102da926104fc9260ff6104f6935f60206104d06107d4565b8281520152165f52600260205263ffffffff60405f2091165f5260205260405f20610934565b50610892565b60405191829182919091602080604083019463ffffffff81511684520151910152565b346100db5760203660031901126100db5760ff61053a6107b1565b61054261096d565b16805f52600360205260405f2054610252575f52600360205261057f60405f2061056a6107d4565b9063ffffffff431682525f60208301526108c6565b005b346100db5760403660031901126100db576102da6104fc6105c16105a36107b1565b6105ab6107c1565b905f60206105b76107d4565b8281520152610aa9565b610892565b346100db576105d43661075d565b906105dd61096d565b6105e961031c8361082e565b928284526105f68361082e565b602085019390601f19013685375f5b818110610656578486604051918291602083019060208452518091526040830191905f5b818110610637575050500390f35b825163ffffffff16845285945060209384019390920191600101610629565b610661818386610846565b3560f81c90815f52600360205260405f2054156102525761068182610bec565b600163ffffffff825460201c16019063ffffffff821161074957836106ac836106e793600197610cab565b805f52600260205260405f2063ffffffff6106c685610866565b165f5260205260405f205415610700575b6106e083610866565b90876109f4565b63ffffffff6106f6838a61087e565b9116905201610605565b805f52600260205260405f2063ffffffff61071a85610866565b165f5260205261074460405f2061072f6107d4565b9063ffffffff431682525f60208301526109ae565b6106d7565b634e487b7160e01b5f52601160045260245ffd5b60406003198201126100db576004359160243567ffffffffffffffff81116100db57826023820112156100db5780600401359267ffffffffffffffff84116100db57602484830101116100db576024019190565b6004359060ff821682036100db57565b6024359063ffffffff821682036100db57565b604051906040820182811067ffffffffffffffff8211176107f457604052565b634e487b7160e01b5f52604160045260245ffd5b6040519190601f01601f1916820167ffffffffffffffff8111838210176107f457604052565b67ffffffffffffffff81116107f45760051b60200190565b90821015610852570190565b634e487b7160e01b5f52603260045260245ffd5b63ffffffff5f199116019063ffffffff821161074957565b80518210156108525760209160051b010190565b90600161089d6107d4565b9263ffffffff815416845201546020830152565b8054821015610852575f5260205f2001905f90565b8054600160401b8110156107f4576108e3916001820181556108b1565b610921578151815460209384015167ffffffffffffffff1990911663ffffffff9290921691909117921b67ffffffff0000000016919091179055565b565b634e487b7160e01b5f525f60045260245ffd5b8054821015610852575f5260205f209060011b01905f90565b9063ffffffff61095b6107d4565b9254818116845260201c166020830152565b7f00000000000000000000000000000000000000000000000000000000000000006001600160a01b0316330361099f57565b634394dbdf60e11b5f5260045ffd5b8054600160401b8110156107f4576109cb91600182018155610934565b9190916109215760208163ffffffff8060019451161663ffffffff198554161784550151910155565b9160409063ffffffff60ff7f6ee1e4f4075f3d067176140d34e87874244dd273294c05b2218133e49a2ba6f69486610a2c8583610aa9565b80544386169086168103610a6f5750600101555b1691825f526001602052835f20865f52602052835f2082821683198254161790558351928352166020820152a2565b9050610aa491508383165f526002602052865f208587165f52602052865f20610a966107d4565b9182528960208301526109ae565b610a40565b60ff165f90815260026020908152604080832063ffffffff9490941683529290522080545f19810190811161074957610ae191610934565b5090565b8015610749575f190190565b60ff1690815f52600360205260405f2054805b610b915760405162461bcd60e51b815260206004820152605560248201527f496e64657852656769737472792e5f6f70657261746f72436f756e744174426c60448201527f6f636b4e756d6265723a2071756f72756d20646964206e6f742065786973742060648201527430ba1033b4bb32b710313637b1b590373ab6b132b960591b608482015260a490fd5b825f52600360205260405f205f1982019082821161074957610bb6916102af916108b1565b63ffffffff81511663ffffffff84161015610bdb5750610bd590610ae5565b80610b04565b6020015163ffffffff169392505050565b60ff165f90815260036020526040902080545f19810190811161074957610ae1916108b1565b60ff909291921691825f52600260205260405f2063ffffffff82165f5260205260405f2054805b610c4557505050505f90565b835f52600260205260405f2063ffffffff83165f5260205260405f205f1982019082821161074957610c7a916104f691610934565b63ffffffff81511663ffffffff85161015610c9f5750610c9990610ae5565b80610c39565b60200151949350505050565b919063ffffffff81541663ffffffff43168091145f14610ced575061091f92509067ffffffff0000000082549160201b169067ffffffff000000001916179055565b91905060ff61091f93165f52600360205263ffffffff60405f2091610d106107d4565b9384521660208301526108c656fea26469706673582212205ecf9568c6fcd8a2a5492e071aa059b77638a25dc819e61ca2d66ae1e5e02f2a64736f6c634300081b0033","linkReferences":{}},"methodIdentifiers":{"OPERATOR_DOES_NOT_EXIST_ID()":"caa3cd76","currentOperatorIndex(uint8,bytes32)":"e2e68580","deregisterOperator(bytes32,bytes)":"bd29b8cd","getLatestOperatorUpdate(uint8,uint32)":"12d1d74d","getLatestQuorumUpdate(uint8)":"8121906f","getOperatorListAtBlockNumber(uint8,uint32)":"89026245","getOperatorUpdateAtIndex(uint8,uint32,uint32)":"2ed583e5","getQuorumUpdateAtIndex(uint8,uint32)":"a48bb0ac","initializeQuorum(uint8)":"26d941f2","registerOperator(bytes32,bytes)":"00bff04d","registryCoordinator()":"6d14a987","totalOperatorsForQuorum(uint8)":"f3410922","totalOperatorsForQuorumAtBlockNumber(uint8,uint32)":"7b5d26be"},"id":97}