{"abi":[{"type":"function","name":"acceptAdmin","inputs":[{"name":"account","type":"address","internalType":"address"}],"outputs":[],"stateMutability":"nonpayable"},{"type":"function","name":"addPendingAdmin","inputs":[{"name":"account","type":"address","internalType":"address"},{"name":"admin","type":"address","internalType":"address"}],"outputs":[],"stateMutability":"nonpayable"},{"type":"function","name":"canCall","inputs":[{"name":"account","type":"address","internalType":"address"},{"name":"caller","type":"address","internalType":"address"},{"name":"target","type":"address","internalType":"address"},{"name":"selector","type":"bytes4","internalType":"bytes4"}],"outputs":[{"name":"","type":"bool","internalType":"bool"}],"stateMutability":"nonpayable"},{"type":"function","name":"getAdmins","inputs":[{"name":"account","type":"address","internalType":"address"}],"outputs":[{"name":"","type":"address[]","internalType":"address[]"}],"stateMutability":"view"},{"type":"function","name":"getAppointeePermissions","inputs":[{"name":"account","type":"address","internalType":"address"},{"name":"appointee","type":"address","internalType":"address"}],"outputs":[{"name":"","type":"address[]","internalType":"address[]"},{"name":"","type":"bytes4[]","internalType":"bytes4[]"}],"stateMutability":"nonpayable"},{"type":"function","name":"getAppointees","inputs":[{"name":"account","type":"address","internalType":"address"},{"name":"target","type":"address","internalType":"address"},{"name":"selector","type":"bytes4","internalType":"bytes4"}],"outputs":[{"name":"","type":"address[]","internalType":"address[]"}],"stateMutability":"nonpayable"},{"type":"function","name":"getPendingAdmins","inputs":[{"name":"account","type":"address","internalType":"address"}],"outputs":[{"name":"","type":"address[]","internalType":"address[]"}],"stateMutability":"view"},{"type":"function","name":"isAdmin","inputs":[{"name":"account","type":"address","internalType":"address"},{"name":"caller","type":"address","internalType":"address"}],"outputs":[{"name":"","type":"bool","internalType":"bool"}],"stateMutability":"view"},{"type":"function","name":"isPendingAdmin","inputs":[{"name":"account","type":"address","internalType":"address"},{"name":"pendingAdmin","type":"address","internalType":"address"}],"outputs":[{"name":"","type":"bool","internalType":"bool"}],"stateMutability":"view"},{"type":"function","name":"removeAdmin","inputs":[{"name":"account","type":"address","internalType":"address"},{"name":"admin","type":"address","internalType":"address"}],"outputs":[],"stateMutability":"nonpayable"},{"type":"function","name":"removeAppointee","inputs":[{"name":"account","type":"address","internalType":"address"},{"name":"appointee","type":"address","internalType":"address"},{"name":"target","type":"address","internalType":"address"},{"name":"selector","type":"bytes4","internalType":"bytes4"}],"outputs":[],"stateMutability":"nonpayable"},{"type":"function","name":"removePendingAdmin","inputs":[{"name":"account","type":"address","internalType":"address"},{"name":"admin","type":"address","internalType":"address"}],"outputs":[],"stateMutability":"nonpayable"},{"type":"function","name":"setAppointee","inputs":[{"name":"account","type":"address","internalType":"address"},{"name":"appointee","type":"address","internalType":"address"},{"name":"target","type":"address","internalType":"address"},{"name":"selector","type":"bytes4","internalType":"bytes4"}],"outputs":[],"stateMutability":"nonpayable"},{"type":"function","name":"version","inputs":[],"outputs":[{"name":"","type":"string","internalType":"string"}],"stateMutability":"pure"},{"type":"event","name":"AdminRemoved","inputs":[{"name":"account","type":"address","indexed":true,"internalType":"address"},{"name":"admin","type":"address","indexed":false,"internalType":"address"}],"anonymous":false},{"type":"event","name":"AdminSet","inputs":[{"name":"account","type":"address","indexed":true,"internalType":"address"},{"name":"admin","type":"address","indexed":false,"internalType":"address"}],"anonymous":false},{"type":"event","name":"AppointeeRemoved","inputs":[{"name":"account","type":"address","indexed":true,"internalType":"address"},{"name":"appointee","type":"address","indexed":true,"internalType":"address"},{"name":"target","type":"address","indexed":false,"internalType":"address"},{"name":"selector","type":"bytes4","indexed":false,"internalType":"bytes4"}],"anonymous":false},{"type":"event","name":"AppointeeSet","inputs":[{"name":"account","type":"address","indexed":true,"internalType":"address"},{"name":"appointee","type":"address","indexed":true,"internalType":"address"},{"name":"target","type":"address","indexed":false,"internalType":"address"},{"name":"selector","type":"bytes4","indexed":false,"internalType":"bytes4"}],"anonymous":false},{"type":"event","name":"PendingAdminAdded","inputs":[{"name":"account","type":"address","indexed":true,"internalType":"address"},{"name":"admin","type":"address","indexed":false,"internalType":"address"}],"anonymous":false},{"type":"event","name":"PendingAdminRemoved","inputs":[{"name":"account","type":"address","indexed":true,"internalType":"address"},{"name":"admin","type":"address","indexed":false,"internalType":"address"}],"anonymous":false},{"type":"error","name":"AdminAlreadyPending","inputs":[]},{"type":"error","name":"AdminAlreadySet","inputs":[]},{"type":"error","name":"AdminNotPending","inputs":[]},{"type":"error","name":"AdminNotSet","inputs":[]},{"type":"error","name":"AppointeeAlreadySet","inputs":[]},{"type":"error","name":"AppointeeNotSet","inputs":[]},{"type":"error","name":"CannotHaveZeroAdmins","inputs":[]},{"type":"error","name":"NotAdmin","inputs":[]}],"bytecode":{"object":"0x608080604052346015576103ce908161001a8239f35b5f80fdfe6080806040526004361015610012575f80fd5b5f3560e01c9081630664120114610129578163268959e5146100fe5781634f906cf9146100fe57816354fd4d50146101d257508063628806ef146101b95780636bddfa1f14610124578063882a3b3814610139578063910067451461011f578063950d806e14610129578063ad5f221014610124578063ad8aca771461011f578063df595cb814610103578063eb5a4e87146100fe5763fddbdefd146100b6575f80fd5b346100fa5760603660031901126100fa576100cf610252565b506100d8610268565b506100e161027e565b5060405160208152806100f660208201610316565b0390f35b5f80fd5b6102f4565b346100fa5761011136610295565b5050505060206040515f8152f35b61036b565b610352565b346100fa5761013736610295565b005b346100fa5760403660031901126100fa57610152610252565b5061015b610268565b50604051604081528061017060408201610316565b818103602083015260206060519182815201906080905f5b818110610196575050500390f35b82516001600160e01b031916845285945060209384019390920191600101610188565b346100fa5760203660031901126100fa57610137610252565b346100fa575f3660031901126100fa576040810181811067ffffffffffffffff82111761023e5760405260068152604060208201916576302e302e3160d01b83528151928391602083525180918160208501528484015e5f828201840152601f01601f19168101030190f35b634e487b7160e01b5f52604160045260245ffd5b600435906001600160a01b03821682036100fa57565b602435906001600160a01b03821682036100fa57565b604435906001600160e01b0319821682036100fa57565b60809060031901126100fa576004356001600160a01b03811681036100fa57906024356001600160a01b03811681036100fa57906044356001600160a01b03811681036100fa57906064356001600160e01b0319811681036100fa5790565b346100fa5760403660031901126100fa5761030d610252565b50610137610268565b60206060519182815201906080905f5b8181106103335750505090565b82516001600160a01b0316845260209384019390920191600101610326565b346100fa5760203660031901126100fa576100e1610252565b346100fa5760403660031901126100fa57610384610252565b5061038d610268565b5060206040515f8152f3fea264697066735822122040c307ac528710af5c87bb03cbb6cf88f554fff6cda3f85b804ecd5da2e77f1664736f6c634300081b0033","linkReferences":{}},"methodIdentifiers":{"acceptAdmin(address)":"628806ef","addPendingAdmin(address,address)":"eb5a4e87","canCall(address,address,address,bytes4)":"df595cb8","getAdmins(address)":"ad5f2210","getAppointeePermissions(address,address)":"882a3b38","getAppointees(address,address,bytes4)":"fddbdefd","getPendingAdmins(address)":"6bddfa1f","isAdmin(address,address)":"91006745","isPendingAdmin(address,address)":"ad8aca77","removeAdmin(address,address)":"268959e5","removeAppointee(address,address,address,bytes4)":"06641201","removePendingAdmin(address,address)":"4f906cf9","setAppointee(address,address,address,bytes4)":"950d806e","version()":"54fd4d50"},"id":135}