{"abi":[{"type":"function","name":"acceptAdmin","inputs":[{"name":"account","type":"address","internalType":"address"}],"outputs":[],"stateMutability":"nonpayable"},{"type":"function","name":"addPendingAdmin","inputs":[{"name":"account","type":"address","internalType":"address"},{"name":"admin","type":"address","internalType":"address"}],"outputs":[],"stateMutability":"nonpayable"},{"type":"function","name":"canCall","inputs":[{"name":"account","type":"address","internalType":"address"},{"name":"caller","type":"address","internalType":"address"},{"name":"target","type":"address","internalType":"address"},{"name":"selector","type":"bytes4","internalType":"bytes4"}],"outputs":[{"name":"","type":"bool","internalType":"bool"}],"stateMutability":"nonpayable"},{"type":"function","name":"getAdmins","inputs":[{"name":"account","type":"address","internalType":"address"}],"outputs":[{"name":"","type":"address[]","internalType":"address[]"}],"stateMutability":"view"},{"type":"function","name":"getAppointeePermissions","inputs":[{"name":"account","type":"address","internalType":"address"},{"name":"appointee","type":"address","internalType":"address"}],"outputs":[{"name":"","type":"address[]","internalType":"address[]"},{"name":"","type":"bytes4[]","internalType":"bytes4[]"}],"stateMutability":"nonpayable"},{"type":"function","name":"getAppointees","inputs":[{"name":"account","type":"address","internalType":"address"},{"name":"target","type":"address","internalType":"address"},{"name":"selector","type":"bytes4","internalType":"bytes4"}],"outputs":[{"name":"","type":"address[]","internalType":"address[]"}],"stateMutability":"nonpayable"},{"type":"function","name":"getPendingAdmins","inputs":[{"name":"account","type":"address","internalType":"address"}],"outputs":[{"name":"","type":"address[]","internalType":"address[]"}],"stateMutability":"view"},{"type":"function","name":"isAdmin","inputs":[{"name":"account","type":"address","internalType":"address"},{"name":"caller","type":"address","internalType":"address"}],"outputs":[{"name":"","type":"bool","internalType":"bool"}],"stateMutability":"view"},{"type":"function","name":"isPendingAdmin","inputs":[{"name":"account","type":"address","internalType":"address"},{"name":"pendingAdmin","type":"address","internalType":"address"}],"outputs":[{"name":"","type":"bool","internalType":"bool"}],"stateMutability":"view"},{"type":"function","name":"removeAdmin","inputs":[{"name":"account","type":"address","internalType":"address"},{"name":"admin","type":"address","internalType":"address"}],"outputs":[],"stateMutability":"nonpayable"},{"type":"function","name":"removeAppointee","inputs":[{"name":"account","type":"address","internalType":"address"},{"name":"appointee","type":"address","internalType":"address"},{"name":"target","type":"address","internalType":"address"},{"name":"selector","type":"bytes4","internalType":"bytes4"}],"outputs":[],"stateMutability":"nonpayable"},{"type":"function","name":"removePendingAdmin","inputs":[{"name":"account","type":"address","internalType":"address"},{"name":"admin","type":"address","internalType":"address"}],"outputs":[],"stateMutability":"nonpayable"},{"type":"function","name":"setAppointee","inputs":[{"name":"account","type":"address","internalType":"address"},{"name":"appointee","type":"address","internalType":"address"},{"name":"target","type":"address","internalType":"address"},{"name":"selector","type":"bytes4","internalType":"bytes4"}],"outputs":[],"stateMutability":"nonpayable"},{"type":"function","name":"setCanCall","inputs":[{"name":"account","type":"address","internalType":"address"},{"name":"caller","type":"address","internalType":"address"},{"name":"target","type":"address","internalType":"address"},{"name":"selector","type":"bytes4","internalType":"bytes4"}],"outputs":[],"stateMutability":"nonpayable"},{"type":"function","name":"version","inputs":[],"outputs":[{"name":"","type":"string","internalType":"string"}],"stateMutability":"pure"},{"type":"event","name":"AdminRemoved","inputs":[{"name":"account","type":"address","indexed":true,"internalType":"address"},{"name":"admin","type":"address","indexed":false,"internalType":"address"}],"anonymous":false},{"type":"event","name":"AdminSet","inputs":[{"name":"account","type":"address","indexed":true,"internalType":"address"},{"name":"admin","type":"address","indexed":false,"internalType":"address"}],"anonymous":false},{"type":"event","name":"AppointeeRemoved","inputs":[{"name":"account","type":"address","indexed":true,"internalType":"address"},{"name":"appointee","type":"address","indexed":true,"internalType":"address"},{"name":"target","type":"address","indexed":false,"internalType":"address"},{"name":"selector","type":"bytes4","indexed":false,"internalType":"bytes4"}],"anonymous":false},{"type":"event","name":"AppointeeSet","inputs":[{"name":"account","type":"address","indexed":true,"internalType":"address"},{"name":"appointee","type":"address","indexed":true,"internalType":"address"},{"name":"target","type":"address","indexed":false,"internalType":"address"},{"name":"selector","type":"bytes4","indexed":false,"internalType":"bytes4"}],"anonymous":false},{"type":"event","name":"PendingAdminAdded","inputs":[{"name":"account","type":"address","indexed":true,"internalType":"address"},{"name":"admin","type":"address","indexed":false,"internalType":"address"}],"anonymous":false},{"type":"event","name":"PendingAdminRemoved","inputs":[{"name":"account","type":"address","indexed":true,"internalType":"address"},{"name":"admin","type":"address","indexed":false,"internalType":"address"}],"anonymous":false},{"type":"error","name":"AdminAlreadyPending","inputs":[]},{"type":"error","name":"AdminAlreadySet","inputs":[]},{"type":"error","name":"AdminNotPending","inputs":[]},{"type":"error","name":"AdminNotSet","inputs":[]},{"type":"error","name":"AppointeeAlreadySet","inputs":[]},{"type":"error","name":"AppointeeNotSet","inputs":[]},{"type":"error","name":"CannotHaveZeroAdmins","inputs":[]},{"type":"error","name":"NotAdmin","inputs":[]}],"bytecode":{"object":"0x608080604052346015576104a4908161001a8239f35b5f80fdfe60806040526004361015610011575f80fd5b5f3560e01c8063066412011461013b578063268959e51461010657806347a4fcec146102675780634f906cf91461010657806354fd4d50146101e4578063628806ef146101cb5780636bddfa1f14610136578063882a3b381461014b5780639100674514610131578063950d806e1461013b578063ad5f221014610136578063ad8aca7714610131578063df595cb81461010b578063eb5a4e87146101065763fddbdefd146100be575f80fd5b34610102576060366003190112610102576100d76102c4565b506100e06102da565b506100e96102f0565b5060405160208152806100fe60208201610388565b0390f35b5f80fd5b610366565b3461010257602061012761011e36610307565b9291909161040a565b6040519015158152f35b6103dd565b6103c4565b346101025761014936610307565b005b34610102576040366003190112610102576101646102c4565b5061016d6102da565b50604051604081528061018260408201610388565b818103602083015260206060519182815201906080905f5b8181106101a8575050500390f35b82516001600160e01b03191684528594506020938401939092019160010161019a565b34610102576020366003190112610102576101496102c4565b34610102575f366003190112610102576040516040810181811067ffffffffffffffff8211176102535760405260068152604060208201916576302e302e3160d01b83528151928391602083525180918160208501528484015e5f828201840152601f01601f19168101030190f35b634e487b7160e01b5f52604160045260245ffd5b346101025761027536610307565b6001600160a01b039384165f9081526020818152604080832095871683529481528482209590931681529382528284206001600160e01b0319909116845290529020805460ff19166001179055005b600435906001600160a01b038216820361010257565b602435906001600160a01b038216820361010257565b604435906001600160e01b03198216820361010257565b6080906003190112610102576004356001600160a01b038116810361010257906024356001600160a01b038116810361010257906044356001600160a01b038116810361010257906064356001600160e01b0319811681036101025790565b346101025760403660031901126101025761037f6102c4565b506101496102da565b60206060519182815201906080905f5b8181106103a55750505090565b82516001600160a01b0316845260209384019390920191600101610398565b34610102576020366003190112610102576100e96102c4565b34610102576040366003190112610102576103f66102c4565b506103ff6102da565b5060206040515f8152f35b6001600160a01b039081169082168114610465575f908152602081815260408083206001600160a01b03948516845282528083209490931682529283528181206001600160e01b031990941681529290915290205460ff1690565b5050505060019056fea264697066735822122049784d5f31d384cf53cbd861fca94f9711f86c7ce86afc68edbe8a2c00be2e6064736f6c634300081b0033","linkReferences":{}},"methodIdentifiers":{"acceptAdmin(address)":"628806ef","addPendingAdmin(address,address)":"eb5a4e87","canCall(address,address,address,bytes4)":"df595cb8","getAdmins(address)":"ad5f2210","getAppointeePermissions(address,address)":"882a3b38","getAppointees(address,address,bytes4)":"fddbdefd","getPendingAdmins(address)":"6bddfa1f","isAdmin(address,address)":"91006745","isPendingAdmin(address,address)":"ad8aca77","removeAdmin(address,address)":"268959e5","removeAppointee(address,address,address,bytes4)":"06641201","removePendingAdmin(address,address)":"4f906cf9","setAppointee(address,address,address,bytes4)":"950d806e","setCanCall(address,address,address,bytes4)":"47a4fcec","version()":"54fd4d50"},"id":135}