{"abi":[{"type":"function","name":"createEarnerLeaves","inputs":[{"name":"earners","type":"address[]","internalType":"address[]"},{"name":"tokenLeaves","type":"bytes32[]","internalType":"bytes32[]"}],"outputs":[{"name":"","type":"tuple[]","internalType":"struct IRewardsCoordinatorTypes.EarnerTreeMerkleLeaf[]","components":[{"name":"earner","type":"address","internalType":"address"},{"name":"earnerTokenRoot","type":"bytes32","internalType":"bytes32"}]}],"stateMutability":"pure"},{"type":"function","name":"createTokenRoot","inputs":[{"name":"tokenLeaves","type":"bytes32[]","internalType":"bytes32[]"}],"outputs":[{"name":"","type":"bytes32","internalType":"bytes32"}],"stateMutability":"pure"}],"bytecode":{"object":"0x608080604052346019576104c9908161001e823930815050f35b5f80fdfe60806040526004361015610011575f80fd5b5f3560e01c80631a4121f7146101b25763c3e8a50f1461002f575f80fd5b60403660031901126101315760043567ffffffffffffffff8111610131573660238201121561013157806004013567ffffffffffffffff8111610131573660248260051b840101116101315760243567ffffffffffffffff81116101315761009b90369060040161025a565b6100a482610242565b926100b26040519485610220565b828452601f196100c184610242565b015f5b81811061018f5750505f5b83811015610135576024600582901b830101356001600160a01b03811691908290036101315760019161010185610311565b6040519161010e836101f0565b8252602082015261011f82886102b7565b5261012a81876102b7565b50016100cf565b5f80fd5b846040518091602082016020835281518091526020604084019201905f5b818110610161575050500390f35b825180516001600160a01b031685526020908101518186015286955060409094019390920191600101610153565b60209060405161019e816101f0565b5f81525f83820152828289010152016100c4565b60203660031901126101315760043567ffffffffffffffff8111610131576101e86101e3602092369060040161025a565b610311565b604051908152f35b6040810190811067ffffffffffffffff82111761020c57604052565b634e487b7160e01b5f52604160045260245ffd5b90601f8019910116810190811067ffffffffffffffff82111761020c57604052565b67ffffffffffffffff811161020c5760051b60200190565b9080601f8301121561013157813561027181610242565b9261027f6040519485610220565b81845260208085019260051b82010192831161013157602001905b8282106102a75750505090565b813581526020918201910161029a565b80518210156102cb5760209160051b010190565b634e487b7160e01b5f52603260045260245ffd5b906102e982610242565b6102f66040519182610220565b8281528092610307601f1991610242565b0190602036910137565b9060028251905b81811061048b5761032991506102df565b5f5b83518110156103535780610341600192866102b7565b5161034c82856102b7565b520161032b565b5090915080518060011c91610367836102df565b925f5b81811061041f5750505060021c805b61038c57508051156102cb576020015190565b5f5b81811061039f575060011c80610379565b600181901b906001600160ff1b038116810361040b576103bf82856102b7565b516001830180931161040b576103d7600193866102b7565b5160405190602082019283526040820152604081526103f7606082610220565b51902061040482866102b7565b520161038e565b634e487b7160e01b5f52601160045260245ffd5b600181901b906001600160ff1b038116810361040b5761043f82856102b7565b516001830180931161040b57610457600193866102b7565b516040519060208201928352604082015260408152610477606082610220565b51902061048482886102b7565b520161036a565b60011b61031856fea264697066735822122054421659be56a4422478aac1b4f30a12cd98c3fc51c82111e97926c0b2bbac5264736f6c634300081b0033","linkReferences":{}},"methodIdentifiers":{"createEarnerLeaves(address[],bytes32[])":"c3e8a50f","createTokenRoot(bytes32[])":"1a4121f7"},"id":169}