{"abi":[{"type":"constructor","inputs":[{"name":"_stakeRegistry","type":"address","internalType":"contract IStakeRegistry"},{"name":"_blsApkRegistry","type":"address","internalType":"contract IBLSApkRegistry"},{"name":"_indexRegistry","type":"address","internalType":"contract IIndexRegistry"},{"name":"_socketRegistry","type":"address","internalType":"contract ISocketRegistry"},{"name":"_allocationManager","type":"address","internalType":"contract IAllocationManager"},{"name":"_pauserRegistry","type":"address","internalType":"contract IPauserRegistry"},{"name":"_version","type":"string","internalType":"string"}],"stateMutability":"nonpayable"},{"type":"function","name":"OPERATOR_CHURN_APPROVAL_TYPEHASH","inputs":[],"outputs":[{"name":"","type":"bytes32","internalType":"bytes32"}],"stateMutability":"view"},{"type":"function","name":"PUBKEY_REGISTRATION_TYPEHASH","inputs":[],"outputs":[{"name":"","type":"bytes32","internalType":"bytes32"}],"stateMutability":"view"},{"type":"function","name":"allocationManager","inputs":[],"outputs":[{"name":"","type":"address","internalType":"contract IAllocationManager"}],"stateMutability":"view"},{"type":"function","name":"avs","inputs":[],"outputs":[{"name":"","type":"address","internalType":"address"}],"stateMutability":"view"},{"type":"function","name":"blsApkRegistry","inputs":[],"outputs":[{"name":"","type":"address","internalType":"contract IBLSApkRegistry"}],"stateMutability":"view"},{"type":"function","name":"calculateOperatorChurnApprovalDigestHash","inputs":[{"name":"registeringOperator","type":"address","internalType":"address"},{"name":"registeringOperatorId","type":"bytes32","internalType":"bytes32"},{"name":"operatorKickParams","type":"tuple[]","internalType":"struct ISlashingRegistryCoordinatorTypes.OperatorKickParam[]","components":[{"name":"quorumNumber","type":"uint8","internalType":"uint8"},{"name":"operator","type":"address","internalType":"address"}]},{"name":"salt","type":"bytes32","internalType":"bytes32"},{"name":"expiry","type":"uint256","internalType":"uint256"}],"outputs":[{"name":"","type":"bytes32","internalType":"bytes32"}],"stateMutability":"view"},{"type":"function","name":"calculatePubkeyRegistrationMessageHash","inputs":[{"name":"operator","type":"address","internalType":"address"}],"outputs":[{"name":"","type":"bytes32","internalType":"bytes32"}],"stateMutability":"view"},{"type":"function","name":"churnApprover","inputs":[],"outputs":[{"name":"","type":"address","internalType":"address"}],"stateMutability":"view"},{"type":"function","name":"createSlashableStakeQuorum","inputs":[{"name":"operatorSetParams","type":"tuple","internalType":"struct ISlashingRegistryCoordinatorTypes.OperatorSetParam","components":[{"name":"maxOperatorCount","type":"uint32","internalType":"uint32"},{"name":"kickBIPsOfOperatorStake","type":"uint16","internalType":"uint16"},{"name":"kickBIPsOfTotalStake","type":"uint16","internalType":"uint16"}]},{"name":"minimumStake","type":"uint96","internalType":"uint96"},{"name":"strategyParams","type":"tuple[]","internalType":"struct IStakeRegistryTypes.StrategyParams[]","components":[{"name":"strategy","type":"address","internalType":"contract IStrategy"},{"name":"multiplier","type":"uint96","internalType":"uint96"}]},{"name":"lookAheadPeriod","type":"uint32","internalType":"uint32"}],"outputs":[],"stateMutability":"nonpayable"},{"type":"function","name":"createTotalDelegatedStakeQuorum","inputs":[{"name":"operatorSetParams","type":"tuple","internalType":"struct ISlashingRegistryCoordinatorTypes.OperatorSetParam","components":[{"name":"maxOperatorCount","type":"uint32","internalType":"uint32"},{"name":"kickBIPsOfOperatorStake","type":"uint16","internalType":"uint16"},{"name":"kickBIPsOfTotalStake","type":"uint16","internalType":"uint16"}]},{"name":"minimumStake","type":"uint96","internalType":"uint96"},{"name":"strategyParams","type":"tuple[]","internalType":"struct IStakeRegistryTypes.StrategyParams[]","components":[{"name":"strategy","type":"address","internalType":"contract IStrategy"},{"name":"multiplier","type":"uint96","internalType":"uint96"}]}],"outputs":[],"stateMutability":"nonpayable"},{"type":"function","name":"deregisterOperator","inputs":[{"name":"operator","type":"address","internalType":"address"},{"name":"avs","type":"address","internalType":"address"},{"name":"operatorSetIds","type":"uint32[]","internalType":"uint32[]"}],"outputs":[],"stateMutability":"nonpayable"},{"type":"function","name":"domainSeparator","inputs":[],"outputs":[{"name":"","type":"bytes32","internalType":"bytes32"}],"stateMutability":"view"},{"type":"function","name":"eip712Domain","inputs":[],"outputs":[{"name":"fields","type":"bytes1","internalType":"bytes1"},{"name":"name","type":"string","internalType":"string"},{"name":"version","type":"string","internalType":"string"},{"name":"chainId","type":"uint256","internalType":"uint256"},{"name":"verifyingContract","type":"address","internalType":"address"},{"name":"salt","type":"bytes32","internalType":"bytes32"},{"name":"extensions","type":"uint256[]","internalType":"uint256[]"}],"stateMutability":"view"},{"type":"function","name":"ejectOperator","inputs":[{"name":"operator","type":"address","internalType":"address"},{"name":"quorumNumbers","type":"bytes","internalType":"bytes"}],"outputs":[],"stateMutability":"nonpayable"},{"type":"function","name":"ejectionCooldown","inputs":[],"outputs":[{"name":"","type":"uint256","internalType":"uint256"}],"stateMutability":"view"},{"type":"function","name":"ejector","inputs":[],"outputs":[{"name":"","type":"address","internalType":"address"}],"stateMutability":"view"},{"type":"function","name":"getCurrentQuorumBitmap","inputs":[{"name":"operatorId","type":"bytes32","internalType":"bytes32"}],"outputs":[{"name":"","type":"uint192","internalType":"uint192"}],"stateMutability":"view"},{"type":"function","name":"getOperator","inputs":[{"name":"operator","type":"address","internalType":"address"}],"outputs":[{"name":"","type":"tuple","internalType":"struct ISlashingRegistryCoordinatorTypes.OperatorInfo","components":[{"name":"operatorId","type":"bytes32","internalType":"bytes32"},{"name":"status","type":"uint8","internalType":"enum ISlashingRegistryCoordinatorTypes.OperatorStatus"}]}],"stateMutability":"view"},{"type":"function","name":"getOperatorFromId","inputs":[{"name":"operatorId","type":"bytes32","internalType":"bytes32"}],"outputs":[{"name":"","type":"address","internalType":"address"}],"stateMutability":"view"},{"type":"function","name":"getOperatorId","inputs":[{"name":"operator","type":"address","internalType":"address"}],"outputs":[{"name":"","type":"bytes32","internalType":"bytes32"}],"stateMutability":"view"},{"type":"function","name":"getOperatorSetParams","inputs":[{"name":"quorumNumber","type":"uint8","internalType":"uint8"}],"outputs":[{"name":"","type":"tuple","internalType":"struct ISlashingRegistryCoordinatorTypes.OperatorSetParam","components":[{"name":"maxOperatorCount","type":"uint32","internalType":"uint32"},{"name":"kickBIPsOfOperatorStake","type":"uint16","internalType":"uint16"},{"name":"kickBIPsOfTotalStake","type":"uint16","internalType":"uint16"}]}],"stateMutability":"view"},{"type":"function","name":"getOperatorStatus","inputs":[{"name":"operator","type":"address","internalType":"address"}],"outputs":[{"name":"","type":"uint8","internalType":"enum ISlashingRegistryCoordinatorTypes.OperatorStatus"}],"stateMutability":"view"},{"type":"function","name":"getQuorumBitmapAtBlockNumberByIndex","inputs":[{"name":"operatorId","type":"bytes32","internalType":"bytes32"},{"name":"blockNumber","type":"uint32","internalType":"uint32"},{"name":"index","type":"uint256","internalType":"uint256"}],"outputs":[{"name":"","type":"uint192","internalType":"uint192"}],"stateMutability":"view"},{"type":"function","name":"getQuorumBitmapHistoryLength","inputs":[{"name":"operatorId","type":"bytes32","internalType":"bytes32"}],"outputs":[{"name":"","type":"uint256","internalType":"uint256"}],"stateMutability":"view"},{"type":"function","name":"getQuorumBitmapIndicesAtBlockNumber","inputs":[{"name":"blockNumber","type":"uint32","internalType":"uint32"},{"name":"operatorIds","type":"bytes32[]","internalType":"bytes32[]"}],"outputs":[{"name":"","type":"uint32[]","internalType":"uint32[]"}],"stateMutability":"view"},{"type":"function","name":"getQuorumBitmapUpdateByIndex","inputs":[{"name":"operatorId","type":"bytes32","internalType":"bytes32"},{"name":"index","type":"uint256","internalType":"uint256"}],"outputs":[{"name":"","type":"tuple","internalType":"struct ISlashingRegistryCoordinatorTypes.QuorumBitmapUpdate","components":[{"name":"updateBlockNumber","type":"uint32","internalType":"uint32"},{"name":"nextUpdateBlockNumber","type":"uint32","internalType":"uint32"},{"name":"quorumBitmap","type":"uint192","internalType":"uint192"}]}],"stateMutability":"view"},{"type":"function","name":"indexRegistry","inputs":[],"outputs":[{"name":"","type":"address","internalType":"contract IIndexRegistry"}],"stateMutability":"view"},{"type":"function","name":"initialize","inputs":[{"name":"initialOwner","type":"address","internalType":"address"},{"name":"churnApprover","type":"address","internalType":"address"},{"name":"ejector","type":"address","internalType":"address"},{"name":"initialPausedStatus","type":"uint256","internalType":"uint256"},{"name":"avs","type":"address","internalType":"address"}],"outputs":[],"stateMutability":"nonpayable"},{"type":"function","name":"isChurnApproverSaltUsed","inputs":[{"name":"","type":"bytes32","internalType":"bytes32"}],"outputs":[{"name":"","type":"bool","internalType":"bool"}],"stateMutability":"view"},{"type":"function","name":"lastEjectionTimestamp","inputs":[{"name":"","type":"address","internalType":"address"}],"outputs":[{"name":"","type":"uint256","internalType":"uint256"}],"stateMutability":"view"},{"type":"function","name":"owner","inputs":[],"outputs":[{"name":"","type":"address","internalType":"address"}],"stateMutability":"view"},{"type":"function","name":"pause","inputs":[{"name":"newPausedStatus","type":"uint256","internalType":"uint256"}],"outputs":[],"stateMutability":"nonpayable"},{"type":"function","name":"pauseAll","inputs":[],"outputs":[],"stateMutability":"nonpayable"},{"type":"function","name":"paused","inputs":[{"name":"index","type":"uint8","internalType":"uint8"}],"outputs":[{"name":"","type":"bool","internalType":"bool"}],"stateMutability":"view"},{"type":"function","name":"paused","inputs":[],"outputs":[{"name":"","type":"uint256","internalType":"uint256"}],"stateMutability":"view"},{"type":"function","name":"pauserRegistry","inputs":[],"outputs":[{"name":"","type":"address","internalType":"contract IPauserRegistry"}],"stateMutability":"view"},{"type":"function","name":"pubkeyRegistrationMessageHash","inputs":[{"name":"operator","type":"address","internalType":"address"}],"outputs":[{"name":"","type":"tuple","internalType":"struct BN254.G1Point","components":[{"name":"X","type":"uint256","internalType":"uint256"},{"name":"Y","type":"uint256","internalType":"uint256"}]}],"stateMutability":"view"},{"type":"function","name":"quorumCount","inputs":[],"outputs":[{"name":"","type":"uint8","internalType":"uint8"}],"stateMutability":"view"},{"type":"function","name":"quorumUpdateBlockNumber","inputs":[{"name":"","type":"uint8","internalType":"uint8"}],"outputs":[{"name":"","type":"uint256","internalType":"uint256"}],"stateMutability":"view"},{"type":"function","name":"registerOperator","inputs":[{"name":"operator","type":"address","internalType":"address"},{"name":"avs","type":"address","internalType":"address"},{"name":"operatorSetIds","type":"uint32[]","internalType":"uint32[]"},{"name":"data","type":"bytes","internalType":"bytes"}],"outputs":[],"stateMutability":"nonpayable"},{"type":"function","name":"renounceOwnership","inputs":[],"outputs":[],"stateMutability":"nonpayable"},{"type":"function","name":"setAVS","inputs":[{"name":"_avs","type":"address","internalType":"address"}],"outputs":[],"stateMutability":"nonpayable"},{"type":"function","name":"setChurnApprover","inputs":[{"name":"_churnApprover","type":"address","internalType":"address"}],"outputs":[],"stateMutability":"nonpayable"},{"type":"function","name":"setEjectionCooldown","inputs":[{"name":"_ejectionCooldown","type":"uint256","internalType":"uint256"}],"outputs":[],"stateMutability":"nonpayable"},{"type":"function","name":"setEjector","inputs":[{"name":"_ejector","type":"address","internalType":"address"}],"outputs":[],"stateMutability":"nonpayable"},{"type":"function","name":"setOperatorSetParams","inputs":[{"name":"quorumNumber","type":"uint8","internalType":"uint8"},{"name":"operatorSetParams","type":"tuple","internalType":"struct ISlashingRegistryCoordinatorTypes.OperatorSetParam","components":[{"name":"maxOperatorCount","type":"uint32","internalType":"uint32"},{"name":"kickBIPsOfOperatorStake","type":"uint16","internalType":"uint16"},{"name":"kickBIPsOfTotalStake","type":"uint16","internalType":"uint16"}]}],"outputs":[],"stateMutability":"nonpayable"},{"type":"function","name":"socketRegistry","inputs":[],"outputs":[{"name":"","type":"address","internalType":"contract ISocketRegistry"}],"stateMutability":"view"},{"type":"function","name":"stakeRegistry","inputs":[],"outputs":[{"name":"","type":"address","internalType":"contract IStakeRegistry"}],"stateMutability":"view"},{"type":"function","name":"supportsAVS","inputs":[{"name":"_avs","type":"address","internalType":"address"}],"outputs":[{"name":"","type":"bool","internalType":"bool"}],"stateMutability":"view"},{"type":"function","name":"transferOwnership","inputs":[{"name":"newOwner","type":"address","internalType":"address"}],"outputs":[],"stateMutability":"nonpayable"},{"type":"function","name":"unpause","inputs":[{"name":"newPausedStatus","type":"uint256","internalType":"uint256"}],"outputs":[],"stateMutability":"nonpayable"},{"type":"function","name":"updateOperators","inputs":[{"name":"operators","type":"address[]","internalType":"address[]"}],"outputs":[],"stateMutability":"nonpayable"},{"type":"function","name":"updateOperatorsForQuorum","inputs":[{"name":"operatorsPerQuorum","type":"address[][]","internalType":"address[][]"},{"name":"quorumNumbers","type":"bytes","internalType":"bytes"}],"outputs":[],"stateMutability":"nonpayable"},{"type":"function","name":"updateSocket","inputs":[{"name":"socket","type":"string","internalType":"string"}],"outputs":[],"stateMutability":"nonpayable"},{"type":"function","name":"version","inputs":[],"outputs":[{"name":"","type":"string","internalType":"string"}],"stateMutability":"view"},{"type":"event","name":"AVSUpdated","inputs":[{"name":"prevAVS","type":"address","indexed":false,"internalType":"address"},{"name":"newAVS","type":"address","indexed":false,"internalType":"address"}],"anonymous":false},{"type":"event","name":"ChurnApproverUpdated","inputs":[{"name":"prevChurnApprover","type":"address","indexed":false,"internalType":"address"},{"name":"newChurnApprover","type":"address","indexed":false,"internalType":"address"}],"anonymous":false},{"type":"event","name":"EIP712DomainChanged","inputs":[],"anonymous":false},{"type":"event","name":"EjectionCooldownUpdated","inputs":[{"name":"prevEjectionCooldown","type":"uint256","indexed":false,"internalType":"uint256"},{"name":"newEjectionCooldown","type":"uint256","indexed":false,"internalType":"uint256"}],"anonymous":false},{"type":"event","name":"EjectorUpdated","inputs":[{"name":"prevEjector","type":"address","indexed":false,"internalType":"address"},{"name":"newEjector","type":"address","indexed":false,"internalType":"address"}],"anonymous":false},{"type":"event","name":"Initialized","inputs":[{"name":"version","type":"uint8","indexed":false,"internalType":"uint8"}],"anonymous":false},{"type":"event","name":"OperatorDeregistered","inputs":[{"name":"operator","type":"address","indexed":true,"internalType":"address"},{"name":"operatorId","type":"bytes32","indexed":true,"internalType":"bytes32"}],"anonymous":false},{"type":"event","name":"OperatorRegistered","inputs":[{"name":"operator","type":"address","indexed":true,"internalType":"address"},{"name":"operatorId","type":"bytes32","indexed":true,"internalType":"bytes32"}],"anonymous":false},{"type":"event","name":"OperatorSetParamsUpdated","inputs":[{"name":"quorumNumber","type":"uint8","indexed":true,"internalType":"uint8"},{"name":"operatorSetParams","type":"tuple","indexed":false,"internalType":"struct ISlashingRegistryCoordinatorTypes.OperatorSetParam","components":[{"name":"maxOperatorCount","type":"uint32","internalType":"uint32"},{"name":"kickBIPsOfOperatorStake","type":"uint16","internalType":"uint16"},{"name":"kickBIPsOfTotalStake","type":"uint16","internalType":"uint16"}]}],"anonymous":false},{"type":"event","name":"OperatorSocketUpdate","inputs":[{"name":"operatorId","type":"bytes32","indexed":true,"internalType":"bytes32"},{"name":"socket","type":"string","indexed":false,"internalType":"string"}],"anonymous":false},{"type":"event","name":"OwnershipTransferred","inputs":[{"name":"previousOwner","type":"address","indexed":true,"internalType":"address"},{"name":"newOwner","type":"address","indexed":true,"internalType":"address"}],"anonymous":false},{"type":"event","name":"Paused","inputs":[{"name":"account","type":"address","indexed":true,"internalType":"address"},{"name":"newPausedStatus","type":"uint256","indexed":false,"internalType":"uint256"}],"anonymous":false},{"type":"event","name":"QuorumBlockNumberUpdated","inputs":[{"name":"quorumNumber","type":"uint8","indexed":true,"internalType":"uint8"},{"name":"blocknumber","type":"uint256","indexed":false,"internalType":"uint256"}],"anonymous":false},{"type":"event","name":"QuorumCreated","inputs":[{"name":"quorumNumber","type":"uint8","indexed":true,"internalType":"uint8"},{"name":"operatorSetParams","type":"tuple","indexed":false,"internalType":"struct ISlashingRegistryCoordinatorTypes.OperatorSetParam","components":[{"name":"maxOperatorCount","type":"uint32","internalType":"uint32"},{"name":"kickBIPsOfOperatorStake","type":"uint16","internalType":"uint16"},{"name":"kickBIPsOfTotalStake","type":"uint16","internalType":"uint16"}]},{"name":"minimumStake","type":"uint96","indexed":false,"internalType":"uint96"},{"name":"strategyParams","type":"tuple[]","indexed":false,"internalType":"struct IStakeRegistryTypes.StrategyParams[]","components":[{"name":"strategy","type":"address","internalType":"contract IStrategy"},{"name":"multiplier","type":"uint96","internalType":"uint96"}]},{"name":"stakeType","type":"uint8","indexed":false,"internalType":"enum IStakeRegistryTypes.StakeType"},{"name":"lookAheadPeriod","type":"uint32","indexed":false,"internalType":"uint32"}],"anonymous":false},{"type":"event","name":"Unpaused","inputs":[{"name":"account","type":"address","indexed":true,"internalType":"address"},{"name":"newPausedStatus","type":"uint256","indexed":false,"internalType":"uint256"}],"anonymous":false},{"type":"error","name":"AlreadyRegisteredForQuorums","inputs":[]},{"type":"error","name":"BitmapCannotBeZero","inputs":[]},{"type":"error","name":"BitmapEmpty","inputs":[]},{"type":"error","name":"BitmapValueTooLarge","inputs":[]},{"type":"error","name":"BytesArrayLengthTooLong","inputs":[]},{"type":"error","name":"BytesArrayNotOrdered","inputs":[]},{"type":"error","name":"CannotChurnSelf","inputs":[]},{"type":"error","name":"CannotKickOperatorAboveThreshold","inputs":[]},{"type":"error","name":"CannotReregisterYet","inputs":[]},{"type":"error","name":"ChurnApproverSaltUsed","inputs":[]},{"type":"error","name":"CurrentlyPaused","inputs":[]},{"type":"error","name":"ExpModFailed","inputs":[]},{"type":"error","name":"InputAddressZero","inputs":[]},{"type":"error","name":"InputLengthMismatch","inputs":[]},{"type":"error","name":"InsufficientStakeForChurn","inputs":[]},{"type":"error","name":"InvalidAVS","inputs":[]},{"type":"error","name":"InvalidNewPausedStatus","inputs":[]},{"type":"error","name":"InvalidRegistrationType","inputs":[]},{"type":"error","name":"InvalidShortString","inputs":[]},{"type":"error","name":"InvalidSignature","inputs":[]},{"type":"error","name":"LookAheadPeriodTooLong","inputs":[]},{"type":"error","name":"MaxOperatorCountReached","inputs":[]},{"type":"error","name":"MaxQuorumsReached","inputs":[]},{"type":"error","name":"NotRegistered","inputs":[]},{"type":"error","name":"NotRegisteredForQuorum","inputs":[]},{"type":"error","name":"NotSorted","inputs":[]},{"type":"error","name":"OnlyAllocationManager","inputs":[]},{"type":"error","name":"OnlyEjector","inputs":[]},{"type":"error","name":"OnlyPauser","inputs":[]},{"type":"error","name":"OnlyUnpauser","inputs":[]},{"type":"error","name":"OperatorNotRegistered","inputs":[]},{"type":"error","name":"OperatorNotRegisteredForQuorum","inputs":[]},{"type":"error","name":"QuorumDoesNotExist","inputs":[]},{"type":"error","name":"QuorumOperatorCountMismatch","inputs":[]},{"type":"error","name":"SignatureExpired","inputs":[]},{"type":"error","name":"StringTooLong","inputs":[{"name":"str","type":"string","internalType":"string"}]}],"bytecode":{"object":"0x61016060405234610359576154698038038061001a81610371565b928339810160e0828203126103595781516001600160a01b03811681036103595760208301516001600160a01b0381168103610359576040840151916001600160a01b0383168303610359576060850151936001600160a01b0385168503610359576080860151956001600160a01b03871687036103595760a0810151916001600160a01b038316918284036103595760c0810151906001600160401b038211610359570181601f820112156103595780516001600160401b03811161035d576100ed601f8201601f1916602001610371565b9181835260208301936020838301011161035957815f926020809301865e83010152601f81511161031d575190516020821061030d575b17608052156102fe5760a0526101005260e0526101205260c052610140525f5460ff8160081c166102a95760ff8082160361026f575b6040516150d2908161039782396080518161169f015260a051818181610921015281816117f101528181611ffb01526125e4015260c0518181816124e1015261349a015260e051818181610b2601528181610d9d015281816113440152818161192f01528181611cce01528181614019015281816144140152614695015261010051818181610e020152818161127f0152818161197301528181611c0a015281816133ec0152818161449d0152818161471e0152614e60015261012051818181610e64015281816112e301528181611c6d01528181612087015281816128c40152818161450801526147880152610140518181816111c801528181611ba0015281816123d7015281816136d30152614b3f0152f35b60ff90811916175f557f7f26b83ff96e1f2b6a682f133852f6798a09c465da95921460cefb3847402498602060405160ff8152a15f61015a565b60405162461bcd60e51b815260206004820152602760248201527f496e697469616c697a61626c653a20636f6e747261637420697320696e697469604482015266616c697a696e6760c81b6064820152608490fd5b6339b190bb60e11b5f5260045ffd5b5f198260200360031b1b16610124565b60449060405192839163305a27a960e01b8352602060048401525180918160248501528484015e5f828201840152601f01601f19168101030190fd5b5f80fd5b634e487b7160e01b5f52604160045260245ffd5b6040519190601f01601f191682016001600160401b0381118382101761035d5760405256fe60806040526004361015610011575f80fd5b5f3560e01c8062cf2ab51461038357806303fd34921461037e57806304ec635114610379578063054310e6146103745780630cf4b7671461036f5780630d3f21341461036a578063125e05841461036557806313542a4e14610360578063136439dd1461035b5780631478851f146103565780631eb812da14610351578063249a0c421461034c57806328f61b3114610347578063296bb0641461034257806329d1e0c31461033d5780632cdd1e8614610338578063303ca956146103335780633c2a7f4c1461032e5780633eef3a51146103295780635140a54814610324578063530b97a41461031f57806354fd4d501461031a5780635865c60c14610315578063595c6a67146103105780635ac86ab71461030b5780635b0b829f146103065780635c975abb146103015780635df45946146102fc57806368304835146102f75780636e3b17db146102f2578063715018a6146102ed57806373447992146102e85780638281ab75146102e357806384b0196e146102de57806384ca5213146102d9578063871ef049146102d4578063886f1195146102cf5780638da5cb5b146102ca5780639aa1653d146102c55780639e9923c2146102c05780639feab859146102bb578063a65497c6146102b6578063a96f783e146102b1578063b5265787146102ac578063c391425e146102a7578063c63fd502146102a2578063ca0de8821461029d578063ca8aa7c714610298578063de1164bb14610293578063e65797ad1461028e578063ea32afae14610289578063f2fde38b14610284578063f698da251461027f578063fabc1cbc1461027a5763fd39105a14610275575f80fd5b61269d565b6125bb565b6125a1565b612510565b6124cc565b61245f565b612406565b6123c2565b612388565b612256565b6121b2565b61213a565b61211d565b6120f0565b6120b6565b612072565b612052565b61202a565b611fe6565b611fb6565b611f62565b611e30565b611aac565b611a7d565b611a22565b6119a2565b61195e565b61191a565b6118fd565b611868565b611839565b6117c6565b611756565b61168d565b611550565b61148a565b6110a5565b610f62565b610c64565b610bd0565b610ba3565b610af0565b610ac8565b610a96565b6109d9565b6109aa565b6108f1565b6108b6565b61087b565b610827565b6107b4565b61071d565b610644565b61060c565b6104ab565b634e487b7160e01b5f52604160045260245ffd5b606081019081106001600160401b038211176103b757604052565b610388565b604081019081106001600160401b038211176103b757604052565b90601f801991011681019081106001600160401b038211176103b757604052565b604051906104076040836103d7565b565b604051906104076060836103d7565b6001600160401b0381116103b75760051b60200190565b6001600160a01b0381160361044057565b5f80fd5b9080601f8301121561044057813561045b81610418565b9261046960405194856103d7565b81845260208085019260051b82010192831161044057602001905b8282106104915750505090565b6020809183356104a08161042f565b815201910190610484565b34610440576020366003190112610440576004356001600160401b038111610440576104db903690600401610444565b6104f26104ec600480600154161490565b156126e3565b6040905f60205b825182101561060a5783519061050f85836103d7565b600182528036602084013761054f61053761052a858761271a565b516001600160a01b031690565b6105408461270d565b6001600160a01b039091169052565b61055761272e565b9061058161056861052a868861271a565b6001600160a01b03165f90815260996020526040902090565b5461058b8361270d565b526105b56105b06105a461059e8561270d565b51613143565b6001600160c01b031690565b6131f3565b945f5b86518110156105f857806105f26105eb6105e56105d76001958c612782565b516001600160f81b03191690565b60f81c90565b86886133a0565b016105b8565b50945060019093019291506104f99050565b005b34610440576020366003190112610440576004355f526098602052602060405f2054604051908152f35b63ffffffff81160361044057565b346104405760603660031901126104405760043560243561066481610636565b63ffffffff6044359160405193638192610f60e01b8552609860048601526024850152166044830152606482015260208160848173__$16e6d8f39d2650a6c0713d1f187d9aa2cf$__5af4801561070e576106db915f916106df575b506040516001600160c01b0390911681529081906020820190565b0390f35b610701915060203d602011610707575b6106f981836103d7565b810190612793565b5f6106c0565b503d6106ef565b6127b2565b5f91031261044057565b34610440575f36600319011261044057609d546040516001600160a01b039091168152602090f35b6001600160401b0381116103b757601f01601f191660200190565b92919261076c82610745565b9161077a60405193846103d7565b829481845281830111610440578281602093845f960137010152565b9080601f83011215610440578160206107b193359101610760565b90565b34610440576020366003190112610440576004356001600160401b038111610440576107e4903690600401610796565b335f52609960205260ff600160405f2001541690600382101561082257610810600161060a93146127bd565b335f52609960205260405f2054613497565b611710565b34610440576020366003190112610440577fa77a91bea7b6d95a8eb5a54878a1d9e3c875e26c86a9b70e3420c5c5db193b626040600435610866613557565b60a054908060a05582519182526020820152a1005b34610440576020366003190112610440576004356108988161042f565b60018060a01b03165f52609f602052602060405f2054604051908152f35b34610440576020366003190112610440576004356108d38161042f565b60018060a01b03165f526099602052602060405f2054604051908152f35b346104405760203660031901126104405760043560405163237dfb4760e11b8152336004820152906020826024817f00000000000000000000000000000000000000000000000000000000000000006001600160a01b03165afa91821561070e5761060a92610967915f9161097b575b506127f4565b6109766001548281161461280a565b6135e3565b61099d915060203d6020116109a3575b61099581836103d7565b8101906127e0565b5f610961565b503d61098b565b34610440576020366003190112610440576004355f52609a602052602060ff60405f2054166040519015158152f35b34610440576040366003190112610440576024356004356109f8612820565b505f52609860205260405f20908154811015610a73576106db915f5260205f200160405190610a268261039c565b5463ffffffff808216808452602083811c8316818601908152604094851c9585019586528451928352519092169181019190915291516001600160c01b0316908201529081906060820190565b6126f9565b6004359060ff8216820361044057565b359060ff8216820361044057565b346104405760203660031901126104405760ff610ab1610a78565b165f52609b602052602060405f2054604051908152f35b34610440575f36600319011261044057609e546040516001600160a01b039091168152602090f35b34610440576020366003190112610440576040516308f6629d60e31b815260048035908201526020816024816001600160a01b037f0000000000000000000000000000000000000000000000000000000000000000165afa801561070e576106db915f91610b74575b506040516001600160a01b0390911681529081906020820190565b610b96915060203d602011610b9c575b610b8e81836103d7565b81019061283e565b5f610b59565b503d610b84565b346104405760203660031901126104405761060a600435610bc38161042f565b610bcb613557565b613615565b346104405760203660031901126104405761060a600435610bf08161042f565b610bf8613557565b613673565b9080601f83011215610440578135610c1481610418565b92610c2260405194856103d7565b81845260208085019260051b82010192831161044057602001905b828210610c4a5750505090565b602080918335610c5981610636565b815201910190610c3d565b3461044057606036600319011261044057600435610c818161042f565b602435610c8d8161042f565b604435906001600160401b03821161044057610ce3610cb3610ce8933690600401610bfd565b91610cbc6136d1565b610ccd6104ec600280600154161490565b60a1546001600160a01b03918216911614612853565b613712565b6001600160a01b0382165f9081526099602052604090209091610d82825492610d316001610d2281610d1988613143565b94015460ff1690565b610d2b81611724565b146127bd565b610d4c6105a46105a4610d4660965460ff1690565b88613b3e565b90610d5882151561375b565b610d738282166001600160c01b03168314612ae3565b612ae3565b9019166001600160c01b031690565b610d8c818461484f565b6001600160c01b031615610f03575b7f00000000000000000000000000000000000000000000000000000000000000006001600160a01b0316803b1561044057835f91610df0938360405180968195829463f4e24fe560e01b845260048401613771565b03925af1801561070e57610eef575b507f00000000000000000000000000000000000000000000000000000000000000006001600160a01b0316803b15610440575f604051809263bd29b8cd60e01b8252818381610e52898960048401613793565b03925af1801561070e57610edb575b507f00000000000000000000000000000000000000000000000000000000000000006001600160a01b031691823b1561044057610eb7925f928360405180968195829463bd29b8cd60e01b845260048401613793565b03925af1801561070e57610ec757005b80610ed55f61060a936103d7565b80610713565b80610ed55f610ee9936103d7565b5f610e61565b80610ed55f610efd936103d7565b5f610dff565b6001600160a01b0381165f908152609960205260409020610f2e90600101805460ff19166002179055565b816001600160a01b0382167f396fdcb180cb0fea26928113fb0fd1c3549863f9cd563e6a184f1d578116c8e45f80a3610d9b565b34610440576020366003190112610440576040610f9a610f95600435610f878161042f565b610f8f612869565b50612d10565b6137be565b610fb08251809260208091805184520151910152565bf35b60609060031901126104405760405190610fcb8261039c565b81600435610fd881610636565b815260243561ffff811681036104405760208201526044359061ffff821682036104405760400152565b6001600160601b0381160361044057565b81601f820112156104405780359061102a82610418565b9261103860405194856103d7565b82845260208085019360061b8301019181831161044057602001925b828410611062575050505090565b604084830312610440576020604091825161107c816103bc565b86356110878161042f565b81528287013561109681611002565b83820152815201930192611054565b346104405760c0366003190112610440576110bf36610fb2565b6064356110cb81611002565b6084356001600160401b038111610440576110ea903690600401611013565b60a435926110f784610636565b6110ff613557565b60965460ff1692839161111460c084106138dc565b611130611120866138f2565b60ff1660ff196096541617609655565b61113a8186613c6f565b611142613904565b9461114d8551612750565b965f5b865181101561118a578061118461117a61116c6001948b61271a565b51516001600160a01b031690565b610540838d61271a565b01611150565b5086889695966111986103f8565b63ffffffff891681529060208201526111b08261270d565b526111ba8161270d565b5060a1546001600160a01b037f000000000000000000000000000000000000000000000000000000000000000081169116813b1561044057604051630130fc2760e51b8152925f9184918291611214919060048401613951565b038183855af190811561070e57600492602092611449575b50611237600161303f565b611241600161303f565b604051632981eb7760e01b815292839182905afa90811561070e5761127d9163ffffffff915f9161141a575b501663ffffffff83161115613a0c565b7f00000000000000000000000000000000000000000000000000000000000000006001600160a01b0316803b15610440575f6040518092630662d3e160e51b82528183816112d18c898d8c60048601613a73565b03925af1801561070e57611406575b507f00000000000000000000000000000000000000000000000000000000000000006001600160a01b0316803b156104405760405163136ca0f960e11b815260ff84166004820152905f908290602490829084905af1801561070e576113f2575b507f00000000000000000000000000000000000000000000000000000000000000006001600160a01b0316803b156104405760405163136ca0f960e11b815260ff9390931660048401525f908390602490829084905af1801561070e577fa34835bc2b673ec37fcf1591a91295b163fc2e181e4ea4e733beb27de1ceac4c956113d9936001926113de575b5060405195869586613ad0565b0390a2005b80610ed55f6113ec936103d7565b886113cc565b80610ed55f611400936103d7565b86611341565b80610ed55f611414936103d7565b866112e0565b61143c915060203d602011611442575b61143481836103d7565b810190612ab8565b8961126d565b503d61142a565b80610ed55f611457936103d7565b8961122c565b9181601f84011215610440578235916001600160401b038311610440576020838186019501011161044057565b34610440576040366003190112610440576004356001600160401b03811161044057366023820112156104405780600401356114c581610418565b916114d360405193846103d7565b8183526024602084019260051b820101903682116104405760248101925b82841061152157602435856001600160401b0382116104405761151b61060a92369060040161145d565b91612881565b83356001600160401b03811161044057602091611545839260243691870101610444565b8152019301926114f1565b346104405760a03660031901126104405760043561156d8161042f565b6115e160243561157c8161042f565b6044356115888161042f565b60643590608435926115998461042f565b5f54956115c760ff600889901c16156115b1565b1590565b8098819961165b575b811561163b575b50612b0f565b866115d8600160ff195f5416175f55565b61162457612b72565b6115e757005b6115f561ff00195f54165f55565b604051600181527f7f26b83ff96e1f2b6a682f133852f6798a09c465da95921460cefb384740249890602090a1005b61163661010061ff00195f5416175f55565b612b72565b303b1591508161164d575b505f6115c1565b60ff1660011490505f611646565b600160ff82161091506115ba565b805180835260209291819084018484015e5f828201840152601f01601f1916010190565b34610440575f366003190112610440577f000000000000000000000000000000000000000000000000000000000000000060ff8116601f8111611701576106db91604051916116dd6040846103d7565b60208084528381019190368337835252604051918291602083526020830190611669565b632cd44ac360e21b5f5260045ffd5b634e487b7160e01b5f52602160045260245ffd5b6003111561082257565b9060038210156108225752565b8151815260209182015160408201939261040792019061172e565b34610440576020366003190112610440576004356117738161042f565b61177b612869565b5060018060a01b03165f52609960205260405f2060ff6001604051926117a0846103bc565b80548452015416906003821015610822576106db9160208201526040519182918261173b565b34610440575f3660031901126104405760405163237dfb4760e11b81523360048201526020816024817f00000000000000000000000000000000000000000000000000000000000000006001600160a01b03165afa801561070e57611831915f9161097b57506127f4565b61060a6135af565b34610440576020366003190112610440576020600160ff611858610a78565b161b806001541614604051908152f35b3461044057608036600319011261044057611881610a78565b6060366023190112610440576040516118998161039c565b6024356118a581610636565b815260443561ffff8116810361044057602082015260643561ffff811681036104405760408201526118d5613557565b60ff6096541660ff831610156118ee5761060a91613c6f565b637310cff560e11b5f5260045ffd5b34610440575f366003190112610440576020600154604051908152f35b34610440575f366003190112610440576040517f00000000000000000000000000000000000000000000000000000000000000006001600160a01b03168152602090f35b34610440575f366003190112610440576040517f00000000000000000000000000000000000000000000000000000000000000006001600160a01b03168152602090f35b34610440576040366003190112610440576004356119bf8161042f565b6024356001600160401b038111610440576119de903690600401610796565b609e546001600160a01b03163303611a13576001600160a01b0382165f908152609f6020526040902042905561060a91613d12565b6376d8ab1760e11b5f5260045ffd5b34610440575f36600319011261044057611a3a613557565b606480546001600160a01b031981169091555f906001600160a01b03167f8be0079c531659141344cd1fd0a4f28419497f9722a3daafe3b4186f6b6457e08280a3005b34610440576020366003190112610440576020611aa4600435611a9f8161042f565b612d10565b604051908152f35b346104405760a036600319011261044057611ac636610fb2565b606435611ad281611002565b6084356001600160401b03811161044057611af1903690600401611013565b611af9613557565b60965460ff1680611b0c60c082106138dc565b611b18611120826138f2565b611b228582613c6f565b611b2a613904565b93611b358451612750565b955f5b8551811015611b645780611b5e611b5461116c6001948a61271a565b610540838c61271a565b01611b38565b50848688611b706103f8565b63ffffffff88168152906020820152611b888261270d565b52611b928161270d565b5060a1546001600160a01b037f0000000000000000000000000000000000000000000000000000000000000000811692911690823b1561044057611bef925f9283604051809681958294630130fc2760e51b845260048401613951565b03925af1801561070e57611d99575b50611c085f61303f565b7f00000000000000000000000000000000000000000000000000000000000000006001600160a01b0316803b15610440575f6040518092633aea0b9d60e11b8252818381611c5b888b8d60048501613aa8565b03925af1801561070e57611d85575b507f00000000000000000000000000000000000000000000000000000000000000006001600160a01b0316803b156104405760405163136ca0f960e11b815260ff86166004820152905f908290602490829084905af1801561070e57611d71575b507f00000000000000000000000000000000000000000000000000000000000000006001600160a01b0316803b156104405760405163136ca0f960e11b815260ff9590951660048601525f908590602490829084905af193841561070e575f6113d99281927fa34835bc2b673ec37fcf1591a91295b163fc2e181e4ea4e733beb27de1ceac4c97611d63575060405195869586613ad0565b80610ed5846113ec936103d7565b80610ed55f611d7f936103d7565b85611ccb565b80610ed55f611d93936103d7565b85611c6a565b80610ed55f611da7936103d7565b85611bfe565b929391611dcf611ddd92600f60f81b865260e0602087015260e0860190611669565b908482036040860152611669565b92606083015260018060a01b031660808201525f60a082015260c0818303910152602080835192838152019201905f5b818110611e1a5750505090565b8251845260209384019390920191600101611e0d565b34610440575f3660031901126104405760c8541580611ec8575b15611e8b57611e57613dfb565b611e5f613eb0565b906106db604051611e716020826103d7565b5f8082523660208301376040519384933091469186611dad565b60405162461bcd60e51b81526020600482015260156024820152741152540dcc4c8e88155b9a5b9a5d1a585b1a5e9959605a1b6044820152606490fd5b5060c95415611e4a565b81601f8201121561044057803590611ee982610418565b92611ef760405194856103d7565b82845260208085019360061b8301019181831161044057602001925b828410611f21575050505090565b6040848303126104405760206040918251611f3b816103bc565b611f4487610a88565b815282870135611f538161042f565b83820152815201930192611f13565b346104405760a036600319011261044057600435611f7f8161042f565b60243590604435906001600160401b03821161044057602092611fa9611aa4933690600401611ed2565b6064359160843593612d63565b34610440576020366003190112610440576020611fd4600435613143565b6040516001600160c01b039091168152f35b34610440575f366003190112610440576040517f00000000000000000000000000000000000000000000000000000000000000006001600160a01b03168152602090f35b34610440575f366003190112610440576064546040516001600160a01b039091168152602090f35b34610440575f36600319011261044057602060ff60965416604051908152f35b34610440575f366003190112610440576040517f00000000000000000000000000000000000000000000000000000000000000006001600160a01b03168152602090f35b34610440575f3660031901126104405760206040517f2bd82124057f0913bc3b772ce7b83e8057c1ad1f3510fc83778be20f10ec5de68152f35b346104405760203660031901126104405761060a6004356121108161042f565b612118613557565b613c11565b34610440575f36600319011261044057602060a054604051908152f35b346104405760203660031901126104405760206004356121598161042f565b60a1546040516001600160a01b0392831691909216148152f35b60206040818301928281528451809452019201905f5b8181106121965750505090565b825163ffffffff16845260209384019390920191600101612189565b34610440576040366003190112610440576004356121cf81610636565b602435906001600160401b0382116104405736602383011215610440578160040135916121fb83610418565b9261220960405194856103d7565b8084526024602085019160051b8301019136831161044057602401905b828210612246576106db61223a8686612ea1565b60405191829182612173565b8135815260209182019101612226565b34610440576080366003190112610440576004356122738161042f565b60243561227f8161042f565b6044356001600160401b0381116104405761229e903690600401610bfd565b6064356001600160401b03811161044057610ce3916122c46122df92369060040161145d565b9390946122cf6136d1565b610ccd6104ec6001808054161490565b9082019261014083850312610440576122f783612f4c565b9060208401356001600160401b0381116104405785612317918601610796565b9361232e6123288760408401612fc8565b83613f7b565b926123388161303f565b8061234957505061060a9450614343565b8061235b60019297959796949661303f565b036123795761060a9561236d91613049565b9793509591505061407d565b63354bb8ab60e01b5f5260045ffd5b34610440575f3660031901126104405760206040517f4d404e3276e7ac2163d8ee476afa6a41d1f68fb71f2d8b6546b24e55ce01b72a8152f35b34610440575f366003190112610440576040517f00000000000000000000000000000000000000000000000000000000000000006001600160a01b03168152602090f35b34610440575f3660031901126104405760a1546040516001600160a01b039091168152602090f35b61040790929192606081019361ffff6040809263ffffffff8151168552826020820151166020860152015116910152565b346104405760203660031901126104405760ff61247a610a78565b612482612820565b50165f5260976020526106db60405f2061ffff604051916124a28361039c565b5463ffffffff81168352818160201c16602084015260301c1660408201526040519182918261242e565b34610440575f366003190112610440576040517f00000000000000000000000000000000000000000000000000000000000000006001600160a01b03168152602090f35b346104405760203660031901126104405760043561252d8161042f565b612535613557565b6001600160a01b0381161561254d5761060a90613bc9565b60405162461bcd60e51b815260206004820152602660248201527f4f776e61626c653a206e6577206f776e657220697320746865207a65726f206160448201526564647265737360d01b6064820152608490fd5b34610440575f366003190112610440576020611aa4614f2a565b346104405760203660031901126104405760043560405163755b36bd60e11b81526020816004817f00000000000000000000000000000000000000000000000000000000000000006001600160a01b03165afa90811561070e575f9161267e575b506001600160a01b0316330361266f5761263d60015419821981161461280a565b806001556040519081527f3582d1828e26bf56bd801502bc021ac0bc8afb57c826e4986b45593c8fad389c60203392a2005b63794821ff60e01b5f5260045ffd5b612697915060203d602011610b9c57610b8e81836103d7565b5f61261c565b34610440576020366003190112610440576004356126ba8161042f565b60018060a01b03165f526099602052602060ff600160405f20015416610fb0604051809261172e565b156126ea57565b63840a48d560e01b5f5260045ffd5b634e487b7160e01b5f52603260045260245ffd5b805115610a735760200190565b8051821015610a735760209160051b010190565b6040805190919061273f83826103d7565b6001815291601f1901366020840137565b9061275a82610418565b61276760405191826103d7565b8281528092612778601f1991610418565b0190602036910137565b908151811015610a73570160200190565b9081602091031261044057516001600160c01b03811681036104405790565b6040513d5f823e3d90fd5b156127c457565b63aba4733960e01b5f5260045ffd5b5190811515820361044057565b90816020910312610440576107b1906127d3565b156127fb57565b631d77d47760e21b5f5260045ffd5b1561281157565b63c61dca5d60e01b5f5260045ffd5b6040519061282d8261039c565b5f6040838281528260208201520152565b9081602091031261044057516107b18161042f565b1561285a57565b6366e565df60e01b5f5260045ffd5b60405190612876826103bc565b5f6020838281520152565b91906128946104ec600480600154161490565b6128b36128a360965460ff1690565b6128ae368585610760565b613b3e565b506128c082845114612a96565b5f917f00000000000000000000000000000000000000000000000000000000000000006001600160a01b03165b8184106128fb575050505050565b61291f6105e561291186858798999a9697612aac565b356001600160f81b03191690565b9161292a868861271a565b5180516040516379a0849160e11b815260ff8616600482015291939190602082602481865afa91821561070e576129709263ffffffff915f91612a78575b501614612acd565b61297a8351612750565b955f985f995b85518b1015612a0657886129fe6001926129e9610d6e8f6129db6105a461059e8f938f61052a826129b09261271a565b6001600160a01b0381165f908152609960205260409020909a90546129d5838361271a565b5261271a565b60ff600192161c1660011490565b838060a01b0316838060a01b03831611612af9565b9a0199612980565b509594809298939950612a1c91976001956133a0565b43612a328260ff165f52609b60205260405f2090565b557f46077d55330763f16269fd75e5761663f4192d2791747c0189b16ad31db07db460ff60405192169180612a6c43829190602083019252565b0390a2019291936128ed565b612a90915060203d81116114425761143481836103d7565b5f612968565b15612a9d57565b63aaad13f760e01b5f5260045ffd5b90821015610a73570190565b9081602091031261044057516107b181610636565b15612ad457565b638e5aeee760e01b5f5260045ffd5b15612aea57565b63d053aa2160e01b5f5260045ffd5b15612b0057565b63ba50f91160e01b5f5260045ffd5b15612b1657565b60405162461bcd60e51b815260206004820152602e60248201527f496e697469616c697a61626c653a20636f6e747261637420697320616c72656160448201526d191e481a5b9a5d1a585b1a5e995960921b6064820152608490fd5b92919260408051612b8382826103d7565b601681527520ab29a932b3b4b9ba393ca1b7b7b93234b730ba37b960511b6020820152612bb2825192836103d7565b600682526576302e302e3160d01b6020830152612bde60ff5f5460081c16612bd981613b69565b613b69565b8051906001600160401b0382116103b757612c0382612bfe60ca54613dc3565b614947565b602090601f8311600114612c7557610bf894612c536121189895612c4b86610976976104079e9d9b97610bcb975f92612c6a575b50508160011b915f199060031b1c19161790565b60ca556149e6565b612c5c5f60c855565b612c655f60c955565b613bc9565b015190505f80612c37565b60ca5f52601f19831691907f42d72674974f694b5f5159593243114d38a5c39c89d6b62fee061ff523240ee1925f5b818110612cf8575061211898956001866104079d9c9a96610bcb96610bf89b966109769a612c539710612ce0575b505050811b0160ca556149e6565b01515f1960f88460031b161c191690555f8080612cd2565b92936020600181928786015181550195019301612ca4565b6107b19060405160208101917f2bd82124057f0913bc3b772ce7b83e8057c1ad1f3510fc83778be20f10ec5de6835260018060a01b0316604082015260408152612d5b6060826103d7565b519020613d9d565b919493909260405192602084019460e08501917f4d404e3276e7ac2163d8ee476afa6a41d1f68fb71f2d8b6546b24e55ce01b72a875260018060a01b03166040860152606085015260c060808501528651809152602061010085019701905f5b818110612df0575050506107b19495612d5b92849260a084015260c083015203601f1981018352826103d7565b8251805160ff168a526020908101516001600160a01b0316818b015260409099019890920191600101612dc3565b602081830312610440578051906001600160401b03821161044057019080601f83011215610440578151612e5181610418565b92612e5f60405194856103d7565b81845260208085019260051b82010192831161044057602001905b828210612e875750505090565b602080918351612e9681610636565b815201910190612e7a565b604051918291630449895d60e31b835263ffffffff6064840191609860048601521660248401526060604484015281518091526020608484019201905f5b818110612f335750505090805f92038173__$16e6d8f39d2650a6c0713d1f187d9aa2cf$__5af490811561070e575f91612f17575090565b6107b191503d805f833e612f2b81836103d7565b810190612e1e565b8251845285945060209384019390920191600101612edf565b3590600282101561044057565b919082604091031261044057604051612f71816103bc565b6020808294803584520135910152565b9080601f830112156104405760405191612f9c6040846103d7565b82906040810192831161044057905b828210612fb85750505090565b8135815260209182019101612fab565b8082039291610100841261044057604051612fe28161039c565b60808195612ff08486612f59565b8352612fff8460408701612f59565b6020840152607f1901126104405761303660409260c0845195613021876103bc565b61302e8360808301612f81565b875201612f81565b60208401520152565b6002111561082257565b9190610180838203126104405761305f83612f4c565b9260208101356001600160401b038111610440578261307f918301610796565b9261308d8360408401612fc8565b926101408301356001600160401b03811161044057816130ae918501611ed2565b92610160810135906001600160401b03821161044057019060608282031261044057604051916130dd8361039c565b80356001600160401b038111610440576040926130fb918301610796565b8352602081013560208401520135604082015290565b9060405161311e8161039c565b604061ffff82945463ffffffff81168452818160201c16602085015260301c16910152565b60405190631a3894e960e01b825260986004830152602482015260208160448173__$16e6d8f39d2650a6c0713d1f187d9aa2cf$__5af490811561070e575f9161318b575090565b6107b1915060203d602011610707576106f981836103d7565b906131ae82610745565b6131bb60405191826103d7565b8281528092612778601f1991610745565b634e487b7160e01b5f52601160045260245ffd5b5f1981146131ee5760010190565b6131cc565b5f81805b61326d57506132099061ffff166131a4565b5f5f5b8251821080613262575b1561325b576001811b8416613234575b61322f906131e0565b61320c565b90600161322f9160ff60f81b8460f81b165f1a6132518287612782565b5301919050613226565b5050905090565b506101008110613216565b5f1981018181116131ee5761ffff9116911661ffff81146131ee5760010190806131f7565b602081830312610440578051906001600160401b03821161044057019080601f830112156104405781516132c581610418565b926132d360405194856103d7565b81845260208085019260051b82010192831161044057602001905b8282106132fb5750505090565b60208091613308846127d3565b8152019101906132ee565b93929190606085016060865281518091526020608087019201905f5b818110613381575050508481036020860152602080835192838152019201905f5b81811061336b575050509060406104079294019060ff169052565b8251845260209384019390920191600101613350565b82516001600160a01b031684526020938401939092019160010161332f565b905f6133e794936133af61272e565b9260f882901b6001600160f81b031916831a6133ca8561270d565b53604051636c3fb4bf60e01b815296879283928760048501613313565b0381837f00000000000000000000000000000000000000000000000000000000000000006001600160a01b03165af193841561070e575f94613473575b505f5b825181101561346c57806134466134406001938861271a565b51151590565b613451575b01613427565b6134678361346261052a848861271a565b613d12565b61344b565b5050509050565b6134909194503d805f833e61348881836103d7565b810190613292565b925f613424565b907f00000000000000000000000000000000000000000000000000000000000000006001600160a01b031690813b15610440575f60405180936378219b3f60e11b8252856004830152604060248301528183816134f76044820188611669565b03925af190811561070e577fec2963ab21c1e50e1e582aa542af2e4bf7bf38e6e1403c27b42e1c5d6e621eaa9261354292613547575b50604051918291602083526020830190611669565b0390a2565b5f613551916103d7565b5f61352d565b6064546001600160a01b0316330361356b57565b606460405162461bcd60e51b815260206004820152602060248201527f4f776e61626c653a2063616c6c6572206973206e6f7420746865206f776e65726044820152fd5b5f196001556040515f1981527fab40a374bc51de372200a8bc981af8c9ecdc08dfdaef0bb6e09f88f3c616ef3d60203392a2565b806001556040519081527fab40a374bc51de372200a8bc981af8c9ecdc08dfdaef0bb6e09f88f3c616ef3d60203392a2565b609d54604080516001600160a01b038084168252841660208201529192917f315457d8a8fe60f04af17c16e2f5a5e1db612b31648e58030360759ef8f3528c9190a16001600160a01b03166001600160a01b03199190911617609d55565b609e54604080516001600160a01b038084168252841660208201529192917f8f30ab09f43a6c157d7fce7e0a13c003042c1c95e8a72e7a146a21c0caa24dc99190a16001600160a01b03166001600160a01b03199190911617609e55565b7f00000000000000000000000000000000000000000000000000000000000000006001600160a01b0316330361370357565b6323d871a560e01b5f5260045ffd5b9061371d82516131a4565b5f5b8351811015613756576001906001600160f81b031961373e828761271a565b5160f81b165f1a61374f8285612782565b530161371f565b509150565b1561376257565b6368b6a87560e11b5f5260045ffd5b6001600160a01b0390911681526040602082018190526107b192910190611669565b6040906107b1939281528160208201520190611669565b634e487b7160e01b5f52601260045260245ffd5b5f51602061507d5f395f51905f52906137d5612869565b505f919006602060c0835b6138d5575f935f51602061507d5f395f51905f526003818681818009090860405161380b85826103d7565b8436823784818560405161381f82826103d7565b813682378381528360208201528360408201528560608201527f0c19139cb84c680a6e14116da060561765e05aa45a1c72a34f082305b61f3f5260808201525f51602061507d5f395f51905f5260a082015260056107cf195a01fa80156138da5761388990614f91565b51916138d5575f51602061507d5f395f51905f52828009146138c057505f51602061507d5f395f51905f5260015f940892936137e0565b929350506138cc6103f8565b92835282015290565b6137aa565bfe5b156138e357565b633cb89c9760e01b5f5260045ffd5b60ff60019116019060ff82116131ee57565b6040805190919061391583826103d7565b6001815291601f1901825f5b82811061392d57505050565b60209060405161393c816103bc565b5f815260608382015282828501015201613921565b90604082019060018060a01b031682526040602083015282518091526060820191602060608360051b8301019401925f915b83831061399257505050505090565b9091929394605f1982820301835285516020606081604085019363ffffffff81511686520151936040838201528451809452019201905f905b8082106139ea5750505060208060019297019301930191939290613983565b82516001600160a01b03168452602093840193909201916001909101906139cb565b15613a1357565b630bd441b960e21b5f5260045ffd5b90602080835192838152019201905f5b818110613a3f5750505090565b825180516001600160a01b031685526020908101516001600160601b03168186015260409094019390920191600101613a32565b906107b194936001600160601b0360809460ff63ffffffff941685521660208401521660408201528160608201520190613a22565b6001600160601b036107b1949360ff6060941683521660208201528160408201520190613a22565b9395949060c0936001600160601b0363ffffffff94613b1288613b299561ffff6040809263ffffffff8151168552826020820151166020860152015116910152565b16606087015260e0608087015260e0860190613a22565b95613b338161303f565b60a085015216910152565b906001613b4c60ff936148cf565b928392161b1115613b5a5790565b63ca95733360e01b5f5260045ffd5b15613b7057565b60405162461bcd60e51b815260206004820152602b60248201527f496e697469616c697a61626c653a20636f6e7472616374206973206e6f74206960448201526a6e697469616c697a696e6760a81b6064820152608490fd5b606480546001600160a01b039283166001600160a01b0319821681179092559091167f8be0079c531659141344cd1fd0a4f28419497f9722a3daafe3b4186f6b6457e05f80a3565b60a154604080516001600160a01b038084168252841660208201529192917f9770f3cadfdcbb6f93af935e86047111590c3768271d237e4a2bc0b874bed6939190a16001600160a01b03166001600160a01b0319919091161760a155565b60ff7f3ee6fe8d54610244c3e9d3c066ae4aee997884aa28f10616ae821925401318ac911691825f52609760205260405f2063ffffffff82511681549065ffff00000000602085015160201b169067ffff000000000000604086015160301b16926001600160401b0319161717179055604051809161354282606081019261ffff6040809263ffffffff8151168552826020820151166020860152015116910152565b9060018060a01b0382165f52609960205260405f2060ff600182015416600381101561082257600103613d8e57613d7d9054613d566105a460ff6096541685613b3e565b906001600160c01b0390613d6990613143565b1681166001600160c01b0390811691161490565b613d85575050565b61040791614b27565b6325ec6c1f60e01b5f5260045ffd5b604290613da8614f2a565b906040519161190160f01b8352600283015260228201522090565b90600182811c92168015613df1575b6020831014613ddd57565b634e487b7160e01b5f52602260045260245ffd5b91607f1691613dd2565b604051905f8260ca5491613e0e83613dc3565b8083529260018116908115613e915750600114613e32575b610407925003836103d7565b5060ca5f90815290917f42d72674974f694b5f5159593243114d38a5c39c89d6b62fee061ff523240ee15b818310613e7557505090602061040792820101613e26565b6020919350806001915483858901015201910190918492613e5d565b6020925061040794915060ff191682840152151560051b820101613e26565b604051905f8260cb5491613ec383613dc3565b8083529260018116908115613e915750600114613ee657610407925003836103d7565b5060cb5f90815290917fa7ce836d032b2bf62b7e2097a8e0a6d8aeb35405ad15271e96d3b0188a1d06fb5b818310613f2957505090602061040792820101613e26565b6020919350806001915483858901015201910190918492613f11565b90816020910312610440575190565b905f905b60028210613f6557505050565b6020806001928551815201930191019091613f58565b9061400f90613f88612869565b50613ffb60206040613f9c610f9587612d10565b81516301e2d35b60e11b81526001600160a01b0390971660048801528451805160248901526020015160448801529380830151805160648901526020015160848801520151613fef60a487018251613f54565b015160e4850190613f54565b805161012484015260200151610144830152565b602081610164815f7f00000000000000000000000000000000000000000000000000000000000000006001600160a01b03165af190811561070e575f91614054575090565b6107b1915060203d602011614076575b61406e81836103d7565b810190613f45565b503d614064565b949180939161409e6140a4946140968851855114612a96565b87838a614c69565b86614659565b5f5b82518110156141c257806140de6140d96140c86105e56105d760019689612782565b60ff165f52609760205260405f2090565b613111565b6140f66140ec83865161271a565b5163ffffffff1690565b63ffffffff61411561410c845163ffffffff1690565b63ffffffff1690565b911611614124575b50016140a6565b61417a906141386105e56105d78589612782565b61415661414985604089015161271a565b516001600160601b031690565b896141686141498760208b015161271a565b91614173878c61271a565b5193614da7565b6141bc61418561272e565b6141926105d78488612782565b5f1a61419d8261270d565b5361346260206141ad858a61271a565b5101516001600160a01b031690565b5f61411d565b5050505050565b604051906141d68261039c565b60606040838281528260208201520152565b156141ef57565b6313ca465760e01b5f5260045ffd5b1561420557565b630c6816cd60e01b5f5260045ffd5b919082018092116131ee57565b1561422857565b631968677d60e11b5f5260045ffd5b6001602091835181550191015160038110156108225760ff80198354169116179055565b9080601f8301121561044057815161427281610418565b9261428060405194856103d7565b81845260208085019260051b82010192831161044057602001905b8282106142a85750505090565b6020809183516142b781611002565b81520191019061429b565b9190916040818403126104405780516001600160401b03811161044057836142eb91830161425b565b9260208201516001600160401b038111610440576107b1920161425b565b6107b1939260609260018060a01b0316825260208201528160408201520190611669565b1561433457565b63c6b9e76760e01b5f5260045ffd5b6143db61434e6141c9565b946143d56143646105a4610d4660965460ff1690565b61436d86613143565b6001600160c01b03909116906143848215156141e8565b60018060c01b031661439e6143998284161590565b6141fe565b6001600160a01b0386165f908152609f602052604090206143ce906143c7905460a05490614214565b4211614221565b178561484f565b83613497565b6001614403816143fb8460018060a01b03165f52609960205260405f2090565b015460ff1690565b61440c81611724565b036145f4575b7f00000000000000000000000000000000000000000000000000000000000000006001600160a01b0316803b15610440575f6040518092631fd93ca960e11b82528183816144648a8960048401613771565b03925af1801561070e5784925f9285926145e0575b506144986040519485938493632550477760e01b855260048501614309565b0381837f00000000000000000000000000000000000000000000000000000000000000006001600160a01b03165af1801561070e57614503925f928592849185916145bc575b5060408801526020870152604051938492839262bff04d60e01b845260048401613793565b0381837f00000000000000000000000000000000000000000000000000000000000000006001600160a01b03165af190811561070e575f916145a2575b5082525f5b815181101561459d578061459761456a6140d96140c86105e56105d760019789612782565b63ffffffff61458e61410c6145836140ec878b5161271a565b935163ffffffff1690565b9116111561432d565b01614545565b505090565b6145b691503d805f833e612f2b81836103d7565b5f614540565b90506145da91503d8086833e6145d281836103d7565b8101906142c2565b5f6144de565b80610ed5856145ee936103d7565b5f614479565b6146256145ff6103f8565b838152600160208201526001600160a01b0383165f908152609960205260409020614237565b816001600160a01b0382167fe8e68cef1c3a761ed7be7e8463a375f27f7bc335e51824223cacce636ec5c3fe5f80a3614412565b61466461434e6141c9565b6001614684816143fb8460018060a01b03165f52609960205260405f2090565b61468d81611724565b03614810575b7f00000000000000000000000000000000000000000000000000000000000000006001600160a01b0316803b15610440575f6040518092631fd93ca960e11b82528183816146e58a8960048401613771565b03925af1801561070e5784925f9285926147fc575b506147196040519687938493632550477760e01b855260048501614309565b0381837f00000000000000000000000000000000000000000000000000000000000000006001600160a01b03165af191821561070e57614783935f93849185916147e0575b5060408701526020860152604051938492839262bff04d60e01b845260048401613793565b0381837f00000000000000000000000000000000000000000000000000000000000000006001600160a01b03165af190811561070e575f916147c6575b50815290565b6147da91503d805f833e612f2b81836103d7565b5f6147c0565b90506147f691503d8086833e6145d281836103d7565b5f61475e565b80610ed58561480a936103d7565b5f6146fa565b61481b6145ff6103f8565b816001600160a01b0382167fe8e68cef1c3a761ed7be7e8463a375f27f7bc335e51824223cacce636ec5c3fe5f80a3614693565b73__$16e6d8f39d2650a6c0713d1f187d9aa2cf$__91823b156104405760405163ae1d62db60e01b81526098600482015260248101929092526001600160c01b03166044820152905f90829060649082905af4801561070e576148af5750565b5f610407916103d7565b156148c057565b631019106960e31b5f5260045ffd5b906101008251116149385781511561493357602082015160019060f81c81901b5b835182101561492e5760019061491961490f6105e56105d78689612782565b60ff600191161b90565b906149258183116148b9565b179101906148f0565b925050565b5f9150565b637da54e4760e11b5f5260045ffd5b601f8111614953575050565b60ca5f5260205f20906020601f840160051c8301931061498d575b601f0160051c01905b818110614982575050565b5f8155600101614977565b909150819061496e565b601f82116149a457505050565b5f5260205f20906020601f840160051c830193106149dc575b601f0160051c01905b8181106149d1575050565b5f81556001016149c6565b90915081906149bd565b9081516001600160401b0381116103b757614a0d81614a0660cb54613dc3565b60cb614997565b602092601f8211600114614a4157614a3c929382915f92612c6a5750508160011b915f199060031b1c19161790565b60cb55565b60cb5f52601f198216937fa7ce836d032b2bf62b7e2097a8e0a6d8aeb35405ad15271e96d3b0188a1d06fb915f5b868110614aa55750836001959610614a8d575b505050811b0160cb55565b01515f1960f88460031b161c191690555f8080614a82565b91926020600181928685015181550194019201614a6f565b602080825282516001600160a01b039081168284015281840151166040808401919091529092015160608083015280516080830181905260a09092019201905f5b818110614b0b5750505090565b825163ffffffff16845260209384019390920191600101614afe565b60a154825192936001600160a01b03918216939290917f000000000000000000000000000000000000000000000000000000000000000016614b6884610418565b93614b7660405195866103d7565b808552614b85601f1991610418565b013660208601375f5b8651811015614bb95780614ba460019289612782565b5160f81c614bb2828861271a565b5201614b8e565b509291945092614bed90614bdd614bce610409565b6001600160a01b039096168652565b6001600160a01b03166020850152565b6040830152803b1561044057604051636e3492b560e01b8152915f918391829084908290614c1e9060048301614abd565b03925af1801561070e57614c2f5750565b80610ed55f610407936103d7565b15614c4457565b636fbefec360e11b5f5260045ffd5b15614c5a57565b630819bdcd60e01b5f5260045ffd5b614cfc906020850193614c9a614c956115ad614c8e88515f52609a60205260405f2090565b5460ff1690565b614c3d565b6040860190614cac8251421115614c53565b614ccf614cc287515f52609a60205260405f2090565b805460ff19166001179055565b609d5473__$a78dad5d5fbb4a778d84dbcee850f0c805$__95906001600160a01b03169651925193612d63565b925190803b1561044057614d29935f93604051958694859384936311c5268f60e11b855260048501614309565b03915af4801561070e57614c2f5750565b15614d4157565b6356168b4160e11b5f5260045ffd5b15614d5757565b63263a721560e11b5f5260045ffd5b9081602091031261044057516107b181611002565b15614d8257565b634c44995d60e01b5f5260045ffd5b15614d9857565b63b187e86960e01b5f5260045ffd5b60209192614e04614df7614e5c989697614df0614dcc8783015160018060a01b031690565b6001600160a01b039081165f81815260996020526040902054969091161415614d3a565b5160ff1690565b60ff808516911614612acd565b614e31614e2c614e1a6105a4600160ff87161b81565b614e266105a485613143565b81161490565b614d50565b604051635401ed2760e01b8152600481019190915260ff909116602482015294859081906044820190565b03817f00000000000000000000000000000000000000000000000000000000000000006001600160a01b03165afa92831561070e57610407945f94614ee0575b5082614ed892614ed3614ebf936001600160601b03614ecb614ebf82998b614fca565b6001600160601b031690565b911611614d7b565b614fed565b911610614d91565b614ebf91945092614ed892614ed3614f176001600160601b039660203d602011614f23575b614f0f81836103d7565b810190614d66565b96935050925092614e9c565b503d614f05565b614f3261500b565b614f3a615056565b6040519060208201927f8b73c3c69bb8fe3d512ecc4cf759cc79239f7b179b0ffacaa9a75d522b39400f8452604083015260608201524660808201523060a082015260a08152614f8b60c0826103d7565b51902090565b15614f9857565b63d51edae360e01b5f5260045ffd5b906001600160601b03809116911602906001600160601b0382169182036131ee57565b614fe86001600160601b039161ffff60206127109501511690614fa7565b160490565b614fe86001600160601b039161ffff60406127109501511690614fa7565b615013613dfb565b8051908115615023576020012090565b505060c85480156150315790565b507fc5d2460186f7233c927e7db2dcc703c0e500b653ca82273b7bfad8045d85a47090565b61505e613eb0565b805190811561506e576020012090565b505060c9548015615031579056fe30644e72e131a029b85045b68181585d97816a916871ca8d3c208c16d87cfd47a2646970667358221220fb6c525039c75bfeb8d8fb05f36a88567a654cb224c46bbf45fd258fda2e0dad64736f6c634300081b0033","linkReferences":{"lib/eigenlayer-middleware/src/libraries/QuorumBitmapHistoryLib.sol":{"QuorumBitmapHistoryLib":[{"start":2609,"length":20},{"start":12936,"length":20},{"start":13564,"length":20},{"start":19432,"length":20}]},"lib/eigenlayer-middleware/src/libraries/SignatureCheckerLib.sol":{"SignatureCheckerLib":[{"start":20587,"length":20}]}}},"methodIdentifiers":{"OPERATOR_CHURN_APPROVAL_TYPEHASH()":"ca0de882","PUBKEY_REGISTRATION_TYPEHASH()":"9feab859","allocationManager()":"ca8aa7c7","avs()":"de1164bb","blsApkRegistry()":"5df45946","calculateOperatorChurnApprovalDigestHash(address,bytes32,(uint8,address)[],bytes32,uint256)":"84ca5213","calculatePubkeyRegistrationMessageHash(address)":"73447992","churnApprover()":"054310e6","createSlashableStakeQuorum((uint32,uint16,uint16),uint96,(address,uint96)[],uint32)":"3eef3a51","createTotalDelegatedStakeQuorum((uint32,uint16,uint16),uint96,(address,uint96)[])":"8281ab75","deregisterOperator(address,address,uint32[])":"303ca956","domainSeparator()":"f698da25","eip712Domain()":"84b0196e","ejectOperator(address,bytes)":"6e3b17db","ejectionCooldown()":"a96f783e","ejector()":"28f61b31","getCurrentQuorumBitmap(bytes32)":"871ef049","getOperator(address)":"5865c60c","getOperatorFromId(bytes32)":"296bb064","getOperatorId(address)":"13542a4e","getOperatorSetParams(uint8)":"e65797ad","getOperatorStatus(address)":"fd39105a","getQuorumBitmapAtBlockNumberByIndex(bytes32,uint32,uint256)":"04ec6351","getQuorumBitmapHistoryLength(bytes32)":"03fd3492","getQuorumBitmapIndicesAtBlockNumber(uint32,bytes32[])":"c391425e","getQuorumBitmapUpdateByIndex(bytes32,uint256)":"1eb812da","indexRegistry()":"9e9923c2","initialize(address,address,address,uint256,address)":"530b97a4","isChurnApproverSaltUsed(bytes32)":"1478851f","lastEjectionTimestamp(address)":"125e0584","owner()":"8da5cb5b","pause(uint256)":"136439dd","pauseAll()":"595c6a67","paused()":"5c975abb","paused(uint8)":"5ac86ab7","pauserRegistry()":"886f1195","pubkeyRegistrationMessageHash(address)":"3c2a7f4c","quorumCount()":"9aa1653d","quorumUpdateBlockNumber(uint8)":"249a0c42","registerOperator(address,address,uint32[],bytes)":"c63fd502","renounceOwnership()":"715018a6","setAVS(address)":"a65497c6","setChurnApprover(address)":"29d1e0c3","setEjectionCooldown(uint256)":"0d3f2134","setEjector(address)":"2cdd1e86","setOperatorSetParams(uint8,(uint32,uint16,uint16))":"5b0b829f","socketRegistry()":"ea32afae","stakeRegistry()":"68304835","supportsAVS(address)":"b5265787","transferOwnership(address)":"f2fde38b","unpause(uint256)":"fabc1cbc","updateOperators(address[])":"00cf2ab5","updateOperatorsForQuorum(address[][],bytes)":"5140a548","updateSocket(string)":"0cf4b767","version()":"54fd4d50"},"id":104}