{"abi":[{"type":"constructor","inputs":[{"name":"_ethPOS","type":"address","internalType":"contract IETHPOSDeposit"},{"name":"_eigenPodManager","type":"address","internalType":"contract IEigenPodManager"},{"name":"_GENESIS_TIME","type":"uint64","internalType":"uint64"},{"name":"_version","type":"string","internalType":"string"}],"stateMutability":"nonpayable"},{"type":"receive","stateMutability":"payable"},{"type":"function","name":"GENESIS_TIME","inputs":[],"outputs":[{"name":"","type":"uint64","internalType":"uint64"}],"stateMutability":"view"},{"type":"function","name":"activeValidatorCount","inputs":[],"outputs":[{"name":"","type":"uint256","internalType":"uint256"}],"stateMutability":"view"},{"type":"function","name":"checkpointBalanceExitedGwei","inputs":[{"name":"","type":"uint64","internalType":"uint64"}],"outputs":[{"name":"","type":"uint64","internalType":"uint64"}],"stateMutability":"view"},{"type":"function","name":"currentCheckpoint","inputs":[],"outputs":[{"name":"","type":"tuple","internalType":"struct IEigenPodTypes.Checkpoint","components":[{"name":"beaconBlockRoot","type":"bytes32","internalType":"bytes32"},{"name":"proofsRemaining","type":"uint24","internalType":"uint24"},{"name":"podBalanceGwei","type":"uint64","internalType":"uint64"},{"name":"balanceDeltasGwei","type":"int64","internalType":"int64"},{"name":"prevBeaconBalanceGwei","type":"uint64","internalType":"uint64"}]}],"stateMutability":"view"},{"type":"function","name":"currentCheckpointTimestamp","inputs":[],"outputs":[{"name":"","type":"uint64","internalType":"uint64"}],"stateMutability":"view"},{"type":"function","name":"eigenPodManager","inputs":[],"outputs":[{"name":"","type":"address","internalType":"contract IEigenPodManager"}],"stateMutability":"view"},{"type":"function","name":"ethPOS","inputs":[],"outputs":[{"name":"","type":"address","internalType":"contract IETHPOSDeposit"}],"stateMutability":"view"},{"type":"function","name":"getParentBlockRoot","inputs":[{"name":"timestamp","type":"uint64","internalType":"uint64"}],"outputs":[{"name":"","type":"bytes32","internalType":"bytes32"}],"stateMutability":"view"},{"type":"function","name":"initialize","inputs":[{"name":"_podOwner","type":"address","internalType":"address"}],"outputs":[],"stateMutability":"nonpayable"},{"type":"function","name":"lastCheckpointTimestamp","inputs":[],"outputs":[{"name":"","type":"uint64","internalType":"uint64"}],"stateMutability":"view"},{"type":"function","name":"podOwner","inputs":[],"outputs":[{"name":"","type":"address","internalType":"address"}],"stateMutability":"view"},{"type":"function","name":"proofSubmitter","inputs":[],"outputs":[{"name":"","type":"address","internalType":"address"}],"stateMutability":"view"},{"type":"function","name":"recoverTokens","inputs":[{"name":"tokenList","type":"address[]","internalType":"contract IERC20[]"},{"name":"amountsToWithdraw","type":"uint256[]","internalType":"uint256[]"},{"name":"recipient","type":"address","internalType":"address"}],"outputs":[],"stateMutability":"nonpayable"},{"type":"function","name":"setProofSubmitter","inputs":[{"name":"newProofSubmitter","type":"address","internalType":"address"}],"outputs":[],"stateMutability":"nonpayable"},{"type":"function","name":"stake","inputs":[{"name":"pubkey","type":"bytes","internalType":"bytes"},{"name":"signature","type":"bytes","internalType":"bytes"},{"name":"depositDataRoot","type":"bytes32","internalType":"bytes32"}],"outputs":[],"stateMutability":"payable"},{"type":"function","name":"startCheckpoint","inputs":[{"name":"revertIfNoBalance","type":"bool","internalType":"bool"}],"outputs":[],"stateMutability":"nonpayable"},{"type":"function","name":"validatorPubkeyHashToInfo","inputs":[{"name":"validatorPubkeyHash","type":"bytes32","internalType":"bytes32"}],"outputs":[{"name":"","type":"tuple","internalType":"struct IEigenPodTypes.ValidatorInfo","components":[{"name":"validatorIndex","type":"uint64","internalType":"uint64"},{"name":"restakedBalanceGwei","type":"uint64","internalType":"uint64"},{"name":"lastCheckpointedAt","type":"uint64","internalType":"uint64"},{"name":"status","type":"uint8","internalType":"enum IEigenPodTypes.VALIDATOR_STATUS"}]}],"stateMutability":"view"},{"type":"function","name":"validatorPubkeyToInfo","inputs":[{"name":"validatorPubkey","type":"bytes","internalType":"bytes"}],"outputs":[{"name":"","type":"tuple","internalType":"struct IEigenPodTypes.ValidatorInfo","components":[{"name":"validatorIndex","type":"uint64","internalType":"uint64"},{"name":"restakedBalanceGwei","type":"uint64","internalType":"uint64"},{"name":"lastCheckpointedAt","type":"uint64","internalType":"uint64"},{"name":"status","type":"uint8","internalType":"enum IEigenPodTypes.VALIDATOR_STATUS"}]}],"stateMutability":"view"},{"type":"function","name":"validatorStatus","inputs":[{"name":"validatorPubkey","type":"bytes","internalType":"bytes"}],"outputs":[{"name":"","type":"uint8","internalType":"enum IEigenPodTypes.VALIDATOR_STATUS"}],"stateMutability":"view"},{"type":"function","name":"validatorStatus","inputs":[{"name":"pubkeyHash","type":"bytes32","internalType":"bytes32"}],"outputs":[{"name":"","type":"uint8","internalType":"enum IEigenPodTypes.VALIDATOR_STATUS"}],"stateMutability":"view"},{"type":"function","name":"verifyCheckpointProofs","inputs":[{"name":"balanceContainerProof","type":"tuple","internalType":"struct BeaconChainProofs.BalanceContainerProof","components":[{"name":"balanceContainerRoot","type":"bytes32","internalType":"bytes32"},{"name":"proof","type":"bytes","internalType":"bytes"}]},{"name":"proofs","type":"tuple[]","internalType":"struct BeaconChainProofs.BalanceProof[]","components":[{"name":"pubkeyHash","type":"bytes32","internalType":"bytes32"},{"name":"balanceRoot","type":"bytes32","internalType":"bytes32"},{"name":"proof","type":"bytes","internalType":"bytes"}]}],"outputs":[],"stateMutability":"nonpayable"},{"type":"function","name":"verifyStaleBalance","inputs":[{"name":"beaconTimestamp","type":"uint64","internalType":"uint64"},{"name":"stateRootProof","type":"tuple","internalType":"struct BeaconChainProofs.StateRootProof","components":[{"name":"beaconStateRoot","type":"bytes32","internalType":"bytes32"},{"name":"proof","type":"bytes","internalType":"bytes"}]},{"name":"proof","type":"tuple","internalType":"struct BeaconChainProofs.ValidatorProof","components":[{"name":"validatorFields","type":"bytes32[]","internalType":"bytes32[]"},{"name":"proof","type":"bytes","internalType":"bytes"}]}],"outputs":[],"stateMutability":"nonpayable"},{"type":"function","name":"verifyWithdrawalCredentials","inputs":[{"name":"beaconTimestamp","type":"uint64","internalType":"uint64"},{"name":"stateRootProof","type":"tuple","internalType":"struct BeaconChainProofs.StateRootProof","components":[{"name":"beaconStateRoot","type":"bytes32","internalType":"bytes32"},{"name":"proof","type":"bytes","internalType":"bytes"}]},{"name":"validatorIndices","type":"uint40[]","internalType":"uint40[]"},{"name":"validatorFieldsProofs","type":"bytes[]","internalType":"bytes[]"},{"name":"validatorFields","type":"bytes32[][]","internalType":"bytes32[][]"}],"outputs":[],"stateMutability":"nonpayable"},{"type":"function","name":"version","inputs":[],"outputs":[{"name":"","type":"string","internalType":"string"}],"stateMutability":"view"},{"type":"function","name":"withdrawRestakedBeaconChainETH","inputs":[{"name":"recipient","type":"address","internalType":"address"},{"name":"amountWei","type":"uint256","internalType":"uint256"}],"outputs":[],"stateMutability":"nonpayable"},{"type":"function","name":"withdrawableRestakedExecutionLayerGwei","inputs":[],"outputs":[{"name":"","type":"uint64","internalType":"uint64"}],"stateMutability":"view"},{"type":"event","name":"CheckpointCreated","inputs":[{"name":"checkpointTimestamp","type":"uint64","indexed":true,"internalType":"uint64"},{"name":"beaconBlockRoot","type":"bytes32","indexed":true,"internalType":"bytes32"},{"name":"validatorCount","type":"uint256","indexed":false,"internalType":"uint256"}],"anonymous":false},{"type":"event","name":"CheckpointFinalized","inputs":[{"name":"checkpointTimestamp","type":"uint64","indexed":true,"internalType":"uint64"},{"name":"totalShareDeltaWei","type":"int256","indexed":false,"internalType":"int256"}],"anonymous":false},{"type":"event","name":"EigenPodStaked","inputs":[{"name":"pubkey","type":"bytes","indexed":false,"internalType":"bytes"}],"anonymous":false},{"type":"event","name":"Initialized","inputs":[{"name":"version","type":"uint8","indexed":false,"internalType":"uint8"}],"anonymous":false},{"type":"event","name":"NonBeaconChainETHReceived","inputs":[{"name":"amountReceived","type":"uint256","indexed":false,"internalType":"uint256"}],"anonymous":false},{"type":"event","name":"ProofSubmitterUpdated","inputs":[{"name":"prevProofSubmitter","type":"address","indexed":false,"internalType":"address"},{"name":"newProofSubmitter","type":"address","indexed":false,"internalType":"address"}],"anonymous":false},{"type":"event","name":"RestakedBeaconChainETHWithdrawn","inputs":[{"name":"recipient","type":"address","indexed":true,"internalType":"address"},{"name":"amount","type":"uint256","indexed":false,"internalType":"uint256"}],"anonymous":false},{"type":"event","name":"ValidatorBalanceUpdated","inputs":[{"name":"validatorIndex","type":"uint40","indexed":false,"internalType":"uint40"},{"name":"balanceTimestamp","type":"uint64","indexed":false,"internalType":"uint64"},{"name":"newValidatorBalanceGwei","type":"uint64","indexed":false,"internalType":"uint64"}],"anonymous":false},{"type":"event","name":"ValidatorCheckpointed","inputs":[{"name":"checkpointTimestamp","type":"uint64","indexed":true,"internalType":"uint64"},{"name":"validatorIndex","type":"uint40","indexed":true,"internalType":"uint40"}],"anonymous":false},{"type":"event","name":"ValidatorRestaked","inputs":[{"name":"validatorIndex","type":"uint40","indexed":false,"internalType":"uint40"}],"anonymous":false},{"type":"event","name":"ValidatorWithdrawn","inputs":[{"name":"checkpointTimestamp","type":"uint64","indexed":true,"internalType":"uint64"},{"name":"validatorIndex","type":"uint40","indexed":true,"internalType":"uint40"}],"anonymous":false},{"type":"error","name":"BeaconTimestampTooFarInPast","inputs":[]},{"type":"error","name":"CannotCheckpointTwiceInSingleBlock","inputs":[]},{"type":"error","name":"CheckpointAlreadyActive","inputs":[]},{"type":"error","name":"CredentialsAlreadyVerified","inputs":[]},{"type":"error","name":"CurrentlyPaused","inputs":[]},{"type":"error","name":"InputAddressZero","inputs":[]},{"type":"error","name":"InputArrayLengthMismatch","inputs":[]},{"type":"error","name":"InsufficientWithdrawableBalance","inputs":[]},{"type":"error","name":"InvalidEIP4788Response","inputs":[]},{"type":"error","name":"InvalidProof","inputs":[]},{"type":"error","name":"InvalidProofLength","inputs":[]},{"type":"error","name":"InvalidProofLength","inputs":[]},{"type":"error","name":"InvalidPubKeyLength","inputs":[]},{"type":"error","name":"InvalidShortString","inputs":[]},{"type":"error","name":"InvalidValidatorFieldsLength","inputs":[]},{"type":"error","name":"MsgValueNot32ETH","inputs":[]},{"type":"error","name":"NoActiveCheckpoint","inputs":[]},{"type":"error","name":"NoBalanceToCheckpoint","inputs":[]},{"type":"error","name":"OnlyEigenPodManager","inputs":[]},{"type":"error","name":"OnlyEigenPodOwner","inputs":[]},{"type":"error","name":"OnlyEigenPodOwnerOrProofSubmitter","inputs":[]},{"type":"error","name":"StringTooLong","inputs":[{"name":"str","type":"string","internalType":"string"}]},{"type":"error","name":"TimestampOutOfRange","inputs":[]},{"type":"error","name":"ValidatorInactiveOnBeaconChain","inputs":[]},{"type":"error","name":"ValidatorIsExitingBeaconChain","inputs":[]},{"type":"error","name":"ValidatorNotActiveInPod","inputs":[]},{"type":"error","name":"ValidatorNotSlashedOnBeaconChain","inputs":[]},{"type":"error","name":"WithdrawalCredentialsNotForEigenPod","inputs":[]}],"bytecode":{"object":"0x61010060405234610261576131e98038038061001a81610279565b92833981016080828203126102615781516001600160a01b0381168103610261576020830151916001600160a01b0383168303610261576040840151936001600160401b0385168503610261576060810151906001600160401b038211610261570181601f820112156102615780516001600160401b038111610265576100aa601f8201601f1916602001610279565b9181835260208301936020838301011161026157815f926020809301865e83010152601f8151116102255751905160208210610215575b1760805260a05260c05260e0525f5460ff8160081c166101c05760ff80821603610186575b604051612f4a908161029f8239608051816105ab015260a05181818161085b01526109e1015260c0518181816102650152818161046d015281816108ec015281816109a101528181610b4c01528181611007015281816110eb015281816113ca01528181611547015281816119ce0152612bd1015260e051816110710152f35b60ff90811916175f557f7f26b83ff96e1f2b6a682f133852f6798a09c465da95921460cefb3847402498602060405160ff8152a15f610106565b60405162461bcd60e51b815260206004820152602760248201527f496e697469616c697a61626c653a20636f6e747261637420697320696e697469604482015266616c697a696e6760c81b6064820152608490fd5b5f198260200360031b1b166100e1565b60449060405192839163305a27a960e01b8352602060048401525180918160248501528484015e5f828201840152601f01601f19168101030190fd5b5f80fd5b634e487b7160e01b5f52604160045260245ffd5b6040519190601f01601f191682016001600160401b038111838210176102655760405256fe60806040526004361015610022575b3615610018575f80fd5b610020611e54565b005b5f3560e01c8063039157d2146101c15780630b18ff66146101bc5780632340e8d3146101b75780633474aa16146101b25780633f65cf19146101ad57806342ecff2a146101a85780634665bcda146101a357806347d283721461019e57806352396a591461019957806354fd4d5014610194578063587533571461018f57806358eaee791461018a5780636c0d2d5a146101855780636fcd0e53146101805780637439841f1461017b57806374cdd7981461017657806388676cad146101715780639b4e46341461016c578063b522538a14610167578063c490744214610162578063c4d66de81461015d578063d06d558714610158578063dda3346c14610153578063ee94d67c1461014e578063f074ba62146101495763f28824610361000e57611052565b610f98565b610f72565b610eb9565b610d24565b610c2d565b610b19565b610ab7565b61094b565b610894565b610846565b610811565b61078a565b610711565b6106ce565b610620565b610599565b610520565b61049c565b610458565b61042f565b61038a565b610334565b610317565b6102ef565b6101ee565b600435906001600160401b03821682036101dc57565b5f80fd5b908160409103126101dc5790565b346101dc5760603660031901126101dc576102076101c6565b6024356001600160401b0381116101dc576102269036906004016101e0565b6044356001600160401b0381116101dc576102459036906004016101e0565b604051635ac86ab760e01b815260066004820152929091906020846024817f00000000000000000000000000000000000000000000000000000000000000006001600160a01b03165afa9384156102e057610020946102ac915f916102b1575b50156110b5565b6110cb565b6102d3915060203d6020116102d9575b6102cb8183610df8565b810190611095565b5f6102a5565b503d6102c1565b6110aa565b5f9103126101dc57565b346101dc575f3660031901126101dc576033546040516001600160a01b039091168152602090f35b346101dc575f3660031901126101dc576020603954604051908152f35b346101dc575f3660031901126101dc5760206001600160401b0360345416604051908152f35b9181601f840112156101dc578235916001600160401b0383116101dc576020808501948460051b0101116101dc57565b346101dc5760a03660031901126101dc576103a36101c6565b6024356001600160401b0381116101dc576103c29036906004016101e0565b6044356001600160401b0381116101dc576103e190369060040161035a565b6064939193356001600160401b0381116101dc5761040390369060040161035a565b91608435956001600160401b0387116101dc5761042761002097369060040161035a565b969095611389565b346101dc575f3660031901126101dc5760206001600160401b03603a5460401c16604051908152f35b346101dc575f3660031901126101dc576040517f00000000000000000000000000000000000000000000000000000000000000006001600160a01b03168152602090f35b346101dc575f3660031901126101dc575f60806040516104bb81610dbd565b828152826020820152826040820152826060820152015260a06104dc61163f565b6001600160401b036080604051928051845262ffffff6020820151166020850152826040820151166040850152606081015160070b60608501520151166080820152f35b346101dc5760203660031901126101dc576001600160401b036105416101c6565b165f52603b60205260206001600160401b0360405f205416604051908152f35b805180835260209291819084018484015e5f828201840152601f01601f1916010190565b906020610596928181520190610561565b90565b346101dc575f3660031901126101dc577f000000000000000000000000000000000000000000000000000000000000000060ff8116601f81116106115761060d91604051916105e9604084610df8565b60208084528381019190368337835252604051918291602083526020830190610561565b0390f35b632cd44ac360e21b5f5260045ffd5b346101dc575f3660031901126101dc57603e546040516001600160a01b039091168152602090f35b9181601f840112156101dc578235916001600160401b0383116101dc57602083818601950101116101dc57565b60206003198201126101dc57600435906001600160401b0382116101dc5761069f91600401610648565b9091565b600311156106ad57565b634e487b7160e01b5f52602160045260245ffd5b9060038210156106ad5752565b346101dc576106ee6106e96106e236610675565b36916116a7565b61260a565b5f526036602052602060ff60405f205460c01c1661070f60405180926106c1565bf35b346101dc5760203660031901126101dc57602061073461072f6101c6565b611765565b604051908152f35b6107889092919260608060808301956001600160401b0381511684526001600160401b0360208201511660208501526001600160401b03604082015116604085015201519101906106c1565b565b346101dc5760203660031901126101dc576004356107a6611807565b505f52603660205261060d60405f2061080560ff604051926107c784610ddd565b546001600160401b03811684526001600160401b038160401c1660208501526001600160401b038160801c16604085015260c01c16606083016112a1565b6040519182918261073c565b346101dc5760203660031901126101dc576004355f526036602052602060ff60405f205460c01c1661070f60405180926106c1565b346101dc575f3660031901126101dc576040517f00000000000000000000000000000000000000000000000000000000000000006001600160a01b03168152602090f35b801515036101dc57565b346101dc5760203660031901126101dc576004356108b18161088a565b6033546001600160a01b031633148015610937575b6108cf90611373565b604051635ac86ab760e01b815260066004820152906020826024817f00000000000000000000000000000000000000000000000000000000000000006001600160a01b03165afa9182156102e05761002092610932915f916102b15750156110b5565b612294565b50603e546001600160a01b031633146108c6565b60603660031901126101dc576004356001600160401b0381116101dc57610976903690600401610648565b6024356001600160401b0381116101dc57610995903690600401610648565b9290604435936109cf337f00000000000000000000000000000000000000000000000000000000000000006001600160a01b03161461182b565b6801bc16d674ec8000003403610aa8577f00000000000000000000000000000000000000000000000000000000000000006001600160a01b0316610a11612662565b92813b156101dc576801bc16d674ec8000005f94610a47604051998a96879586946304512a2360e31b86528c8c60048801611861565b03925af19283156102e0577f606865b7934a25d4aed43f6cdb426403353fa4b3009c4d228407474581b01e2393610a8e575b50610a89604051928392836118a3565b0390a1005b80610a9c5f610aa293610df8565b806102e5565b5f610a79565b63049696b360e31b5f5260045ffd5b346101dc57610adb6106e9610acb36610675565b610ad3611807565b5036916116a7565b5f52603660205261060d60405f2061080560ff604051926107c784610ddd565b6001600160a01b038116036101dc57565b6044359061078882610afb565b346101dc5760403660031901126101dc57600435610b3681610afb565b6001600160401b03633b9aca00602435610b7a337f00000000000000000000000000000000000000000000000000000000000000006001600160a01b03161461182b565b041690633b9aca00820290828204633b9aca001483151715610c2857610be8610bcc61002094610bc7603454610bbb6001600160401b0382168411156118b4565b6001600160401b031690565b6118ca565b6001600160401b03166001600160401b03196034541617603455565b6040518281526001600160a01b03919091169081907f8947fd2ce07ef9cc302c4e8f0461015615d91ce851564839e91cc804c2f49d8e90602090a261268d565b6114a8565b346101dc5760203660031901126101dc57600435610c4a81610afb565b610c985f5491610c7e610c68610c648560ff9060081c1690565b1590565b80948195610d16575b8115610cf6575b506118ea565b82610c8f600160ff195f5416175f55565b610cdf5761194d565b610c9e57005b610cac61ff00195f54165f55565b604051600181527f7f26b83ff96e1f2b6a682f133852f6798a09c465da95921460cefb3847402498908060208101610a89565b610cf161010061ff00195f5416175f55565b61194d565b303b15915081610d08575b505f610c78565b60ff1660011490505f610d01565b600160ff8216109150610c71565b346101dc5760203660031901126101dc57600435610d4181610afb565b610d5660018060a01b03603354163314611985565b603e54604080516001600160a01b03808416825290931660208401819052927ffb8129080a19d34dceac04ba253fc50304dc86c729bd63cdca4a969ad19a5eac9190a16001600160a01b03191617603e55005b634e487b7160e01b5f52604160045260245ffd5b60a081019081106001600160401b03821117610dd857604052565b610da9565b608081019081106001600160401b03821117610dd857604052565b90601f801991011681019081106001600160401b03821117610dd857604052565b6040519061078860a083610df8565b60405190610788608083610df8565b906107886040519283610df8565b6001600160401b038111610dd85760051b60200190565b9080601f830112156101dc578135610e7381610e45565b92610e816040519485610df8565b81845260208085019260051b8201019283116101dc57602001905b828210610ea95750505090565b8135815260209182019101610e9c565b346101dc5760603660031901126101dc576004356001600160401b0381116101dc57366023820112156101dc57806004013590610ef582610e45565b91610f036040519384610df8565b8083526024602084019160051b830101913683116101dc57602401905b828210610f5857602435846001600160401b0382116101dc57610f4a610020923690600401610e5c565b610f52610b0c565b9161199b565b602080918335610f6781610afb565b815201910190610f20565b346101dc575f3660031901126101dc5760206001600160401b03603a5416604051908152f35b346101dc5760403660031901126101dc576004356001600160401b0381116101dc57610fc89036906004016101e0565b6024356001600160401b0381116101dc57610fe790369060040161035a565b604051635ac86ab760e01b815260076004820152929091906020846024817f00000000000000000000000000000000000000000000000000000000000000006001600160a01b03165afa9384156102e0576100209461104d915f916102b15750156110b5565b611c71565b346101dc575f3660031901126101dc5760206040516001600160401b037f0000000000000000000000000000000000000000000000000000000000000000168152f35b908160209103126101dc57516105968161088a565b6040513d5f823e3d90fd5b156110bc57565b63840a48d560e01b5f5260045ffd5b604051635ac86ab760e01b815260086004820152919291906020826024817f00000000000000000000000000000000000000000000000000000000000000006001600160a01b03165afa80156102e057611218946111376111f892611208955f916102b15750156110b5565b61115361114e6111478780611220565b3691611255565b611e80565b5f5260366020526111dc816111d761116d60405f206112ad565b95611198611188610bbb60408a01516001600160401b031690565b6001600160401b038316116112ff565b6111ba600160608901516111ab816106a3565b6111b4816106a3565b14611315565b61072f6111d26111cd6111478c80611220565b611e8e565b61132b565b611ecd565b35936112126111eb8280611220565b9390926020810190611341565b959094516001600160401b031690565b64ffffffffff1690565b94611fb2565b61078861215a565b903590601e19813603018212156101dc57018035906001600160401b0382116101dc57602001918160051b360383136101dc57565b92919061126181610e45565b9361126f6040519586610df8565b602085838152019160051b81019283116101dc57905b82821061129157505050565b8135815260209182019101611285565b60038210156106ad5752565b906107886040516112bd81610ddd565b606060ff8295546001600160401b03811684526001600160401b038160401c1660208501526001600160401b038160801c16604085015260c01c1691016112a1565b1561130657565b6337e07ffd60e01b5f5260045ffd5b1561131c57565b63d49e19a760e01b5f5260045ffd5b1561133257565b63161ce5ed60e31b5f5260045ffd5b903590601e19813603018212156101dc57018035906001600160401b0382116101dc576020019181360383136101dc57565b1561137a57565b63427a777960e01b5f5260045ffd5b9695949392919060018060a01b036033541633148015611415575b6113ad90611373565b604051635ac86ab760e01b815260026004820152976020896024817f00000000000000000000000000000000000000000000000000000000000000006001600160a01b03165afa9889156102e05761078899611410915f916102b15750156110b5565b6114e5565b50603e546001600160a01b031633146113a4565b1561143057565b6343714afd60e01b5f5260045ffd5b634e487b7160e01b5f52603260045260245ffd5b91908110156114635760051b0190565b61143f565b3564ffffffffff811681036101dc5790565b908210156114635761069f9160051b810190611341565b908210156114635761069f9160051b810190611220565b634e487b7160e01b5f52601160045260245ffd5b9060208201809211610c2857565b9060018201809211610c2857565b91908201809211610c2857565b816111d761152c92999599989496979398848b1480611636575b611510909b9a99989796959b611429565b61072f611188610bbb603a546001600160401b039060401c1690565b5f965f965b8088106115d85750506033546001600160a01b037f000000000000000000000000000000000000000000000000000000000000000081169897501694506115789350505050565b90823b156101dc5760405163a1ca780b60e01b81526001600160a01b0390921660048301525f60248301819052604483019190915290918290818381606481015b03925af180156102e0576115ca5750565b80610a9c5f61078893610df8565b9091929394959697611628600191611622898961161a8e6116108f8b61160a611605858e81953599611453565b611468565b9661147a565b9290918d8d611491565b9490936123b2565b906114d8565b980196959493929190611531565b508487146114ff565b6040519061164c82610dbd565b81603c54815260806001600160401b0380603d5462ffffff81166020860152818160181c1660408601528060581c60070b606086015260981c1616910152565b6001600160401b038111610dd857601f01601f191660200190565b9291926116b38261168c565b916116c16040519384610df8565b8294818452818301116101dc578281602093845f960137010152565b90633b9aca00820291808304633b9aca001490151715610c2857565b600181901b91906001600160ff1b03811603610c2857565b3d1561173b573d906117228261168c565b916117306040519384610df8565b82523d5f602084013e565b606090565b1561174757565b63558ad0a360e01b5f5260045ffd5b908160209103126101dc575190565b6001600160401b0381164203428111610c285762017ff411156117f857604080516001600160401b0390921660208084019182528352610596925f92839291906117af9082610df8565b5190720f3df6d732807ef1319fb7b8bb8522d0beac025afa6117cf611711565b90806117ee575b6117df90611740565b60208082518301019101611756565b50805115156117d6565b637944e66d60e11b5f5260045ffd5b6040519061181482610ddd565b5f6060838281528260208201528260408201520152565b1561183257565b633213a66160e21b5f5260045ffd5b908060209392818452848401375f828201840152601f01601f1916010190565b9695949061189e93611882611890926060979560808c5260808c0191611841565b9089820360208b0152610561565b918783036040890152611841565b930152565b916020610596938181520191611841565b156118bb57565b6302c6f54760e21b5f5260045ffd5b906001600160401b03809116911603906001600160401b038211610c2857565b156118f157565b60405162461bcd60e51b815260206004820152602e60248201527f496e697469616c697a61626c653a20636f6e747261637420697320616c72656160448201526d191e481a5b9a5d1a585b1a5e995960921b6064820152608490fd5b6001600160a01b03168015611976576bffffffffffffffffffffffff60a01b6033541617603355565b6339b190bb60e11b5f5260045ffd5b1561198c57565b63719f370360e11b5f5260045ffd5b91926119b260018060a01b03603354163314611985565b604051635ac86ab760e01b8152600560048201526020816024817f00000000000000000000000000000000000000000000000000000000000000006001600160a01b03165afa80156102e057611a13915f91611b14575b50939193156110b5565b611a208151835114611429565b6040936001600160a01b0316905f5b8151811015611b0c57600190611aec611ad8886001600160a01b03611a548588611b40565b51165f80611a62878c611b40565b518451602081019163a9059cbb60e01b83528c6024830152604482015260448152611a8e606482610df8565b611a9a86519687610df8565b602086527f5361666545524332303a206c6f772d6c6576656c2063616c6c206661696c65646020870152519082855af1611ad2611711565b91612e7f565b8051908115918215611af2575b5050612d69565b01611a2f565b611b059250602080918301019101611095565b5f80611ae5565b505050509050565b611b2d915060203d6020116102d9576102cb8183610df8565b5f611a09565b8051156114635760200190565b80518210156114635760209160051b010190565b15611b5b57565b631a544f4960e01b5f5260045ffd5b91908110156114635760051b81013590605e19813603018212156101dc570190565b62ffffff168015610c28575f190190565b906001600160401b03809116911601906001600160401b038211610c2857565b9060070b9060070b0190677fffffffffffffff198212677fffffffffffffff831317610c2857565b9060038110156106ad57815460ff60c01b191660c09190911b60ff60c01b16179055565b8151815460208401516040808601516001600160401b039094166001600160c01b031990931692909217911b67ffffffffffffffff60401b161760809190911b67ffffffffffffffff60801b1617815560609091015160038110156106ad5761078891611be5565b603a5460401c6001600160401b031693929184611c8f811515611b54565b611c9761163f565b93611ca3848651612767565b5f935f6020870190608088019360608901915b818110611d21575050505050505050611d1c90611d02611ceb61078895966001600160401b03165f52603b60205260405f2090565b91611cfd83546001600160401b031690565b611b9d565b6001600160401b03166001600160401b0319825416179055565b612a67565b611d2c81838a611b6a565b8035998d611d4a611d458d5f52603660205260405f2090565b6112ad565b9260016060850151611d5b816106a3565b611d64816106a3565b03611e47578a611d81610bbb60408701516001600160401b031690565b1015611e4757908392918935611d979285612862565b918951611da69062ffffff1690565b611daf90611b8c565b62ffffff168a528b516001600160401b031690611dcb91611b9d565b6001600160401b03168b52875160070b90611de591611bbd565b60070b8752611df391611b9d565b9a611e06905f52603660205260405f2090565b90611e1091611c09565b5164ffffffffff16877fa91c59033c3423e18b54d0acecebb4972f9ea95aedf5f4cae3b677b02eaf3a3f5f80a36001905b01611cb6565b5050995050600190611e41565b7f6fdd3dbdb173299608c0aa9f368735857c8842b581f8389238bf05bd04b3bf496020604051348152a1565b805115611463576020015190565b8051600310156114635760800151151590565b15611ea857565b6313717da960e21b5f5260045ffd5b15611ebe57565b6309bde33960e01b5f5260045ffd5b9091611f00611ef660208501611ef06060611ee88389611341565b905014611ea1565b85611341565b94359436916116a7565b92600393611f1981518015159081611fa6575b50611ea1565b602092611f2584610e37565b92835283955b82518711611f955760018116611f6b5783515f52868301518552848460405f60026107cf195a01fa156101dc57611f659060011c966114bc565b95611f2b565b868301515f5283518552848460405f60026107cf195a01fa156101dc57611f659060011c966114bc565b509450506107889291505114611eb7565b601f169050155f611f13565b9291909493946008820361212057611fd1916111476105c08814611ea1565b805160011c611fdf81612ce1565b915f5b8281106120ce57505060011c805b61202c575091612022612027949264ffffffffff6120116107889896611b33565b519416600b60291b179436916116a7565b612c41565b611eb7565b5f5b81811061203f575060011c80611ff0565b60205f6120ad612057612051856116f9565b87611b40565b516120a161207561206f61206a886116f9565b6114ca565b89611b40565b51916120936040519384928884019091604092825260208201520190565b03601f198101835282610df8565b604051918280926125f8565b039060025afa156102e0576001905f516120c78286611b40565b520161202e565b60205f6120ff6120e66120e0856116f9565b86611b40565b516120a16120756120f961206a886116f9565b88611b40565b039060025afa156102e0576001905f516121198287611b40565b5201611fe2565b63200591bd60e01b5f5260045ffd5b1561213657565b62be9bc360e81b5f5260045ffd5b1561214b57565b6367db5b8b60e01b5f5260045ffd5b6001600160401b0361219761218a603a54610bbb84612183836001600160401b039060401c1690565b161561212f565b4283169216821415612144565b6121bb6121a9633b9aca004704610bbb565b6034546001600160401b0316906118ca565b907f575796133bbed337e5b39aa49a30dc2556a91e0c6c2af4b7b886ae77ebef107661228f6122796121ec84611765565b61222c6121fd60395462ffffff1690565b96612206610e19565b92835261221c6020840198899062ffffff169052565b6001600160401b03166040830152565b5f60608201525f60808201526122658567ffffffffffffffff60401b603a549160401b169067ffffffffffffffff60401b191617603a55565b61226e81612a67565b51945162ffffff1690565b60405162ffffff90911681529081906020820190565b0390a3565b6001600160401b036122bd61218a603a54610bbb84612183836001600160401b039060401c1690565b6122cf6121a9633b9aca004704610bbb565b9180612319575b61230a577f575796133bbed337e5b39aa49a30dc2556a91e0c6c2af4b7b886ae77ebef107661228f6122796121ec84611765565b6332dea95960e21b5f5260045ffd5b506001600160401b038216156122d6565b1561233157565b6335e09e9d60e01b5f5260045ffd5b1561234757565b631958236d60e21b5f5260045ffd5b1561235d57565b632eade63760e01b5f5260045ffd5b602081519101519060208110612380575090565b5f199060200360031b1b1690565b1561239557565b633772dd5360e11b5f5260045ffd5b5f198114610c285760010190565b92906124b0816001600160401b0396937f0e5fac175b83177cc047381e030d8fb3b42b37bd1c025e22c280facad62c32df95610596996123f661114e36838a611255565b9661242b6060612411611d458b5f52603660205260405f2090565b015161241c816106a3565b612425816106a3565b1561232a565b61244b8b8061244361243e368787611255565b612d13565b161415612340565b61246b8b612465610bbb612460368787611255565b612d2a565b14612356565b61249761248161247c368585611255565b612d41565b61249161248c612662565b61236c565b1461238e565b6124aa6124a5368484611255565b612d52565b99611fb2565b6124c36124be6039546123a4565b603955565b612540603a546124dd816001600160401b039060401c1690565b908782166125f1576001600160401b03169050925b61253b6124fd610e28565b64ffffffffff85168152916001600160401b03881660208401526001600160401b0386166040840152600160608401525f52603660205260405f2090565b611c09565b61258a61255d85611cfd603d546001600160401b039060981c1690565b603d805467ffffffffffffffff60981b191660989290921b67ffffffffffffffff60981b16919091179055565b60405164ffffffffff821681527f2d0800bbc377ea54a08c5db6a87aafff5e3e9c8fead0eda110e40e0c1044144990602090a16040805164ffffffffff9290921682526001600160401b03928316602083015291841691810191909152606090a1166116dd565b50926124f2565b805191908290602001825e015f815290565b6030815103612653575f6126436126316120a16010602095604051938491888301906125f8565b86815203600f19810184520182610df8565b039060025afa156102e0575f5190565b634f88323960e11b5f5260045ffd5b604051600160f81b60208201525f60218201523060601b602c82015260208152610596604082610df8565b814710612722575f918291829182916001600160a01b03165af16126af611711565b50156126b757565b60405162461bcd60e51b815260206004820152603a60248201527f416464726573733a20756e61626c6520746f2073656e642076616c75652c207260448201527f6563697069656e74206d617920686176652072657665727465640000000000006064820152608490fd5b60405162461bcd60e51b815260206004820152601d60248201527f416464726573733a20696e73756666696369656e742062616c616e63650000006044820152606490fd5b9091612783611ef660208501611ef0610100611ee88389611341565b92606c9361279b81518015159081611fa65750611ea1565b6020926127a784610e37565b92835283955b82518711611f9557600181166127ed5783515f52868301518552848460405f60026107cf195a01fa156101dc576127e79060011c966114bc565b956127ad565b868301515f5283518552848460405f60026107cf195a01fa156101dc576127e79060011c966114bc565b600791820b910b0390677fffffffffffffff198212677fffffffffffffff831317610c2857565b8015610c28575f190190565b60070b677fffffffffffffff198114610c28575f0390565b92939190935f945f9461287f61120882516001600160401b031690565b926128a060208301918561289a84516001600160401b031690565b97612dc8565b6001600160401b038616916001600160401b03821692808403612953575b506001600160401b0390911690525b6001600160401b0383166040830152156128ea575b505050929190565b612909919295506060906129026124be60395461283e565b0160029052565b6001600160401b0364ffffffffff612923610bbb8861284a565b951691167f2a02361ffa66cf2c2da4682c2355a6adcaa9f6c227b6e6563e68480f9587626a5f80a35f80806128e2565b6128cd92919a5061296a9060070b8460070b612817565b997f0e5fac175b83177cc047381e030d8fb3b42b37bd1c025e22c280facad62c32df604051806129c1858a8c849160409194936001600160401b03809264ffffffffff606087019816865216602085015216910152565b0390a190916128be565b61255d6080610788928051603c5562ffffff602082015116603d54906affffffffffffffff000000604084015160181b16916affffffffffffffffffffff19161717603d55606081015160070b603d549060581b6001600160401b0360581b16906001600160401b0360581b191617603d5501516001600160401b031690565b90633b9aca00820291808305633b9aca001490151715610c2857565b62ffffff612a7b602083015162ffffff1690565b16612c3857612b72612b696001600160401b03612ae993612b1b610bcc612aaa6034546001600160401b031690565b612b15612b07612acd612ac760808801516001600160401b031690565b84611b9d565b95612b016060612af8604084019d8e516001600160401b031690565b6001600160401b031660070b90565b92015160070b90565b90611bbd565b98516001600160401b031690565b90611b9d565b603a54612b4a9060401c6001600160401b03166001600160401b03166001600160401b0319603a541617603a55565b612b6367ffffffffffffffff60401b19603a5416603a55565b166116dd565b9160070b612a4b565b6001600160401b03612b8c603a546001600160401b031690565b167f525408c201bc1576eb44116f6478f1c2a54775b19a043bcfdc708364f74f8e4460405180612bc185829190602083019252565b0390a26033546001600160a01b037f0000000000000000000000000000000000000000000000000000000000000000811692911691803b156101dc5760405163a1ca780b60e01b81526001600160a01b03909316600484015260248301939093526044820152905f908290818381606481016115b9565b610788906129cb565b9391909293612c5a81518015159081611fa65750611ea1565b602092612c6684610e37565b92835283955b82518711612cd65760018116612cac5783515f52868301518552848460405f60026107cf195a01fa156101dc57612ca69060011c966114bc565b95612c6c565b868301515f5283518552848460405f60026107cf195a01fa156101dc57612ca69060011c966114bc565b509450509050511490565b90612ceb82610e45565b612cf86040519182610df8565b8281528092612d09601f1991610e45565b0190602036910137565b8051600510156114635760c0610596910151612e1a565b8051600610156114635760e0610596910151612e1a565b805160011015611463576040015190565b805160021015611463576060610596910151612e1a565b15612d7057565b60405162461bcd60e51b815260206004820152602a60248201527f5361666545524332303a204552433230206f7065726174696f6e20646964206e6044820152691bdd081cdd58d8d9595960b21b6064820152608490fd5b6105969291612e1461202760c09360206040870191612ded6104e0611ee8858b611341565b612022612e05643fffffffff8860021c16948a611341565b939099013598899336916116a7565b60061b161b5b609881901c66ff0000000000001660a882901c65ff00000000001660e883901c61ff001660f884901c1760d884901c62ff0000161760c884901c63ff000000161764ff0000000060b885901c161717179067ff0000000000000060889190911c161790565b91929015612ee15750815115612e93575090565b3b15612e9c5790565b60405162461bcd60e51b815260206004820152601d60248201527f416464726573733a2063616c6c20746f206e6f6e2d636f6e74726163740000006044820152606490fd5b825190915015612ef45750805190602001fd5b60405162461bcd60e51b8152908190612f109060048301610585565b0390fdfea26469706673582212204c5d04214aebf447e6684817254460b0aef8204f48e5733fe97669abe3fc2b2f64736f6c634300081b0033","linkReferences":{}},"methodIdentifiers":{"GENESIS_TIME()":"f2882461","activeValidatorCount()":"2340e8d3","checkpointBalanceExitedGwei(uint64)":"52396a59","currentCheckpoint()":"47d28372","currentCheckpointTimestamp()":"42ecff2a","eigenPodManager()":"4665bcda","ethPOS()":"74cdd798","getParentBlockRoot(uint64)":"6c0d2d5a","initialize(address)":"c4d66de8","lastCheckpointTimestamp()":"ee94d67c","podOwner()":"0b18ff66","proofSubmitter()":"58753357","recoverTokens(address[],uint256[],address)":"dda3346c","setProofSubmitter(address)":"d06d5587","stake(bytes,bytes,bytes32)":"9b4e4634","startCheckpoint(bool)":"88676cad","validatorPubkeyHashToInfo(bytes32)":"6fcd0e53","validatorPubkeyToInfo(bytes)":"b522538a","validatorStatus(bytes)":"58eaee79","validatorStatus(bytes32)":"7439841f","verifyCheckpointProofs((bytes32,bytes),(bytes32,bytes32,bytes)[])":"f074ba62","verifyStaleBalance(uint64,(bytes32,bytes),(bytes32[],bytes))":"039157d2","verifyWithdrawalCredentials(uint64,(bytes32,bytes),uint40[],bytes[],bytes32[][])":"3f65cf19","version()":"54fd4d50","withdrawRestakedBeaconChainETH(address,uint256)":"c4907442","withdrawableRestakedExecutionLayerGwei()":"3474aa16"},"id":40}